S01200002E2E2F44696E6F47616D652E73313953
S32D0000C0000000002015070100710A0100710A0100710A0100710A0100710A010000000000000000000000000069
S32D0000C02800000000710A0100710A010000000000710A0100710A0100710A0100710A0100710A0100710A01000A
S32D0000C050710A0100710A0100710A0100710A0100710A0100710A0100710A0100710A0100710A0100710A0100EA
S32D0000C078710A0100710A0100710A0100710A0100710A0100710A0100710A0100710A0100710A0100710A0100C2
S32D0000C0A0710A0100710A0100710A0100710A0100710A0100710A0100710A0100710A0100710A0100710A01009A
S32D0000C0C8710A0100710A0100710A0100710A0100710A0100710A0100710A0100710A0100710A0100710A010072
S32D0000C0F0710A0100D55F0100710A0100710A0100710A0100710A0100710A0100710A0100710A0100710A010091
S32D0000C118710A0100710A0100710A0100710A0100710A0100710A0100710A0100710A0100710A0100710A010021
S32D0000C140710A0100710A0100710A0100710A010089350100710A0100710A0100710A0100710A0100710A0100B6
S32D0000C168710A0100710A0100710A0100710A0100710A0100710A0100710A0100710A0100710A0100710A0100D1
S32D0000C190710A0100710A0100710A0100BD31010011300100E5300100C10A010095320100710A0100710A01003A
S32D0000C1B8710A0100710A0100710A0100710A0100710A0100710A0100710A0100710A0100710A0100710A010081
S32D0000C41081F0004102E000BF83F0004330B54FEA41044FEA430594EA050F08BF90EA020F1FBF54EA000C55EAC6
S32D0000C438020C7FEA645C7FEA655C00F0E2804FEA5454D4EB5555B8BF6D420CDD2C4480EA020281EA030382EA0F
S32D0000C460000083EA010180EA020281EA0303362D88BF30BD11F0004F4FEA01314FF4801C4CEA113102D0404263
S32D0000C48861EB410113F0004F4FEA03334CEA133302D0524263EB430394EA050F00F0A780A4F10104D5F1200E8A
S32D0000C4B00DDB02FA0EFC22FA05F2801841F1000103FA0EF2801843FA05F359410EE0A5F120050EF1200E012A2D
S32D0000C4D803FA0EFC28BF4CF0020C43FA05F3C01851EBE37101F0004507D54FF0000EDCF1000C7EEB00006EEB67
S32D0000C5000101B1F5801F1BD3B1F5001F0CD349085FEA30004FEA3C0C04F101044FEA445212F5800F80F09A8000
S32D0000C528BCF1004F08BF5FEA500C50F1000041EB045141EA050130BD5FEA4C0C404141EB010111F4801FA4F114
S32D0000C5500104E9D191F0000F04BF01460020B1FA81F308BF2033A3F10B03B3F120020CDA0C3208DD02F1140C87
S32D0000C578C2F10C0201FA0CF021FA02F10CE002F11402D8BFC2F1200C01FA02F120FA0CFCDCBF41EA0C019040B1
S32D0000C5A0E41AA2BF01EB0451294330BD6FEA04041F3C1CDA0C340EDC04F11404C4F1200220FA04F001FA02F3B6
S32D0000C5C840EA030021FA04F345EA030130BDC4F10C04C4F1200220FA02F001FA04F340EA0300294630BD21FAA8
S32D0000C5F004F0294630BD94F0000F83F4801306BF81F480110134013D4EE77FEA645C18BF7FEA655C29D094EA1C
S32D0000C618050F08BF90EA020F05D054EA000C04BF1946104630BD91EA030F1EBF0021002030BD5FEA545C05D1A3
S32D0000C6404000494128BF41F0004130BD14F580043CBF01F5801130BD01F0004545F0FE4141F470014FF0000031
S32D0000C66830BD7FEA645C1ABF194610467FEA655C1CBF0B46024650EA013406BF52EA033591EA030F41F40021D7
S32D0000C69030BD00BF90F0000F04BF0021704730B54FF4806404F132044FF000054FF0000150E700BF90F0000F66
S32D0000C6B804BF0021704730B54FF4806404F1320410F0004548BF40424FF000013EE700BF42004FEAE2014FEAF9
S32D0000C6E031014FEA02701FBF12F07F4393F07F4F81F06051704792F0000F14BF93F07F4F704730B54FF460741B
S32D0000C70801F0004521F0004120E700BF50EA010208BF704730B54FF000050AE050EA010208BF704730B511F046
S32D0000C730004502D5404261EB41014FF4806404F132045FEA915C3FF4DCAE4FF003025FEADC0C18BF03325FEAA0
S32D0000C758DC0C18BF033202EBDC02C2F1200300FA03FC20FA02F001FA03FE40EA0E0021FA02F11444C1E600BF19
S32D0000C78070B54FF0FF0C4CF4E06C1CEA11541DBF1CEA135594EA0C0F95EA0C0F00F0DEF82C4481EA030621EAF3
S32D0000C7A84C5123EA4C5350EA013518BF52EA033541F4801143F4801338D0A0FB02CE4FF00005E1FB02E506F05F
S32D0000C7D00042E0FB03E54FF00006E1FB03569CF0000F18BF4EF0010EA4F1FF04B6F5007F64F5407404D25FEA0F
S32D0000C7F84E0E6D4146EB060642EAC62141EA55514FEAC52040EA5E504FEACE2EB4F1FD0C88BFBCF5E06F1ED8D2
S32D0000C820BEF1004F08BF5FEA500E50F1000041EB045170BD06F0004646EA010140EA020081EA0301B4EB5C0487
S32D0000C848C2BFD4EB0C0541EA045170BD41F480114FF0000E013C00F3AB8014F1360FDEBF002001F0004170BDF0
S32D0000C870C4F10004203C35DA0C341BDC04F11404C4F1200500FA05F320FA04F001FA05F240EA020001F0004207
S32D0000C89821F0004110EBD37021FA04F642EB06015EEA430E08BF20EAD37070BDC4F10C04C4F1200500FA04F32F
S32D0000C8C020FA05F001FA04F240EA020001F0004110EBD37041F100015EEA430E08BF20EAD37070BDC4F12005C7
S32D0000C8E800FA05F24EEA020E20FA04F301FA05F243EA020321FA04F001F0004121FA04F220EA020000EBD37028
S32D0000C9105EEA430E08BF20EAD37070BD94F0000F0FD101F00046400041EB010111F4801F08BF013CF7D041EA6D
S32D0000C938060195F0000F18BF704703F00046520043EB030313F4801F08BF013DF7D043EA0603704794EA0C0FF1
S32D0000C9600CEA135518BF95EA0C0F0CD050EA410618BF52EA4306D1D181EA030101F000414FF0000070BD50EA38
S32D0000C988410606BF1046194652EA430619D094EA0C0F02D150EA013613D195EA0C0F05D152EA03361CBF10467B
S32D0000C9B019460AD181EA030101F0004141F0FE4141F470014FF0000070BD41F0FE4141F4780170BD70B54FF04D
S32D0000C9D8FF0C4CF4E06C1CEA11541DBF1CEA135594EA0C0F95EA0C0F00F0A7F8A4EB050481EA030E52EA03359B
S32D0000CA004FEA013100F088804FEA03334FF0805545EA131343EA12634FEA022245EA111545EA10654FEA002676
S32D0000CA280EF000419D4208BF964244F1FD0404F5407402D25B084FEA3202B61A65EB03055B084FEA32024FF461
S32D0000CA5080104FF4002CB6EB020E75EB030E22BFB61A754640EA0C005B084FEA3202B6EB020E75EB030E22BF22
S32D0000CA78B61A754640EA5C005B084FEA3202B6EB020E75EB030E22BFB61A754640EA9C005B084FEA3202B6EBEA
S32D0000CAA0020E75EB030E22BFB61A754640EADC0055EA060E18D04FEA051545EA16754FEA06164FEAC30343EAAC
S32D0000CAC852734FEAC2025FEA1C1CC0D111F4801F0BD141EA00014FF000004FF0004CB6E711F4801F04BF0143AE
S32D0000CAF00020B4F1FD0C88BFBCF5E06F3FF6AFAEB5EB030C04BFB6EB020C5FEA500C50F1000041EB045170BDBC
S32D0000CB180EF0004E4EEA113114EB5C04C2BFD4EB0C0541EA045170BD41F480114FF0000E013C90E645EA060EC3
S32D0000CB408DE60CEA135594EA0C0F08BF95EA0C0F3FF43BAF94EA0C0F0AD150EA01347FF434AF95EA0C0F7FF499
S32D0000CB6825AF104619462CE795EA0C0F06D152EA03353FF4FDAE1046194622E750EA410618BF52EA43067FF432
S32D0000CB90C5AE50EA41047FF40DAF52EA43057FF4EBAE12E74A0011D212F5001211D20DD56FF47873B3EB625222
S32D0000CBB80ED44FEAC12343F0004343EA505323FA02F070474FF00000704750EA013002D14FF0FF3070474FF0AC
S32D0000CBE0000070474FEA4102B2F1E04324BFB3F5001CDCF1FE5C0DD901F0004C4FEAC0024CEA5070B2F1004F5A
S32D0000CC0840EB830008BF20F00100704711F0804F21D113F13872BCBF01F00040704741F480114FEA5252C2F198
S32D0000CC301802C2F1200C10FA0CF320FA02F018BF40F001004FEAC1234FEAD32303FA0CFC40EA0C0023FA02F327
S32D0000CC584FEA4303CCE77FEA625307D150EA01331EBF4FF0FE4040F44000704701F0004040F0FE4040F40000C0
S32D0000CC80704700BF80F0004002E000BF81F0004142001FBF5FEA410392EA030F7FEA226C7FEA236C6AD04FEA70
S32D0000CCA81262D2EB1363C1BFD218414048404140B8BF5B42192B88BF704710F0004F40F4000020F07F4018BF44
S32D0000CCD0404211F0004F41F4000121F07F4118BF494292EA030F3FD0A2F1010241FA03FC10EB0C00C3F12003B0
S32D0000CCF801FA03F100F0004302D5494260EB4000B0F5000F13D3B0F1807F06D340084FEA310102F10102FE2A1B
S32D0000CD2051D2B1F1004F40EBC25008BF20F0010040EA03007047490040EB000010F4000FA2F10102EDD1B0FA53
S32D0000CD4880FCACF1080CB2EB0C0200FA0CF0AABF00EBC25052421843BCBFD0401843704792F0000F81F40001F6
S32D0000CD7006BF80F400000132013BB5E74FEA41037FEA226C18BF7FEA236C21D092EA030F04D092F0000F08BF63
S32D0000CD980846704790EA010F1CBF0020704712F07F4F04D1400028BF40F00040704712F100723CBF00F50000D4
S32D0000CDC0704700F0004343F0FE4040F4000070477FEA226216BF08467FEA23630146420206BF5FEA412390EA89
S32D0000CDE8010F40F4800070474FF0000304E000BF10F0004348BF40425FEA000C08BF704743F0964301464FF08C
S32D0000CE1000001CE050EA010208BF70474FF000030AE000BF50EA010208BF704711F0004302D5404261EB41016C
S32D0000CE385FEA010C02BF84460146002043F0B64308BFA3F18053A3F50003BCFA8CF2083AA3EBC25310DB01FA90
S32D0000CE6002FC634400FA02FCC2F12002BCF1004F20FA02F243EB020008BF20F00100704702F1200201FA02FC5B
S32D0000CE88C2F1200250EA4C0021FA02F243EB020008BF20EADC7070474FF0FF0C1CEAD0521EBF1CEAD15392EA19
S32D0000CEB00C0F93EA0C0F6FD01A4480EA010C400218BF5FEA41211ED04FF0006343EA501043EA5111A0FB013150
S32D0000CED80CF00040B1F5000F3EBF490041EAD3715B0040EA010062F17F02FD2A1DD8B3F1004F40EBC25008BF19
S32D0000CF0020F00100704790F0000F0CF0004C08BF49024CEA502040EA51207F3AC2BFD2F1FF0340EAC25070471F
S32D0000CF2840F400004FF00003013A5DDC12F1190FDCBF00F000407047C2F10002410021FA02F1C2F1200200FA71
S32D0000CF5002FC5FEA310040F1000053EA4C0308BF20EADC70704792F0000F00F0004C02BF400010F4000F013A8E
S32D0000CF78F9D040EA0C0093F0000F01F0004C02BF490011F4000F013BF9D041EA0C018FE70CEAD15392EA0C0F3B
S32D0000CFA018BF93EA0C0F0AD030F0004C18BF31F0004CD8D180EA010000F00040704790F0000F17BF90F0004F3B
S32D0000CFC8084691F0000F91F0004F14D092EA0C0F01D142020FD193EA0C0F03D14B0218BF084608D180EA0100FA
S32D0000CFF000F0004040F0FE4040F40000704740F0FE4040F4400070474FF0FF0C1CEAD0521EBF1CEAD15392EAFC
S32D0000D0180C0F93EA0C0F69D0A2EB030280EA010C49024FEA402037D04FF0805343EA111143EA10130CF000401D
S32D0000D0408B4238BF5B0042F17D024FF4000C8B4224BF5B1A40EA0C00B3EB510F24BFA3EB510340EA5C00B3EB60
S32D0000D068910F24BFA3EB910340EA9C00B3EBD10F24BFA3EBD10340EADC001B0118BF5FEA1C1CE0D1FD2A3FF6E5
S32D0000D09050AF8B4240EBC25008BF20F0010070470CF0004C4CEA50207F32C2BFD2F1FF0340EAC250704740F4CE
S32D0000D0B800004FF00003013A37E792F0000F00F0004C02BF400010F4000F013AF9D040EA0C0093F0000F01F011
S32D0000D0E0004C02BF490011F4000F013BF9D041EA0C0195E70CEAD15392EA0C0F08D142027FF47DAF93EA0C0FFA
S32D0000D1087FF470AF084676E793EA0C0F04D14B023FF44CAF08466EE730F0004C18BF31F0004CCAD130F0004284
S32D0000D1307FF45CAF31F000437FF43CAF5FE700BF4FF0FF3C06E000BF4FF0010C02E000BF4FF0010C4DF804CD1E
S32D0000D1584FEA40024FEA41037FEA226C18BF7FEA236C11D001B052EA530C18BF90EA010F58BFB2EB030088BF5F
S32D0000D180C81738BF6FEAE17018BF40F0010070477FEA226C02D15FEA402C05D17FEA236CE4D15FEA412CE1D0D9
S32D0000D1A85DF8040B704700BF844608466146FFE70FB5FFF7C9FF002848BF10F1000F0FBD4DF808EDFFF7F4FF2A
S32D0000D1D00CBF012000205DF808FB00BF4DF808EDFFF7EAFF34BF012000205DF808FB00BF4DF808EDFFF7E0FF9B
S32D0000D1F894BF012000205DF808FB00BF4DF808EDFFF7D2FF94BF012000205DF808FB00BF4DF808EDFFF7C8FFBB
S32D0000D22034BF012000205DF808FB00BF4FEA4002B2F1FE4F0FD34FF09E03B3EB12620DD94FEA002343F000439E
S32D0000D24810F0004F23FA02F018BF404270474FF00000704712F1610F01D1420205D110F0004008BF6FF000404F
S32D0000D27070474FF00000704780B582B000AF4FF001037B6000E000BF00F02AF803463B603B6803F1FF33032B23
S32D0000D298F5D801A252F823F0B9D20000CBD20000D1D20000D7D2000000F076FB03467B607B68012B14BF00239D
S32D0000D2C00123DBB2002BF3D108E001F089FB05E001F03AFB02E001F0CFFB00BFD3E700BF90B585B002AF41F205
S32D0000D2E80440C1F6FF706FF07F4107F037F841F20440C1F6FF7007F011F841F20440C1F6FF704FF0000107F0F8
S32D0000D31051F841F20440C1F6FF7047F20461C0F201014FF064024FF00A0307F057F84FF03703009341F20440FD
S32D0000D338C1F6FF704FF034014FF042024FF0690307F0BCFF4FF03703009341F20440C1F6FF704FF0A2014FF083
S32D0000D36042024FF0690307F0ADFF4FF03703009341F20440C1F6FF704FF034014FF07E024FF0690307F09EFFF2
S32D0000D3884FF03703009341F20440C1F6FF704FF0A2014FF07E024FF0690307F08FFF41F20440C1F6FF706FF001
S32D0000D3B07F4106F0FFFF4FF02D03009341F20440C1F6FF704FF039014FF047024FF05F0307F078FF4FF02D037D
S32D0000D3D8009341F20440C1F6FF704FF0A7014FF047024FF05F0307F069FF4FF02D03009341F20440C1F6FF70E9
S32D0000D4004FF039014FF083024FF05F0307F05AFF4FF02D03009341F20440C1F6FF704FF0A7014FF083024FF047
S32D0000D4285F0307F04BFF41F20440C1F6FF704FF0000106F0BBFF41F20440C1F6FF7047F21061C0F201014FF06C
S32D0000D4503E024FF04C0306F0C1FF41F20440C1F6FF7047F21861C0F201014FF0AC024FF04C0306F0B3FF41F2D1
S32D0000D4780440C1F6FF7047F22061C0F201014FF03E024FF0880306F0A5FF41F20440C1F6FF7047F22861C0F2BA
S32D0000D4A001014FF0AC024FF0880306F097FF00BF07F104023B4641F20440C1F6FF7011461A4607F0C9F8034686
S32D0000D4C8002BF1D100BF07F104023B4641F20440C1F6FF7011461A4607F0BAF8034683F00103DBB2002BEED1D7
S32D0000D4F07B684FF0010214461846DFF88414FFF78BFE0346002B02D14FF000031C46E3B2002B00F081807B68C4
S32D0000D5184FF0010214461846DFF86014FFF75AFE0346002B02D14FF000031C46E3B2002B6ED03B684FF0010284
S32D0000D54014461846DFF84014FFF766FE0346002B02D14FF000031C46E3B2002B5CD03B684FF00102144618460C
S32D0000D568DFF82014FFF736FE0346002B02D14FF000031C46E3B2002B4AD041F20440C1F6FF704FF0FF0106F0C9
S32D0000D59011FF4FF03703009341F20440C1F6FF704FF034014FF042024FF0690307F08AFE41F20440C1F6FF70F6
S32D0000D5B86FF07F4106F0FAFE4FF02D03009341F20440C1F6FF704FF039014FF047024FF05F0307F073FE41F25C
S32D0000D5E00440C1F6FF704FF0FF0106F0E3FE41F20440C1F6FF7047F21061C0F201014FF03E024FF04C0306F09F
S32D0000D608E9FE4FF4FA7005F07FFC4FF00103ADE17B684FF0010214461846DB49FFF7F8FD0346002B02D14FF0AD
S32D0000D63000031C46E3B2002B7DD07B684FF0010214461846D349FFF7C9FD0346002B02D14FF000031C46E3B225
S32D0000D658002B6CD03B684FF0010214461846C849FFF7D6FD0346002B02D14FF000031C46E3B2002B5BD03B684D
S32D0000D6804FF0010214461846C049FFF7A7FD0346002B02D14FF000031C46E3B2002B4AD041F20440C1F6FF707D
S32D0000D6A84FF0FF0106F082FE4FF03703009341F20440C1F6FF704FF0A2014FF042024FF0690307F0FBFD41F2C4
S32D0000D6D00440C1F6FF706FF07F4106F06BFE4FF02D03009341F20440C1F6FF704FF0A7014FF047024FF05F0395
S32D0000D6F807F0E4FD41F20440C1F6FF704FF0FF0106F054FE41F20440C1F6FF7047F21861C0F201014FF0AC0218
S32D0000D7204FF04C0306F05AFE4FF4FA7005F0F0FB4FF002031EE17B684FF00102144618468F49FFF769FD0346D5
S32D0000D748002B02D14FF000031C46E3B2002B7DD07B684FF00102144618468849FFF73AFD0346002B02D14FF0A3
S32D0000D77000031C46E3B2002B6CD03B684FF00102144618468449FFF747FD0346002B02D14FF000031C46E3B206
S32D0000D798002B5BD03B684FF00102144618467D49FFF718FD0346002B02D14FF000031C46E3B2002B4AD041F2A7
S32D0000D7C00440C1F6FF704FF0FF0106F0F3FD4FF03703009341F20440C1F6FF704FF034014FF07E024FF0690325
S32D0000D7E807F06CFD41F20440C1F6FF706FF07F4106F0DCFD4FF02D03009341F20440C1F6FF704FF039014FF0D1
S32D0000D81083024FF05F0307F055FD41F20440C1F6FF704FF0FF0106F0C5FD41F20440C1F6FF7047F23061C0F2CE
S32D0000D83801014FF03E024FF0880306F0CBFD4FF4FA7005F061FB4FF003038FE07B684FF00102144618464C4995
S32D0000D860FFF7DAFC0346002B02D14FF000031C46E3B2002B7DD07B684FF00102144618464449FFF7ABFC034686
S32D0000D888002B02D14FF000031C46E3B2002B6CD03B684FF00102144618463D49FFF7B8FC0346002B02D14FF081
S32D0000D8B000031C46E3B2002B5BD03B684FF00102144618463549FFF789FC0346002B02D14FF000031C46E3B2E4
S32D0000D8D8002B4AD041F20440C1F6FF704FF0FF0106F064FD4FF03703009341F20440C1F6FF704FF0A2014FF0E0
S32D0000D9007E024FF0690307F0DDFC41F20440C1F6FF706FF07F4106F04DFD4FF02D03009341F20440C1F6FF7063
S32D0000D9284FF0A7014FF083024FF05F0307F0C6FC41F20440C1F6FF704FF0FF0106F036FD41F20440C1F6FF702A
S32D0000D95047F22861C0F201014FF0AC024FF0880306F03CFD4FF4FA7005F0D2FA4FF0040300E0FFE7184607F17D
S32D0000D9780C07BD4690BD00BF000064420000184300008E420000E842000027430000834300000343000030437B
S32D0000D9A0B0B598B004AF4FF0000387F823304FF0000387F822304FF0010387F84F304FF08903BB644FF0000365
S32D0000D9C87B644FF496733B644FF00103BB634FF000037B634FF00403FB614FF000033B634FF00003FB6205F0D0
S32D0000D9F0D7FA02460B4610461946A3A3D3E90023FEF7BEFE02460B4610461946FFF7CAF80346184608F068FD0A
S32D0000DA1841F20440C1F6FF706FF07F4106F09EFC41F20440C1F6FF7006F078FC41F20440C1F6FF7047F67F71C3
S32D0000DA40C0F27F0106F0B6FC41F20440C1F6FF7047F24061C0F201014FF09B024FF0730306F0BCFC4FF47A7047
S32D0000DA6805F052FA41F20440C1F6FF7006F056FC41F20440C1F6FF7047F24461C0F201014FF09B024FF07303AA
S32D0000DA9006F0A4FC4FF47A7005F03AFA41F20440C1F6FF7006F03EFC41F20440C1F6FF7047F24861C0F201017C
S32D0000DAB84FF09B024FF0730306F08CFC4FF47A7005F022FA41F20440C1F6FF7006F026FC41F20440C1F6FF70A1
S32D0000DAE047F24C61C0F201014FF098024FF0730306F074FC4FF4FA7005F00AFA41F20440C1F6FF7006F00EFC47
S32D0000DB08EBE2BB6B03F1FF33FA6B0092BA6A01927A6A02921846B96C7A6C3B6C00F0EAFDB86BFEF7C3FD0446A7
S32D0000DB300D4605F035FA02460B4620462946FEF749FF02460B4610461946FFF74BF80346BB614FF000037B6498
S32D0000DB5807F1080207F1040341F20440C1F6FF7011461A4606F074FD034687F8223041F20440C1F6FF704FF0ED
S32D0000DB80000106F017FC97F8223041F20440C1F6FF7019464FF000024FF0190306F0E4FC41F20440C1F6FF7081
S32D0000DBA8B9694FF0DC024FF0D70306F05DFC41F20440C1F6FF7047F25061C0F201014FF08C024FF0000306F068
S32D0000DBD005FC41F20440C1F6FF7047F25C61C0F201014FF08C024FF0190306F0F7FB41F20440C1F6FF70B96B0E
S32D0000DBF84FF0FA024FF0190306F018FC97F82230002B1BD0BB6C4B2B18DD7B684FF00102144618461C49FFF79E
S32D0000DC20DDFA0346002B02D14FF000031C46E3B2002B07D097F84F30002B03D04FF019037B632AE097F822304D
S32D0000DC48002B26D07B684FF00102144618460E49FFF7D4FA0346002B02D14FF000031C46E3B2002B15D0BB6CDE
S32D0000DC70882B0FDC7B6BA3F107037B634FF001037B640AE0AFF300800000000000408F400000F0424FF00103D4
S32D0000DC987B64BB6C4B2B03DD4FF0000387F84F30BA6C7B6BD31ABB64BB6C892B09DD4FF08903BB644FF00003BD
S32D0000DCC07B634FF0010387F84F307A6BFB69D31A7B633A6C3B6BD31A3B64FA6BFB6AD31AFB633B6C002B08DC60
S32D0000DCE84FF496733B644FF000033B634FF00003BB62FB6B002B08DC4FF49673FB634FF00003FB624FF00003E4
S32D0000DD107B62B96B48F68903C8F6880383FB01235B184FEA23124FEAE173D21A13464FEA03139B1A4FEA4303F9
S32D0000DD38CA1A002A40F00C8108F0C2FB024646F26763C6F2666383FB02134FEA23114FEAE273C91A0B464FEA77
S32D0000DD6083035B184FEAC303D31A7B617B69002B1FDB7B69092B1CDC3B6CB3F5967F09D14FF00103BB624FF0DE
S32D0000DD8801033B614FF00A033B63D6E0FB6BB3F5967F40F0D2804FF001037B624FF00103FB604FF00A03FB6221
S32D0000DDB0C7E07B69092B1FDD7B69112B1CDC3B6CB3F5967F09D14FF00203BB624FF002033B614FF00A033B6309
S32D0000DDD8B5E0FB6BB3F5967F40F0B1804FF002037B624FF00203FB604FF00A03FB62A6E07B69112B1FDD7B6915
S32D0000DE00172B1CDC3B6CB3F5967F09D14FF00303BB624FF003033B614FF00A033B6394E0FB6BB3F5967F40F088
S32D0000DE2890804FF003037B624FF00303FB604FF00A03FB6285E07B69172B1EDD7B69192B1BDC3B6CB3F5967F48
S32D0000DE5009D14FF00403BB624FF004033B614FF00A033B6373E0FB6BB3F5967F6FD14FF004037B624FF004037C
S32D0000DE78FB604FF00A03FB6265E07B69192B1EDD7B691B2B1BDC3B6CB3F5967F09D14FF00503BB624FF0050306
S32D0000DEA03B614FF00A033B6353E0FB6BB3F5967F4FD14FF005037B624FF00503FB604FF00A03FB6245E07B69E0
S32D0000DEC81B2B1EDD7B691D2B1BDC3B6CB3F5967F09D14FF00603BB624FF006033B614FF00A033B6333E0FB6BDE
S32D0000DEF0B3F5967F2FD14FF006037B624FF00603FB604FF00A03FB6225E03B6CB3F5967F09D14FF00003BB6234
S32D0000DF184FF000033B614FF000033B6318E0FB6BB3F5967F14D14FF000037B624FF00003FB604FF00003FB62C2
S32D0000DF400AE000BF08E000BF06E000BF04E000BF02E000BF00E000BFFB6B0093BB6A01937B6A0293B86BB96C67
S32D0000DF687A6C3B6C00F080FA3B6C502B03DDFB6B502B00F3A680BB6A012B0AD13B6C03F11903282B05DDBB6C59
S32D0000DF9003F12B03842B00F3AD80BB6A022B0AD13B6C03F12803282B05DDBB6C03F12B03842B00F3A180BB6A19
S32D0000DFB8032B0AD13B6C03F10F03282B05DDBB6C03F12B03912B00F39580BB6A042B0AD13B6C03F12803282BFB
S32D0000DFE005DDBB6C03F12B03842B00F38980BB6A052B09D13B6C03F11E03282B04DDBB6C03F12B03912B7DDCC0
S32D0000E008BB6A062B0CD13B6C03F12D03282B07DDBB6C03F10A035A2B02DD7B6C002B6FD07B6A012B09D1FB6B87
S32D0000E03003F11903282B04DDBB6C03F12B03842B64DC7B6A022B09D1FB6B03F12803282B04DDBB6C03F12B0358
S32D0000E058842B59DC7B6A032B09D1FB6B03F10F03282B04DDBB6C03F12B03912B4EDC7B6A042B09D1FB6B03F1B2
S32D0000E0802803282B04DDBB6C03F12B03842B43DC7B6A052B09D1FB6B03F11E03282B04DDBB6C03F12B03912B59
S32D0000E0A838DC7B6A062B0CD1FB6B03F12D03282B07DDBB6C03F10A035A2B02DD7B6C002B2AD0BB6B03F10103CC
S32D0000E0D0BB634FF0000387F822304FF0140004F017FF97F8233083F00103DBB2002B7FF40CAD16E000BF14E0AE
S32D0000E0F800BF12E000BF10E000BF0EE000BF0CE000BF0AE000BF08E000BF06E000BF04E000BF02E000BF00E06A
S32D0000E12000BF41F20440C1F6FF706FF07F4106F019F941F20440C1F6FF7006F0F3F84FF03703009341F204404D
S32D0000E148C1F6FF704FF034014FF042024FF0690307F0B4F84FF03703009341F20440C1F6FF704FF0A2014FF074
S32D0000E17042024FF0690307F0A5F841F20440C1F6FF706FF07F4106F015F94FF02D03009341F20440C1F6FF709F
S32D0000E1984FF039014FF047024FF05F0307F08EF84FF02D03009341F20440C1F6FF704FF0A7014FF047024FF0ED
S32D0000E1C05F0307F07FF841F20440C1F6FF704FF0000106F0EFF841F20440C1F6FF7047F26461C0F201014FF019
S32D0000E1E83E024FF04C0306F0F5F841F20440C1F6FF7047F26C61C0F201014FF0AC024FF04C0306F0E7F8BB688E
S32D0000E2104FF00102144618468F49FEF7FDFF0346002B02D14FF000031C46E3B2002B7DD0BB684FF00102144666
S32D0000E23818468849FEF7CEFF0346002B02D14FF000031C46E3B2002B6CD07B684FF00102144618468049FEF745
S32D0000E260DBFF0346002B02D14FF000031C46E3B2002B5BD07B684FF00102144618467949FEF7ACFF0346002B2D
S32D0000E28802D14FF000031C46E3B2002B4AD041F20440C1F6FF704FF0FF0106F087F84FF03703009341F2044043
S32D0000E2B0C1F6FF704FF034014FF042024FF0690307F000F841F20440C1F6FF706FF07F4106F070F84FF02D0300
S32D0000E2D8009341F20440C1F6FF704FF039014FF047024FF05F0306F0E9FF41F20440C1F6FF704FF0FF0106F096
S32D0000E30059F841F20440C1F6FF7047F26461C0F201014FF03E024FF04C0306F05FF84FF4FA7004F0F5FD4FF023
S32D0000E32801038FE0BB684FF00102144618464C49FEF76EFF0346002B02D14FF000031C46E3B2002B7DD0BB6825
S32D0000E3504FF00102144618464449FEF73FFF0346002B02D14FF000031C46E3B2002B6CD07B684FF0010214467F
S32D0000E37818463949FEF74CFF0346002B02D14FF000031C46E3B2002B5BD07B684FF00102144618463149FEF735
S32D0000E3A01DFF0346002B02D14FF000031C46E3B2002B4AD041F20440C1F6FF704FF0FF0105F0F8FF4FF037032D
S32D0000E3C8009341F20440C1F6FF704FF0A2014FF042024FF0690306F071FF41F20440C1F6FF706FF07F4105F0D0
S32D0000E3F0E1FF4FF02D03009341F20440C1F6FF704FF0A7014FF047024FF05F0306F05AFF41F20440C1F6FF7084
S32D0000E4184FF0FF0105F0CAFF41F20440C1F6FF7047F27461C0F201014FF0AC024FF04C0305F0D0FF4FF4FA708E
S32D0000E44004F066FD4FF0000300E0FFE7184607F15007BD46B0BD00BF000064420000184300008E420000E84278
S32D0000E468000027430000834380B584B000AFF860B9607A603B6041F20440C1F6FF706FF07F4105F06BFF41F20A
S32D0000E4900440C1F6FF704FF0000105F08BFF41F20440C1F6FF70B96806F038FA41F20440C1F6FF704FF0B401BE
S32D0000E4B84FF0000240F23F1306F03CFE41F20440C1F6FF704FF0B5014FF0000240F23F1306F030FE41F204404F
S32D0000E4E0C1F6FF704FF0B6014FF0000240F23F1306F024FEFA684FF00303C8F200031340002B05DA03F1FF332E
S32D0000E50863F0030303F10103002B1DDBFA684FF00303C8F200031340002B05DA03F1FF3363F0030303F1010339
S32D0000E530012B0DDCBB68892B0AD17B68002B07D1B86847F67F71C0F27F0100F08FFC48E0FA684FF00303C8F28D
S32D0000E55800031340002B05DA03F1FF3363F0030303F10103012B1DDDFA684FF00303C8F200031340002B05DAD7
S32D0000E58003F1FF3363F0030303F10103032B0DDCBB68892B0AD17B68002B07D1B86847F67F71C0F27F0100F0D8
S32D0000E5A8B3FA1AE0BB68882B0ADC7B68002B07D1B86847F67F71C0F27F0100F0FDFD0CE07B68002B09D0BB689D
S32D0000E5D003F10A03184647F67F71C0F27F0100F0ABFFFB69062B41D801A252F823F000BF6DE600000DE6000012
S32D0000E5F81DE600002DE600003DE600004DE600005DE60000386847F67F71C0F27F0101F09FF927E0386847F6DA
S32D0000E6207F71C0F27F0101F0C5FD1FE0386847F67F71C0F27F0101F0EFFB17E0386847F67F71C0F27F0101F037
S32D0000E64853FA0FE0386847F67F71C0F27F0101F07BFC07E0386847F67F71C0F27F0101F007FF00BF3B6A062B8F
S32D0000E67040D801A252F823F0F5E6000095E60000A5E60000B5E60000C5E60000D5E60000E5E60000B86947F659
S32D0000E6987F71C0F27F0101F05BF927E0B86947F67F71C0F27F0101F081FD1FE0B86947F67F71C0F27F0101F087
S32D0000E6C0ABFB17E0B86947F67F71C0F27F0101F00FFA0FE0B86947F67F71C0F27F0101F037FC07E0B86947F63D
S32D0000E6E87F71C0F27F0101F0C3FE00BF07F11007BD4680BD80B584B000AFF860B9607A603B6041F20440C1F6F6
S32D0000E710FF706FF07F4105F025FE41F20440C1F6FF706FF07F4105F045FE41F20440C1F6FF70B96806F0F2F8A3
S32D0000E73841F20440C1F6FF704FF0B4014FF0000240F23F1306F0F6FC41F20440C1F6FF704FF0B5014FF00002A2
S32D0000E76040F23F1306F0EAFC41F20440C1F6FF704FF0B6014FF0000240F23F1306F0DEFCFA684FF00303C8F2A2
S32D0000E78800031340002B05DA03F1FF3363F0030303F10103002B1BDBFA684FF00303C8F200031340002B05DAAA
S32D0000E7B003F1FF3363F0030303F10103012B0BDCBB68892B08D17B68002B05D1B8686FF07F4100F04BFB42E086
S32D0000E7D8FA684FF00303C8F200031340002B05DA03F1FF3363F0030303F10103012B1BDDFA684FF00303C8F256
S32D0000E80000031340002B05DA03F1FF3363F0030303F10103032B0BDCBB68892B08D17B68002B05D1B8686FF0EB
S32D0000E8287F4100F071F916E0BB68882B08DC7B68002B05D1B8686FF07F4100F0BDFC0AE07B68002B07D0BB683A
S32D0000E85003F10A0318466FF07F4100F06DFEFB69062B35D801A252F823F000BFD1E8000089E8000095E80000B9
S32D0000E878A1E80000ADE80000B9E80000C5E8000038686FF07F4101F063F81DE038686FF07F4101F08BFC17E0D0
S32D0000E8A038686FF07F4101F0B7FA11E038686FF07F4101F01DF90BE038686FF07F4101F047FB05E038686FF071
S32D0000E8C87F4101F0D5FD00BF3B6A062B34D801A252F823F041E90000F9E8000005E9000011E900001DE9000005
S32D0000E8F029E9000035E90000B8696FF07F4101F02BF81DE0B8696FF07F4101F053FC17E0B8696FF07F4101F0D1
S32D0000E9187FFA11E0B8696FF07F4101F0E5F80BE0B8696FF07F4101F00FFB05E0B8696FF07F4101F09DFD00BFC4
S32D0000E94007F11007BD4680BD80B582B000AF41F20440C1F6FF706FF07F4105F003FD41F20440C1F6FF7005F001
S32D0000E968DDFC41F20440C1F6FF704FF0000105F01DFD41F20440C1F6FF7047F23061C0F2010105F099FF00BF55
S32D0000E99007F104023B4641F20440C1F6FF7011461A4605F059FE0346002BF1D100BF07F104023B4641F204404F
S32D0000E9B8C1F6FF7011461A4605F04AFE034683F00103DBB2002BEED14FF4967004F09CFA07F10807BD4680BDC6
S32D0000E9E080B582B000AF41F20440C1F6FF706FF07F4105F0B7FC41F20440C1F6FF7005F091FC41F20440C1F642
S32D0000EA08FF704FF0000105F0D1FC41F20440C1F6FF7047F27C61C0F2010105F04DFF00BF07F104023B4641F256
S32D0000EA300440C1F6FF7011461A4605F00DFE0346002BF1D100BF07F104023B4641F20440C1F6FF7011461A46CF
S32D0000EA5805F0FEFD034683F00103DBB2002BEED14FF4967004F050FA07F10807BD4680BD80B582B000AF41F252
S32D0000EA800440C1F6FF706FF07F4105F06BFC41F20440C1F6FF7005F045FC41F20440C1F6FF704FF0000105F0DE
S32D0000EAA885FC41F20440C1F6FF7047F22861C0F2010105F001FF00BF07F104023B4641F20440C1F6FF70114685
S32D0000EAD01A4605F0C1FD0346002BF1D100BF07F104023B4641F20440C1F6FF7011461A4605F0B2FD034683F0DD
S32D0000EAF80103DBB2002BEED14FF4967004F004FA07F10807BD4680BD80B584B002AF786039603B6841F204404E
S32D0000EB20C1F6FF70194605F045FC4FF00F03009341F20440C1F6FF704FF03E017A684FF0120306F0BFFB7B6844
S32D0000EB4803F113034FF00F02009241F20440C1F6FF704FF035011A464FF00D0306F0AEFB7B6803F10F034FF02B
S32D0000EB700202009241F20440C1F6FF704FF03A011A464FF00B0306F09DFB7B6803F111034FF00202009241F29C
S32D0000EB980440C1F6FF704FF038011A464FF00E0306F08CFB7B6803F113034FF00A02009241F20440C1F6FF70D9
S32D0000EBC04FF041011A464FF0040306F07BFB7B6803F11D034FF00302009241F20440C1F6FF704FF041011A4649
S32D0000EBE84FF0020306F06AFB7B6803F113034FF00302009241F20440C1F6FF704FF045011A464FF0040306F0DF
S32D0000EC1059FB7B6803F117034FF00202009241F20440C1F6FF704FF048011A464FF0020306F048FB7B6803F1E3
S32D0000EC3817034FF00202009241F20440C1F6FF704FF032011A464FF0020306F037FB7B6803F118034FF00A02A7
S32D0000EC60009241F20440C1F6FF704FF02F011A464FF0060306F026FB7B6803F122034FF00202009241F20440E1
S32D0000EC88C1F6FF704FF030011A464FF00F0306F015FB7B6803F10F034FF00E02009241F20440C1F6FF704FF06B
S32D0000ECB028011A464FF0020306F004FB7B6803F113034FF00C02009241F20440C1F6FF704FF02A011A464FF002
S32D0000ECD8020306F0F3FA7B6803F116034FF00B02009241F20440C1F6FF704FF02C011A464FF0020306F0E2FAD9
S32D0000ED0041F20440C1F6FF706FF07F4105F052FB4FF00203009341F20440C1F6FF704FF03D017A684FF00203D0
S32D0000ED2806F0CCFA4FF00203009341F20440C1F6FF704FF04F017A684FF0010306F0BEFA7B6803F103034FF00F
S32D0000ED500202009241F20440C1F6FF704FF041011A464FF0020306F0ADFA7B6803F10B034FF00202009241F2B3
S32D0000ED780440C1F6FF704FF047011A464FF0090306F09CFA7B6803F10D034FF00202009241F20440C1F6FF70EC
S32D0000EDA04FF04D011A464FF0030306F08BFA3B6841F20440C1F6FF70194605F0FBFA7B6803F124034FF00402CC
S32D0000EDC8009241F20440C1F6FF704FF032011A464FF0040306F072FA7B6803F124034FF00202009241F204402A
S32D0000EDF0C1F6FF704FF036011A464FF0020306F061FA7B6803F127034FF00302009241F20440C1F6FF704FF0B1
S32D0000EE1832011A464FF0020306F050FA7B6803F12A0341F20440C1F6FF7019464FF034024FF0350306F07EF95C
S32D0000EE407B6803F125034FF00202009241F20440C1F6FF704FF03D011A464FF0050306F031FA07F10807BD46E4
S32D0000EE6880BD00BF80B584B002AF786039603B6841F20440C1F6FF70194605F097FA4FF00F03009341F2044075
S32D0000EE90C1F6FF704FF03E017A684FF0120306F011FA7B6803F113034FF00F02009241F20440C1F6FF704FF0CE
S32D0000EEB835011A464FF00D0306F000FA7B6803F10F034FF00202009241F20440C1F6FF704FF03A011A464FF0E3
S32D0000EEE00B0306F0EFF97B6803F111034FF00202009241F20440C1F6FF704FF038011A464FF00E0306F0DEF9C6
S32D0000EF087B6803F113034FF00A02009241F20440C1F6FF704FF041011A464FF0040306F0CDF97B6803F11D039A
S32D0000EF304FF00302009241F20440C1F6FF704FF041011A464FF0020306F0BCF97B6803F113034FF003020092AD
S32D0000EF5841F20440C1F6FF704FF045011A464FF0040306F0ABF97B6803F117034FF00202009241F20440C1F635
S32D0000EF80FF704FF048011A464FF0020306F09AF97B6803F117034FF00202009241F20440C1F6FF704FF032016A
S32D0000EFA81A464FF0020306F089F97B6803F118034FF00A02009241F20440C1F6FF704FF02F011A464FF006039C
S32D0000EFD006F078F97B6803F122034FF00202009241F20440C1F6FF704FF030011A464FF00F0306F067F97B68E4
S32D0000EFF803F10F034FF00E02009241F20440C1F6FF704FF028011A464FF0020306F056F97B6803F113034FF0EA
S32D0000F0200C02009241F20440C1F6FF704FF02A011A464FF0020306F045F97B6803F116034FF00B02009241F242
S32D0000F0480440C1F6FF704FF02C011A464FF0020306F034F941F20440C1F6FF706FF07F4105F0A4F94FF002036B
S32D0000F070009341F20440C1F6FF704FF03D017A684FF0020306F01EF94FF00203009341F20440C1F6FF704FF0DF
S32D0000F0984F017A684FF0010306F010F97B6803F103034FF00202009241F20440C1F6FF704FF041011A464FF067
S32D0000F0C0020306F0FFF87B6803F10B034FF00202009241F20440C1F6FF704FF047011A464FF0090306F0EEF8CB
S32D0000F0E87B6803F10D034FF00202009241F20440C1F6FF704FF04D011A464FF0030306F0DDF83B6841F204408A
S32D0000F110C1F6FF70194605F04DF97B6803F1240341F20440C1F6FF7019464FF033024FF0360306F003F87B6857
S32D0000F13803F125034FF00202009241F20440C1F6FF704FF035011A464FF0040306F0B6F87B6803F1240341F22B
S32D0000F1600440C1F6FF7019464FF03B024FF03E0305F0E4FF7B6803F125034FF00602009241F20440C1F6FF706F
S32D0000F1884FF03D011A464FF0020306F097F87B6803F129034FF00202009241F20440C1F6FF704FF03F011A465F
S32D0000F1B04FF0020306F086F807F10807BD4680BD80B584B002AF786039603B6841F20440C1F6FF70194605F013
S32D0000F1D8EDF84FF00F03009341F20440C1F6FF704FF03E017A684FF0120306F067F87B6803F113034FF00F025D
S32D0000F200009241F20440C1F6FF704FF035011A464FF00D0306F056F87B6803F10F034FF00202009241F2044014
S32D0000F228C1F6FF704FF03A011A464FF00B0306F045F87B6803F111034FF00202009241F20440C1F6FF704FF09C
S32D0000F25038011A464FF00E0306F034F87B6803F113034FF00A02009241F20440C1F6FF704FF041011A464FF0FE
S32D0000F278040306F023F87B6803F11D034FF00302009241F20440C1F6FF704FF041011A464FF0020306F012F8C1
S32D0000F2A07B6803F113034FF00302009241F20440C1F6FF704FF045011A464FF0040306F001F87B6803F11703D5
S32D0000F2C84FF00202009241F20440C1F6FF704FF048011A464FF0020305F0F0FF7B6803F117034FF002020092D0
S32D0000F2F041F20440C1F6FF704FF032011A464FF0020305F0DFFF7B6803F118034FF00A02009241F20440C1F66D
S32D0000F318FF704FF02F011A464FF0060305F0CEFF7B6803F122034FF00202009241F20440C1F6FF704FF03001A1
S32D0000F3401A464FF00F0305F0BDFF7B6803F10F034FF00E02009241F20440C1F6FF704FF028011A464FF00203CA
S32D0000F36805F0ACFF7B6803F113034FF00C02009241F20440C1F6FF704FF02A011A464FF0020305F09BFF7B68EE
S32D0000F39003F116034FF00B02009241F20440C1F6FF704FF02C011A464FF0020305F08AFF41F20440C1F6FF709C
S32D0000F3B86FF07F4104F0FAFF4FF00203009341F20440C1F6FF704FF03D017A684FF0020305F074FF4FF0020358
S32D0000F3E0009341F20440C1F6FF704FF04F017A684FF0010305F066FF7B6803F103034FF00202009241F2044098
S32D0000F408C1F6FF704FF041011A464FF0020305F055FF7B6803F10B034FF00202009241F20440C1F6FF704FF0AC
S32D0000F43047011A464FF0090305F044FF7B6803F10D034FF00202009241F20440C1F6FF704FF04D011A464FF0FE
S32D0000F458030305F033FF3B6841F20440C1F6FF70194604F0A3FF7B6803F1240341F20440C1F6FF7019464FF0EB
S32D0000F48033024FF0360305F059FE7B6803F125034FF00602009241F20440C1F6FF704FF035011A464FF00203D7
S32D0000F4A805F00CFF7B6803F129034FF00202009241F20440C1F6FF704FF037011A464FF0020305F0FBFE7B68D5
S32D0000F4D003F1240341F20440C1F6FF7019464FF03B024FF03E0305F029FE7B6803F125034FF00602009241F2D4
S32D0000F4F80440C1F6FF704FF03D011A464FF0020305F0DCFE7B6803F129034FF00202009241F20440C1F6FF7017
S32D0000F5204FF03F011A464FF0020305F0CBFE07F10807BD4680BD00BF80B584B002AF786039603B6841F2044031
S32D0000F548C1F6FF70194604F031FF7B6803F103034FF01302009241F20440C1F6FF704FF03A011A464FF0180358
S32D0000F57005F0A8FE4FF00803009341F20440C1F6FF704FF028017A684FF0030305F09AFE7B6803F103034FF020
S32D0000F5980802009241F20440C1F6FF704FF02B011A464FF0020305F089FE7B6803F103034FF00A02009241F294
S32D0000F5C00440C1F6FF704FF02D011A464FF0030305F078FE7B6803F105034FF00B02009241F20440C1F6FF70DC
S32D0000F5E84FF030011A464FF00A0305F067FE7B6803F110034FF00202009241F20440C1F6FF704FF032011A4651
S32D0000F6104FF0080305F056FE7B6803F112034FF00302009241F20440C1F6FF704FF035011A464FF0050305F0C9
S32D0000F63845FE7B6803F101034FF00F02009241F20440C1F6FF704FF052011A464FF01C0305F034FE7B6803F1B9
S32D0000F66010034FF00202009241F20440C1F6FF704FF052011A464FF00F0305F023FE7B6803F112034FF002026F
S32D0000F688009241F20440C1F6FF704FF057011A464FF0110305F012FE7B6803F116034FF00102009241F204409B
S32D0000F6B0C1F6FF704FF04D011A464FF0040305F001FE7B6803F117034FF00102009241F20440C1F6FF704FF03E
S32D0000F6D84D011A464FF0020305F0F0FD7B6803F118034FF00202009241F20440C1F6FF704FF04D011A464FF0A0
S32D0000F700050305F0DFFD7B6803F115034FF00202009241F20440C1F6FF704FF038011A464FF00E0305F0CEFDB9
S32D0000F7287B6803F117034FF00202009241F20440C1F6FF704FF037011A464FF0070305F0BDFD7B6803F1170390
S32D0000F7504FF00202009241F20440C1F6FF704FF03F011A464FF0070305F0ACFD7B6803F119034FF0010200928C
S32D0000F77841F20440C1F6FF704FF037011A464FF0060305F09BFD7B6803F119034FF00202009241F20440C1F624
S32D0000F7A0FF704FF03F011A464FF0040305F08AFD7B6803F11A034FF00202009241F20440C1F6FF704FF037014E
S32D0000F7C81A464FF0040305F079FD7B6803F11B034FF00202009241F20440C1F6FF704FF03F011A464FF0030377
S32D0000F7F005F068FD7B6803F11C034FF00202009241F20440C1F6FF704FF037011A464FF0030305F057FD7B68E1
S32D0000F81803F11E034FF00302009241F20440C1F6FF704FF037011A464FF0020305F046FD7B6803F11F034FF0AF
S32D0000F8400202009241F20440C1F6FF704FF039011A464FF0020305F035FD7B6803F11D034FF00402009241F222
S32D0000F8680440C1F6FF704FF03F011A464FF0020305F024FD7B6803F11F034FF00202009241F20440C1F6FF7064
S32D0000F8904FF041011A464FF0020305F013FD41F20440C1F6FF706FF07F4104F083FD7B6803F101034FF00402D0
S32D0000F8B8009241F20440C1F6FF704FF052011A464FF0020305F0FAFC7B6803F101034FF00302009241F20440AA
S32D0000F8E0C1F6FF704FF054011A464FF0030305F0E9FC7B6803F1010341F20440C1F6FF704FF057011A4605F05D
S32D0000F908EDFB7B6803F101034FF00202009241F20440C1F6FF704FF06C011A464FF0020305F0CCFC7B6803F1B8
S32D0000F93005034FF00302009241F20440C1F6FF704FF059011A464FF0030305F0BBFC07F10807BD4680BD00BF3E
S32D0000F95880B584B002AF786039603B6841F20440C1F6FF70194604F021FD7B6803F108034FF03002009241F22D
S32D0000F9800440C1F6FF7019464FF084024FF0070305F098FC7B6803F112034FF01502009241F20440C1F6FF7088
S32D0000F9A819464FF08A024FF0050305F087FC4FF00F03009341F20440C1F6FF7079684FF08A024FF0070305F0DD
S32D0000F9D079FC7B6803F101034FF00502009241F20440C1F6FF7019464FF096024FF0070305F068FC7B6803F195
S32D0000F9F80F034FF00402009241F20440C1F6FF7019464FF09D024FF0070305F057FC7B6803F103027B6803F1DA
S32D0000FA20070341F20440C1F6FF704FF09B0105F085FB7B6803F10F027B6803F1130341F20440C1F6FF704FF010
S32D0000FA48A10105F077FB41F20440C1F6FF706FF07F4104F0ABFC7B6803F1080341F20440C1F6FF7019464FF013
S32D0000FA70840205F037FB7B6803F10E0341F20440C1F6FF7019464FF0840205F02BFB41F20440C1F6FF70796879
S32D0000FA984FF08A0205F022FB7B6803F1050341F20440C1F6FF7019464FF08A0205F016FB7B6803F1120341F298
S32D0000FAC00440C1F6FF7019464FF08A0205F00AFB7B6803F1160341F20440C1F6FF7019464FF08A0205F0FEFAE6
S32D0000FAE807F10807BD4680BD80B584B002AF786039603B6841F20440C1F6FF70194604F055FC7B6803F1080358
S32D0000FB104FF03002009241F20440C1F6FF7019464FF084024FF0070305F0CCFB7B6803F112034FF0150200922A
S32D0000FB3841F20440C1F6FF7019464FF08A024FF0050305F0BBFB4FF00F03009341F20440C1F6FF7079684FF045
S32D0000FB608A024FF0070305F0ADFB7B6803F101034FF00502009241F20440C1F6FF7019464FF096024FF0070336
S32D0000FB8805F09CFB7B6803F10F034FF00402009241F20440C1F6FF7019464FF09D024FF0070305F08BFB7B6882
S32D0000FBB003F103027B6803F1070341F20440C1F6FF704FF09B0105F0B9FA7B6803F10F027B6803F1130341F225
S32D0000FBD80440C1F6FF704FF0A10105F0ABFA41F20440C1F6FF706FF07F4104F0DFFB7B6803F1080341F2044037
S32D0000FC00C1F6FF7019464FF0840205F06BFA7B6803F10E0341F20440C1F6FF7019464FF0840205F05FFA41F208
S32D0000FC280440C1F6FF7079684FF08A0205F056FA7B6803F1050341F20440C1F6FF7019464FF08A0205F04AFA74
S32D0000FC507B6803F1120341F20440C1F6FF7019464FF08A0205F03EFA7B6803F1160341F20440C1F6FF701946BA
S32D0000FC784FF08A0205F032FA7B6803F119037B603B6841F20440C1F6FF70194604F08EFB7B6803F108034FF067
S32D0000FCA03002009241F20440C1F6FF7019464FF084024FF0070305F005FB7B6803F112034FF01502009241F26C
S32D0000FCC80440C1F6FF7019464FF08A024FF0050305F0F4FA4FF00F03009341F20440C1F6FF7079684FF08A0223
S32D0000FCF04FF0070305F0E6FA7B6803F101034FF00502009241F20440C1F6FF7019464FF096024FF0070305F004
S32D0000FD18D5FA7B6803F10F034FF00402009241F20440C1F6FF7019464FF09D024FF0070305F0C4FA7B6803F181
S32D0000FD4003027B6803F1070341F20440C1F6FF704FF09B0105F0F2F97B6803F10F027B6803F1130341F204400B
S32D0000FD68C1F6FF704FF0A10105F0E4F941F20440C1F6FF706FF07F4104F018FB7B6803F1080341F20440C1F6C1
S32D0000FD90FF7019464FF0840205F0A4F97B6803F10E0341F20440C1F6FF7019464FF0840205F098F941F204407A
S32D0000FDB8C1F6FF7079684FF08A0205F08FF97B6803F1050341F20440C1F6FF7019464FF08A0205F083F97B68D4
S32D0000FDE003F1120341F20440C1F6FF7019464FF08A0205F077F97B6803F1160341F20440C1F6FF7019464FF095
S32D0000FE088A0205F06BF907F10807BD4680BD00BF80B584B002AF786039603B6841F20440C1F6FF70194604F0C3
S32D0000FE30C1FA7B6803F104034FF01802009241F20440C1F6FF7019464FF091024FF0040305F038FA7B6803F10E
S32D0000FE5809034FF00702009241F20440C1F6FF7019464FF095024FF0030305F027FA4FF00A03009341F2044013
S32D0000FE80C1F6FF7079684FF095024FF0030305F019FA7B6803F101034FF00202009241F20440C1F6FF7019467E
S32D0000FEA84FF09E024FF0030305F008FA7B6803F108034FF00302009241F20440C1F6FF7019464FF09A024FF043
S32D0000FED0030305F0F7F97B6803F1010341F20440C1F6FF7019464FF0940205F0FBF87B6803F10A0341F204402A
S32D0000FEF8C1F6FF7019464FF0940205F0EFF841F20440C1F6FF706FF07F4104F04FFA7B6803F1040341F2044058
S32D0000FF20C1F6FF7019464FF0910205F0DBF87B6803F1070341F20440C1F6FF7019464FF0910205F0CFF807F131
S32D0000FF480807BD4680BD00BF80B584B002AF786039603B6841F20440C1F6FF70194604F025FA7B6803F1040362
S32D0000FF704FF01802009241F20440C1F6FF7019464FF091024FF0040305F09CF97B6803F109034FF0070200921D
S32D0000FF9841F20440C1F6FF7019464FF095024FF0030305F08BF94FF00A03009341F20440C1F6FF7079684FF00F
S32D0000FFC095024FF0030305F07DF97B6803F101034FF00202009241F20440C1F6FF7019464FF09E024FF00303FC
S32D0000FFE805F06CF97B6803F108034FF00302009241F20440C1F6FF7019464FF09A024FF0030305F05BF97B6891
S32D0001001003F1010341F20440C1F6FF7019464FF0940205F05FF87B6803F10A0341F20440C1F6FF7019464FF08D
S32D00010038940205F053F841F20440C1F6FF706FF07F4104F0B3F97B6803F1040341F20440C1F6FF7019464FF04E
S32D00010060910205F03FF87B6803F1070341F20440C1F6FF7019464FF0910205F033F87B6803F10F037B603B687C
S32D0001008841F20440C1F6FF70194604F08FF97B6803F104034FF01802009241F20440C1F6FF7019464FF091023A
S32D000100B04FF0040305F006F97B6803F109034FF00702009241F20440C1F6FF7019464FF095024FF0030305F01E
S32D000100D8F5F84FF00A03009341F20440C1F6FF7079684FF095024FF0030305F0E7F87B6803F101034FF00202A2
S32D00010100009241F20440C1F6FF7019464FF09E024FF0030305F0D6F87B6803F108034FF00302009241F204402C
S32D00010128C1F6FF7019464FF09A024FF0030305F0C5F87B6803F1010341F20440C1F6FF7019464FF0940204F0B1
S32D00010150C9FF7B6803F10A0341F20440C1F6FF7019464FF0940204F0BDFF41F20440C1F6FF706FF07F4104F0A3
S32D000101781DF97B6803F1040341F20440C1F6FF7019464FF0910204F0A9FF7B6803F1070341F20440C1F6FF707C
S32D000101A019464FF0910204F09DFF07F10807BD4680BD00BF80B584B002AF786039603B6841F20440C1F6FF709E
S32D000101C8194604F0F3F87B6803F108034FF03002009241F20440C1F6FF7019464FF084024FF0070305F06AF884
S32D000101F07B6803F112034FF01502009241F20440C1F6FF7019464FF08A024FF0050305F059F84FF00F030093D4
S32D0001021841F20440C1F6FF7079684FF08A024FF0070305F04BF87B6803F101034FF00502009241F20440C1F60C
S32D00010240FF7019464FF096024FF0070305F03AF87B6803F10F034FF00402009241F20440C1F6FF7019464FF07F
S32D000102689D024FF0070305F029F87B6803F103027B6803F1070341F20440C1F6FF704FF09B0104F057FF7B6807
S32D0001029003F10F027B6803F1130341F20440C1F6FF704FF0A10104F049FF41F20440C1F6FF706FF07F4104F0E3
S32D000102B87DF87B6803F1080341F20440C1F6FF7019464FF0840204F009FF7B6803F10E0341F20440C1F6FF707E
S32D000102E019464FF0840204F0FDFE41F20440C1F6FF7079684FF08A0204F0F4FE7B6803F1050341F20440C1F6A0
S32D00010308FF7019464FF08A0204F0E8FE7B6803F1120341F20440C1F6FF7019464FF08A0204F0DCFE7B6803F1FB
S32D00010330160341F20440C1F6FF7019464FF08A0204F0D0FE7B6803F119037B603B6841F20440C1F6FF7019468F
S32D0001035804F02CF87B6803F104034FF01802009241F20440C1F6FF7019464FF091024FF0040304F0A3FF7B6808
S32D0001038003F109034FF00702009241F20440C1F6FF7019464FF095024FF0030304F092FF4FF00A03009341F2C6
S32D000103A80440C1F6FF7079684FF095024FF0030304F084FF7B6803F101034FF00202009241F20440C1F6FF70FC
S32D000103D019464FF09E024FF0030304F073FF7B6803F108034FF00302009241F20440C1F6FF7019464FF09A0286
S32D000103F84FF0030304F062FF7B6803F1010341F20440C1F6FF7019464FF0940204F066FE7B6803F10A0341F221
S32D000104200440C1F6FF7019464FF0940204F05AFE41F20440C1F6FF706FF07F4103F0BAFF7B6803F1040341F24A
S32D000104480440C1F6FF7019464FF0910204F046FE7B6803F1070341F20440C1F6FF7019464FF0910204F03AFED7
S32D0001047007F10807BD4680BD80B584B002AF786039603B6841F20440C1F6FF70194603F091FF4FF00D03009387
S32D0001049841F20440C1F6FF7079684FF046024FF0120304F00BFF7B6803F10E034FF00B02009241F20440C1F6EA
S32D000104C0FF7019464FF04B024FF0040304F0FAFE7B6803F111034FF00902009241F20440C1F6FF7019464FF07F
S32D000104E84F024FF0020304F0E9FE7B6803F113034FF01C02009241F20440C1F6FF7019464FF04F024FF00403C7
S32D0001051004F0D8FE7B6803F117034FF01A02009241F20440C1F6FF7019464FF04F024FF0020304F0C7FE7B68A8
S32D0001053803F119034FF01502009241F20440C1F6FF7019464FF04F024FF0030304F0B6FE7B6803F11C034FF0EE
S32D000105601302009241F20440C1F6FF7019464FF04F024FF0020304F0A5FE7B6803F11E034FF01002009241F250
S32D000105880440C1F6FF7019464FF04F024FF0050304F094FE7B6803F123034FF00D02009241F20440C1F6FF70A4
S32D000105B019464FF052024FF0030304F083FE7B6803F126034FF00B02009241F20440C1F6FF7019464FF0540201
S32D000105D84FF0040304F072FE7B6803F12A034FF00902009241F20440C1F6FF7019464FF054024FF0020304F0A1
S32D0001060061FE7B6803F12C034FF00402009241F20440C1F6FF7019464FF059024FF0060304F050FE7B6803F198
S32D000106282C034FF00402009241F20440C1F6FF7019464FF054024FF0070304F03FFE41F20440C1F6FF706FF096
S32D000106507F4103F0AFFE4FF00903009341F20440C1F6FF7079684FF046024FF0020304F029FE7B6803F10203FD
S32D000106784FF00702009241F20440C1F6FF7019464FF046024FF0030304F018FE7B6803F105034FF005020092F0
S32D000106A041F20440C1F6FF7019464FF046024FF0020304F007FE7B6803F107034FF00202009241F20440C1F687
S32D000106C8FF7019464FF046024FF0030304F0F6FD07F10807BD4680BD80B500AF41F2D062C1F6FF7241F2201364
S32D000106F0C1F6FF73D31A194641F22013C1F6FF731A460B4610464FF000011A4605F0FBFE80BD00BF06F064FFED
S32D0001071800F0B0F9FFF7E0FF06F036FF06F0D2FE06F06AFF00F00CF84FF0000041F22011C1F6FF71FCF79CFDAA
S32D000107400346184605F0A4FE80B500AF4FF4E043C4F204034FF4E042C4F2040202F5805202F13802126842F47E
S32D00010768785203F5805303F138031A6000F02EF900F094F841F25033C1F6FF734FF058021A6041F25033C1F632
S32D00010790FF731B684FF47A7202FB03F241F24C33C1F6FF731A6041F24C33C1F6FF731B681A464FF4E043C4F2F5
S32D000107B8040303F5825303F104031B6803F070634FEA136303F10103B2FBF3F31A4641F25433C1F6FF731A6003
S32D000107E04FF4E043C4F204034FF4E042C4F2040202F5805202F13C02126842F0225203F5805303F13C031A6014
S32D000108084FF4E043C4F204034FF4E042C4F2040202F5805202F13002126842F0006203F5805303F130031A6015
S32D000108304FF45043C4F203034FF480721A614FF0640002F035FA4FF45043C4F203034FF45042C4F203025269B6
S32D0001085822F010025A614FF45043C4F203034FF000021A604FF45043C4F203034FF010025A6102F0F5FD02F0D1
S32D000108809DFE41F24830C1F6FF7002F095FA41F20440C1F6FF7003F07DFB41F2883002F037FB80BD80B400AF25
S32D000108A84FF48043C4F206034FF000025A704FF48043C4F206034FF098021A704FF48043C4F206039B79DBB2C3
S32D000108D003F01003002B0CBF00230123DBB2002BF0D14FF48043C4F206039B79DBB203F00C034FEA9303022BD9
S32D000108F80CBF00230123DBB2002BEED14FF48043C4F206034FF018021A714FF48043C4F206034FF000025A71CE
S32D000109204FF4E043C4F2040303F5825303F104034FF00002C0F213121A604FF48043C4F206034FF054025A7106
S32D0001094800BF4FF48043C4F206039B79DBB203F02003002B14BF00230123DBB2002BF0D100BF4FF48043C4F20C
S32D0001097006039B79DBB203F04003002B14BF00230123DBB2002BF0D14FF48043C4F206034FF48042C4F2060232
S32D000109981278D2B202F03F02D2B21A704FF48043C4F206039B79DBB203F00C034FEA9303032B0CBF002301236A
S32D000109C0DBB2002BEED14FF000031846BD4680BC704700BF80B400AF4FF44043C4F204034FF480725A634FF2A3
S32D000109E8C003C4F20F034FF2C002C4F20F02526942F400525A614FF2C003C4F20F034FF2C002C4F20F0212687D
S32D00010A1042F400521A604FF44043C4F2040340F20312C0F20A021A634FF46143CEF200034FF46142CEF200025E
S32D00010A38D2F8882142F08062C3F888214FF46143CEF200034FF46142CEF20002926842F080629A60BD4680BC0B
S32D00010A60704700BF80B483B000AF7860FEE700BF80B400AF00BEBD4680BC704780B400AF4FF0E0224CF2000363
S32D00010A88C0F20003C2F8083D4FF40053C4F205034CF22052DA814FF40053C4F205034DF62812DA814FF400536A
S32D00010AB0C4F205034FF0D2021A80BD4680BC704780B500AF4FF44043C4F20403D3F8A03003F48053002B0CBFF4
S32D00010AD800230123DBB2002B1FD04FF44043C4F204034FF44042C4F20402D2F8A02022F48052C3F8A02041F2DD
S32D00010B008C40C1F6FF7005F049FC4FF2C003C4F20F034FF2C002C4F20F02126822F400521A6080BD80B485B002
S32D00010B2800AF02460B46FA71BB71BB79002B07D141F22413C1F6FF734FF000021A7006E041F22413C1F6FF73B1
S32D00010B504FF001021A704FF03803FB7341F22413C1F6FF731A78FB7B1343FB734FF4C043C4F206034FF4C04219
S32D00010B78C4F206029278D2B242F01002D2B29A704FF4C043C4F206034FF4C042C4F206029278D2B242F0200246
S32D00010BA0D2B29A704FF4C043C4F20603FA7B1A7107F11407BD4680BC704700BF80B483B000AF4FF001037B6097
S32D00010BC804E000BF7B6803F101037B607B68312BCCBF00230123DBB2002BF2D107F10C07BD4680BC704700BF59
S32D00010BF080B582B000AF02460B46FA71BB7141F22513C1F6FF731B7818464FF00001FFF789FF4FF4C043C4F251
S32D00010C180603DB78DBB203F00203002B14BF00230123DBB2002BF0D14FF4C043C4F206034FF4C042C4F2060206
S32D00010C40D278D2B242F00202D2B2DA704FF4C043C4F20603FA791A714FF4C043C4F20603DB78DBB203F00203D3
S32D00010C68002B14BF00230123DBB2002BF0D14FF4C043C4F206034FF4C042C4F20602D278D2B242F00202D2B20F
S32D00010C90DA704FF4C043C4F20603BA791A714FF4C043C4F20603DB78DBB203F00203002B14BF00230123DBB279
S32D00010CB8002BF0D14FF4C043C4F206034FF4C042C4F20602D278D2B242F00202D2B2DA704FF4C043C4F2060342
S32D00010CE04FF4C042C4F206029278D2B222F02002D2B29A704FF4C043C4F206034FF4C042C4F206029278D2B2FC
S32D00010D0822F01002D2B29A70FFF754FF07F10807BD4680BD80B582B000AF0346FB71FB79184600F06BF807F192
S32D00010D300807BD4680BD00BF80B582B000AF02460B46FA71BB7100F039F8FB794FEA4303DBB21846FFF7E2FF6A
S32D00010D58BB791846FFF7DEFF00F03EF807F10807BD4680BD80B500AF4FF0FF0000F046F80346184680BD00BFA7
S32D00010D8080B584B000AF0346FB7100F017F8FB794FEA4303DBB243F00103DBB2DBB21846FFF7BCFFFFF7E2FFC1
S32D00010DA80346FB7300F018F8FB7B184607F11007BD4680BD80B400AF4FF24003C4F20F034FF24002C4F20F02C9
S32D00010DD0926842F480129A60BD4680BC704700BF80B400AF4FF24003C4F20F034FF24002C4F20F02526842F41A
S32D00010DF880125A60BD4680BC704700BF80B485B000AF0346FB714FF00003BB7303E0FB7B03F10103FB734FF48C
S32D00010E204043C4F20A03DB6A4FF00003002BF2D14FF44043C4F20A034FF44042C4F20A02D26A42F00042DA62EC
S32D00010E484FF44043C4F20A03FA795A6300BF4FF44043C4F20A03DB6A03F40033002B14BF00230123DBB2002B0E
S32D00010E70F1D14FF44043C4F20A039B6BBB73BB7B184607F11407BD4680BC70470000000080B582B000AF4FF4DE
S32D00010E98E043C4F204034FF4E042C4F2040202F5805202F13002126842F4805203F5805303F130031A604FF40B
S32D00010EC02043C4F204034FF480721A654FF24003C4F20F034FF24002C4F20F02526942F480125A61FFF77CFFEA
S32D00010EE84FF42043C4F204034FF400725A654FF42043C4F204034FF400729A654FF42043C4F204034FF40072D5
S32D00010F10DA654FF44043C4F20A034FF44062C8F200021A604FF44043C4F20A034FF00502C3F60062DA604FF06C
S32D00010F3800037B6007E04FF0FF00FFF7EBFE7B6803F101037B607B68092BCCBF00230123DBB2002BEFD104A1EC
S32D00010F60D1E9000101F0F0FF07F10807BD4680BD9A9999999999B93F90B486B000AFF860B9607A60FA684FF4D8
S32D00010F882043C4F206039A4214D14FF4E043C4F204034FF4E042C4F2040202F5805202F13402126842F480628F
S32D00010FB003F5805303F134031A6083E0FA684FF43043C4F206039A4214D14FF4E043C4F204034FF4E042C4F269
S32D00010FD8040202F5805202F13402126842F4006203F5805303F134031A6067E0FA684FF44043C4F206039A4266
S32D0001100014D14FF4E043C4F204034FF4E042C4F2040202F5805202F13402126842F4805203F5805303F134032E
S32D000110281A604BE0FA684FF45043C4F206039A4214D14FF4E043C4F204034FF4E042C4F2040202F5805202F13C
S32D000110503402126842F4005203F5805303F134031A602FE0FA684FF42043C4F20E039A4214D14FF4E043C4F20E
S32D0001107804034FF4E042C4F2040202F5805202F12802126842F4806203F5805303F128031A6013E04FF4E043EC
S32D000110A0C4F204034FF4E042C4F2040202F5805202F12802126842F4006203F5805303F128031A60FB68DB7831
S32D000110C8DBB223F00C03DAB2FB68DA70FB684FF000029A70BB684FF47A7202FB03F27B684FEA031392FBF3F37A
S32D000110F09CB2FB681B78DBB223F01F03FB75234603F4F8534FEA2323DBB203F01F03DAB2FB7D1343DAB2FB6846
S32D000111181A70E2B2FB685A70BB684FF4FA4202FB03F27B684FEA031392FBF3F39AB2234619464FEAC121CB1A10
S32D000111404FEA43139BB2D3189CB2FB689B7ADBB223F01F03FB75E3B203F01F03DAB2FB7D1343DAB2FB689A72C2
S32D00011168FB68DB78DBB243F00C03DAB2FB68DA7007F11807BD4690BC704700BF80B483B000AF786000BF7B682E
S32D000111901B79DBB203F02003002B14BF00230123DBB2002BF3D17B68DB79DBB2184607F10C07BD4680BC704715
S32D000111B880B487B000AFF860B9607A60FB687B6107E0BB68DAB27B691A707B6903F101037B617B68002B0CBFCF
S32D000111E000230123DBB27A6802F1FF327A60002BEBD107F11C07BD4680BC704780B584B000AF786039607B68C8
S32D000112081B6BFB60FA683B689A4264D07B681B79002B43D07B685A787B6803F1340310461946FA684FF00103EF
S32D0001123001F0ACFB0346002B0CBF00230123DBB2002B02D04FF001034BE07B684FF000021A717B685A6A7B6840
S32D000112581B6AD218FB689A4220D97B68DB78FB7214E07B681B6AFA68D318FB607B685A787B6803F13403104600
S32D000112801946FA684FF0010301F080FBFB7A03F1FF33FB72FB7A012B94BF00230123DBB2002BE2D13B68002B53
S32D000112A819D07B685A787B6803F13403104619463A684FF0010301F057FA0346002B0CBF00230123DBB2002B51
S32D000112D002D04FF0010304E07B683A681A634FF00003184607F11007BD4680BD80B584B000AF786078684FF0F6
S32D000112F80001FFF77FFF0346FB73FB7B002B40F0AE807B681B78032B40F095807B685B79002B00F090807B68EE
S32D000113204FF000021A637B6803F1340318464FF000014FF40072FFF73FFF7B684FF0550283F832227B684FF0E1
S32D00011348AA0283F833227B684FF0520283F834207B684FF0520283F835207B684FF0610283F836207B684FF0F7
S32D00011370410283F837207B684FF0720283F818227B684FF0720283F819227B684FF0410283F81A227B684FF064
S32D00011398610283F81B227B681B69DAB27B6883F81C227B681B699BB24FEA2323DAB27B6883F81D227B681B69B9
S32D000113C04FEA1343DAB27B6883F81E227B681B694FEA1363DAB27B6883F81F227B68DB68DAB27B6883F82022B2
S32D000113E87B68DB689BB24FEA2323DAB27B6883F821227B68DB684FEA1343DAB27B6883F822227B68DB684FEA75
S32D000114101363DAB27B6883F823227B6859787B6803F134027B685B69084611461A464FF0010301F0ABFA7B68DF
S32D000114384FF000025A717B685B7818464FF000014FF0000201F084FB0346002B0CBF00230123DBB2002B02D064
S32D000114604FF00103FB73FB7B184607F11007BD4680BD00BF80B582B000AF78600B467B807B68002B08D07B68C7
S32D000114881B78002B04D07B68DB887A889A4202D04FF009030FE07B685B78184601F0ECFB034603F00103DBB2BA
S32D000114B0002B02D04FF0030301E04FF00003184607F10807BD4680BD80B586B000AF78607B681A687B689B88A6
S32D000114D810461946FFF7CAFF0346FB75FB7D002B40F0C8807B689B7903F02003002B00F0C1807B689B7903F04A
S32D000115004003002B20D07B681B6859787B6803F128027B689B69084611461A464FF0010301F034FA0346002B64
S32D000115280CBF00230123DBB2002B02D04FF00103A1E07B689B7923F04003DAB27B689A717B681A687B68DB69E1
S32D0001155010461946FFF752FE0346FB75FB7D002B40F08C807B681B6A3B613B6903F10B033A6902F10B02127802
S32D0001157842F02002D2B21A703B6903F11C037A68D268D2B21A703B6903F11D037A68D26892B24FEA2222D2B2E8
S32D000115A01A703B6903F11E037A68D2684FEA1242D2B21A703B6903F11F037A68D2684FEA1262D2B21A703B69ED
S32D000115C803F11A037A681269D2B21A703B6903F11B037A68126992B24FEA2222D2B21A703B6903F114037A6805
S32D000115F012694FEA1242D2B21A703B6903F115037A6812694FEA124292B24FEA2222D2B21A704FF00003FB60B0
S32D000116183B6903F11603FA68D2B21A703B6903F11703FA6892B24FEA2222D2B21A703B6903F11803FA684FEA51
S32D000116401242D2B21A703B6903F11903FA684FEA1262D2B21A707B689B7923F02003DAB27B689A717B681B683B
S32D000116684FF001021A717B681B681846FFF73AFE0346FB75FB7D184607F11807BD4680BD80B584B000AF7860BE
S32D000116907868FFF719FF0346FB73FB7B002B03D17B684FF000021A60FB7B184607F11007BD4680BD80B588B0E3
S32D000116B800AF786039604FF080033B614FF00F03FB604FF0FF337B614FF00203FB612AE04FF00103BB611AE089
S32D000116E0FB69BA6902FB03F33A6802FB03F27B68D31ABB60BB68002B09DBBA687B699A4205D2BB687B61FB6994
S32D000117083B61BB69FB60BB6903F10103BB61BB69102B8CBF00230123DBB2002BDCD1FB694FEA4303FB61FB6966
S32D00011730B3F5807F8CBF00230123DBB2002BCBD14FF48053C4F20B034FF48052C4F20B02D26A22F00802DA62B7
S32D000117584FF48053C4F20B03DB6A1A464FF00F03CFF6F0731340BB614FF48053C4F20B033A694FEA52024FEAB8
S32D0001178002224FEA02424FEA1242F96801F1FF314FEA0111C9B21143BA690A4342F46022DA6203E04FF00A00DF
S32D000117A801F0B2FB4FF48053C4F20B035B6A03F00803002B14BF00230123DBB2002BEDD14FF48053C4F20B0342
S32D000117D04FF48052C4F20B02D26A42F00802DA624FF48053C4F20B034FF48052C4F20B02126B42F480121A63EA
S32D000117F807F12007BD4680BD80B582B000AF786039607B684FF000021A604FF48053C4F20B034FF40042C0F22D
S32D000118200012DA624FF48053C4F20B03DB6A03F08073002B0CBF00230123DBB2002BF1D14FF48053C4F20B03B5
S32D000118484FF00002C3F8C0204FF48053C4F20B034FF481325A604FF48053C4F20B034FF028029A624FF48053B6
S32D00011870C4F20B034FF001125A643B689B6818464CF66041C0F20501FFF714FF4FF48053C4F20B035B6A03F03B
S32D000118980303002B0CBF00230123DBB2002BF1D14FF45043C4F2040340F243421A604FF45043C4F2040340F2DB
S32D000118C043425A604FF45043C4F204034FF488629A604FF45043C4F2040340F24342DA604FF45043C4F20403E9
S32D000118E840F243421A614FF45043C4F2040340F243425A614FF4E043C4F204034FF4E042C4F2040202F580528D
S32D0001191002F13002126842F4003203F5805303F130031A604FF48053C4F20B034FF6FF721A634FF48053C4F25C
S32D000119380B034FF0B302C0F27F025A634FF48053C4F20B034FF48052C4F20B02D26A42F00062DA624FF48053BA
S32D00011960C4F20B03DB6A03F00063002B0CBF00230123DBB2002BF1D14FF48053C4F20B035B6A03F48033002BCE
S32D000119880CBF00230123DBB2002B03D07B684FF001021A604FF48053C4F20B034FF48052C4F20B02126B42F093
S32D000119B080021A634FF00003184607F10807BD4680BD00BF80B400AF4FF48053C4F20B035B6A1A4640F2073315
S32D000119D81340002B0CBF00230123DBB21846BD4680BC704780B485B000AF78604FF48053C4F20B031B6B1A46BF
S32D00011A007B681340FB60FB68002B14BF00230123DBB2002BEED1FB68184607F11407BD4680BC704780B584B0D4
S32D00011A2800AF78607B681B7803F03F0247F24073C0F2010353F82230FB60FB68002B06D17B681B78002B02D0EC
S32D00011A504FF0010330E14FF48053C4F20B034FF48052C4F20B02126B42F080021A634FF48053C4F20B035B6A14
S32D00011A7803F00103DBB2002BF5D14FF48053C4F20B037A6852689A60FB6823F44003FB607B685B784FEA83537D
S32D00011AA003F44003FA681343FB607B685B78022B03D1FB6843F40013FB607B685B78042B16D1FB6803F4403372
S32D00011AC8B3F5003F08D1FB6823F44033FB60FB6843F44033FB6007E0FB6823F44033FB60FB6843F40033FB6028
S32D00011AF04FF48053C4F20B034FF48052C4F20B0252684FEA02424FEA12425A607B68DB68002B32D0FB6803F4EA
S32D00011B184033B3F5403F03D0FB6843F40013FB607B681B7A002B03D0FB6843F01003FB607B68DB68012B03D981
S32D00011B40FB6843F02003FB607B68DB68B3F1FF3F13D04FF48053C4F20B034FF48052C4F20B02526811467A68D2
S32D00011B68D2684FEA02420A435A60FB6843F00203FB604FF48053C4F20B034FF000021A604FF48053C4F20B032B
S32D00011B90FA68DA604FF00100C0F20E00FFF726FF0346012B0CBF00230123DBB2002B10D04FF48053C4F20B0376
S32D00011BB84FF48052C4F20B02126B42F4702242F001021A634FF0010372E04FF48053C4F20B031B6B03F08003C4
S32D00011BE0002B0CBF00230123DBB2002B0ED04FF48053C4F20B034FF48052C4F20B02126B42F001121A634FF0D3
S32D00011C08010355E04FF48053C4F20B031B6B03F48033002B0CBF00230123DBB2002B0ED04FF48053C4F20B03BD
S32D00011C304FF48052C4F20B02126B42F001121A634FF0FF3338E0FB6803F44033002B25D04FF48053C4F20B031E
S32D00011C581B691A467B681A61FB6803F44033B3F5803F17D14FF48053C4F20B035B691A467B685A614FF480534D
S32D00011C80C4F20B039B691A467B689A614FF48053C4F20B03DB691A467B68DA614FF48053C4F20B034FF48052A4
S32D00011CA8C4F20B02126B42F001021A634FF00003184607F11007BD4680BD00BF80B592B000AF786039604FF097
S32D00011CD00003FB633B68BB6341F23C13C1F6FF737B637B6B002B03D140F6012300F0A0BC41F24033C1F6FF73E0
S32D00011CF83B633B6B002B03D140F60B2300F094BC3B6B1B68FB62FB6A002B03D140F60B2300F08ABC7B6841F23C
S32D00011D200432934200F0388241F2043293421BD841F20132934238D041F20132934207D8032B00F03D84092B3E
S32D00011D4800F0298400F066BC41F20232934200F0128241F20332934200F0BE8300F05ABC41F20732934200F058
S32D00011D704B8341F2073293420BD841F20532934200F0348241F20632934200F0108300F045BC41F20832934277
S32D00011D9800F0B68241F20932934200F0C48200F039BC786B47F23471C0F20101FFF724FD0346FB63FB6B002BD2
S32D00011DC040F030844FF0000387F847304FF0000387F82B304FF0000387F82A304FF0000387F829304FF0000345
S32D00011DE887F846304FF0000387F828304FF000033B724FF000037B724FF00003FB604FF000033B744FF00003D0
S32D00011E107B6107F108031846FFF704FE0346002B0CBF00230123DBB2002B03D04FF00103FB63FCE340F24C401F
S32D00011E3801F06AF84FF008033B724FF000037B724FF4D573FB604FF000033B744FF000037B6107F108031846AC
S32D00011E60FFF7E0FD03463B643B6C002B0BD1BA69FB689A4203D04FF00103FB63D7E34FF0010387F846304FF0E3
S32D00011E88010387F8283097F82830002B00F0C6804FF037033B724FF000037B724FF00003FB604FF000033B7425
S32D00011EB04FF000037B6107F108031846FFF7B2FD03463B643B6C002B03D04FF00103FB63ADE34FF069033B72C9
S32D00011ED84FF000037B724FF00003FB604FF000033B744FF000037B6107F108031846FFF795FD0346002B0CBFD8
S32D00011F0000230123DBB2002B03D04FF00103FB638DE3BB6903F44013002B00F083804FF000033B644FF00A0019
S32D00011F2800F0F2FF3B6C03F101033B644FF037033B724FF000037B724FF00003FB604FF000033B744FF0000346
S32D00011F507B6107F108031846FFF764FD0346002B0CBF00230123DBB2002B03D04FF00103FB6336E04FF069035B
S32D00011F783B724FF000037B7297F84630002B05D04FF00003C4F23003FB6002E04FF44013FB604FF000033B740F
S32D00011FA04FF000037B6107F108031846FFF73AFD0346002B0CBF00230123DBB2002B03D04FF00103FB630CE0C8
S32D00011FC8BB69002B05DB3B6C632B02D84FF0010301E04FF00003002BA0D1FB6B002B40F01F833B6C632B04D935
S32D00011FF04FF0000387F8463014E04FF0010387F8473097F84630002B0CD04FF0000387F84630BB6903F0804341
S32D00012018002B03D04FF0010387F8463097F82A30002B03D07B6B4FF007021A6097F82930002B03D07B6B4FF0C9
S32D0001204008021A6097F82B30002B03D07B6B4FF004021A6097F84730002B0BD07B6B4FF002021A6097F84630AC
S32D00012068002B03D07B6B4FF003021A6097F82B30002B0FD097F84730002B0BD07B6B4FF005021A6097F84630FC
S32D00012090002B03D07B6B4FF006021A604FF45043C4F204034FF000021A604FF45043C4F204034FF000025A60A0
S32D000120B84FF45043C4F204034FF000029A604FF45043C4F204034FF00002DA604FF45043C4F204034FF0000249
S32D000120E01A614FF45043C4F204034FF000025A61FB6A9A68FB6A5B6810461946FFF7DAFA4FF45043C4F2040326
S32D0001210840F243421A604FF45043C4F2040340F243425A604FF45043C4F204034FF488629A604FF45043C4F22D
S32D00012130040340F24342DA604FF45043C4F2040340F243421A614FF45043C4F2040340F243425A614FF4E04358
S32D00012158C4F204034FF4E042C4F2040202F5805202F13002126842F4003203F5805303F130031A6057E2B86BE2
S32D00012180FFF750FC03463B643B6C002B00F04E824FF00203FB6349E2BB6B002B03D14FF00C03FB6343E24FF46E
S32D000121A88053C4F20B03DB6A03F47F434FEA13234FEA43033B644FF48053C4F20B03DB6A03F0F0034FEA131382
S32D000121D003F101023B6C02FB03F33B64FB6A9A683B6CB2FBF3F2BB6B1A6020E2BB6B002B03D14FF00C03FB639D
S32D000121F819E2BB6B1B68002B03D14FF00C03FB6311E2FFF7DBFB0346002B14BF00230123DBB2002B70D04FF4E1
S32D000122205043C4F204034FF000021A604FF45043C4F204034FF000025A604FF45043C4F204034FF000029A6028
S32D000122484FF45043C4F204034FF00002DA604FF45043C4F204034FF000021A614FF45043C4F204034FF0000236
S32D000122705A61FB6A9A68BB6B1B6810461946FFF719FA4FF45043C4F2040340F243421A604FF45043C4F204035F
S32D0001229840F243425A604FF45043C4F204034FF488629A604FF45043C4F2040340F24342DA604FF45043C4F2DC
S32D000122C0040340F243421A614FF45043C4F2040340F243425A614FF4E043C4F204034FF4E042C4F2040202F576
S32D000122E8805202F13002126842F4003203F5805303F130031A6096E140F60A23FB6392E1BB6B002B03D14FF073
S32D000123100C03FB638BE14FF48053C4F20B035B684FEAC3434FEAD343BA6B13607FE1BB6B002B03D14FF00C032F
S32D00012338FB6378E1FFF742FB0346002B14BF00230123DBB2002B2AD0BB6B1A6840F6FF739A4203D94FF00C03F6
S32D00012360FB6364E14FF48053C4F20B034FF48052C4F20B02526822F4FE5222F03F025A604FF48053C4F20B03F2
S32D000123884FF48052C4F20B0252681146BA6B12684FEAC2424FEAD2420A435A6043E140F60A23FB633FE1BB6BE2
S32D000123B0002B03D14FF00C03FB6338E14FF48053C4F20B039B6A03F006034FEA53033B643B6C002B04D1BB6B64
S32D000123D84FF000021A6026E13B6C012B04D1BB6B4FF001021A601EE13B6C102B04D1BB6B4FF002021A6016E1FA
S32D000124004FF00503FB6312E1BB6B002B03D14FF00C03FB630BE1FFF7D5FA0346002B14BF00230123DBB2002B4D
S32D0001242856D0BB6B1B68002B16D14FF48053C4F20B034FF48052C4F20B02926A22F006029A624FF48053C4F214
S32D000124500B034FF48052C4F20B02926A9A62E6E0BB6B1B68012B18D14FF48053C4F20B034FF48052C4F20B0249
S32D00012478926A22F006029A624FF48053C4F20B034FF48052C4F20B02926A42F002029A62C9E0BB6B1B68022BC4
S32D000124A016D14FF48053C4F20B034FF48052C4F20B02926A22F006029A624FF48053C4F20B034FF48052C4F2BD
S32D000124C80B02926A9A62AEE04FF00503FB63AAE040F60A23FB63A6E0BB6B002B03D14FF00C03FB639FE04FF449
S32D000124F08053C4F20B034FF48052C4F20B02D26A42F00062DA624FF48053C4F20B03DB6A03F00063002B0CBFD7
S32D0001251800230123DBB2002BF1D14FF48053C4F20B031B6B03F08003002B0CBF00230123DBB2002B0FD04FF4E6
S32D000125408053C4F20B034FF48052C4F20B02126B42F080021A637B6B4FF000021A604FF48053C4F20B035B6A0F
S32D0001256803F48033002B0CBF00230123DBB2002B08D07B6B1B68002B08D17B6B4FF001021A6003E07B6B4FF0B6
S32D0001259000021A607B6B1A68BB6B1A6047E0BB6B4FF01C021A60BB6B03F104034FF004021A60BB6B03F108036F
S32D000125B84FF41E721A6036E04FF00200FFF712FA4FF48053C4F20B031B6B03F4E003002B0CBF00230123DBB24A
S32D000125E0002B0ED04FF48053C4F20B034FF48052C4F20B02126B42F4E0021A634FF00403FB634FF48053C4F28F
S32D000126080B034FF48052C4F20B02126B42F032021A6308E040F60923FB6304E000BF02E000BF00E000BFFB6B6C
S32D00012630184607F14807BD4680BD00BF80B489B000AF786039607B687B6141F23C13C1F6FF733B613B69002B75
S32D0001265802D14FF0000381E03B691B68022B0BD03B691B68032B07D03B691B68072B03D03B691B68082B0DD11E
S32D000126804FF48053C4F20B035B6A03F00403002B0CBF00230123DBB2002BF1D13B68FB6156E0FB69B3F5007F1B
S32D000126A828BF4FF40073FB60FB6803F103034FEA9303BB613CE04FF48053C4F20B031B6B03F4E003002B0CBF77
S32D000126D000230123DBB2002B10D04FF48053C4F20B034FF48052C4F20B02126B42F4E00242F020021A634FF0A5
S32D000126F8000333E04FF48053C4F20B035B6A03F40063002B14BF00230123DBB2002BF1D14FF48053C4F20B030B
S32D000127201B6A1A467B691A607B6903F104037B61BB6903F1FF33BB61BB69002B0CBF00230123DBB2002BBAD182
S32D00012748FA69FB68D31AFB61FB69002B0CBF00230123DBB2002BA0D14FF00103184607F12407BD4680BC7047CF
S32D0001277080B58EB000AFB9607A600246FA73BB7341F22813C1F6FF737B63FB7B002B02D1BB7B002B02D14FF0E6
S32D00012798040381E040F20043C1F6FF731B78DBB203F00103DBB2002B02D04FF0030373E0BB68002B02D14FF073
S32D000127C000036DE07B6B1B7B002B03D17B684FEA43237B60BB7B012B2CD14FF011033B754FF000037B757B684B
S32D000127E8BB614FF001033B77BB7B3B6207F1140341F202301946FFF761FA0346002B14BF00230123DBB2002B74
S32D000128103ED0B8684FF40071FFF710FF0346002B0CBF00230123DBB2002B31D04FF00003BB732DE04FF01203A2
S32D000128383B754FF000037B757B68BB614FF001033B77BB7B3B6207F1140341F202301946FFF734FA0346002B5D
S32D0001286014BF00230123DBB2002B11D0BB7B4FEA4323B8681946FFF7E1FE0346002B0CBF00230123DBB2002B2F
S32D0001288802D04FF00003BB73BB7B002B02D04FF0010301E04FF00003184607F13807BD4680BD00BF80B487B047
S32D000128B000AF786039607B68FB603B687B6155E07B69B3F5007F28BF4FF400733B617A693B69D31A7B613B69AF
S32D000128D803F103034FEA93033B613BE04FF48053C4F20B031B6B03F4E003002B0CBF00230123DBB2002B10D042
S32D000129004FF48053C4F20B034FF48052C4F20B02126B42F4E00242F010021A634FF0FF332EE04FF48053C4F255
S32D000129280B035B6A03F48063002B14BF00230123DBB2002BF1D14FF48053C4F20B03FA6812681A62FB6803F18B
S32D000129500403FB603B6903F1FF333B613B69002B0CBF00230123DBB2002BBBD17B69002B0CBF00230123DBB2BD
S32D00012978002BA1D14FF00103184607F11C07BD4680BC704780B58EB000AFB9607A600246FA73BB7341F228137B
S32D000129A0C1F6FF737B63FB7B002B02D1BB7B002B02D14FF00403CAE040F20043C1F6FF731B78DBB203F00103B4
S32D000129C8DBB2002B02D04FF00303BCE040F20043C1F6FF731B78DBB203F00403002B0CBF00230123DBB2002BC8
S32D000129F002D04FF00203AAE0BB68002B02D14FF00003A4E07B6B1B7B002B03D17B684FEA43237B60BB7B012BF7
S32D00012A182CD14FF018033B754FF000037B757B68BB614FF000033B77BB7B3B6207F1140341F202301946FFF7C7
S32D00012A4041F90346002B14BF00230123DBB2002B3ED0B8684FF40071FFF728FF0346002B0CBF00230123DBB2D5
S32D00012A68002B31D04FF00003BB732DE04FF019033B754FF000037B757B68BB614FF000033B77BB7B3B6207F19B
S32D00012A90140341F202301946FFF714F90346002B14BF00230123DBB2002B11D0BB7B4FEA4323B8681946FFF7C8
S32D00012AB8F9FE0346002B0CBF00230123DBB2002B02D04FF00003BB734FF00D033B754FF000037B757B6B1B69DD
S32D00012AE0BB614FF000033B774FF000033B6207F1140341F202301946FFF7E4F80346002B0CBF00230123DBB220
S32D00012B08002B02D04FF001031DE07A6A48F20803CFF6D9731340002B02D04FF0010312E07B6A03F4F853B3F5D3
S32D00012B30106F0CBF00230123DBB2002BC8D1BB7B002B02D04FF0010301E04FF00003184607F13807BD4680BD26
