S01200002E2E2F44696E6F47616D652E73313953
S32D0000C0000000002009170600651A0600651A0600651A0600651A0600651A060000000000000000000000000033
S32D0000C02800000000651A0600651A060000000000651A0600651A0600651A0600651A0600651A0600651A0600C2
S32D0000C050651A0600651A0600651A0600651A0600651A0600651A0600651A0600651A0600651A0600651A060090
S32D0000C078651A0600651A0600651A0600651A0600651A0600651A0600651A0600651A0600651A0600651A060068
S32D0000C0A0651A0600651A0600651A0600651A0600651A0600651A0600651A0600651A0600651A0600651A060040
S32D0000C0C8651A0600651A0600651A0600651A0600651A0600651A0600651A0600651A0600651A0600651A060018
S32D0000C0F0651A06001D6E0600651A0600651A0600651A0600651A0600651A0600651A0600651A0600651A0600E4
S32D0000C118651A0600651A0600651A0600651A0600651A0600651A0600651A0600651A0600651A0600651A0600C7
S32D0000C140651A0600651A0600651A0600651A06004D450600651A0600651A0600651A0600651A0600651A06008C
S32D0000C168651A0600651A0600651A0600651A0600651A0600651A0600651A0600651A0600651A0600651A060077
S32D0000C190651A0600651A0600651A060081410600D53F0600A9400600B51A060059420600651A0600651A0600A1
S32D0000C1B8651A0600651A0600651A0600651A0600651A0600651A0600651A0600651A0600651A0600651A060027
S32D0000C41081F0004102E000BF83F0004330B54FEA41044FEA430594EA050F08BF90EA020F1FBF54EA000C55EAC6
S32D0000C438020C7FEA645C7FEA655C00F0E2804FEA5454D4EB5555B8BF6D420CDD2C4480EA020281EA030382EA0F
S32D0000C460000083EA010180EA020281EA0303362D88BF30BD11F0004F4FEA01314FF4801C4CEA113102D0404263
S32D0000C48861EB410113F0004F4FEA03334CEA133302D0524263EB430394EA050F00F0A780A4F10104D5F1200E8A
S32D0000C4B00DDB02FA0EFC22FA05F2801841F1000103FA0EF2801843FA05F359410EE0A5F120050EF1200E012A2D
S32D0000C4D803FA0EFC28BF4CF0020C43FA05F3C01851EBE37101F0004507D54FF0000EDCF1000C7EEB00006EEB67
S32D0000C5000101B1F5801F1BD3B1F5001F0CD349085FEA30004FEA3C0C04F101044FEA445212F5800F80F09A8000
S32D0000C528BCF1004F08BF5FEA500C50F1000041EB045141EA050130BD5FEA4C0C404141EB010111F4801FA4F114
S32D0000C5500104E9D191F0000F04BF01460020B1FA81F308BF2033A3F10B03B3F120020CDA0C3208DD02F1140C87
S32D0000C578C2F10C0201FA0CF021FA02F10CE002F11402D8BFC2F1200C01FA02F120FA0CFCDCBF41EA0C019040B1
S32D0000C5A0E41AA2BF01EB0451294330BD6FEA04041F3C1CDA0C340EDC04F11404C4F1200220FA04F001FA02F3B6
S32D0000C5C840EA030021FA04F345EA030130BDC4F10C04C4F1200220FA02F001FA04F340EA0300294630BD21FAA8
S32D0000C5F004F0294630BD94F0000F83F4801306BF81F480110134013D4EE77FEA645C18BF7FEA655C29D094EA1C
S32D0000C618050F08BF90EA020F05D054EA000C04BF1946104630BD91EA030F1EBF0021002030BD5FEA545C05D1A3
S32D0000C6404000494128BF41F0004130BD14F580043CBF01F5801130BD01F0004545F0FE4141F470014FF0000031
S32D0000C66830BD7FEA645C1ABF194610467FEA655C1CBF0B46024650EA013406BF52EA033591EA030F41F40021D7
S32D0000C69030BD00BF90F0000F04BF0021704730B54FF4806404F132044FF000054FF0000150E700BF90F0000F66
S32D0000C6B804BF0021704730B54FF4806404F1320410F0004548BF40424FF000013EE700BF42004FEAE2014FEAF9
S32D0000C6E031014FEA02701FBF12F07F4393F07F4F81F06051704792F0000F14BF93F07F4F704730B54FF460741B
S32D0000C70801F0004521F0004120E700BF50EA010208BF704730B54FF000050AE050EA010208BF704730B511F046
S32D0000C730004502D5404261EB41014FF4806404F132045FEA915C3FF4DCAE4FF003025FEADC0C18BF03325FEAA0
S32D0000C758DC0C18BF033202EBDC02C2F1200300FA03FC20FA02F001FA03FE40EA0E0021FA02F11444C1E600BF19
S32D0000C78070B54FF0FF0C4CF4E06C1CEA11541DBF1CEA135594EA0C0F95EA0C0F00F0DEF82C4481EA030621EAF3
S32D0000C7A84C5123EA4C5350EA013518BF52EA033541F4801143F4801338D0A0FB02CE4FF00005E1FB02E506F05F
S32D0000C7D00042E0FB03E54FF00006E1FB03569CF0000F18BF4EF0010EA4F1FF04B6F5007F64F5407404D25FEA0F
S32D0000C7F84E0E6D4146EB060642EAC62141EA55514FEAC52040EA5E504FEACE2EB4F1FD0C88BFBCF5E06F1ED8D2
S32D0000C820BEF1004F08BF5FEA500E50F1000041EB045170BD06F0004646EA010140EA020081EA0301B4EB5C0487
S32D0000C848C2BFD4EB0C0541EA045170BD41F480114FF0000E013C00F3AB8014F1360FDEBF002001F0004170BDF0
S32D0000C870C4F10004203C35DA0C341BDC04F11404C4F1200500FA05F320FA04F001FA05F240EA020001F0004207
S32D0000C89821F0004110EBD37021FA04F642EB06015EEA430E08BF20EAD37070BDC4F10C04C4F1200500FA04F32F
S32D0000C8C020FA05F001FA04F240EA020001F0004110EBD37041F100015EEA430E08BF20EAD37070BDC4F12005C7
S32D0000C8E800FA05F24EEA020E20FA04F301FA05F243EA020321FA04F001F0004121FA04F220EA020000EBD37028
S32D0000C9105EEA430E08BF20EAD37070BD94F0000F0FD101F00046400041EB010111F4801F08BF013CF7D041EA6D
S32D0000C938060195F0000F18BF704703F00046520043EB030313F4801F08BF013DF7D043EA0603704794EA0C0FF1
S32D0000C9600CEA135518BF95EA0C0F0CD050EA410618BF52EA4306D1D181EA030101F000414FF0000070BD50EA38
S32D0000C988410606BF1046194652EA430619D094EA0C0F02D150EA013613D195EA0C0F05D152EA03361CBF10467B
S32D0000C9B019460AD181EA030101F0004141F0FE4141F470014FF0000070BD41F0FE4141F4780170BD70B54FF04D
S32D0000C9D8FF0C4CF4E06C1CEA11541DBF1CEA135594EA0C0F95EA0C0F00F0A7F8A4EB050481EA030E52EA03359B
S32D0000CA004FEA013100F088804FEA03334FF0805545EA131343EA12634FEA022245EA111545EA10654FEA002676
S32D0000CA280EF000419D4208BF964244F1FD0404F5407402D25B084FEA3202B61A65EB03055B084FEA32024FF461
S32D0000CA5080104FF4002CB6EB020E75EB030E22BFB61A754640EA0C005B084FEA3202B6EB020E75EB030E22BF22
S32D0000CA78B61A754640EA5C005B084FEA3202B6EB020E75EB030E22BFB61A754640EA9C005B084FEA3202B6EBEA
S32D0000CAA0020E75EB030E22BFB61A754640EADC0055EA060E18D04FEA051545EA16754FEA06164FEAC30343EAAC
S32D0000CAC852734FEAC2025FEA1C1CC0D111F4801F0BD141EA00014FF000004FF0004CB6E711F4801F04BF0143AE
S32D0000CAF00020B4F1FD0C88BFBCF5E06F3FF6AFAEB5EB030C04BFB6EB020C5FEA500C50F1000041EB045170BDBC
S32D0000CB180EF0004E4EEA113114EB5C04C2BFD4EB0C0541EA045170BD41F480114FF0000E013C90E645EA060EC3
S32D0000CB408DE60CEA135594EA0C0F08BF95EA0C0F3FF43BAF94EA0C0F0AD150EA01347FF434AF95EA0C0F7FF499
S32D0000CB6825AF104619462CE795EA0C0F06D152EA03353FF4FDAE1046194622E750EA410618BF52EA43067FF432
S32D0000CB90C5AE50EA41047FF40DAF52EA43057FF4EBAE12E74A0011D212F5001211D20DD56FF47873B3EB625222
S32D0000CBB80ED44FEAC12343F0004343EA505323FA02F070474FF00000704750EA013002D14FF0FF3070474FF0AC
S32D0000CBE0000070474FEA4102B2F1E04324BFB3F5001CDCF1FE5C0DD901F0004C4FEAC0024CEA5070B2F1004F5A
S32D0000CC0840EB830008BF20F00100704711F0804F21D113F13872BCBF01F00040704741F480114FEA5252C2F198
S32D0000CC301802C2F1200C10FA0CF320FA02F018BF40F001004FEAC1234FEAD32303FA0CFC40EA0C0023FA02F327
S32D0000CC584FEA4303CCE77FEA625307D150EA01331EBF4FF0FE4040F44000704701F0004040F0FE4040F40000C0
S32D0000CC80704700BF80F0004002E000BF81F0004142001FBF5FEA410392EA030F7FEA226C7FEA236C6AD04FEA70
S32D0000CCA81262D2EB1363C1BFD218414048404140B8BF5B42192B88BF704710F0004F40F4000020F07F4018BF44
S32D0000CCD0404211F0004F41F4000121F07F4118BF494292EA030F3FD0A2F1010241FA03FC10EB0C00C3F12003B0
S32D0000CCF801FA03F100F0004302D5494260EB4000B0F5000F13D3B0F1807F06D340084FEA310102F10102FE2A1B
S32D0000CD2051D2B1F1004F40EBC25008BF20F0010040EA03007047490040EB000010F4000FA2F10102EDD1B0FA53
S32D0000CD4880FCACF1080CB2EB0C0200FA0CF0AABF00EBC25052421843BCBFD0401843704792F0000F81F40001F6
S32D0000CD7006BF80F400000132013BB5E74FEA41037FEA226C18BF7FEA236C21D092EA030F04D092F0000F08BF63
S32D0000CD980846704790EA010F1CBF0020704712F07F4F04D1400028BF40F00040704712F100723CBF00F50000D4
S32D0000CDC0704700F0004343F0FE4040F4000070477FEA226216BF08467FEA23630146420206BF5FEA412390EA89
S32D0000CDE8010F40F4800070474FF0000304E000BF10F0004348BF40425FEA000C08BF704743F0964301464FF08C
S32D0000CE1000001CE050EA010208BF70474FF000030AE000BF50EA010208BF704711F0004302D5404261EB41016C
S32D0000CE385FEA010C02BF84460146002043F0B64308BFA3F18053A3F50003BCFA8CF2083AA3EBC25310DB01FA90
S32D0000CE6002FC634400FA02FCC2F12002BCF1004F20FA02F243EB020008BF20F00100704702F1200201FA02FC5B
S32D0000CE88C2F1200250EA4C0021FA02F243EB020008BF20EADC7070474FF0FF0C1CEAD0521EBF1CEAD15392EA19
S32D0000CEB00C0F93EA0C0F6FD01A4480EA010C400218BF5FEA41211ED04FF0006343EA501043EA5111A0FB013150
S32D0000CED80CF00040B1F5000F3EBF490041EAD3715B0040EA010062F17F02FD2A1DD8B3F1004F40EBC25008BF19
S32D0000CF0020F00100704790F0000F0CF0004C08BF49024CEA502040EA51207F3AC2BFD2F1FF0340EAC25070471F
S32D0000CF2840F400004FF00003013A5DDC12F1190FDCBF00F000407047C2F10002410021FA02F1C2F1200200FA71
S32D0000CF5002FC5FEA310040F1000053EA4C0308BF20EADC70704792F0000F00F0004C02BF400010F4000F013A8E
S32D0000CF78F9D040EA0C0093F0000F01F0004C02BF490011F4000F013BF9D041EA0C018FE70CEAD15392EA0C0F3B
S32D0000CFA018BF93EA0C0F0AD030F0004C18BF31F0004CD8D180EA010000F00040704790F0000F17BF90F0004F3B
S32D0000CFC8084691F0000F91F0004F14D092EA0C0F01D142020FD193EA0C0F03D14B0218BF084608D180EA0100FA
S32D0000CFF000F0004040F0FE4040F40000704740F0FE4040F4400070474FF0FF0C1CEAD0521EBF1CEAD15392EAFC
S32D0000D0180C0F93EA0C0F69D0A2EB030280EA010C49024FEA402037D04FF0805343EA111143EA10130CF000401D
S32D0000D0408B4238BF5B0042F17D024FF4000C8B4224BF5B1A40EA0C00B3EB510F24BFA3EB510340EA5C00B3EB60
S32D0000D068910F24BFA3EB910340EA9C00B3EBD10F24BFA3EBD10340EADC001B0118BF5FEA1C1CE0D1FD2A3FF6E5
S32D0000D09050AF8B4240EBC25008BF20F0010070470CF0004C4CEA50207F32C2BFD2F1FF0340EAC250704740F4CE
S32D0000D0B800004FF00003013A37E792F0000F00F0004C02BF400010F4000F013AF9D040EA0C0093F0000F01F011
S32D0000D0E0004C02BF490011F4000F013BF9D041EA0C0195E70CEAD15392EA0C0F08D142027FF47DAF93EA0C0FFA
S32D0000D1087FF470AF084676E793EA0C0F04D14B023FF44CAF08466EE730F0004C18BF31F0004CCAD130F0004284
S32D0000D1307FF45CAF31F000437FF43CAF5FE700BF4FF0FF3C06E000BF4FF0010C02E000BF4FF0010C4DF804CD1E
S32D0000D1584FEA40024FEA41037FEA226C18BF7FEA236C11D001B052EA530C18BF90EA010F58BFB2EB030088BF5F
S32D0000D180C81738BF6FEAE17018BF40F0010070477FEA226C02D15FEA402C05D17FEA236CE4D15FEA412CE1D0D9
S32D0000D1A85DF8040B704700BF844608466146FFE70FB5FFF7C9FF002848BF10F1000F0FBD4DF808EDFFF7F4FF2A
S32D0000D1D00CBF012000205DF808FB00BF4DF808EDFFF7EAFF34BF012000205DF808FB00BF4DF808EDFFF7E0FF9B
S32D0000D1F894BF012000205DF808FB00BF4DF808EDFFF7D2FF94BF012000205DF808FB00BF4DF808EDFFF7C8FFBB
S32D0000D22034BF012000205DF808FB00BF80B584B000AF4FF00103FB604FF00003FB7200F037F803467B607B680A
S32D0000D24803F1FF33032B21D801A252F823F000BF71D2000083D2000089D200008FD2000000F082FB0346FB6047
S32D0000D270FB68012B14BF00230123DBB2002BF3D108E000F055FD05E000F00AFD02E000F097FD00BFFB7A83F058
S32D0000D2980103DBB2002BCED14FF00003184607F11007BD4680BD00BF90B585B002AF41F20040C1F6FF706FF03C
S32D0000D2C07F4158F031F841F20040C1F6FF7058F00BF841F20040C1F6FF704FF0000158F04BF841F20040C1F69D
S32D0000D2E8FF7048F22041C0F206014FF064024FF00A0358F051F84FF03703009341F20040C1F6FF704FF03401BA
S32D0000D3104FF042024FF0690358F0F8FE4FF03703009341F20040C1F6FF704FF0A2014FF042024FF0690358F086
S32D0000D338E9FE4FF03703009341F20040C1F6FF704FF034014FF07E024FF0690358F0DAFE4FF03703009341F2FE
S32D0000D3600040C1F6FF704FF0A2014FF07E024FF0690358F0CBFE41F20040C1F6FF706FF07F4157F0F9FF4FF0A6
S32D0000D3882D03009341F20040C1F6FF704FF039014FF047024FF05F0358F0B4FE4FF02D03009341F20040C1F653
S32D0000D3B0FF704FF0A7014FF047024FF05F0358F0A5FE4FF02D03009341F20040C1F6FF704FF039014FF083020D
S32D0000D3D84FF05F0358F096FE4FF02D03009341F20040C1F6FF704FF0A7014FF083024FF05F0358F087FE41F2C3
S32D0000D4000040C1F6FF704FF0000157F0B5FF41F20040C1F6FF7048F22C41C0F206014FF03E024FF04C0357F010
S32D0000D428BBFF41F20040C1F6FF7048F23441C0F206014FF03E024FF04C0357F0ADFF41F20040C1F6FF7048F248
S32D0000D4503C41C0F206014FF03E024FF04C0357F09FFF41F20040C1F6FF7048F24C41C0F206014FF03E024FF0AF
S32D0000D4784C0357F091FF00BF07F104023B4641F20040C1F6FF7011461A4658F005F80346002BF1D100BF07F1A0
S32D0000D4A004023B4641F20040C1F6FF7011461A4657F0F6FF034683F00103DBB2002BEED17B684FF00102144695
S32D0000D4C81846DFF88414FFF7A3FE0346002B02D14FF000031C46E3B2002B00F081807B684FF001021446184659
S32D0000D4F0DFF86014FFF772FE0346002B02D14FF000031C46E3B2002B6ED03B684FF0010214461846DFF84014AC
S32D0000D518FFF77EFE0346002B02D14FF000031C46E3B2002B5CD03B684FF0010214461846DFF82014FFF74EFEB2
S32D0000D5400346002B02D14FF000031C46E3B2002B4AD041F20040C1F6FF704FF0FF0157F00BFF4FF037030093C3
S32D0000D56841F20040C1F6FF704FF034014FF042024FF0690358F0C6FD41F20040C1F6FF706FF07F4157F0F4FE5E
S32D0000D5904FF02D03009341F20040C1F6FF704FF039014FF047024FF05F0358F0AFFD41F20040C1F6FF704FF064
S32D0000D5B8FF0157F0DDFE41F20040C1F6FF7048F22C41C0F206014FF03E024FF04C0357F0E3FE4FF4FA7056F002
S32D0000D5E08FFC4FF00103ADE17B684FF0010214461846DB49FFF710FE0346002B02D14FF000031C46E3B2002B11
S32D0000D6087DD07B684FF0010214461846D349FFF7E1FD0346002B02D14FF000031C46E3B2002B6CD03B684FF011
S32D0000D630010214461846C849FFF7EEFD0346002B02D14FF000031C46E3B2002B5BD03B684FF0010214461846AC
S32D0000D658C049FFF7BFFD0346002B02D14FF000031C46E3B2002B4AD041F20040C1F6FF704FF0FF0157F07CFE8B
S32D0000D6804FF03703009341F20040C1F6FF704FF0A2014FF042024FF0690358F037FD41F20040C1F6FF706FF053
S32D0000D6A87F4157F065FE4FF02D03009341F20040C1F6FF704FF0A7014FF047024FF05F0358F020FD41F2004067
S32D0000D6D0C1F6FF704FF0FF0157F04EFE41F20040C1F6FF7048F23441C0F206014FF03E024FF04C0357F054FE8D
S32D0000D6F84FF4FA7056F000FC4FF002031EE17B684FF00102144618468F49FFF781FD0346002B02D14FF0000320
S32D0000D7201C46E3B2002B7DD07B684FF00102144618468849FFF752FD0346002B02D14FF000031C46E3B2002BCE
S32D0000D7486CD03B684FF00102144618468449FFF75FFD0346002B02D14FF000031C46E3B2002B5BD03B684FF003
S32D0000D7700102144618467D49FFF730FD0346002B02D14FF000031C46E3B2002B4AD041F20040C1F6FF704FF04A
S32D0000D798FF0157F0EDFD4FF03703009341F20040C1F6FF704FF034014FF07E024FF0690358F0A8FC41F2004050
S32D0000D7C0C1F6FF706FF07F4157F0D6FD4FF02D03009341F20040C1F6FF704FF039014FF083024FF05F0358F01B
S32D0000D7E891FC41F20040C1F6FF704FF0FF0157F0BFFD41F20040C1F6FF7048F23C41C0F206014FF03E024FF0E4
S32D0000D8104C0357F0C5FD4FF4FA7056F071FB4FF003038FE07B684FF00102144618464C49FFF7F2FC0346002BB5
S32D0000D83802D14FF000031C46E3B2002B7DD07B684FF00102144618464449FFF7C3FC0346002B02D14FF0000396
S32D0000D8601C46E3B2002B6CD03B684FF00102144618463D49FFF7D0FC0346002B02D14FF000031C46E3B2002BAC
S32D0000D8885BD03B684FF00102144618463549FFF7A1FC0346002B02D14FF000031C46E3B2002B4AD041F2004061
S32D0000D8B0C1F6FF704FF0FF0157F05EFD4FF03703009341F20040C1F6FF704FF0A2014FF07E024FF0690358F00A
S32D0000D8D819FC41F20040C1F6FF706FF07F4157F047FD4FF02D03009341F20040C1F6FF704FF0A7014FF0830284
S32D0000D9004FF05F0358F002FC41F20040C1F6FF704FF0FF0157F030FD41F20040C1F6FF7048F24C41C0F20601AD
S32D0000D9284FF03E024FF04C0357F036FD4FF4FA7056F0E2FA4FF0040300E0FFE7184607F10C07BD4690BD00BFF7
S32D0000D950000064420000184300008E420000E8420000274300008343000003430000304390B58DB002AF4FF053
S32D0000D9780003FB764FF028037B614FF089037B624FF000033B624FF00103FB6156F0FCFA03463B61C5E04FF09C
S32D0000D9A000033B6256F0F4FA0346FB6007F1080207F1040341F20040C1F6FF7011461A4657F06EFD0346002B6A
S32D0000D9C802D17B6A882B02DC4FF0010301E04FF00003002B6ED07B684FF00102144618465749FFF701FC034660
S32D0000D9F0002B02D14FF000031C46E3B2002B33D04FF000033B62FA683B69D31AF9683A698A1A02FB03F24DF6F5
S32D0000DA188363C4F21B3383FB02034FEAA3414FEAE273CA1A13464FEA83039B184FEA43031946FA683B69D31A48
S32D0000DA404FF0320202FB03F244F6D353C1F2620383FB02034FEAA3104FEAE273C31ACB1A03F189037B6229E0B6
S32D0000DA6807F1080207F1040341F20040C1F6FF7011461A4657F010FD0346002B13D07B684FF0010214461846B7
S32D0000DA902D49FFF7C1FB0346002B02D14FF000031C46E3B2002B02D04FF0010301E04FF00003002B02D04FF021
S32D0000DAB801033B6207F1080207F1040341F20040C1F6FF7011461A4657F0E6FC0346002B09D041F20040C1F6AE
S32D0000DAE0FF7048F25441C0F2060157F00DFE7B6A892B02DD4FF089037B62FB6903F00103002B0ED13869FEF7B4
S32D0000DB08D5FD02460B46796A0091396A019110461946FA697B6900F015F8FB6903F10103FB61FB7E83F001033A
S32D0000DB30DBB2002B7FF433AF4FF00003184607F12C07BD4690BD00BF0000F04280B586B000AFC7E902017A6007
S32D0000DB583B6041F20040C1F6FF706FF07F4157F0DFFB41F20040C1F6FF7057F0B9FB41F20040C1F6FF704FF0BF
S32D0000DB80000157F0F9FB41F20040C1F6FF70396A57F0E8FD41F20040C1F6FF704FF0B4014FF0000240F23F1381
S32D0000DBA858F0ECF941F20040C1F6FF704FF0B5014FF0000240F23F1358F0E0F941F20040C1F6FF704FF0B6011F
S32D0000DBD04FF0000240F23F1358F0D4F97A684FF00303C8F200031340002B05DA03F1FF3363F0030303F1010395
S32D0000DBF8002B14DB7A684FF00303C8F200031340002B05DA03F1FF3363F0030303F10103012B04DC3868396ADE
S32D0000DC2013F04EFA37E07A684FF00303C8F200031340002B05DA03F1FF3363F0030303F10103012B14DD7A68BD
S32D0000DC484FF00303C8F200031340002B05DA03F1FF3363F0030303F10103032B04DC3868396A00F0F1F812E0BC
S32D0000DC703B6A882B04DC3868396A26F091FB0AE04FF001037B614FF00103002B03D03868396A39F0EDFC07F1D2
S32D0000DC981807BD4680BD00BF80B582B000AF41F20040C1F6FF706FF07F4157F039FB41F20040C1F6FF7057F017
S32D0000DCC013FB41F20040C1F6FF704FF0000157F053FB41F20040C1F6FF7048F23C41C0F2060157F011FD00BF9D
S32D0000DCE807F104023B4641F20040C1F6FF7011461A4657F0D1FB0346002BF1D100BF07F104023B4641F2004045
S32D0000DD10C1F6FF7011461A4657F0C2FB034683F00103DBB2002BEED107F10807BD4680BD80B582B000AF41F23D
S32D0000DD380040C1F6FF706FF07F4157F0F1FA41F20040C1F6FF7057F0CBFA41F20040C1F6FF704FF0000157F041
S32D0000DD600BFB41F20040C1F6FF7048F26041C0F2060157F0C9FC00BF07F104023B4641F20040C1F6FF70114628
S32D0000DD881A4657F089FB0346002BF1D100BF07F104023B4641F20040C1F6FF7011461A4657F07AFB034683F006
S32D0000DDB00103DBB2002BEED107F10807BD4680BD80B582B000AF41F20040C1F6FF706FF07F4157F0A9FA41F298
S32D0000DDD80040C1F6FF7057F083FA41F20040C1F6FF704FF0000157F0C3FA41F20040C1F6FF7048F24C41C0F204
S32D0000DE00060157F081FC00BF07F104023B4641F20040C1F6FF7011461A4657F041FB0346002BF1D100BF07F12B
S32D0000DE2804023B4641F20040C1F6FF7011461A4657F032FB034683F00103DBB2002BEED107F10807BD4680BD03
S32D0000DE5080B582B000AF7860396041F20040C1F6FF706FF07F4157F087FA41F20040C1F6FF7079683A6858F039
S32D0000DE7859F841F20040C1F6FF706FF07F4157F077FA3B6803F1010341F20040C1F6FF7079681A4658F046F8C0
S32D0000DEA041F20040C1F6FF706FF07F4157F064FA3B6803F1020341F20040C1F6FF7079681A4658F033F841F2DB
S32D0000DEC80040C1F6FF706FF07F4157F051FA3B6803F1030341F20040C1F6FF7079681A4658F020F841F20040CB
S32D0000DEF0C1F6FF706FF07F4157F03EFA3B6803F1040341F20040C1F6FF7079681A4658F00DF841F20040C1F651
S32D0000DF18FF706FF07F4157F02BFA3B6803F1050341F20040C1F6FF7079681A4657F0FAFF41F20040C1F6FF708F
S32D0000DF406FF07F4157F018FA3B6803F1060341F20040C1F6FF7079681A4657F0E7FF41F20040C1F6FF706FF09C
S32D0000DF687F4157F005FA3B6803F1070341F20040C1F6FF7079681A4657F0D4FF41F20040C1F6FF706FF07F4138
S32D0000DF9057F0F2F93B6803F1080341F20040C1F6FF7079681A4657F0C1FF41F20040C1F6FF706FF07F4157F0AF
S32D0000DFB8DFF93B6803F1090341F20040C1F6FF7079681A4657F0AEFF41F20040C1F6FF706FF07F4157F0CCF92E
S32D0000DFE03B6803F10A0341F20040C1F6FF7079681A4657F09BFF41F20040C1F6FF706FF07F4157F0B9F93B6860
S32D0000E00803F10B0341F20040C1F6FF7079681A4657F088FF41F20040C1F6FF706FF07F4157F0A6F93B6803F10B
S32D0000E0300C0341F20040C1F6FF7079681A4657F075FF41F20040C1F6FF706FF07F4157F093F93B6803F10D03EC
S32D0000E05841F20040C1F6FF7079681A4657F062FF41F20040C1F6FF706FF07F4157F080F93B6803F10E0341F2C5
S32D0000E0800040C1F6FF7079681A4657F04FFF41F20040C1F6FF7047F67F71C0F27F0157F06BF93B6803F10F03EA
S32D0000E0A841F20040C1F6FF7079681A4657F03AFF41F20040C1F6FF7047F67F71C0F27F0157F056F93B6803F1CB
S32D0000E0D0100341F20040C1F6FF7079681A4657F025FF41F20040C1F6FF7047F67F71C0F27F0157F041F93B68AE
S32D0000E0F803F1110341F20040C1F6FF7079681A4657F010FF41F20040C1F6FF7047F67F71C0F27F0157F02CF95E
S32D0000E1203B6803F1120341F20040C1F6FF7079681A4657F0FBFE41F20040C1F6FF7047F67F71C0F27F0157F0CC
S32D0000E14817F93B6803F1130341F20040C1F6FF7079681A4657F0E6FE41F20040C1F6FF7047F67F71C0F27F01EF
S32D0000E17057F002F93B6803F1140341F20040C1F6FF7079681A4657F0D1FE41F20040C1F6FF7047F67F71C0F229
S32D0000E1987F0157F0EDF83B6803F1150341F20040C1F6FF7079681A4657F0BCFE41F20040C1F6FF7047F67F715D
S32D0000E1C0C0F27F0157F0D8F83B6803F1160341F20040C1F6FF7079681A4657F0A7FE41F20040C1F6FF7047F69C
S32D0000E1E87F71C0F27F0157F0C3F83B6803F1170341F20040C1F6FF7079681A4657F092FE41F20040C1F6FF70EA
S32D0000E21047F67F71C0F27F0157F0AEF83B6803F1180341F20040C1F6FF7079681A4657F07DFE41F20040C1F61C
S32D0000E238FF7047F67F71C0F27F0157F099F83B6803F1190341F20040C1F6FF7079681A4657F068FE41F2004065
S32D0000E260C1F6FF7047F67F71C0F27F0157F084F83B6803F11A0341F20040C1F6FF7079681A4657F053FE41F2EF
S32D0000E2880040C1F6FF706FF07F4157F071F83B6803F11B0341F20040C1F6FF7079681A4657F040FE41F20040AC
S32D0000E2B0C1F6FF706FF07F4157F05EF83B6803F11C0341F20040C1F6FF7079681A4657F02DFE41F20040C1F632
S32D0000E2D8FF706FF07F4157F04BF83B6803F11D0341F20040C1F6FF7079681A4657F01AFE41F20040C1F6FF7077
S32D0000E3006FF07F4157F038F83B6803F11E0341F20040C1F6FF7079681A4657F007FE41F20040C1F6FF706FF083
S32D0000E3287F4157F025F83B6803F11F0341F20040C1F6FF7079681A4657F0F4FD41F20040C1F6FF706FF07F4120
S32D0000E35057F012F83B6803F1200341F20040C1F6FF7079681A4657F0E1FD41F20040C1F6FF706FF07F4156F097
S32D0000E378FFFF3B6803F1210341F20040C1F6FF7079681A4657F0CEFD41F20040C1F6FF706FF07F4156F0ECFFE9
S32D0000E3A03B6803F1220341F20040C1F6FF7079681A4657F0BBFD41F20040C1F6FF706FF07F4156F0D9FF3B6841
S32D0000E3C803F1230341F20040C1F6FF7079681A4657F0A8FD41F20040C1F6FF706FF07F4156F0C6FF3B6803F1ED
S32D0000E3F0240341F20040C1F6FF7079681A4657F095FD41F20040C1F6FF706FF07F4156F0B3FF3B6803F12503B6
S32D0000E41841F20040C1F6FF7079681A4657F082FD41F20040C1F6FF706FF07F4156F0A0FF3B6803F1260341F2A6
S32D0000E4400040C1F6FF7079681A4657F06FFD41F20040C1F6FF706FF07F4156F08DFF3B6803F1270341F2004096
S32D0000E468C1F6FF7079681A4657F05CFD41F20040C1F6FF706FF07F4156F07AFF3B6803F1280341F20040C1F61C
S32D0000E490FF7079681A4657F049FD41F20040C1F6FF706FF07F4156F067FF3B6803F1290341F20040C1F6FF7061
S32D0000E4B879681A4657F036FD41F20040C1F6FF706FF07F4156F054FF3B6803F12A0341F20040C1F6FF707968EC
S32D0000E4E01A4657F023FD41F20040C1F6FF706FF07F4156F041FF7B6803F1010341F20040C1F6FF7019463A6894
S32D0000E50857F010FD41F20040C1F6FF706FF07F4156F02EFF7B6803F101023B6803F1010341F20040C1F6FF7058
S32D0000E53011461A4657F0FAFC41F20040C1F6FF706FF07F4156F018FF7B6803F101023B6803F1020341F20040CB
S32D0000E558C1F6FF7011461A4657F0E4FC41F20040C1F6FF706FF07F4156F002FF7B6803F101023B6803F103031B
S32D0000E58041F20040C1F6FF7011461A4657F0CEFC41F20040C1F6FF706FF07F4156F0ECFE7B6803F101023B68A7
S32D0000E5A803F1040341F20040C1F6FF7011461A4657F0B8FC41F20040C1F6FF706FF07F4156F0D6FE7B6803F156
S32D0000E5D001023B6803F1050341F20040C1F6FF7011461A4657F0A2FC41F20040C1F6FF706FF07F4156F0C0FE8A
S32D0000E5F87B6803F101023B6803F1060341F20040C1F6FF7011461A4657F08CFC41F20040C1F6FF706FF07F41A4
S32D0000E62056F0AAFE7B6803F101023B6803F1070341F20040C1F6FF7011461A4657F076FC41F20040C1F6FF70C1
S32D0000E6486FF07F4156F094FE7B6803F101023B6803F1080341F20040C1F6FF7011461A4657F060FC41F20040CB
S32D0000E670C1F6FF706FF07F4156F07EFE7B6803F101023B6803F1090341F20040C1F6FF7011461A4657F04AFC1B
S32D0000E69841F20040C1F6FF706FF07F4156F068FE7B6803F101023B6803F10A0341F20040C1F6FF7011461A4622
S32D0000E6C057F034FC41F20040C1F6FF706FF07F4156F052FE7B6803F101023B6803F10B0341F20040C1F6FF704F
S32D0000E6E811461A4657F01EFC41F20040C1F6FF706FF07F4156F03CFE7B6803F101023B6803F10C0341F20040C1
S32D0000E710C1F6FF7011461A4657F008FC41F20040C1F6FF706FF07F4156F026FE7B6803F101023B6803F10D0310
S32D0000E73841F20040C1F6FF7011461A4657F0F2FB41F20040C1F6FF706FF07F4156F010FE7B6803F101023B68A6
S32D0000E76003F10E0341F20040C1F6FF7011461A4657F0DCFB41F20040C1F6FF7047F67F71C0F2FF0156F0F8FD65
S32D0000E7887B6803F101023B6803F10F0341F20040C1F6FF7011461A4657F0C4FB41F20040C1F6FF7047F67F71C4
S32D0000E7B0C0F2FF0156F0E0FD7B6803F101023B6803F1100341F20040C1F6FF7011461A4657F0ACFB41F2004031
S32D0000E7D8C1F6FF7047F67F71C0F2FF0156F0C8FD7B6803F101023B6803F1110341F20040C1F6FF7011461A462E
S32D0000E80057F094FB41F20040C1F6FF7047F67F71C0F2FF0156F0B0FD7B6803F101023B6803F1120341F20040B0
S32D0000E828C1F6FF7011461A4657F07CFB41F20040C1F6FF7047F67F71C0F2FF0156F098FD7B6803F101023B6857
S32D0000E85003F1130341F20040C1F6FF7011461A4657F064FB41F20040C1F6FF7047F67F71C0F2FF0156F080FD5F
S32D0000E8787B6803F101023B6803F1140341F20040C1F6FF7011461A4657F04CFB41F20040C1F6FF7047F67F7146
S32D0000E8A0C0F2FF0156F068FD7B6803F101023B6803F1150341F20040C1F6FF7011461A4657F034FB41F200402B
S32D0000E8C8C1F6FF7047F67F71C0F2FF0156F050FD7B6803F101023B6803F1160341F20040C1F6FF7011461A46B0
S32D0000E8F057F01CFB41F20040C1F6FF7047F67F71C0F2FF0156F038FD7B6803F101023B6803F1170341F20040AB
S32D0000E918C1F6FF7011461A4657F004FB41F20040C1F6FF7047F67F71C0F2FF0156F020FD7B6803F101023B6856
S32D0000E94003F1180341F20040C1F6FF7011461A4657F0ECFA41F20040C1F6FF7047F67F71C0F2FF0156F008FD5A
S32D0000E9687B6803F101023B6803F1190341F20040C1F6FF7011461A4657F0D4FA41F20040C1F6FF7047F67F71C9
S32D0000E990C0F2FF0156F0F0FC7B6803F101023B6803F11A0341F20040C1F6FF7011461A4657F0BCFA41F2004027
S32D0000E9B8C1F6FF706FF07F4156F0DAFC7B6803F101023B6803F11B0341F20040C1F6FF7011461A4657F0A6FA0A
S32D0000E9E041F20040C1F6FF706FF07F4156F0C4FC7B6803F101023B6803F11C0341F20040C1F6FF7011461A466B
S32D0000EA0857F090FA41F20040C1F6FF706FF07F4156F0AEFC7B6803F101023B6803F11D0341F20040C1F6FF703D
S32D0000EA3011461A4657F07AFA41F20040C1F6FF706FF07F4156F098FC7B6803F101023B6803F11E0341F20040AF
S32D0000EA58C1F6FF7011461A4657F064FA41F20040C1F6FF706FF07F4156F082FC7B6803F101023B6803F11F03FF
S32D0000EA8041F20040C1F6FF7011461A4657F04EFA41F20040C1F6FF706FF07F4156F06CFC7B6803F101023B68A6
S32D0000EAA803F1200341F20040C1F6FF7011461A4657F038FA41F20040C1F6FF706FF07F4156F056FC7B6803F139
S32D0000EAD001023B6803F1210341F20040C1F6FF7011461A4657F022FA41F20040C1F6FF706FF07F4156F040FC6D
S32D0000EAF87B6803F101023B6803F1220341F20040C1F6FF7011461A4657F00CFA41F20040C1F6FF706FF07F4105
S32D0000EB2056F02AFC7B6803F101023B6803F1230341F20040C1F6FF7011461A4657F0F6F941F20040C1F6FF70A5
S32D0000EB486FF07F4156F014FC7B6803F101023B6803F1240341F20040C1F6FF7011461A4657F0E0F941F20040AF
S32D0000EB70C1F6FF706FF07F4156F0FEFB7B6803F101023B6803F1250341F20040C1F6FF7011461A4657F0CAF900
S32D0000EB9841F20040C1F6FF706FF07F4156F0E8FB7B6803F101023B6803F1260341F20040C1F6FF7011461A4684
S32D0000EBC057F0B4F941F20040C1F6FF706FF07F4156F0D2FB7B6803F101023B6803F1270341F20040C1F6FF7034
S32D0000EBE811461A4657F09EF941F20040C1F6FF706FF07F4156F0BCFB7B6803F101023B6803F1280341F20040A6
S32D0000EC10C1F6FF7011461A4657F088F941F20040C1F6FF706FF07F4156F0A6FB7B6803F101023B6803F12903F5
S32D0000EC3841F20040C1F6FF7011461A4657F072F941F20040C1F6FF706FF07F4156F090FB7B6803F101023B68A6
S32D0000EC6003F12A0341F20040C1F6FF7011461A4657F05CF941F20040C1F6FF706FF07F4156F07AFB7B6803F12F
S32D0000EC88020341F20040C1F6FF7019463A6857F049F941F20040C1F6FF706FF07F4156F067FB7B6803F10202FB
S32D0000ECB03B6803F1010341F20040C1F6FF7011461A4657F033F941F20040C1F6FF706FF07F4156F051FB7B68AB
S32D0000ECD803F102023B6803F1020341F20040C1F6FF7011461A4657F01DF941F20040C1F6FF706FF07F4156F0CF
S32D0000ED003BFB7B6803F102023B6803F1030341F20040C1F6FF7011461A4657F007F941F20040C1F6FF706FF0A8
S32D0000ED287F4156F025FB7B6803F102023B6803F1040341F20040C1F6FF7011461A4657F0F1F841F20040C1F674
S32D0000ED50FF706FF07F4156F00FFB7B6803F102023B6803F1050341F20040C1F6FF7011461A4657F0DBF841F2A0
S32D0000ED780040C1F6FF706FF07F4156F0F9FA7B6803F102023B6803F1060341F20040C1F6FF7011461A4657F09D
S32D0000EDA0C5F841F20040C1F6FF706FF07F4156F0E3FA7B6803F102023B6803F1070341F20040C1F6FF70114641
S32D0000EDC81A4657F0AFF841F20040C1F6FF706FF07F4156F0CDFA7B6803F102023B6803F1080341F20040C1F663
S32D0000EDF0FF7011461A4657F099F841F20040C1F6FF706FF07F4156F0B7FA7B6803F102023B6803F1090341F297
S32D0000EE180040C1F6FF7011461A4657F083F841F20040C1F6FF706FF07F4156F0A1FA7B6803F102023B6803F1E2
S32D0000EE400A0341F20040C1F6FF7011461A4657F06DF841F20040C1F6FF706FF07F4156F08BFA7B6803F102023D
S32D0000EE683B6803F10B0341F20040C1F6FF7011461A4657F057F841F20040C1F6FF706FF07F4156F075FA7B68A1
S32D0000EE9003F102023B6803F10C0341F20040C1F6FF7011461A4657F041F841F20040C1F6FF706FF07F4156F0E8
S32D0000EEB85FFA7B6803F102023B6803F10D0341F20040C1F6FF7011461A4657F02BF841F20040C1F6FF706FF09F
S32D0000EEE07F4156F049FA7B6803F102023B6803F10E0341F20040C1F6FF7011461A4657F015F841F20040C1F66A
S32D0000EF08FF704FF6FF71C0F27F0156F031FA7B6803F102023B6803F10F0341F20040C1F6FF7011461A4656F0FA
S32D0000EF30FDFF41F20040C1F6FF704FF6FF71C0F27F0156F019FA7B6803F102023B6803F1100341F20040C1F62F
S32D0000EF58FF7011461A4656F0E5FF41F20040C1F6FF704FF6FF71C0F27F0156F001FA7B6803F102023B6803F108
S32D0000EF80110341F20040C1F6FF7011461A4656F0CDFF41F20040C1F6FF704FF6FF71C0F27F0156F0E9F97B6862
S32D0000EFA803F102023B6803F1120341F20040C1F6FF7011461A4656F0B5FF41F20040C1F6FF704FF67F71C0F2CD
S32D0000EFD07F0156F0D1F97B6803F102023B6803F1130341F20040C1F6FF7011461A4656F09DFF41F20040C1F69F
S32D0000EFF8FF704FF67F71C0F27F0156F0B9F97B6803F102023B6803F1140341F20040C1F6FF7011461A4656F0FE
S32D0000F02085FF41F20040C1F6FF704FF67F71C0F27F0156F0A1F97B6803F102023B6803F1150341F20040C1F6AA
S32D0000F048FF7011461A4656F06DFF41F20040C1F6FF704FF67F71C0F27F0156F089F97B6803F102023B6803F188
S32D0000F070160341F20040C1F6FF7011461A4656F055FF41F20040C1F6FF704FF67F71C0F27F0156F071F97B68DC
S32D0000F09803F102023B6803F1170341F20040C1F6FF7011461A4656F03DFF41F20040C1F6FF704FF67F71C0F24F
S32D0000F0C07F0156F059F97B6803F102023B6803F1180341F20040C1F6FF7011461A4656F025FF41F20040C1F699
S32D0000F0E8FF704FF67F71C0F27F0156F041F97B6803F102023B6803F1190341F20040C1F6FF7011461A4656F080
S32D0000F1100DFF41F20040C1F6FF704FF67F71C0F27F0156F029F97B6803F102023B6803F11A0341F20040C1F6A4
S32D0000F138FF7011461A4656F0F5FE41F20040C1F6FF704FF67F71C0F2FF0156F011F97B6803F102023B6803F108
S32D0000F1601B0341F20040C1F6FF7011461A4656F0DDFE41F20040C1F6FF704FF67F71C0F2FF0156F0F9F87B6858
S32D0000F18803F102023B6803F11C0341F20040C1F6FF7011461A4656F0C5FE41F20040C1F6FF706FF07F4156F054
S32D0000F1B0E3F87B6803F102023B6803F11D0341F20040C1F6FF7011461A4656F0AFFE41F20040C1F6FF706FF089
S32D0000F1D87F4156F0CDF87B6803F102023B6803F11E0341F20040C1F6FF7011461A4656F099FE41F20040C1F654
S32D0000F200FF706FF07F4156F0B7F87B6803F102023B6803F11F0341F20040C1F6FF7011461A4656F083FE41F27F
S32D0000F2280040C1F6FF706FF07F4156F0A1F87B6803F102023B6803F1200341F20040C1F6FF7011461A4656F029
S32D0000F2506DFE41F20040C1F6FF706FF07F4156F08BF87B6803F102023B6803F1210341F20040C1F6FF7011461E
S32D0000F2781A4656F057FE41F20040C1F6FF706FF07F4156F075F87B6803F102023B6803F1220341F20040C1F641
S32D0000F2A0FF7011461A4656F041FE41F20040C1F6FF706FF07F4156F05FF87B6803F102023B6803F1230341F275
S32D0000F2C80040C1F6FF7011461A4656F02BFE41F20040C1F6FF706FF07F4156F049F87B6803F102023B6803F1DB
S32D0000F2F0240341F20040C1F6FF7011461A4656F015FE41F20040C1F6FF706FF07F4156F033F87B6803F102021C
S32D0000F3183B6803F1250341F20040C1F6FF7011461A4656F0FFFD41F20040C1F6FF706FF07F4156F01DF87B6880
S32D0000F34003F102023B6803F1260341F20040C1F6FF7011461A4656F0E9FD41F20040C1F6FF706FF07F4156F06D
S32D0000F36807F87B6803F102023B6803F1270341F20040C1F6FF7011461A4656F0D3FD41F20040C1F6FF706FF07E
S32D0000F3907F4155F0F1FF7B6803F102023B6803F1280341F20040C1F6FF7011461A4656F0BDFD41F20040C1F643
S32D0000F3B8FF706FF07F4155F0DBFF7B6803F102023B6803F1290341F20040C1F6FF7011461A4656F0A7FD41F26F
S32D0000F3E00040C1F6FF706FF07F4155F0C5FF7B6803F102023B6803F12A0341F20040C1F6FF7011461A4656F03C
S32D0000F40891FD41F20040C1F6FF706FF07F4155F0AFFF7B6803F1030341F20040C1F6FF7019463A6856F07EFD65
S32D0000F43041F20040C1F6FF706FF07F4155F09CFF7B6803F103023B6803F1010341F20040C1F6FF7011461A464F
S32D0000F45856F068FD41F20040C1F6FF706FF07F4155F086FF7B6803F103023B6803F1020341F20040C1F6FF7048
S32D0000F48011461A4656F052FD41F20040C1F6FF706FF07F4155F070FF7B6803F103023B6803F1030341F20040BA
S32D0000F4A8C1F6FF7011461A4656F03CFD41F20040C1F6FF706FF07F4155F05AFF7B6803F103023B6803F104030A
S32D0000F4D041F20040C1F6FF7011461A4656F026FD41F20040C1F6FF706FF07F4155F044FF7B6803F103023B6896
S32D0000F4F803F1050341F20040C1F6FF7011461A4656F010FD41F20040C1F6FF706FF07F4155F02EFF7B6803F146
S32D0000F52003023B6803F1060341F20040C1F6FF7011461A4656F0FAFC41F20040C1F6FF706FF07F4155F018FF78
S32D0000F5487B6803F103023B6803F1070341F20040C1F6FF7011461A4656F0E4FC41F20040C1F6FF706FF07F41EA
S32D0000F57055F002FF7B6803F103023B6803F1080341F20040C1F6FF7011461A4656F0CEFC41F20040C1F6FF70B0
S32D0000F5986FF07F4155F0ECFE7B6803F103023B6803F1090341F20040C1F6FF7011461A4656F0B8FC41F20040BB
S32D0000F5C0C1F6FF706FF07F4155F0D6FE7B6803F103023B6803F10A0341F20040C1F6FF7011461A4656F0A2FC0B
S32D0000F5E841F20040C1F6FF706FF07F4155F0C0FE7B6803F103023B6803F10B0341F20040C1F6FF7011461A4669
S32D0000F61056F08CFC41F20040C1F6FF706FF07F4155F0AAFE7B6803F103023B6803F10C0341F20040C1F6FF703E
S32D0000F63811461A4656F076FC41F20040C1F6FF706FF07F4155F094FE7B6803F103023B6803F10D0341F20040B0
S32D0000F660C1F6FF7011461A4656F060FC41F20040C1F6FF706FF07F4155F07EFE7B6803F103023B6803F10E0300
S32D0000F68841F20040C1F6FF7011461A4656F04AFC41F20040C1F6FF706FF07F4155F068FE7B6803F103023B6896
S32D0000F6B003F10F0341F20040C1F6FF7011461A4656F034FC41F20040C1F6FF706FF07F4155F052FE7B6803F13C
S32D0000F6D803023B6803F1100341F20040C1F6FF7011461A4656F01EFC41F20040C1F6FF706FF07F4155F03CFE6E
S32D0000F7007B6803F103023B6803F1110341F20040C1F6FF7011461A4656F008FC41F20040C1F6FF706FF07F4102
S32D0000F72855F026FE7B6803F103023B6803F1120341F20040C1F6FF7011461A4656F0F2FB41F20040C1F6FF70A6
S32D0000F75047F6FF71C0F27F0155F00EFE7B6803F103023B6803F1130341F20040C1F6FF7011461A4656F0DAFB67
S32D0000F77841F20040C1F6FF7047F6FF71C0F27F0155F0F6FD7B6803F103023B6803F1140341F20040C1F6FF7090
S32D0000F7A011461A4656F0C2FB41F20040C1F6FF7047F6FF71C0F27F0155F0DEFD7B6803F103023B6803F115035E
S32D0000F7C841F20040C1F6FF7011461A4656F0AAFB41F20040C1F6FF7047F6FF71C0F27F0155F0C6FD7B6803F181
S32D0000F7F003023B6803F1160341F20040C1F6FF7011461A4656F092FB41F20040C1F6FF7047F6FF71C0F27F019B
S32D0000F81855F0AEFD7B6803F103023B6803F1170341F20040C1F6FF7011461A4656F07AFB41F20040C1F6FF70A1
S32D0000F84047F6FF71C0F27F0155F096FD7B6803F103023B6803F1180341F20040C1F6FF7011461A4656F062FB62
S32D0000F86841F20040C1F6FF7047F6FF71C0F27F0155F07EFD7B6803F103023B6803F1190341F20040C1F6FF7012
S32D0000F89011461A4656F04AFB41F20040C1F6FF7047F6FF71C0F27F0155F066FD7B6803F103023B6803F11A0358
S32D0000F8B841F20040C1F6FF7011461A4656F032FB41F20040C1F6FF7047F6FF71C0F27F0155F04EFD7B6803F180
S32D0000F8E003023B6803F11B0341F20040C1F6FF7011461A4656F01AFB41F20040C1F6FF7047F6FF71C0F27F011D
S32D0000F90855F036FD7B6803F103023B6803F11C0341F20040C1F6FF7011461A4656F002FB41F20040C1F6FF709B
S32D0000F9306FF07F4155F020FD7B6803F103023B6803F11D0341F20040C1F6FF7011461A4656F0ECFA41F20040A6
S32D0000F958C1F6FF706FF07F4155F00AFD7B6803F103023B6803F11E0341F20040C1F6FF7011461A4656F0D6FAF6
S32D0000F98041F20040C1F6FF706FF07F4155F0F4FC7B6803F103023B6803F11F0341F20040C1F6FF7011461A4687
S32D0000F9A856F0C0FA41F20040C1F6FF706FF07F4155F0DEFC7B6803F103023B6803F1200341F20040C1F6FF702B
S32D0000F9D011461A4656F0AAFA41F20040C1F6FF706FF07F4155F0C8FC7B6803F103023B6803F1210341F200409D
S32D0000F9F8C1F6FF7011461A4656F094FA41F20040C1F6FF706FF07F4155F0B2FC7B6803F103023B6803F12203ED
S32D0000FA2041F20040C1F6FF7011461A4656F07EFA41F20040C1F6FF706FF07F4155F09CFC7B6803F103023B6896
S32D0000FA4803F1230341F20040C1F6FF7011461A4656F068FA41F20040C1F6FF706FF07F4155F086FC7B6803F128
S32D0000FA7003023B6803F1240341F20040C1F6FF7011461A4656F052FA41F20040C1F6FF706FF07F4155F070FC5A
S32D0000FA987B6803F103023B6803F1250341F20040C1F6FF7011461A4656F03CFA41F20040C1F6FF706FF07F4121
S32D0000FAC055F05AFC7B6803F103023B6803F1260341F20040C1F6FF7011461A4656F026FA41F20040C1F6FF7092
S32D0000FAE86FF07F4155F044FC7B6803F103023B6803F1270341F20040C1F6FF7011461A4656F010FA41F200409C
S32D0000FB10C1F6FF706FF07F4155F02EFC7B6803F103023B6803F1280341F20040C1F6FF7011461A4656F0FAF9EC
S32D0000FB3841F20040C1F6FF706FF07F4155F018FC7B6803F103023B6803F1290341F20040C1F6FF7011461A469F
S32D0000FB6056F0E4F941F20040C1F6FF706FF07F4155F002FC7B6803F103023B6803F12A0341F20040C1F6FF7020
S32D0000FB8811461A4656F0CEF941F20040C1F6FF706FF07F4155F0ECFB7B6803F1040341F20040C1F6FF701946D1
S32D0000FBB03A6856F0BBF941F20040C1F6FF706FF07F4155F0D9FB7B6803F104023B6803F1010341F20040C1F618
S32D0000FBD8FF7011461A4656F0A5F941F20040C1F6FF706FF07F4155F0C3FB7B6803F104023B6803F1020341F28E
S32D0000FC000040C1F6FF7011461A4656F08FF941F20040C1F6FF706FF07F4155F0ADFB7B6803F104023B6803F1D2
S32D0000FC28030341F20040C1F6FF7011461A4656F079F941F20040C1F6FF706FF07F4155F097FB7B6803F1040234
S32D0000FC503B6803F1040341F20040C1F6FF7011461A4656F063F941F20040C1F6FF706FF07F4155F081FB7B689A
S32D0000FC7803F104023B6803F1050341F20040C1F6FF7011461A4656F04DF941F20040C1F6FF706FF07F4155F0EC
S32D0000FCA06BFB7B6803F104023B6803F1060341F20040C1F6FF7011461A4656F037F941F20040C1F6FF706FF095
S32D0000FCC87F4155F055FB7B6803F104023B6803F1070341F20040C1F6FF7011461A4656F021F941F20040C1F661
S32D0000FCF0FF706FF07F4155F03FFB7B6803F104023B6803F1080341F20040C1F6FF7011461A4656F00BF941F28D
S32D0000FD180040C1F6FF706FF07F4155F029FB7B6803F104023B6803F1090341F20040C1F6FF7011461A4656F0B9
S32D0000FD40F5F841F20040C1F6FF706FF07F4155F013FB7B6803F104023B6803F10A0341F20040C1F6FF7011462C
S32D0000FD681A4656F0DFF841F20040C1F6FF706FF07F4155F0FDFA7B6803F104023B6803F10B0341F20040C1F650
S32D0000FD90FF7011461A4656F0C9F841F20040C1F6FF706FF07F4155F0E7FA7B6803F104023B6803F10C0341F284
S32D0000FDB80040C1F6FF7011461A4656F0B3F841F20040C1F6FF706FF07F4155F0D1FA7B6803F104023B6803F1D3
S32D0000FDE00D0341F20040C1F6FF7011461A4656F09DF841F20040C1F6FF706FF07F4155F0BBFA7B6803F104022B
S32D0000FE083B6803F10E0341F20040C1F6FF7011461A4656F087F841F20040C1F6FF706FF07F4155F0A5FA7B6890
S32D0000FE3003F104023B6803F10F0341F20040C1F6FF7011461A4656F071F841F20040C1F6FF706FF07F4155F005
S32D0000FE588FFA7B6803F104023B6803F1100341F20040C1F6FF7011461A4656F05BF841F20040C1F6FF706FF08B
S32D0000FE807F4155F079FA7B6803F104023B6803F1110341F20040C1F6FF7011461A4656F045F841F20040C1F657
S32D0000FEA8FF706FF07F4155F063FA7B6803F104023B6803F1120341F20040C1F6FF7011461A4656F02FF841F283
S32D0000FED00040C1F6FF7047F67F71C0F27F0155F04BFA7B6803F104023B6803F1130341F20040C1F6FF7011463B
S32D0000FEF81A4656F017F841F20040C1F6FF7047F67F71C0F27F0155F033FA7B6803F104023B6803F1140341F2FF
S32D0000FF200040C1F6FF7011461A4655F0FFFF41F20040C1F6FF7047F67F71C0F27F0155F01BFA7B6803F1040224
S32D0000FF483B6803F1150341F20040C1F6FF7011461A4655F0E7FF41F20040C1F6FF7047F67F71C0F27F0155F024
S32D0000FF7003FA7B6803F104023B6803F1160341F20040C1F6FF7011461A4655F0CFFF41F20040C1F6FF7047F6A0
S32D0000FF987F71C0F27F0155F0EBF97B6803F104023B6803F1170341F20040C1F6FF7011461A4655F0B7FF41F2E4
S32D0000FFC00040C1F6FF7047F67F71C0F27F0155F0D3F97B6803F104023B6803F1180341F20040C1F6FF701146BE
S32D0000FFE81A4655F09FFF41F20040C1F6FF7047F67F71C0F27F0155F0BBF97B6803F104023B6803F1190341F2F4
S32D000100100040C1F6FF7011461A4655F087FF41F20040C1F6FF7047F67F71C0F27F0155F0A3F97B6803F1040223
S32D000100383B6803F11A0341F20040C1F6FF7011461A4655F06FFF41F20040C1F6FF7047F67F71C0F27F0155F0A5
S32D000100608BF97B6803F104023B6803F11B0341F20040C1F6FF7011461A4655F057FF41F20040C1F6FF7047F69A
S32D000100887F71C0F27F0155F073F97B6803F104023B6803F11C0341F20040C1F6FF7011461A4655F03FFF41F2DD
S32D000100B00040C1F6FF706FF07F4155F05DF97B6803F104023B6803F11D0341F20040C1F6FF7011461A4655F0D8
S32D000100D829FF41F20040C1F6FF706FF07F4155F047F97B6803F104023B6803F11E0341F20040C1F6FF7011460F
S32D000101001A4655F013FF41F20040C1F6FF706FF07F4155F031F97B6803F104023B6803F11F0341F20040C1F632
S32D00010128FF7011461A4655F0FDFE41F20040C1F6FF706FF07F4155F01BF97B6803F104023B6803F1200341F267
S32D000101500040C1F6FF7011461A4655F0E7FE41F20040C1F6FF706FF07F4155F005F97B6803F104023B6803F1CA
S32D00010178210341F20040C1F6FF7011461A4655F0D1FE41F20040C1F6FF706FF07F4155F0EFF87B6803F104020F
S32D000101A03B6803F1220341F20040C1F6FF7011461A4655F0BBFE41F20040C1F6FF706FF07F4155F0D9F87B6875
S32D000101C803F104023B6803F1230341F20040C1F6FF7011461A4655F0A5FE41F20040C1F6FF706FF07F4155F01C
S32D000101F0C3F87B6803F104023B6803F1240341F20040C1F6FF7011461A4655F08FFE41F20040C1F6FF706FF070
S32D000102187F4155F0ADF87B6803F104023B6803F1250341F20040C1F6FF7011461A4655F079FE41F20040C1F63B
S32D00010240FF706FF07F4155F097F87B6803F104023B6803F1260341F20040C1F6FF7011461A4655F063FE41F267
S32D000102680040C1F6FF706FF07F4155F081F87B6803F104023B6803F1270341F20040C1F6FF7011461A4655F0F1
S32D000102904DFE41F20040C1F6FF706FF07F4155F06BF87B6803F104023B6803F1280341F20040C1F6FF70114605
S32D000102B81A4655F037FE41F20040C1F6FF706FF07F4155F055F87B6803F104023B6803F1290341F20040C1F629
S32D000102E0FF7011461A4655F021FE41F20040C1F6FF706FF07F4155F03FF87B6803F104023B6803F12A0341F25D
S32D000103080040C1F6FF7011461A4655F00BFE41F20040C1F6FF706FF07F4155F029F87B6803F1050341F20040EB
S32D00010330C1F6FF7019463A6855F0F8FD41F20040C1F6FF706FF07F4155F016F87B6803F105023B6803F10103B9
S32D0001035841F20040C1F6FF7011461A4655F0E2FD41F20040C1F6FF706FF07F4155F000F87B6803F105023B688C
S32D0001038003F1020341F20040C1F6FF7011461A4655F0CCFD41F20040C1F6FF706FF07F4154F0EAFF7B6803F13B
S32D000103A805023B6803F1030341F20040C1F6FF7011461A4655F0B6FD41F20040C1F6FF706FF07F4154F0D4FF6B
S32D000103D07B6803F105023B6803F1040341F20040C1F6FF7011461A4655F0A0FD41F20040C1F6FF706FF07F4198
S32D000103F854F0BEFF7B6803F105023B6803F1050341F20040C1F6FF7011461A4655F08AFD41F20040C1F6FF70A3
S32D000104206FF07F4154F0A8FF7B6803F105023B6803F1060341F20040C1F6FF7011461A4655F074FD41F20040AC
S32D00010448C1F6FF706FF07F4154F092FF7B6803F105023B6803F1070341F20040C1F6FF7011461A4655F05EFDFC
S32D0001047041F20040C1F6FF706FF07F4154F07CFF7B6803F105023B6803F1080341F20040C1F6FF7011461A4616
S32D0001049855F048FD41F20040C1F6FF706FF07F4154F066FF7B6803F105023B6803F1090341F20040C1F6FF7030
S32D000104C011461A4655F032FD41F20040C1F6FF706FF07F4154F050FF7B6803F105023B6803F10A0341F20040A2
S32D000104E8C1F6FF7011461A4655F01CFD41F20040C1F6FF706FF07F4154F03AFF7B6803F105023B6803F10B03F2
S32D0001051041F20040C1F6FF7011461A4655F006FD41F20040C1F6FF706FF07F4154F024FF7B6803F105023B6884
S32D0001053803F10C0341F20040C1F6FF7011461A4655F0F0FC41F20040C1F6FF706FF07F4154F00EFF7B6803F130
S32D0001056005023B6803F10D0341F20040C1F6FF7011461A4655F0DAFC41F20040C1F6FF706FF07F4154F0F8FE61
S32D000105887B6803F105023B6803F10E0341F20040C1F6FF7011461A4655F0C4FC41F20040C1F6FF706FF07F41B1
S32D000105B054F0E2FE7B6803F105023B6803F10F0341F20040C1F6FF7011461A4655F0AEFC41F20040C1F6FF7099
S32D000105D86FF07F4154F0CCFE7B6803F105023B6803F1100341F20040C1F6FF7011461A4655F098FC41F20040A3
S32D00010600C1F6FF706FF07F4154F0B6FE7B6803F105023B6803F1110341F20040C1F6FF7011461A4655F082FCF2
S32D0001062841F20040C1F6FF706FF07F4154F0A0FE7B6803F105023B6803F1120341F20040C1F6FF7011461A462F
S32D0001065055F06CFC41F20040C1F6FF706FF07F4154F08AFE7B6803F105023B6803F1130341F20040C1F6FF7026
S32D0001067811461A4655F056FC41F20040C1F6FF706FF07F4154F074FE7B6803F105023B6803F1140341F2004098
S32D000106A0C1F6FF7011461A4655F040FC41F20040C1F6FF7047F67F71C0F2FF0154F05CFE7B6803F105023B6836
S32D000106C803F1150341F20040C1F6FF7011461A4655F028FC41F20040C1F6FF7047F67F71C0F2FF0154F044FE40
S32D000106F07B6803F105023B6803F1160341F20040C1F6FF7011461A4655F010FC41F20040C1F6FF7047F67F71E6
S32D00010718C0F2FF0154F02CFE7B6803F105023B6803F1170341F20040C1F6FF7011461A4655F0F8FB41F2004008
S32D00010740C1F6FF7047F67F71C0F2FF0154F014FE7B6803F105023B6803F1180341F20040C1F6FF7011461A464F
S32D0001076855F0E0FB41F20040C1F6FF7047F67F71C0F2FF0154F0FCFD7B6803F105023B6803F1190341F2004089
S32D00010790C1F6FF7011461A4655F0C8FB41F20040C1F6FF7047F67F71C0F2FF0154F0E4FD7B6803F105023B6837
S32D000107B803F11A0341F20040C1F6FF7011461A4655F0B0FB41F20040C1F6FF7047F67F71C0F2FF0154F0CCFD3C
S32D000107E07B6803F105023B6803F11B0341F20040C1F6FF7011461A4655F098FB41F20040C1F6FF7047F67F7169
S32D00010808C0F2FF0154F0B4FD7B6803F105023B6803F11C0341F20040C1F6FF7011461A4655F080FB41F2004003
S32D00010830C1F6FF7047F67F71C0F2FF0154F09CFD7B6803F105023B6803F11D0341F20040C1F6FF7011461A46D2
S32D0001085855F068FB41F20040C1F6FF7047F67F71C0F2FF0154F084FD7B6803F105023B6803F11E0341F2004083
S32D00010880C1F6FF7011461A4655F050FB41F20040C1F6FF706FF07F4154F06EFD7B6803F105023B6803F11F03DE
S32D000108A841F20040C1F6FF7011461A4655F03AFB41F20040C1F6FF706FF07F4154F058FD7B6803F105023B6885
S32D000108D003F1200341F20040C1F6FF7011461A4655F024FB41F20040C1F6FF706FF07F4154F042FD7B6803F11C
S32D000108F805023B6803F1210341F20040C1F6FF7011461A4655F00EFB41F20040C1F6FF706FF07F4154F02CFD4C
S32D000109207B6803F105023B6803F1220341F20040C1F6FF7011461A4655F0F8FA41F20040C1F6FF706FF07F41CF
S32D0001094854F016FD7B6803F105023B6803F1230341F20040C1F6FF7011461A4655F0E2FA41F20040C1F6FF7084
S32D000109706FF07F4154F000FD7B6803F105023B6803F1240341F20040C1F6FF7011461A4655F0CCFA41F200408E
S32D00010998C1F6FF706FF07F4154F0EAFC7B6803F105023B6803F1250341F20040C1F6FF7011461A4655F0B6FADF
S32D000109C041F20040C1F6FF706FF07F4154F0D4FC7B6803F105023B6803F1260341F20040C1F6FF7011461A464E
S32D000109E855F0A0FA41F20040C1F6FF706FF07F4154F0BEFC7B6803F105023B6803F1270341F20040C1F6FF7013
S32D00010A1011461A4655F08AFA41F20040C1F6FF706FF07F4154F0A8FC7B6803F105023B6803F1280341F2004084
S32D00010A38C1F6FF7011461A4655F074FA41F20040C1F6FF706FF07F4154F092FC7B6803F105023B6803F12903D4
S32D00010A6041F20040C1F6FF7011461A4655F05EFA41F20040C1F6FF706FF07F4154F07CFC7B6803F105023B6885
S32D00010A8803F12A0341F20040C1F6FF7011461A4655F048FA41F20040C1F6FF706FF07F4154F066FC7B6803F112
S32D00010AB0060341F20040C1F6FF7019463A6855F035FA41F20040C1F6FF706FF07F4154F053FC7B6803F10602D6
S32D00010AD83B6803F1010341F20040C1F6FF7011461A4655F01FFA41F20040C1F6FF706FF07F4154F03DFC7B688E
S32D00010B0003F106023B6803F1020341F20040C1F6FF7011461A4655F009FA41F20040C1F6FF706FF07F4154F09A
S32D00010B2827FC7B6803F106023B6803F1030341F20040C1F6FF7011461A4655F0F3F941F20040C1F6FF706FF086
S32D00010B507F4154F011FC7B6803F106023B6803F1040341F20040C1F6FF7011461A4655F0DDF941F20040C1F653
S32D00010B78FF706FF07F4154F0FBFB7B6803F106023B6803F1050341F20040C1F6FF7011461A4655F0C7F941F280
S32D00010BA00040C1F6FF706FF07F4154F0E5FB7B6803F106023B6803F1060341F20040C1F6FF7011461A4655F069
S32D00010BC8B1F941F20040C1F6FF706FF07F4154F0CFFB7B6803F106023B6803F1070341F20040C1F6FF7011461E
S32D00010BF01A4655F09BF941F20040C1F6FF706FF07F4154F0B9FB7B6803F106023B6803F1080341F20040C1F642
S32D00010C18FF7011461A4655F085F941F20040C1F6FF706FF07F4154F0A3FB7B6803F106023B6803F1090341F275
S32D00010C400040C1F6FF7011461A4655F06FF941F20040C1F6FF706FF07F4154F08DFB7B6803F106023B6803F1C1
S32D00010C680A0341F20040C1F6FF7011461A4655F059F941F20040C1F6FF706FF07F4154F077FB7B6803F106021C
S32D00010C903B6803F10B0341F20040C1F6FF7011461A4655F043F941F20040C1F6FF706FF07F4154F061FB7B6884
S32D00010CB803F106023B6803F10C0341F20040C1F6FF7011461A4655F02DF941F20040C1F6FF706FF07F4154F0B4
S32D00010CE04BFB7B6803F106023B6803F10D0341F20040C1F6FF7011461A4655F017F941F20040C1F6FF706FF07C
S32D00010D087F4154F035FB7B6803F106023B6803F10E0341F20040C1F6FF7011461A4655F001F941F20040C1F648
S32D00010D30FF706FF07F4154F01FFB7B6803F106023B6803F10F0341F20040C1F6FF7011461A4655F0EBF841F275
S32D00010D580040C1F6FF706FF07F4154F009FB7B6803F106023B6803F1100341F20040C1F6FF7011461A4655F081
S32D00010D80D5F841F20040C1F6FF706FF07F4154F0F3FA7B6803F106023B6803F1110341F20040C1F6FF70114614
S32D00010DA81A4655F0BFF841F20040C1F6FF706FF07F4154F0DDFA7B6803F106023B6803F1120341F20040C1F638
S32D00010DD0FF7011461A4655F0A9F841F20040C1F6FF706FF07F4154F0C7FA7B6803F106023B6803F1130341F26C
S32D00010DF80040C1F6FF7011461A4655F093F841F20040C1F6FF706FF07F4154F0B1FA7B6803F106023B6803F1C2
S32D00010E20140341F20040C1F6FF7011461A4655F07DF841F20040C1F6FF704FF67F71C0F27F0154F099FA7B68C8
S32D00010E4803F106023B6803F1150341F20040C1F6FF7011461A4655F065F841F20040C1F6FF704FF67F71C0F25E
S32D00010E707F0154F081FA7B6803F106023B6803F1160341F20040C1F6FF7011461A4655F04DF841F20040C1F681
S32D00010E98FF704FF67F71C0F27F0154F069FA7B6803F106023B6803F1170341F20040C1F6FF7011461A4655F089
S32D00010EC035F841F20040C1F6FF704FF67F71C0F27F0154F051FA7B6803F106023B6803F1180341F20040C1F68C
S32D00010EE8FF7011461A4655F01DF841F20040C1F6FF704FF67F71C0F27F0154F039FA7B6803F106023B6803F16E
S32D00010F10190341F20040C1F6FF7011461A4655F005F841F20040C1F6FF704FF67F71C0F27F0154F021FA7B68C2
S32D00010F3803F106023B6803F11A0341F20040C1F6FF7011461A4654F0EDFF41F20040C1F6FF704FF67F71C0F2DA
S32D00010F607F0154F009FA7B6803F106023B6803F11B0341F20040C1F6FF7011461A4654F0D5FF41F20040C1F675
S32D00010F88FF704FF67F71C0F27F0154F0F1F97B6803F106023B6803F11C0341F20040C1F6FF7011461A4654F00D
S32D00010FB0BDFF41F20040C1F6FF704FF67F71C0F27F0154F0D9F97B6803F106023B6803F11D0341F20040C1F680
S32D00010FD8FF7011461A4654F0A5FF41F20040C1F6FF704FF67F71C0F27F0154F0C1F97B6803F106023B6803F168
S32D000110001E0341F20040C1F6FF7011461A4654F08DFF41F20040C1F6FF706FF07F4154F0ABF97B6803F1060201
S32D000110283B6803F11F0341F20040C1F6FF7011461A4654F077FF41F20040C1F6FF706FF07F4154F095F97B6869
S32D0001105003F106023B6803F1200341F20040C1F6FF7011461A4654F061FF41F20040C1F6FF706FF07F4154F0CB
S32D000110787FF97B6803F106023B6803F1210341F20040C1F6FF7011461A4654F04BFF41F20040C1F6FF706FF061
S32D000110A07F4154F069F97B6803F106023B6803F1220341F20040C1F6FF7011461A4654F035FF41F20040C1F62E
S32D000110C8FF706FF07F4154F053F97B6803F106023B6803F1230341F20040C1F6FF7011461A4654F01FFF41F25A
S32D000110F00040C1F6FF706FF07F4154F03DF97B6803F106023B6803F1240341F20040C1F6FF7011461A4654F0A1
S32D0001111809FF41F20040C1F6FF706FF07F4154F027F97B6803F106023B6803F1250341F20040C1F6FF701146F6
S32D000111401A4654F0F3FE41F20040C1F6FF706FF07F4154F011F97B6803F106023B6803F1260341F20040C1F61C
S32D00011168FF7011461A4654F0DDFE41F20040C1F6FF706FF07F4154F0FBF87B6803F106023B6803F1270341F251
S32D000111900040C1F6FF7011461A4654F0C7FE41F20040C1F6FF706FF07F4154F0E5F87B6803F106023B6803F1BB
S32D000111B8280341F20040C1F6FF7011461A4654F0B1FE41F20040C1F6FF706FF07F4154F0CFF87B6803F10602F8
S32D000111E03B6803F1290341F20040C1F6FF7011461A4654F09BFE41F20040C1F6FF706FF07F4154F0B9F87B6860
S32D0001120803F106023B6803F12A0341F20040C1F6FF7011461A4654F085FE41F20040C1F6FF706FF07F4154F0E4
S32D00011230A3F87B6803F1070341F20040C1F6FF7019463A6854F072FE41F20040C1F6FF706FF07F4154F090F841
S32D000112587B6803F107023B6803F1010341F20040C1F6FF7011461A4654F05CFE41F20040C1F6FF706FF07F4146
S32D0001128054F07AF87B6803F107023B6803F1020341F20040C1F6FF7011461A4654F046FE41F20040C1F6FF709C
S32D000112A86FF07F4154F064F87B6803F107023B6803F1030341F20040C1F6FF7011461A4654F030FE41F20040A6
S32D000112D0C1F6FF706FF07F4154F04EF87B6803F107023B6803F1040341F20040C1F6FF7011461A4654F01AFEF6
S32D000112F841F20040C1F6FF706FF07F4154F038F87B6803F107023B6803F1050341F20040C1F6FF7011461A46CC
S32D0001132054F004FE41F20040C1F6FF706FF07F4154F022F87B6803F107023B6803F1060341F20040C1F6FF7029
S32D0001134811461A4654F0EEFD41F20040C1F6FF706FF07F4154F00CF87B6803F107023B6803F1070341F200409C
S32D00011370C1F6FF7011461A4654F0D8FD41F20040C1F6FF706FF07F4153F0F6FF7B6803F107023B6803F10803E6
S32D0001139841F20040C1F6FF7011461A4654F0C2FD41F20040C1F6FF706FF07F4153F0E0FF7B6803F107023B6876
S32D000113C003F1090341F20040C1F6FF7011461A4654F0ACFD41F20040C1F6FF706FF07F4153F0CAFF7B6803F126
S32D000113E807023B6803F10A0341F20040C1F6FF7011461A4654F096FD41F20040C1F6FF706FF07F4153F0B4FF54
S32D000114107B6803F107023B6803F10B0341F20040C1F6FF7011461A4654F080FD41F20040C1F6FF706FF07F415F
S32D0001143853F09EFF7B6803F107023B6803F10C0341F20040C1F6FF7011461A4654F06AFD41F20040C1F6FF708B
S32D000114606FF07F4153F088FF7B6803F107023B6803F10D0341F20040C1F6FF7011461A4654F054FD41F2004095
S32D00011488C1F6FF706FF07F4153F072FF7B6803F107023B6803F10E0341F20040C1F6FF7011461A4654F03EFDE5
S32D000114B041F20040C1F6FF706FF07F4153F05CFF7B6803F107023B6803F10F0341F20040C1F6FF7011461A46DE
S32D000114D854F028FD41F20040C1F6FF706FF07F4153F046FF7B6803F107023B6803F1100341F20040C1F6FF7019
S32D0001150011461A4654F012FD41F20040C1F6FF706FF07F4153F030FF7B6803F107023B6803F1110341F200408A
S32D00011528C1F6FF7011461A4654F0FCFC41F20040C1F6FF706FF07F4153F01AFF7B6803F107023B6803F11203DB
S32D0001155041F20040C1F6FF7011461A4654F0E6FC41F20040C1F6FF706FF07F4153F004FF7B6803F107023B6875
S32D0001157803F1130341F20040C1F6FF7011461A4654F0D0FC41F20040C1F6FF706FF07F4153F0EEFE7B6803F11C
S32D000115A007023B6803F1140341F20040C1F6FF7011461A4654F0BAFC41F20040C1F6FF7047F6FF71C0F27F01A3
S32D000115C853F0D6FE7B6803F107023B6803F1150341F20040C1F6FF7011461A4654F0A2FC41F20040C1F6FF7083
S32D000115F047F6FF71C0F27F0153F0BEFE7B6803F107023B6803F1160341F20040C1F6FF7011461A4654F08AFC44
S32D0001161841F20040C1F6FF7047F6FF71C0F27F0153F0A6FE7B6803F107023B6803F1170341F20040C1F6FF701A
S32D0001164011461A4654F072FC41F20040C1F6FF7047F6FF71C0F27F0153F08EFE7B6803F107023B6803F1180339
S32D0001166841F20040C1F6FF7011461A4654F05AFC41F20040C1F6FF7047F6FF71C0F27F0153F076FE7B6803F163
S32D0001169007023B6803F1190341F20040C1F6FF7011461A4654F042FC41F20040C1F6FF7047F6FF71C0F27F0125
S32D000116B853F05EFE7B6803F107023B6803F11A0341F20040C1F6FF7011461A4654F02AFC41F20040C1F6FF707D
S32D000116E047F6FF71C0F27F0153F046FE7B6803F107023B6803F11B0341F20040C1F6FF7011461A4654F012FC3E
S32D0001170841F20040C1F6FF7047F6FF71C0F27F0153F02EFE7B6803F107023B6803F11C0341F20040C1F6FF709C
S32D0001173011461A4654F0FAFB41F20040C1F6FF7047F6FF71C0F27F0153F016FE7B6803F107023B6803F11D0334
S32D0001175841F20040C1F6FF7011461A4654F0E2FB41F20040C1F6FF7047F6FF71C0F27F0153F0FEFD7B6803F164
S32D0001178007023B6803F11E0341F20040C1F6FF7011461A4654F0CAFB41F20040C1F6FF706FF07F4153F0E8FD40
S32D000117A87B6803F107023B6803F11F0341F20040C1F6FF7011461A4654F0B4FB41F20040C1F6FF706FF07F417E
S32D000117D053F0D2FD7B6803F107023B6803F1200341F20040C1F6FF7011461A4654F09EFB41F20040C1F6FF7078
S32D000117F86FF07F4153F0BCFD7B6803F107023B6803F1210341F20040C1F6FF7011461A4654F088FB41F2004082
S32D00011820C1F6FF706FF07F4153F0A6FD7B6803F107023B6803F1220341F20040C1F6FF7011461A4654F072FBD1
S32D0001184841F20040C1F6FF706FF07F4153F090FD7B6803F107023B6803F1230341F20040C1F6FF7011461A46FC
S32D0001187054F05CFB41F20040C1F6FF706FF07F4153F07AFD7B6803F107023B6803F1240341F20040C1F6FF7005
S32D0001189811461A4654F046FB41F20040C1F6FF706FF07F4153F064FD7B6803F107023B6803F1250341F2004077
S32D000118C0C1F6FF7011461A4654F030FB41F20040C1F6FF706FF07F4153F04EFD7B6803F107023B6803F12603C7
S32D000118E841F20040C1F6FF7011461A4654F01AFB41F20040C1F6FF706FF07F4153F038FD7B6803F107023B6875
S32D0001191003F1270341F20040C1F6FF7011461A4654F004FB41F20040C1F6FF706FF07F4153F022FD7B6803F106
S32D0001193807023B6803F1280341F20040C1F6FF7011461A4654F0EEFA41F20040C1F6FF706FF07F4153F00CFD35
S32D000119607B6803F107023B6803F1290341F20040C1F6FF7011461A4654F0D8FA41F20040C1F6FF706FF07F4197
S32D0001198853F0F6FC7B6803F107023B6803F12A0341F20040C1F6FF7011461A4654F0C2FA41F20040C1F6FF706E
S32D000119B06FF07F4153F0E0FC7B6803F1080341F20040C1F6FF7019463A6854F0AFFA41F20040C1F6FF706FF069
S32D000119D87F4153F0CDFC7B6803F108023B6803F1010341F20040C1F6FF7011461A4654F099FA41F20040C1F647
S32D00011A00FF706FF07F4153F0B7FC7B6803F108023B6803F1020341F20040C1F6FF7011461A4654F083FA41F272
S32D00011A280040C1F6FF706FF07F4153F0A1FC7B6803F108023B6803F1030341F20040C1F6FF7011461A4654F018
S32D00011A506DFA41F20040C1F6FF706FF07F4153F08BFC7B6803F108023B6803F1040341F20040C1F6FF7011460F
S32D00011A781A4654F057FA41F20040C1F6FF706FF07F4153F075FC7B6803F108023B6803F1050341F20040C1F634
S32D00011AA0FF7011461A4654F041FA41F20040C1F6FF706FF07F4153F05FFC7B6803F108023B6803F1060341F268
S32D00011AC80040C1F6FF7011461A4654F02BFA41F20040C1F6FF706FF07F4153F049FC7B6803F108023B6803F1B1
S32D00011AF0070341F20040C1F6FF7011461A4654F015FA41F20040C1F6FF706FF07F4153F033FC7B6803F108020F
S32D00011B183B6803F1080341F20040C1F6FF7011461A4654F0FFF941F20040C1F6FF706FF07F4153F01DFC7B6879
S32D00011B4003F108023B6803F1090341F20040C1F6FF7011461A4654F0E9F941F20040C1F6FF706FF07F4153F064
S32D00011B6807FC7B6803F108023B6803F10A0341F20040C1F6FF7011461A4654F0D3F941F20040C1F6FF706FF06E
S32D00011B907F4153F0F1FB7B6803F108023B6803F10B0341F20040C1F6FF7011461A4654F0BDF941F20040C1F63D
S32D00011BB8FF706FF07F4153F0DBFB7B6803F108023B6803F10C0341F20040C1F6FF7011461A4654F0A7F941F269
S32D00011BE00040C1F6FF706FF07F4153F0C5FB7B6803F108023B6803F10D0341F20040C1F6FF7011461A4654F032
S32D00011C0891F941F20040C1F6FF706FF07F4153F0AFFB7B6803F108023B6803F10E0341F20040C1F6FF70114605
S32D00011C301A4654F07BF941F20040C1F6FF706FF07F4153F099FB7B6803F108023B6803F10F0341F20040C1F62A
S32D00011C58FF7011461A4654F065F941F20040C1F6FF706FF07F4153F083FB7B6803F108023B6803F1100341F25E
S32D00011C800040C1F6FF7011461A4654F04FF941F20040C1F6FF706FF07F4153F06DFB7B6803F108023B6803F1B1
S32D00011CA8110341F20040C1F6FF7011461A4654F039F941F20040C1F6FF706FF07F4153F057FB7B6803F1080205
S32D00011CD03B6803F1120341F20040C1F6FF7011461A4654F023F941F20040C1F6FF706FF07F4153F041FB7B686F
S32D00011CF803F108023B6803F1130341F20040C1F6FF7011461A4654F00DF941F20040C1F6FF706FF07F4153F07D
S32D00011D202BFB7B6803F108023B6803F1140341F20040C1F6FF7011461A4654F0F7F841F20040C1F6FF706FF064
S32D00011D487F4153F015FB7B6803F108023B6803F1150341F20040C1F6FF7011461A4654F0E1F841F20040C1F632
S32D00011D70FF706FF07F4153F0FFFA7B6803F108023B6803F1160341F20040C1F6FF7011461A4654F0CBF841F25F
S32D00011D980040C1F6FF7047F67F71C0F27F0153F0E7FA7B6803F108023B6803F1170341F20040C1F6FF701146B1
S32D00011DC01A4654F0B3F841F20040C1F6FF7047F67F71C0F27F0153F0CFFA7B6803F108023B6803F1180341F2DB
S32D00011DE80040C1F6FF7011461A4654F09BF841F20040C1F6FF7047F67F71C0F27F0153F0B7FA7B6803F108020B
S32D00011E103B6803F1190341F20040C1F6FF7011461A4654F083F841F20040C1F6FF7047F67F71C0F27F0153F0A6
S32D00011E389FFA7B6803F108023B6803F11A0341F20040C1F6FF7011461A4654F06BF841F20040C1F6FF7047F680
S32D00011E607F71C0F27F0153F087FA7B6803F108023B6803F11B0341F20040C1F6FF7011461A4654F053F841F2C5
S32D00011E880040C1F6FF7047F67F71C0F27F0153F06FFA7B6803F108023B6803F11C0341F20040C1F6FF70114633
S32D00011EB01A4654F03BF841F20040C1F6FF7047F67F71C0F27F0153F057FA7B6803F108023B6803F11D0341F2D5
S32D00011ED80040C1F6FF7011461A4654F023F841F20040C1F6FF7047F67F71C0F27F0153F03FFA7B6803F108020A
S32D00011F003B6803F11E0341F20040C1F6FF7011461A4654F00BF841F20040C1F6FF7047F67F71C0F27F0153F028
S32D00011F2827FA7B6803F108023B6803F11F0341F20040C1F6FF7011461A4653F0F3FF41F20040C1F6FF7047F674
S32D00011F507F71C0F27F0153F00FFA7B6803F108023B6803F1200341F20040C1F6FF7011461A4653F0DBFF41F2B9
S32D00011F780040C1F6FF706FF07F4153F0F9F97B6803F108023B6803F1210341F20040C1F6FF7011461A4653F051
S32D00011FA0C5FF41F20040C1F6FF706FF07F4153F0E3F97B6803F108023B6803F1220341F20040C1F6FF701146EA
S32D00011FC81A4653F0AFFF41F20040C1F6FF706FF07F4153F0CDF97B6803F108023B6803F1230341F20040C1F610
S32D00011FF0FF7011461A4653F099FF41F20040C1F6FF706FF07F4153F0B7F97B6803F108023B6803F1240341F244
S32D000120180040C1F6FF7011461A4653F083FF41F20040C1F6FF706FF07F4153F0A1F97B6803F108023B6803F1AA
S32D00012040250341F20040C1F6FF7011461A4653F06DFF41F20040C1F6FF706FF07F4153F08BF97B6803F10802EA
S32D000120683B6803F1260341F20040C1F6FF7011461A4653F057FF41F20040C1F6FF706FF07F4153F075F97B6854
S32D0001209003F108023B6803F1270341F20040C1F6FF7011461A4653F041FF41F20040C1F6FF706FF07F4153F094
S32D000120B85FF97B6803F108023B6803F1280341F20040C1F6FF7011461A4653F02BFF41F20040C1F6FF706FF049
S32D000120E07F4153F049F97B6803F108023B6803F1290341F20040C1F6FF7011461A4653F015FF41F20040C1F617
S32D00012108FF706FF07F4153F033F97B6803F108023B6803F12A0341F20040C1F6FF7011461A4653F0FFFE41F243
S32D000121300040C1F6FF706FF07F4153F01DF97B6803F1090341F20040C1F6FF7019463A6853F0ECFE41F2004085
S32D00012158C1F6FF706FF07F4153F00AF97B6803F109023B6803F1010341F20040C1F6FF7011461A4653F0D6FEE9
S32D0001218041F20040C1F6FF706FF07F4153F0F4F87B6803F109023B6803F1020341F20040C1F6FF7011461A467B
S32D000121A853F0C0FE41F20040C1F6FF706FF07F4153F0DEF87B6803F109023B6803F1030341F20040C1F6FF701E
S32D000121D011461A4653F0AAFE41F20040C1F6FF706FF07F4153F0C8F87B6803F109023B6803F1040341F2004090
S32D000121F8C1F6FF7011461A4653F094FE41F20040C1F6FF706FF07F4153F0B2F87B6803F109023B6803F10503E0
S32D0001222041F20040C1F6FF7011461A4653F07EFE41F20040C1F6FF706FF07F4153F09CF87B6803F109023B686C
S32D0001224803F1060341F20040C1F6FF7011461A4653F068FE41F20040C1F6FF706FF07F4153F086F87B6803F121
S32D0001227009023B6803F1070341F20040C1F6FF7011461A4653F052FE41F20040C1F6FF706FF07F4153F070F84D
S32D000122987B6803F109023B6803F1080341F20040C1F6FF7011461A4653F03CFE41F20040C1F6FF706FF07F410E
S32D000122C053F05AF87B6803F109023B6803F1090341F20040C1F6FF7011461A4653F026FE41F20040C1F6FF7085
S32D000122E86FF07F4153F044F87B6803F109023B6803F10A0341F20040C1F6FF7011461A4653F010FE41F200408F
S32D00012310C1F6FF706FF07F4153F02EF87B6803F109023B6803F10B0341F20040C1F6FF7011461A4653F0FAFDDF
S32D0001233841F20040C1F6FF706FF07F4153F018F87B6803F109023B6803F10C0341F20040C1F6FF7011461A4693
S32D0001236053F0E4FD41F20040C1F6FF706FF07F4153F002F87B6803F109023B6803F10D0341F20040C1F6FF7013
S32D0001238811461A4653F0CEFD41F20040C1F6FF706FF07F4152F0ECFF7B6803F109023B6803F10E0341F200407F
S32D000123B0C1F6FF7011461A4653F0B8FD41F20040C1F6FF706FF07F4152F0D6FF7B6803F109023B6803F10F03CF
S32D000123D841F20040C1F6FF7011461A4653F0A2FD41F20040C1F6FF706FF07F4152F0C0FF7B6803F109023B6866
S32D0001240003F1100341F20040C1F6FF7011461A4653F08CFD41F20040C1F6FF706FF07F4152F0AAFF7B6803F110
S32D0001242809023B6803F1110341F20040C1F6FF7011461A4653F076FD41F20040C1F6FF706FF07F4152F094FF3C
S32D000124507B6803F109023B6803F1120341F20040C1F6FF7011461A4653F060FD41F20040C1F6FF706FF07F4127
S32D0001247852F07EFF7B6803F109023B6803F1130341F20040C1F6FF7011461A4653F04AFD41F20040C1F6FF7074
S32D000124A06FF07F4152F068FF7B6803F109023B6803F1140341F20040C1F6FF7011461A4653F034FD41F200407E
S32D000124C8C1F6FF706FF07F4152F052FF7B6803F109023B6803F1150341F20040C1F6FF7011461A4653F01EFDCE
S32D000124F041F20040C1F6FF706FF07F4152F03CFF7B6803F109023B6803F1160341F20040C1F6FF7011461A46A6
S32D0001251853F008FD41F20040C1F6FF7047F67F71C0F2FF0152F024FF7B6803F109023B6803F1170341F2004069
S32D00012540C1F6FF7011461A4653F0F0FC41F20040C1F6FF7047F67F71C0F2FF0152F00CFF7B6803F109023B6816
S32D0001256803F1180341F20040C1F6FF7011461A4653F0D8FC41F20040C1F6FF7047F67F71C0F2FF0152F0F4FE22
S32D000125907B6803F109023B6803F1190341F20040C1F6FF7011461A4653F0C0FC41F20040C1F6FF7047F67F7172
S32D000125B8C0F2FF0152F0DCFE7B6803F109023B6803F11A0341F20040C1F6FF7011461A4653F0A8FC41F20040E6
S32D000125E0C1F6FF7047F67F71C0F2FF0152F0C4FE7B6803F109023B6803F11B0341F20040C1F6FF7011461A46DC
S32D0001260853F090FC41F20040C1F6FF7047F67F71C0F2FF0152F0ACFE7B6803F109023B6803F11C0341F2004065
S32D00012630C1F6FF7011461A4653F078FC41F20040C1F6FF7047F67F71C0F2FF0152F094FE7B6803F109023B6816
S32D0001265803F11D0341F20040C1F6FF7011461A4653F060FC41F20040C1F6FF7047F67F71C0F2FF0152F07CFE1C
S32D000126807B6803F109023B6803F11E0341F20040C1F6FF7011461A4653F048FC41F20040C1F6FF7047F67F71F4
S32D000126A8C0F2FF0152F064FE7B6803F109023B6803F11F0341F20040C1F6FF7011461A4653F030FC41F20040E0
S32D000126D0C1F6FF7047F67F71C0F2FF0152F04CFE7B6803F109023B6803F1200341F20040C1F6FF7011461A465E
S32D000126F853F018FC41F20040C1F6FF706FF07F4152F036FE7B6803F109023B6803F1210341F20040C1F6FF70F8
S32D0001272011461A4653F002FC41F20040C1F6FF706FF07F4152F020FE7B6803F109023B6803F1220341F2004069
S32D00012748C1F6FF7011461A4653F0ECFB41F20040C1F6FF706FF07F4152F00AFE7B6803F109023B6803F12303BA
S32D0001277041F20040C1F6FF7011461A4653F0D6FB41F20040C1F6FF706FF07F4152F0F4FD7B6803F109023B6866
S32D0001279803F1240341F20040C1F6FF7011461A4653F0C0FB41F20040C1F6FF706FF07F4152F0DEFD7B6803F1FD
S32D000127C009023B6803F1250341F20040C1F6FF7011461A4653F0AAFB41F20040C1F6FF706FF07F4152F0C8FD29
S32D000127E87B6803F109023B6803F1260341F20040C1F6FF7011461A4653F094FB41F20040C1F6FF706FF07F4146
S32D0001281052F0B2FD7B6803F109023B6803F1270341F20040C1F6FF7011461A4653F07EFB41F20040C1F6FF7060
S32D000128386FF07F4152F09CFD7B6803F109023B6803F1280341F20040C1F6FF7011461A4653F068FB41F200406A
S32D00012860C1F6FF706FF07F4152F086FD7B6803F109023B6803F1290341F20040C1F6FF7011461A4653F052FBBA
S32D0001288841F20040C1F6FF706FF07F4152F070FD7B6803F109023B6803F12A0341F20040C1F6FF7011461A46C4
S32D000128B053F03CFB41F20040C1F6FF706FF07F4152F05AFD7B6803F10A0341F20040C1F6FF7019463A6853F06D
S32D000128D829FB41F20040C1F6FF706FF07F4152F047FD7B6803F10A023B6803F1010341F20040C1F6FF70114601
S32D000129001A4653F013FB41F20040C1F6FF706FF07F4152F031FD7B6803F10A023B6803F1020341F20040C1F626
S32D00012928FF7011461A4653F0FDFA41F20040C1F6FF706FF07F4152F01BFD7B6803F10A023B6803F1030341F25B
S32D000129500040C1F6FF7011461A4653F0E7FA41F20040C1F6FF706FF07F4152F005FD7B6803F10A023B6803F1A1
S32D00012978040341F20040C1F6FF7011461A4653F0D1FA41F20040C1F6FF706FF07F4152F0EFFC7B6803F10A0203
S32D000129A03B6803F1050341F20040C1F6FF7011461A4653F0BBFA41F20040C1F6FF706FF07F4152F0D9FC7B686F
S32D000129C803F10A023B6803F1060341F20040C1F6FF7011461A4653F0A5FA41F20040C1F6FF706FF07F4152F014
S32D000129F0C3FC7B6803F10A023B6803F1070341F20040C1F6FF7011461A4653F08FFA41F20040C1F6FF706FF061
S32D00012A187F4152F0ADFC7B6803F10A023B6803F1080341F20040C1F6FF7011461A4653F079FA41F20040C1F62F
S32D00012A40FF706FF07F4152F097FC7B6803F10A023B6803F1090341F20040C1F6FF7011461A4653F063FA41F25B
S32D00012A680040C1F6FF706FF07F4152F081FC7B6803F10A023B6803F10A0341F20040C1F6FF7011461A4653F0E1
S32D00012A904DFA41F20040C1F6FF706FF07F4152F06BFC7B6803F10A023B6803F10B0341F20040C1F6FF701146F7
S32D00012AB81A4653F037FA41F20040C1F6FF706FF07F4152F055FC7B6803F10A023B6803F10C0341F20040C1F61D
S32D00012AE0FF7011461A4653F021FA41F20040C1F6FF706FF07F4152F03FFC7B6803F10A023B6803F10D0341F251
S32D00012B080040C1F6FF7011461A4653F00BFA41F20040C1F6FF706FF07F4152F029FC7B6803F10A023B6803F1A0
S32D00012B300E0341F20040C1F6FF7011461A4653F0F5F941F20040C1F6FF706FF07F4152F013FC7B6803F10A02F8
