S01200002E2E2F44696E6F47616D652E73313953
S32D0000C00000000020011806005D1B06005D1B06005D1B06005D1B06005D1B06000000000000000000000000005D
S32D0000C028000000005D1B06005D1B0600000000005D1B06005D1B06005D1B06005D1B06005D1B06005D1B0600FA
S32D0000C0505D1B06005D1B06005D1B06005D1B06005D1B06005D1B06005D1B06005D1B06005D1B06005D1B0600D6
S32D0000C0785D1B06005D1B06005D1B06005D1B06005D1B06005D1B06005D1B06005D1B06005D1B06005D1B0600AE
S32D0000C0A05D1B06005D1B06005D1B06005D1B06005D1B06005D1B06005D1B06005D1B06005D1B06005D1B060086
S32D0000C0C85D1B06005D1B06005D1B06005D1B06005D1B06005D1B06005D1B06005D1B06005D1B06005D1B06005E
S32D0000C0F05D1B0600ED7006005D1B06005D1B06005D1B06005D1B06005D1B06005D1B06005D1B06005D1B060051
S32D0000C1185D1B06005D1B06005D1B06005D1B06005D1B06005D1B06005D1B06005D1B06005D1B06005D1B06000D
S32D0000C1405D1B06005D1B06005D1B06005D1B0600B54606005D1B06005D1B06005D1B06005D1B06005D1B060062
S32D0000C1685D1B06005D1B06005D1B06005D1B06005D1B06005D1B06005D1B06005D1B06005D1B06005D1B0600BD
S32D0000C1905D1B06005D1B06005D1B0600E94206003D41060011420600AD1B0600C14306005D1B06005D1B060025
S32D0000C1B85D1B06005D1B06005D1B06005D1B06005D1B06005D1B06005D1B06005D1B06005D1B06005D1B06006D
S32D0000C41081F0004102E000BF83F0004330B54FEA41044FEA430594EA050F08BF90EA020F1FBF54EA000C55EAC6
S32D0000C438020C7FEA645C7FEA655C00F0E2804FEA5454D4EB5555B8BF6D420CDD2C4480EA020281EA030382EA0F
S32D0000C460000083EA010180EA020281EA0303362D88BF30BD11F0004F4FEA01314FF4801C4CEA113102D0404263
S32D0000C48861EB410113F0004F4FEA03334CEA133302D0524263EB430394EA050F00F0A780A4F10104D5F1200E8A
S32D0000C4B00DDB02FA0EFC22FA05F2801841F1000103FA0EF2801843FA05F359410EE0A5F120050EF1200E012A2D
S32D0000C4D803FA0EFC28BF4CF0020C43FA05F3C01851EBE37101F0004507D54FF0000EDCF1000C7EEB00006EEB67
S32D0000C5000101B1F5801F1BD3B1F5001F0CD349085FEA30004FEA3C0C04F101044FEA445212F5800F80F09A8000
S32D0000C528BCF1004F08BF5FEA500C50F1000041EB045141EA050130BD5FEA4C0C404141EB010111F4801FA4F114
S32D0000C5500104E9D191F0000F04BF01460020B1FA81F308BF2033A3F10B03B3F120020CDA0C3208DD02F1140C87
S32D0000C578C2F10C0201FA0CF021FA02F10CE002F11402D8BFC2F1200C01FA02F120FA0CFCDCBF41EA0C019040B1
S32D0000C5A0E41AA2BF01EB0451294330BD6FEA04041F3C1CDA0C340EDC04F11404C4F1200220FA04F001FA02F3B6
S32D0000C5C840EA030021FA04F345EA030130BDC4F10C04C4F1200220FA02F001FA04F340EA0300294630BD21FAA8
S32D0000C5F004F0294630BD94F0000F83F4801306BF81F480110134013D4EE77FEA645C18BF7FEA655C29D094EA1C
S32D0000C618050F08BF90EA020F05D054EA000C04BF1946104630BD91EA030F1EBF0021002030BD5FEA545C05D1A3
S32D0000C6404000494128BF41F0004130BD14F580043CBF01F5801130BD01F0004545F0FE4141F470014FF0000031
S32D0000C66830BD7FEA645C1ABF194610467FEA655C1CBF0B46024650EA013406BF52EA033591EA030F41F40021D7
S32D0000C69030BD00BF90F0000F04BF0021704730B54FF4806404F132044FF000054FF0000150E700BF90F0000F66
S32D0000C6B804BF0021704730B54FF4806404F1320410F0004548BF40424FF000013EE700BF42004FEAE2014FEAF9
S32D0000C6E031014FEA02701FBF12F07F4393F07F4F81F06051704792F0000F14BF93F07F4F704730B54FF460741B
S32D0000C70801F0004521F0004120E700BF50EA010208BF704730B54FF000050AE050EA010208BF704730B511F046
S32D0000C730004502D5404261EB41014FF4806404F132045FEA915C3FF4DCAE4FF003025FEADC0C18BF03325FEAA0
S32D0000C758DC0C18BF033202EBDC02C2F1200300FA03FC20FA02F001FA03FE40EA0E0021FA02F11444C1E600BF19
S32D0000C78070B54FF0FF0C4CF4E06C1CEA11541DBF1CEA135594EA0C0F95EA0C0F00F0DEF82C4481EA030621EAF3
S32D0000C7A84C5123EA4C5350EA013518BF52EA033541F4801143F4801338D0A0FB02CE4FF00005E1FB02E506F05F
S32D0000C7D00042E0FB03E54FF00006E1FB03569CF0000F18BF4EF0010EA4F1FF04B6F5007F64F5407404D25FEA0F
S32D0000C7F84E0E6D4146EB060642EAC62141EA55514FEAC52040EA5E504FEACE2EB4F1FD0C88BFBCF5E06F1ED8D2
S32D0000C820BEF1004F08BF5FEA500E50F1000041EB045170BD06F0004646EA010140EA020081EA0301B4EB5C0487
S32D0000C848C2BFD4EB0C0541EA045170BD41F480114FF0000E013C00F3AB8014F1360FDEBF002001F0004170BDF0
S32D0000C870C4F10004203C35DA0C341BDC04F11404C4F1200500FA05F320FA04F001FA05F240EA020001F0004207
S32D0000C89821F0004110EBD37021FA04F642EB06015EEA430E08BF20EAD37070BDC4F10C04C4F1200500FA04F32F
S32D0000C8C020FA05F001FA04F240EA020001F0004110EBD37041F100015EEA430E08BF20EAD37070BDC4F12005C7
S32D0000C8E800FA05F24EEA020E20FA04F301FA05F243EA020321FA04F001F0004121FA04F220EA020000EBD37028
S32D0000C9105EEA430E08BF20EAD37070BD94F0000F0FD101F00046400041EB010111F4801F08BF013CF7D041EA6D
S32D0000C938060195F0000F18BF704703F00046520043EB030313F4801F08BF013DF7D043EA0603704794EA0C0FF1
S32D0000C9600CEA135518BF95EA0C0F0CD050EA410618BF52EA4306D1D181EA030101F000414FF0000070BD50EA38
S32D0000C988410606BF1046194652EA430619D094EA0C0F02D150EA013613D195EA0C0F05D152EA03361CBF10467B
S32D0000C9B019460AD181EA030101F0004141F0FE4141F470014FF0000070BD41F0FE4141F4780170BD70B54FF04D
S32D0000C9D8FF0C4CF4E06C1CEA11541DBF1CEA135594EA0C0F95EA0C0F00F0A7F8A4EB050481EA030E52EA03359B
S32D0000CA004FEA013100F088804FEA03334FF0805545EA131343EA12634FEA022245EA111545EA10654FEA002676
S32D0000CA280EF000419D4208BF964244F1FD0404F5407402D25B084FEA3202B61A65EB03055B084FEA32024FF461
S32D0000CA5080104FF4002CB6EB020E75EB030E22BFB61A754640EA0C005B084FEA3202B6EB020E75EB030E22BF22
S32D0000CA78B61A754640EA5C005B084FEA3202B6EB020E75EB030E22BFB61A754640EA9C005B084FEA3202B6EBEA
S32D0000CAA0020E75EB030E22BFB61A754640EADC0055EA060E18D04FEA051545EA16754FEA06164FEAC30343EAAC
S32D0000CAC852734FEAC2025FEA1C1CC0D111F4801F0BD141EA00014FF000004FF0004CB6E711F4801F04BF0143AE
S32D0000CAF00020B4F1FD0C88BFBCF5E06F3FF6AFAEB5EB030C04BFB6EB020C5FEA500C50F1000041EB045170BDBC
S32D0000CB180EF0004E4EEA113114EB5C04C2BFD4EB0C0541EA045170BD41F480114FF0000E013C90E645EA060EC3
S32D0000CB408DE60CEA135594EA0C0F08BF95EA0C0F3FF43BAF94EA0C0F0AD150EA01347FF434AF95EA0C0F7FF499
S32D0000CB6825AF104619462CE795EA0C0F06D152EA03353FF4FDAE1046194622E750EA410618BF52EA43067FF432
S32D0000CB90C5AE50EA41047FF40DAF52EA43057FF4EBAE12E74A0011D212F5001211D20DD56FF47873B3EB625222
S32D0000CBB80ED44FEAC12343F0004343EA505323FA02F070474FF00000704750EA013002D14FF0FF3070474FF0AC
S32D0000CBE0000070474FEA4102B2F1E04324BFB3F5001CDCF1FE5C0DD901F0004C4FEAC0024CEA5070B2F1004F5A
S32D0000CC0840EB830008BF20F00100704711F0804F21D113F13872BCBF01F00040704741F480114FEA5252C2F198
S32D0000CC301802C2F1200C10FA0CF320FA02F018BF40F001004FEAC1234FEAD32303FA0CFC40EA0C0023FA02F327
S32D0000CC584FEA4303CCE77FEA625307D150EA01331EBF4FF0FE4040F44000704701F0004040F0FE4040F40000C0
S32D0000CC80704700BF80F0004002E000BF81F0004142001FBF5FEA410392EA030F7FEA226C7FEA236C6AD04FEA70
S32D0000CCA81262D2EB1363C1BFD218414048404140B8BF5B42192B88BF704710F0004F40F4000020F07F4018BF44
S32D0000CCD0404211F0004F41F4000121F07F4118BF494292EA030F3FD0A2F1010241FA03FC10EB0C00C3F12003B0
S32D0000CCF801FA03F100F0004302D5494260EB4000B0F5000F13D3B0F1807F06D340084FEA310102F10102FE2A1B
S32D0000CD2051D2B1F1004F40EBC25008BF20F0010040EA03007047490040EB000010F4000FA2F10102EDD1B0FA53
S32D0000CD4880FCACF1080CB2EB0C0200FA0CF0AABF00EBC25052421843BCBFD0401843704792F0000F81F40001F6
S32D0000CD7006BF80F400000132013BB5E74FEA41037FEA226C18BF7FEA236C21D092EA030F04D092F0000F08BF63
S32D0000CD980846704790EA010F1CBF0020704712F07F4F04D1400028BF40F00040704712F100723CBF00F50000D4
S32D0000CDC0704700F0004343F0FE4040F4000070477FEA226216BF08467FEA23630146420206BF5FEA412390EA89
S32D0000CDE8010F40F4800070474FF0000304E000BF10F0004348BF40425FEA000C08BF704743F0964301464FF08C
S32D0000CE1000001CE050EA010208BF70474FF000030AE000BF50EA010208BF704711F0004302D5404261EB41016C
S32D0000CE385FEA010C02BF84460146002043F0B64308BFA3F18053A3F50003BCFA8CF2083AA3EBC25310DB01FA90
S32D0000CE6002FC634400FA02FCC2F12002BCF1004F20FA02F243EB020008BF20F00100704702F1200201FA02FC5B
S32D0000CE88C2F1200250EA4C0021FA02F243EB020008BF20EADC7070474FF0FF0C1CEAD0521EBF1CEAD15392EA19
S32D0000CEB00C0F93EA0C0F6FD01A4480EA010C400218BF5FEA41211ED04FF0006343EA501043EA5111A0FB013150
S32D0000CED80CF00040B1F5000F3EBF490041EAD3715B0040EA010062F17F02FD2A1DD8B3F1004F40EBC25008BF19
S32D0000CF0020F00100704790F0000F0CF0004C08BF49024CEA502040EA51207F3AC2BFD2F1FF0340EAC25070471F
S32D0000CF2840F400004FF00003013A5DDC12F1190FDCBF00F000407047C2F10002410021FA02F1C2F1200200FA71
S32D0000CF5002FC5FEA310040F1000053EA4C0308BF20EADC70704792F0000F00F0004C02BF400010F4000F013A8E
S32D0000CF78F9D040EA0C0093F0000F01F0004C02BF490011F4000F013BF9D041EA0C018FE70CEAD15392EA0C0F3B
S32D0000CFA018BF93EA0C0F0AD030F0004C18BF31F0004CD8D180EA010000F00040704790F0000F17BF90F0004F3B
S32D0000CFC8084691F0000F91F0004F14D092EA0C0F01D142020FD193EA0C0F03D14B0218BF084608D180EA0100FA
S32D0000CFF000F0004040F0FE4040F40000704740F0FE4040F4400070474FF0FF0C1CEAD0521EBF1CEAD15392EAFC
S32D0000D0180C0F93EA0C0F69D0A2EB030280EA010C49024FEA402037D04FF0805343EA111143EA10130CF000401D
S32D0000D0408B4238BF5B0042F17D024FF4000C8B4224BF5B1A40EA0C00B3EB510F24BFA3EB510340EA5C00B3EB60
S32D0000D068910F24BFA3EB910340EA9C00B3EBD10F24BFA3EBD10340EADC001B0118BF5FEA1C1CE0D1FD2A3FF6E5
S32D0000D09050AF8B4240EBC25008BF20F0010070470CF0004C4CEA50207F32C2BFD2F1FF0340EAC250704740F4CE
S32D0000D0B800004FF00003013A37E792F0000F00F0004C02BF400010F4000F013AF9D040EA0C0093F0000F01F011
S32D0000D0E0004C02BF490011F4000F013BF9D041EA0C0195E70CEAD15392EA0C0F08D142027FF47DAF93EA0C0FFA
S32D0000D1087FF470AF084676E793EA0C0F04D14B023FF44CAF08466EE730F0004C18BF31F0004CCAD130F0004284
S32D0000D1307FF45CAF31F000437FF43CAF5FE700BF4FF0FF3C06E000BF4FF0010C02E000BF4FF0010C4DF804CD1E
S32D0000D1584FEA40024FEA41037FEA226C18BF7FEA236C11D001B052EA530C18BF90EA010F58BFB2EB030088BF5F
S32D0000D180C81738BF6FEAE17018BF40F0010070477FEA226C02D15FEA402C05D17FEA236CE4D15FEA412CE1D0D9
S32D0000D1A85DF8040B704700BF844608466146FFE70FB5FFF7C9FF002848BF10F1000F0FBD4DF808EDFFF7F4FF2A
S32D0000D1D00CBF012000205DF808FB00BF4DF808EDFFF7EAFF34BF012000205DF808FB00BF4DF808EDFFF7E0FF9B
S32D0000D1F894BF012000205DF808FB00BF4DF808EDFFF7D2FF94BF012000205DF808FB00BF4DF808EDFFF7C8FFBB
S32D0000D22034BF012000205DF808FB00BF4FEA4002B2F1FE4F0FD34FF09E03B3EB12620DD94FEA002343F000439E
S32D0000D24810F0004F23FA02F018BF404270474FF00000704712F1610F01D1420205D110F0004008BF6FF000404F
S32D0000D27070474FF00000704780B584B000AF4FF00103FB604FF00003FB7200F037F803467B607B6803F1FF3332
S32D0000D298032B21D801A252F823F000BFBDD20000CFD20000D5D20000DBD2000000F082FB0346FB60FB68012B5E
S32D0000D2C014BF00230123DBB2002BF3D108E000F03BFD05E000F0F0FC02E000F07DFD00BFFB7A83F00103DBB255
S32D0000D2E8002BCED14FF00003184607F11007BD4680BD00BF90B585B002AF41F20040C1F6FF706FF07F4158F075
S32D0000D310BFF841F20040C1F6FF7058F099F841F20040C1F6FF704FF0000158F0D9F841F20040C1F6FF7048F201
S32D0000D338F061C0F206014FF064024FF00A0358F0DFF84FF03703009341F20040C1F6FF704FF034014FF0420211
S32D0000D3604FF0690359F03AF84FF03703009341F20040C1F6FF704FF0A2014FF042024FF0690359F02BF84FF019
S32D0000D3883703009341F20040C1F6FF704FF034014FF07E024FF0690359F01CF84FF03703009341F20040C1F6A0
S32D0000D3B0FF704FF0A2014FF07E024FF0690359F00DF841F20040C1F6FF706FF07F4158F087F84FF02D030093C5
S32D0000D3D841F20040C1F6FF704FF039014FF047024FF05F0358F0F6FF4FF02D03009341F20040C1F6FF704FF0D5
S32D0000D400A7014FF047024FF05F0358F0E7FF4FF02D03009341F20040C1F6FF704FF039014FF083024FF05F0386
S32D0000D42858F0D8FF4FF02D03009341F20040C1F6FF704FF0A7014FF083024FF05F0358F0C9FF41F20040C1F696
S32D0000D450FF704FF0000158F043F841F20040C1F6FF7048F2FC61C0F206014FF03E024FF04C0358F049F841F2CA
S32D0000D4780040C1F6FF7048F20471C0F206014FF03E024FF04C0358F03BF841F20040C1F6FF7048F20C71C0F22E
S32D0000D4A006014FF03E024FF04C0358F02DF841F20040C1F6FF7048F21C71C0F206014FF03E024FF04C0358F06F
S32D0000D4C81FF800BF07F104023B4641F20040C1F6FF7011461A4658F047F90346002BF1D100BF07F104023B4695
S32D0000D4F041F20040C1F6FF7011461A4658F038F9034683F00103DBB2002BEED17B684FF0010214461846DFF85A
S32D0000D5188414FFF77DFE0346002B02D14FF000031C46E3B2002B00F081807B684FF0010214461846DFF8601418
S32D0000D540FFF74CFE0346002B02D14FF000031C46E3B2002B6ED03B684FF0010214461846DFF84014FFF758FE80
S32D0000D5680346002B02D14FF000031C46E3B2002B5CD03B684FF0010214461846DFF82014FFF728FE0346002B86
S32D0000D59002D14FF000031C46E3B2002B4AD041F20040C1F6FF704FF0FF0157F099FF4FF03703009341F20040E6
S32D0000D5B8C1F6FF704FF034014FF042024FF0690358F008FF41F20040C1F6FF706FF07F4157F082FF4FF02D033F
S32D0000D5E0009341F20040C1F6FF704FF039014FF047024FF05F0358F0F1FE41F20040C1F6FF704FF0FF0157F0F9
S32D0000D6086BFF41F20040C1F6FF7048F2FC61C0F206014FF03E024FF04C0357F071FF4FF4FA7056F0E5FC4FF0CA
S32D0000D6300103ADE17B684FF0010214461846DB49FFF7EAFD0346002B02D14FF000031C46E3B2002B7DD07B6881
S32D0000D6584FF0010214461846D349FFF7BBFD0346002B02D14FF000031C46E3B2002B6CD03B684FF001021446BA
S32D0000D6801846C849FFF7C8FD0346002B02D14FF000031C46E3B2002B5BD03B684FF0010214461846C049FFF7E0
S32D0000D6A899FD0346002B02D14FF000031C46E3B2002B4AD041F20040C1F6FF704FF0FF0157F00AFF4FF0370358
S32D0000D6D0009341F20040C1F6FF704FF0A2014FF042024FF0690358F079FE41F20040C1F6FF706FF07F4157F032
S32D0000D6F8F3FE4FF02D03009341F20040C1F6FF704FF0A7014FF047024FF05F0358F062FE41F20040C1F6FF7027
S32D0000D7204FF0FF0157F0DCFE41F20040C1F6FF7048F20471C0F206014FF03E024FF04C0357F0E2FE4FF4FA7099
S32D0000D74856F056FC4FF002031EE17B684FF00102144618468F49FFF75BFD0346002B02D14FF000031C46E3B255
S32D0000D770002B7DD07B684FF00102144618468849FFF72CFD0346002B02D14FF000031C46E3B2002B6CD03B68BC
S32D0000D7984FF00102144618468449FFF739FD0346002B02D14FF000031C46E3B2002B5BD03B684FF0010214465B
S32D0000D7C018467D49FFF70AFD0346002B02D14FF000031C46E3B2002B4AD041F20040C1F6FF704FF0FF0157F036
S32D0000D7E87BFE4FF03703009341F20040C1F6FF704FF034014FF07E024FF0690358F0EAFD41F20040C1F6FF704F
S32D0000D8106FF07F4157F064FE4FF02D03009341F20040C1F6FF704FF039014FF083024FF05F0358F0D3FD41F25E
S32D0000D8380040C1F6FF704FF0FF0157F04DFE41F20040C1F6FF7048F20C71C0F206014FF03E024FF04C0357F02E
S32D0000D86053FE4FF4FA7056F0C7FB4FF003038FE07B684FF00102144618464C49FFF7CCFC0346002B02D14FF02A
S32D0000D88800031C46E3B2002B7DD07B684FF00102144618464449FFF79DFC0346002B02D14FF000031C46E3B287
S32D0000D8B0002B6CD03B684FF00102144618463D49FFF7AAFC0346002B02D14FF000031C46E3B2002B5BD03B68AB
S32D0000D8D84FF00102144618463549FFF77BFC0346002B02D14FF000031C46E3B2002B4AD041F20040C1F6FF70DF
S32D0000D9004FF0FF0157F0ECFD4FF03703009341F20040C1F6FF704FF0A2014FF07E024FF0690358F05BFD41F2C6
S32D0000D9280040C1F6FF706FF07F4157F0D5FD4FF02D03009341F20040C1F6FF704FF0A7014FF083024FF05F034C
S32D0000D95058F044FD41F20040C1F6FF704FF0FF0157F0BEFD41F20040C1F6FF7048F21C71C0F206014FF03E02AE
S32D0000D9784FF04C0357F0C4FD4FF4FA7056F038FB4FF0040300E0FFE7184607F10C07BD4690BD00BF000064429B
S32D0000D9A00000184300008E420000E84200002743000083430000034300003043B0B590B004AF4FF00003FB770F
S32D0000D9C84FF00003BB774FF02803BB614FF08903FB624FF00003BB624FF0C8037B614FF064033B614FF0010345
S32D0000D9F07B6256F081FB03463B629EE04FF00003BB6256F079FB0346FB6007F1080207F1040341F20040C1F61E
S32D0000DA18FF7011461A4657F0A7FE0346BB77BB7F41F20040C1F6FF7019464FF000024FF0190357F023FE786A3B
S32D0000DA40FEF738FE04460D4656F01EFB02460B4620462946FEF7BEFF02460B464FF4877100914FF0000101913A
S32D0000DA6841F20040C1F6FF7057F0F2FDBB7F002B02D1FB6A882B33DC4FF00003BB62FA683B6AD31AF9683A6A0A
S32D0000DA908A1A02FB03F24DF68363C4F21B3383FB02034FEAA3414FEAE273CA1A13464FEA03139B1A4FEA4303B7
S32D0000DAB81946FA683B6AD31A4FF0320202FB03F244F6D353C1F2620383FB02034FEAA3104FEAE273C31ACB1A51
S32D0000DAE003F18903FB6203E056F006FB03463B62FB6A892B02DD4FF08903FB627B6A03F00103002B12D1386A7F
S32D0000DB08FEF7D4FD02460B46F96A0091B96A01917969029139690391104619467A6ABB6900F016F87B6A03F1A8
S32D0000DB3001037B624FF00003BB77FB7F83F00103DBB2002B7FF45AAF4FF00003184607F13007BD46B0BD00BF4F
S32D0000DB5880B584B000AFC7E902017A603B6041F20040C1F6FF706FF07F4157F08DFC41F20040C1F6FF7057F0F7
S32D0000DB8067FC41F20040C1F6FF704FF0000157F0A7FC41F20040C1F6FF70B96957F04AFF41F20040C1F6FF706D
S32D0000DBA84FF0B4014FF0000240F23F1358F04EFB41F20040C1F6FF704FF0B5014FF0000240F23F1358F042FB2D
S32D0000DBD041F20040C1F6FF704FF0B6014FF0000240F23F1358F036FB7A684FF00303C8F200031340002B05DA19
S32D0000DBF803F1FF3363F0030303F10103002B17DB7A684FF00303C8F200031340002B05DA03F1FF3363F00303AB
S32D0000DC2003F10103012B07DCBB69892B04D13868B96913F051FA36E07A684FF00303C8F200031340002B05DABB
S32D0000DC4803F1FF3363F0030303F10103012B17DD7A684FF00303C8F200031340002B05DA03F1FF3363F0030357
S32D0000DC7003F10103032B07DCBB69892B04D13868B96900F0F1F80EE0BB69882B04DC3868B96926F091FB06E046
S32D0000DC98FB69012B03D13868B96939F0F1FC386A796A53F01FFD07F11007BD4680BD00BF80B582B000AF41F2E7
S32D0000DCC00040C1F6FF706FF07F4157F0E1FB41F20040C1F6FF7057F0BBFB41F20040C1F6FF704FF0000157F0D8
S32D0000DCE8FBFB41F20040C1F6FF7048F20C71C0F2060157F06DFE00BF07F104023B4641F20040C1F6FF7011462F
S32D0000DD101A4657F02DFD0346002BF1D100BF07F104023B4641F20040C1F6FF7011461A4657F01EFD034683F032
S32D0000DD380103DBB2002BEED107F10807BD4680BD80B582B000AF41F20040C1F6FF706FF07F4157F099FB41F21F
S32D0000DD600040C1F6FF7057F073FB41F20040C1F6FF704FF0000157F0B3FB41F20040C1F6FF7048F22471C0F292
S32D0000DD88060157F025FE00BF07F104023B4641F20040C1F6FF7011461A4657F0E5FC0346002BF1D100BF07F159
S32D0000DDB004023B4641F20040C1F6FF7011461A4657F0D6FC034683F00103DBB2002BEED107F10807BD4680BDD7
S32D0000DDD880B582B000AF41F20040C1F6FF706FF07F4157F051FB41F20040C1F6FF7057F02BFB41F20040C1F68C
S32D0000DE00FF704FF0000157F06BFB41F20040C1F6FF7048F21C71C0F2060157F0DDFD00BF07F104023B4641F2ED
S32D0000DE280040C1F6FF7011461A4657F09DFC0346002BF1D100BF07F104023B4641F20040C1F6FF7011461A460B
S32D0000DE5057F08EFC034683F00103DBB2002BEED107F10807BD4680BD80B582B000AF7860396041F20040C1F6A4
S32D0000DE78FF706FF07F4157F02FFB41F20040C1F6FF7079683A6858F0B5F941F20040C1F6FF706FF07F4157F06C
S32D0000DEA01FFB3B6803F1010341F20040C1F6FF7079681A4658F0A2F941F20040C1F6FF706FF07F4157F00CFBDC
S32D0000DEC83B6803F1020341F20040C1F6FF7079681A4658F08FF941F20040C1F6FF706FF07F4157F0F9FA3B6851
S32D0000DEF003F1030341F20040C1F6FF7079681A4658F07CF941F20040C1F6FF706FF07F4157F0E6FA3B6803F1FD
S32D0000DF18040341F20040C1F6FF7079681A4658F069F941F20040C1F6FF706FF07F4157F0D3FA3B6803F10503E5
S32D0000DF4041F20040C1F6FF7079681A4658F056F941F20040C1F6FF706FF07F4157F0C0FA3B6803F1060341F2B6
S32D0000DF680040C1F6FF7079681A4658F043F941F20040C1F6FF706FF07F4157F0ADFA3B6803F1070341F20040A6
S32D0000DF90C1F6FF7079681A4658F030F941F20040C1F6FF706FF07F4157F09AFA3B6803F1080341F20040C1F62C
S32D0000DFB8FF7079681A4658F01DF941F20040C1F6FF706FF07F4157F087FA3B6803F1090341F20040C1F6FF7071
S32D0000DFE079681A4658F00AF941F20040C1F6FF706FF07F4157F074FA3B6803F10A0341F20040C1F6FF707968FC
S32D0000E0081A4658F0F7F841F20040C1F6FF706FF07F4157F061FA3B6803F10B0341F20040C1F6FF7079681A467A
S32D0000E03058F0E4F841F20040C1F6FF706FF07F4157F04EFA3B6803F10C0341F20040C1F6FF7079681A4658F08F
S32D0000E058D1F841F20040C1F6FF706FF07F4157F03BFA3B6803F10D0341F20040C1F6FF7079681A4658F0BEF81E
S32D0000E08041F20040C1F6FF706FF07F4157F028FA3B6803F10E0341F20040C1F6FF7079681A4658F0ABF841F2B1
S32D0000E0A80040C1F6FF7047F67F71C0F27F0157F013FA3B6803F10F0341F20040C1F6FF7079681A4658F096F8D8
S32D0000E0D041F20040C1F6FF7047F67F71C0F27F0157F0FEF93B6803F1100341F20040C1F6FF7079681A4658F020
S32D0000E0F881F841F20040C1F6FF7047F67F71C0F27F0157F0E9F93B6803F1110341F20040C1F6FF7079681A46DB
S32D0000E12058F06CF841F20040C1F6FF7047F67F71C0F27F0157F0D4F93B6803F1120341F20040C1F6FF707968F3
S32D0000E1481A4658F057F841F20040C1F6FF7047F67F71C0F27F0157F0BFF93B6803F1130341F20040C1F6FF7075
S32D0000E17079681A4658F042F841F20040C1F6FF7047F67F71C0F27F0157F0AAF93B6803F1140341F20040C1F604
S32D0000E198FF7079681A4658F02DF841F20040C1F6FF7047F67F71C0F27F0157F095F93B6803F1150341F200404D
S32D0000E1C0C1F6FF7079681A4658F018F841F20040C1F6FF7047F67F71C0F27F0157F080F93B6803F1160341F2D7
S32D0000E1E80040C1F6FF7079681A4658F003F841F20040C1F6FF7047F67F71C0F27F0157F06BF93B6803F11703CB
S32D0000E21041F20040C1F6FF7079681A4657F0EEFF41F20040C1F6FF7047F67F71C0F27F0157F056F93B6803F1AD
S32D0000E238180341F20040C1F6FF7079681A4657F0D9FF41F20040C1F6FF7047F67F71C0F27F0157F041F93B6888
S32D0000E26003F1190341F20040C1F6FF7079681A4657F0C4FF41F20040C1F6FF7047F67F71C0F27F0157F02CF938
S32D0000E2883B6803F11A0341F20040C1F6FF7079681A4657F0AFFF41F20040C1F6FF706FF07F4157F019F93B6831
S32D0000E2B003F11B0341F20040C1F6FF7079681A4657F09CFF41F20040C1F6FF706FF07F4157F006F93B6803F1DD
S32D0000E2D81C0341F20040C1F6FF7079681A4657F089FF41F20040C1F6FF706FF07F4157F0F3F83B6803F11D03AF
S32D0000E30041F20040C1F6FF7079681A4657F076FF41F20040C1F6FF706FF07F4157F0E0F83B6803F11E0341F297
S32D0000E3280040C1F6FF7079681A4657F063FF41F20040C1F6FF706FF07F4157F0CDF83B6803F11F0341F2004087
S32D0000E350C1F6FF7079681A4657F050FF41F20040C1F6FF706FF07F4157F0BAF83B6803F1200341F20040C1F60D
S32D0000E378FF7079681A4657F03DFF41F20040C1F6FF706FF07F4157F0A7F83B6803F1210341F20040C1F6FF7052
S32D0000E3A079681A4657F02AFF41F20040C1F6FF706FF07F4157F094F83B6803F1220341F20040C1F6FF707968DD
S32D0000E3C81A4657F017FF41F20040C1F6FF706FF07F4157F081F83B6803F1230341F20040C1F6FF7079681A465B
S32D0000E3F057F004FF41F20040C1F6FF706FF07F4157F06EF83B6803F1240341F20040C1F6FF7079681A4657F071
S32D0000E418F1FE41F20040C1F6FF706FF07F4157F05BF83B6803F1250341F20040C1F6FF7079681A4657F0DEFED9
S32D0000E44041F20040C1F6FF706FF07F4157F048F83B6803F1260341F20040C1F6FF7079681A4657F0CBFE41F292
S32D0000E4680040C1F6FF706FF07F4157F035F83B6803F1270341F20040C1F6FF7079681A4657F0B8FE41F2004082
S32D0000E490C1F6FF706FF07F4157F022F83B6803F1280341F20040C1F6FF7079681A4657F0A5FE41F20040C1F608
S32D0000E4B8FF706FF07F4157F00FF83B6803F1290341F20040C1F6FF7079681A4657F092FE41F20040C1F6FF704D
S32D0000E4E06FF07F4156F0FCFF3B6803F12A0341F20040C1F6FF7079681A4657F07FFE41F20040C1F6FF706FF054
S32D0000E5087F4156F0E9FF7B6803F1010341F20040C1F6FF7019463A6857F06CFE41F20040C1F6FF706FF07F4119
S32D0000E53056F0D6FF7B6803F101023B6803F1010341F20040C1F6FF7011461A4657F056FE41F20040C1F6FF70A9
S32D0000E5586FF07F4156F0C0FF7B6803F101023B6803F1020341F20040C1F6FF7011461A4657F040FE41F20040B3
S32D0000E580C1F6FF706FF07F4156F0AAFF7B6803F101023B6803F1030341F20040C1F6FF7011461A4657F02AFE03
S32D0000E5A841F20040C1F6FF706FF07F4156F094FF7B6803F101023B6803F1040341F20040C1F6FF7011461A46EC
S32D0000E5D057F014FE41F20040C1F6FF706FF07F4156F07EFF7B6803F101023B6803F1050341F20040C1F6FF7037
S32D0000E5F811461A4657F0FEFD41F20040C1F6FF706FF07F4156F068FF7B6803F101023B6803F1060341F20040AA
S32D0000E620C1F6FF7011461A4657F0E8FD41F20040C1F6FF706FF07F4156F052FF7B6803F101023B6803F10703F9
S32D0000E64841F20040C1F6FF7011461A4657F0D2FD41F20040C1F6FF706FF07F4156F03CFF7B6803F101023B6888
S32D0000E67003F1080341F20040C1F6FF7011461A4657F0BCFD41F20040C1F6FF706FF07F4156F026FF7B6803F133
S32D0000E69801023B6803F1090341F20040C1F6FF7011461A4657F0A6FD41F20040C1F6FF706FF07F4156F010FF67
S32D0000E6C07B6803F101023B6803F10A0341F20040C1F6FF7011461A4657F090FD41F20040C1F6FF706FF07F41D2
S32D0000E6E856F0FAFE7B6803F101023B6803F10B0341F20040C1F6FF7011461A4657F07AFD41F20040C1F6FF70A0
S32D0000E7106FF07F4156F0E4FE7B6803F101023B6803F10C0341F20040C1F6FF7011461A4657F064FD41F20040A9
S32D0000E738C1F6FF706FF07F4156F0CEFE7B6803F101023B6803F10D0341F20040C1F6FF7011461A4657F04EFDF9
S32D0000E76041F20040C1F6FF706FF07F4156F0B8FE7B6803F101023B6803F10E0341F20040C1F6FF7011461A4605
S32D0000E78857F038FD41F20040C1F6FF7047F67F71C0F2FF0156F0A0FE7B6803F101023B6803F10F0341F2004095
S32D0000E7B0C1F6FF7011461A4657F020FD41F20040C1F6FF7047F67F71C0F2FF0156F088FE7B6803F101023B6839
S32D0000E7D803F1100341F20040C1F6FF7011461A4657F008FD41F20040C1F6FF7047F67F71C0F2FF0156F070FE44
S32D0000E8007B6803F101023B6803F1110341F20040C1F6FF7011461A4657F0F0FC41F20040C1F6FF7047F67F711C
S32D0000E828C0F2FF0156F058FE7B6803F101023B6803F1120341F20040C1F6FF7011461A4657F0D8FC41F2004010
S32D0000E850C1F6FF7047F67F71C0F2FF0156F040FE7B6803F101023B6803F1130341F20040C1F6FF7011461A463A
S32D0000E87857F0C0FC41F20040C1F6FF7047F67F71C0F2FF0156F028FE7B6803F101023B6803F1140341F2004090
S32D0000E8A0C1F6FF7011461A4657F0A8FC41F20040C1F6FF7047F67F71C0F2FF0156F010FE7B6803F101023B6839
S32D0000E8C803F1150341F20040C1F6FF7011461A4657F090FC41F20040C1F6FF7047F67F71C0F2FF0156F0F8FD40
S32D0000E8F07B6803F101023B6803F1160341F20040C1F6FF7011461A4657F078FC41F20040C1F6FF7047F67F719F
S32D0000E918C0F2FF0156F0E0FD7B6803F101023B6803F1170341F20040C1F6FF7011461A4657F060FC41F200400B
S32D0000E940C1F6FF7047F67F71C0F2FF0156F0C8FD7B6803F101023B6803F1180341F20040C1F6FF7011461A46BD
S32D0000E96857F048FC41F20040C1F6FF7047F67F71C0F2FF0156F0B0FD7B6803F101023B6803F1190341F200408B
S32D0000E990C1F6FF7011461A4657F030FC41F20040C1F6FF7047F67F71C0F2FF0156F098FD7B6803F101023B6839
S32D0000E9B803F11A0341F20040C1F6FF7011461A4657F018FC41F20040C1F6FF706FF07F4156F082FD7B6803F121
S32D0000E9E001023B6803F11B0341F20040C1F6FF7011461A4657F002FC41F20040C1F6FF706FF07F4156F06CFD55
S32D0000EA087B6803F101023B6803F11C0341F20040C1F6FF7011461A4657F0ECFB41F20040C1F6FF706FF07F411A
S32D0000EA3056F056FD7B6803F101023B6803F11D0341F20040C1F6FF7011461A4657F0D6FB41F20040C1F6FF708D
S32D0000EA586FF07F4156F040FD7B6803F101023B6803F11E0341F20040C1F6FF7011461A4657F0C0FB41F2004097
S32D0000EA80C1F6FF706FF07F4156F02AFD7B6803F101023B6803F11F0341F20040C1F6FF7011461A4657F0AAFBE7
S32D0000EAA841F20040C1F6FF706FF07F4156F014FD7B6803F101023B6803F1200341F20040C1F6FF7011461A464D
S32D0000EAD057F094FB41F20040C1F6FF706FF07F4156F0FEFC7B6803F101023B6803F1210341F20040C1F6FF701C
S32D0000EAF811461A4657F07EFB41F20040C1F6FF706FF07F4156F0E8FC7B6803F101023B6803F1220341F200408E
S32D0000EB20C1F6FF7011461A4657F068FB41F20040C1F6FF706FF07F4156F0D2FC7B6803F101023B6803F12303DD
S32D0000EB4841F20040C1F6FF7011461A4657F052FB41F20040C1F6FF706FF07F4156F0BCFC7B6803F101023B6888
S32D0000EB7003F1240341F20040C1F6FF7011461A4657F03CFB41F20040C1F6FF706FF07F4156F0A6FC7B6803F117
S32D0000EB9801023B6803F1250341F20040C1F6FF7011461A4657F026FB41F20040C1F6FF706FF07F4156F090FC4B
S32D0000EBC07B6803F101023B6803F1260341F20040C1F6FF7011461A4657F010FB41F20040C1F6FF706FF07F4133
S32D0000EBE856F07AFC7B6803F101023B6803F1270341F20040C1F6FF7011461A4657F0FAFA41F20040C1F6FF7084
S32D0000EC106FF07F4156F064FC7B6803F101023B6803F1280341F20040C1F6FF7011461A4657F0E4FA41F200408D
S32D0000EC38C1F6FF706FF07F4156F04EFC7B6803F101023B6803F1290341F20040C1F6FF7011461A4657F0CEFADD
S32D0000EC6041F20040C1F6FF706FF07F4156F038FC7B6803F101023B6803F12A0341F20040C1F6FF7011461A4666
S32D0000EC8857F0B8FA41F20040C1F6FF706FF07F4156F022FC7B6803F1020341F20040C1F6FF7019463A6857F08C
S32D0000ECB0A5FA41F20040C1F6FF706FF07F4156F00FFC7B6803F102023B6803F1010341F20040C1F6FF70114628
S32D0000ECD81A4657F08FFA41F20040C1F6FF706FF07F4156F0F9FB7B6803F102023B6803F1020341F20040C1F64B
S32D0000ED00FF7011461A4657F079FA41F20040C1F6FF706FF07F4156F0E3FB7B6803F102023B6803F1030341F27E
S32D0000ED280040C1F6FF7011461A4657F063FA41F20040C1F6FF706FF07F4156F0CDFB7B6803F102023B6803F1C4
S32D0000ED50040341F20040C1F6FF7011461A4657F04DFA41F20040C1F6FF706FF07F4156F0B7FB7B6803F1020225
S32D0000ED783B6803F1050341F20040C1F6FF7011461A4657F037FA41F20040C1F6FF706FF07F4156F0A1FB7B6889
S32D0000EDA003F102023B6803F1060341F20040C1F6FF7011461A4657F021FA41F20040C1F6FF706FF07F4156F0FD
S32D0000EDC88BFB7B6803F102023B6803F1070341F20040C1F6FF7011461A4657F00BFA41F20040C1F6FF706FF087
S32D0000EDF07F4156F075FB7B6803F102023B6803F1080341F20040C1F6FF7011461A4657F0F5F941F20040C1F653
S32D0000EE18FF706FF07F4156F05FFB7B6803F102023B6803F1090341F20040C1F6FF7011461A4657F0DFF941F27E
S32D0000EE400040C1F6FF706FF07F4156F049FB7B6803F102023B6803F10A0341F20040C1F6FF7011461A4657F07F
S32D0000EE68C9F941F20040C1F6FF706FF07F4156F033FB7B6803F102023B6803F10B0341F20040C1F6FF7011461E
S32D0000EE901A4657F0B3F941F20040C1F6FF706FF07F4156F01DFB7B6803F102023B6803F10C0341F20040C1F640
S32D0000EEB8FF7011461A4657F09DF941F20040C1F6FF706FF07F4156F007FB7B6803F102023B6803F10D0341F274
S32D0000EEE00040C1F6FF7011461A4657F087F941F20040C1F6FF706FF07F4156F0F1FA7B6803F102023B6803F1C5
S32D0000EF080E0341F20040C1F6FF7011461A4657F071F941F20040C1F6FF704FF6FF71C0F27F0156F0D9FA7B684D
S32D0000EF3003F102023B6803F10F0341F20040C1F6FF7011461A4657F059F941F20040C1F6FF704FF6FF71C0F229
S32D0000EF587F0156F0C1FA7B6803F102023B6803F1100341F20040C1F6FF7011461A4657F041F941F20040C1F68A
S32D0000EF80FF704FF6FF71C0F27F0156F0A9FA7B6803F102023B6803F1110341F20040C1F6FF7011461A4657F007
S32D0000EFA829F941F20040C1F6FF704FF6FF71C0F27F0156F091FA7B6803F102023B6803F1120341F20040C1F617
S32D0000EFD0FF7011461A4657F011F941F20040C1F6FF704FF67F71C0F27F0156F079FA7B6803F102023B6803F171
S32D0000EFF8130341F20040C1F6FF7011461A4657F0F9F841F20040C1F6FF704FF67F71C0F27F0156F061FA7B68C9
S32D0000F02003F102023B6803F1140341F20040C1F6FF7011461A4657F0E1F841F20040C1F6FF704FF67F71C0F22C
S32D0000F0487F0156F049FA7B6803F102023B6803F1150341F20040C1F6FF7011461A4657F0C9F841F20040C1F685
S32D0000F070FF704FF67F71C0F27F0156F031FA7B6803F102023B6803F1160341F20040C1F6FF7011461A4657F009
S32D0000F098B1F841F20040C1F6FF704FF67F71C0F27F0156F019FA7B6803F102023B6803F1170341F20040C1F692
S32D0000F0C0FF7011461A4657F099F841F20040C1F6FF704FF67F71C0F27F0156F001FA7B6803F102023B6803F171
S32D0000F0E8180341F20040C1F6FF7011461A4657F081F841F20040C1F6FF704FF67F71C0F27F0156F0E9F97B68C4
S32D0000F11003F102023B6803F1190341F20040C1F6FF7011461A4657F069F841F20040C1F6FF704FF67F71C0F2AE
S32D0000F1387F0156F0D1F97B6803F102023B6803F11A0341F20040C1F6FF7011461A4657F051F841F20040C1F680
S32D0000F160FF704FF67F71C0F2FF0156F0B9F97B6803F102023B6803F11B0341F20040C1F6FF7011461A4657F00C
S32D0000F18839F841F20040C1F6FF704FF67F71C0F2FF0156F0A1F97B6803F102023B6803F11C0341F20040C1F60D
S32D0000F1B0FF7011461A4657F021F841F20040C1F6FF706FF07F4156F08BF97B6803F102023B6803F11D0341F264
S32D0000F1D80040C1F6FF7011461A4657F00BF841F20040C1F6FF706FF07F4156F075F97B6803F102023B6803F1C4
S32D0000F2001E0341F20040C1F6FF7011461A4656F0F5FF41F20040C1F6FF706FF07F4156F05FF97B6803F1020204
S32D0000F2283B6803F11F0341F20040C1F6FF7011461A4656F0DFFF41F20040C1F6FF706FF07F4156F049F97B6868
S32D0000F25003F102023B6803F1200341F20040C1F6FF7011461A4656F0C9FF41F20040C1F6FF706FF07F4156F082
S32D0000F27833F97B6803F102023B6803F1210341F20040C1F6FF7011461A4656F0B3FF41F20040C1F6FF706FF066
S32D0000F2A07F4156F01DF97B6803F102023B6803F1220341F20040C1F6FF7011461A4656F09DFF41F20040C1F631
S32D0000F2C8FF706FF07F4156F007F97B6803F102023B6803F1230341F20040C1F6FF7011461A4656F087FF41F25D
S32D0000F2F00040C1F6FF706FF07F4156F0F1F87B6803F102023B6803F1240341F20040C1F6FF7011461A4656F00D
S32D0000F31871FF41F20040C1F6FF706FF07F4156F0DBF87B6803F102023B6803F1250341F20040C1F6FF701146FC
S32D0000F3401A4656F05BFF41F20040C1F6FF706FF07F4156F0C5F87B6803F102023B6803F1260341F20040C1F61F
S32D0000F368FF7011461A4656F045FF41F20040C1F6FF706FF07F4156F0AFF87B6803F102023B6803F1270341F253
S32D0000F3900040C1F6FF7011461A4656F02FFF41F20040C1F6FF706FF07F4156F099F87B6803F102023B6803F1BD
S32D0000F3B8280341F20040C1F6FF7011461A4656F019FF41F20040C1F6FF706FF07F4156F083F87B6803F10202FA
S32D0000F3E03B6803F1290341F20040C1F6FF7011461A4656F003FF41F20040C1F6FF706FF07F4156F06DF87B685E
S32D0000F40803F102023B6803F12A0341F20040C1F6FF7011461A4656F0EDFE41F20040C1F6FF706FF07F4156F09B
S32D0000F43057F87B6803F1030341F20040C1F6FF7019463A6856F0DAFE41F20040C1F6FF706FF07F4156F044F890
S32D0000F4587B6803F103023B6803F1010341F20040C1F6FF7011461A4656F0C4FE41F20040C1F6FF706FF07F41FF
S32D0000F48056F02EF87B6803F103023B6803F1020341F20040C1F6FF7011461A4656F0AEFE41F20040C1F6FF709F
S32D0000F4A86FF07F4156F018F87B6803F103023B6803F1030341F20040C1F6FF7011461A4656F098FE41F20040A9
S32D0000F4D0C1F6FF706FF07F4156F002F87B6803F103023B6803F1040341F20040C1F6FF7011461A4656F082FEF9
S32D0000F4F841F20040C1F6FF706FF07F4155F0ECFF7B6803F103023B6803F1050341F20040C1F6FF7011461A4633
S32D0000F52056F06CFE41F20040C1F6FF706FF07F4155F0D6FF7B6803F103023B6803F1060341F20040C1F6FF7026
S32D0000F54811461A4656F056FE41F20040C1F6FF706FF07F4155F0C0FF7B6803F103023B6803F1070341F2004098
S32D0000F570C1F6FF7011461A4656F040FE41F20040C1F6FF706FF07F4155F0AAFF7B6803F103023B6803F10803E8
S32D0000F59841F20040C1F6FF7011461A4656F02AFE41F20040C1F6FF706FF07F4155F094FF7B6803F103023B6878
S32D0000F5C003F1090341F20040C1F6FF7011461A4656F014FE41F20040C1F6FF706FF07F4155F07EFF7B6803F124
S32D0000F5E803023B6803F10A0341F20040C1F6FF7011461A4656F0FEFD41F20040C1F6FF706FF07F4155F068FF57
S32D0000F6107B6803F103023B6803F10B0341F20040C1F6FF7011461A4656F0E8FD41F20040C1F6FF706FF07F4118
S32D0000F63855F052FF7B6803F103023B6803F10C0341F20040C1F6FF7011461A4656F0D2FD41F20040C1F6FF708E
S32D0000F6606FF07F4155F03CFF7B6803F103023B6803F10D0341F20040C1F6FF7011461A4656F0BCFD41F2004098
S32D0000F688C1F6FF706FF07F4155F026FF7B6803F103023B6803F10E0341F20040C1F6FF7011461A4656F0A6FDE8
S32D0000F6B041F20040C1F6FF706FF07F4155F010FF7B6803F103023B6803F10F0341F20040C1F6FF7011461A464B
S32D0000F6D856F090FD41F20040C1F6FF706FF07F4155F0FAFE7B6803F103023B6803F1100341F20040C1F6FF701D
S32D0000F70011461A4656F07AFD41F20040C1F6FF706FF07F4155F0E4FE7B6803F103023B6803F1110341F200408E
S32D0000F728C1F6FF7011461A4656F064FD41F20040C1F6FF706FF07F4155F0CEFE7B6803F103023B6803F11203DE
S32D0000F75041F20040C1F6FF7011461A4656F04EFD41F20040C1F6FF7047F6FF71C0F27F0155F0B6FE7B6803F162
S32D0000F77803023B6803F1130341F20040C1F6FF7011461A4656F036FD41F20040C1F6FF7047F6FF71C0F27F0170
S32D0000F7A055F09EFE7B6803F103023B6803F1140341F20040C1F6FF7011461A4656F01EFD41F20040C1F6FF7086
S32D0000F7C847F6FF71C0F27F0155F086FE7B6803F103023B6803F1150341F20040C1F6FF7011461A4656F006FD47
S32D0000F7F041F20040C1F6FF7047F6FF71C0F27F0155F06EFE7B6803F103023B6803F1160341F20040C1F6FF709D
S32D0000F81811461A4656F0EEFC41F20040C1F6FF7047F6FF71C0F27F0155F056FE7B6803F103023B6803F117033D
S32D0000F84041F20040C1F6FF7011461A4656F0D6FC41F20040C1F6FF7047F6FF71C0F27F0155F03EFE7B6803F162
S32D0000F86803023B6803F1180341F20040C1F6FF7011461A4656F0BEFC41F20040C1F6FF7047F6FF71C0F27F01F3
S32D0000F89055F026FE7B6803F103023B6803F1190341F20040C1F6FF7011461A4656F0A6FC41F20040C1F6FF7081
S32D0000F8B847F6FF71C0F27F0155F00EFE7B6803F103023B6803F11A0341F20040C1F6FF7011461A4656F08EFC42
S32D0000F8E041F20040C1F6FF7047F6FF71C0F27F0155F0F6FD7B6803F103023B6803F11B0341F20040C1F6FF7020
S32D0000F90811461A4656F076FC41F20040C1F6FF7047F6FF71C0F27F0155F0DEFD7B6803F103023B6803F11C0338
S32D0000F93041F20040C1F6FF7011461A4656F05EFC41F20040C1F6FF706FF07F4155F0C8FD7B6803F103023B6878
S32D0000F95803F11D0341F20040C1F6FF7011461A4656F048FC41F20040C1F6FF706FF07F4155F0B2FD7B6803F110
S32D0000F98003023B6803F11E0341F20040C1F6FF7011461A4656F032FC41F20040C1F6FF706FF07F4155F09CFD42
S32D0000F9A87B6803F103023B6803F11F0341F20040C1F6FF7011461A4656F01CFC41F20040C1F6FF706FF07F4136
S32D0000F9D055F086FD7B6803F103023B6803F1200341F20040C1F6FF7011461A4656F006FC41F20040C1F6FF707A
S32D0000F9F86FF07F4155F070FD7B6803F103023B6803F1210341F20040C1F6FF7011461A4656F0F0FB41F2004085
S32D0000FA20C1F6FF706FF07F4155F05AFD7B6803F103023B6803F1220341F20040C1F6FF7011461A4656F0DAFBD4
S32D0000FA4841F20040C1F6FF706FF07F4155F044FD7B6803F103023B6803F1230341F20040C1F6FF7011461A4669
S32D0000FA7056F0C4FB41F20040C1F6FF706FF07F4155F02EFD7B6803F103023B6803F1240341F20040C1F6FF7008
S32D0000FA9811461A4656F0AEFB41F20040C1F6FF706FF07F4155F018FD7B6803F103023B6803F1250341F200407A
S32D0000FAC0C1F6FF7011461A4656F098FB41F20040C1F6FF706FF07F4155F002FD7B6803F103023B6803F12603CA
S32D0000FAE841F20040C1F6FF7011461A4656F082FB41F20040C1F6FF706FF07F4155F0ECFC7B6803F103023B6879
S32D0000FB1003F1270341F20040C1F6FF7011461A4656F06CFB41F20040C1F6FF706FF07F4155F0D6FC7B6803F106
S32D0000FB3803023B6803F1280341F20040C1F6FF7011461A4656F056FB41F20040C1F6FF706FF07F4155F0C0FC38
S32D0000FB607B6803F103023B6803F1290341F20040C1F6FF7011461A4656F040FB41F20040C1F6FF706FF07F414F
S32D0000FB8855F0AAFC7B6803F103023B6803F12A0341F20040C1F6FF7011461A4656F02AFB41F20040C1F6FF7070
S32D0000FBB06FF07F4155F094FC7B6803F1040341F20040C1F6FF7019463A6856F017FB41F20040C1F6FF706FF06B
S32D0000FBD87F4155F081FC7B6803F104023B6803F1010341F20040C1F6FF7011461A4656F001FB41F20040C1F649
S32D0000FC00FF706FF07F4155F06BFC7B6803F104023B6803F1020341F20040C1F6FF7011461A4656F0EBFA41F275
S32D0000FC280040C1F6FF706FF07F4155F055FC7B6803F104023B6803F1030341F20040C1F6FF7011461A4656F083
S32D0000FC50D5FA41F20040C1F6FF706FF07F4155F03FFC7B6803F104023B6803F1040341F20040C1F6FF70114614
S32D0000FC781A4656F0BFFA41F20040C1F6FF706FF07F4155F029FC7B6803F104023B6803F1050341F20040C1F637
S32D0000FCA0FF7011461A4656F0A9FA41F20040C1F6FF706FF07F4155F013FC7B6803F104023B6803F1060341F26B
S32D0000FCC80040C1F6FF7011461A4656F093FA41F20040C1F6FF706FF07F4155F0FDFB7B6803F104023B6803F1B5
S32D0000FCF0070341F20040C1F6FF7011461A4656F07DFA41F20040C1F6FF706FF07F4155F0E7FB7B6803F1040213
S32D0000FD183B6803F1080341F20040C1F6FF7011461A4656F067FA41F20040C1F6FF706FF07F4155F0D1FB7B6878
S32D0000FD4003F104023B6803F1090341F20040C1F6FF7011461A4656F051FA41F20040C1F6FF706FF07F4155F01A
S32D0000FD68BBFB7B6803F104023B6803F10A0341F20040C1F6FF7011461A4656F03BFA41F20040C1F6FF706FF073
S32D0000FD907F4155F0A5FB7B6803F104023B6803F10B0341F20040C1F6FF7011461A4656F025FA41F20040C1F63F
S32D0000FDB8FF706FF07F4155F08FFB7B6803F104023B6803F10C0341F20040C1F6FF7011461A4656F00FFA41F26B
S32D0000FDE00040C1F6FF706FF07F4155F079FB7B6803F104023B6803F10D0341F20040C1F6FF7011461A4656F09D
S32D0000FE08F9F941F20040C1F6FF706FF07F4155F063FB7B6803F104023B6803F10E0341F20040C1F6FF7011460A
S32D0000FE301A4656F0E3F941F20040C1F6FF706FF07F4155F04DFB7B6803F104023B6803F10F0341F20040C1F62D
S32D0000FE58FF7011461A4656F0CDF941F20040C1F6FF706FF07F4155F037FB7B6803F104023B6803F1100341F261
S32D0000FE800040C1F6FF7011461A4656F0B7F941F20040C1F6FF706FF07F4155F021FB7B6803F104023B6803F1B4
S32D0000FEA8110341F20040C1F6FF7011461A4656F0A1F941F20040C1F6FF706FF07F4155F00BFB7B6803F1040208
S32D0000FED03B6803F1120341F20040C1F6FF7011461A4656F08BF941F20040C1F6FF7047F67F71C0F27F0155F001
S32D0000FEF8F3FA7B6803F104023B6803F1130341F20040C1F6FF7011461A4656F073F941F20040C1F6FF7047F68D
S32D0000FF207F71C0F27F0155F0DBFA7B6803F104023B6803F1140341F20040C1F6FF7011461A4656F05BF941F2CF
S32D0000FF480040C1F6FF7047F67F71C0F27F0155F0C3FA7B6803F104023B6803F1150341F20040C1F6FF70114648
S32D0000FF701A4656F043F941F20040C1F6FF7047F67F71C0F27F0155F0ABFA7B6803F104023B6803F1160341F2DF
S32D0000FF980040C1F6FF7011461A4656F02BF941F20040C1F6FF7047F67F71C0F27F0155F093FA7B6803F104020D
S32D0000FFC03B6803F1170341F20040C1F6FF7011461A4656F013F941F20040C1F6FF7047F67F71C0F27F0155F083
S32D0000FFE87BFA7B6803F104023B6803F1180341F20040C1F6FF7011461A4656F0FBF841F20040C1F6FF7047F688
S32D000100107F71C0F27F0155F063FA7B6803F104023B6803F1190341F20040C1F6FF7011461A4656F0E3F841F2C9
S32D000100380040C1F6FF7047F67F71C0F27F0155F04BFA7B6803F104023B6803F11A0341F20040C1F6FF701146C9
S32D000100601A4656F0CBF841F20040C1F6FF7047F67F71C0F27F0155F033FA7B6803F104023B6803F11B0341F2D9
S32D000100880040C1F6FF7011461A4656F0B3F841F20040C1F6FF7047F67F71C0F27F0155F01BFA7B6803F104020C
S32D000100B03B6803F11C0341F20040C1F6FF7011461A4656F09BF841F20040C1F6FF706FF07F4155F005FA7B6863
S32D000100D803F104023B6803F11D0341F20040C1F6FF7011461A4656F085F841F20040C1F6FF706FF07F4155F038
S32D00010100EFF97B6803F104023B6803F11E0341F20040C1F6FF7011461A4656F06FF841F20040C1F6FF706FF05E
S32D000101287F4155F0D9F97B6803F104023B6803F11F0341F20040C1F6FF7011461A4656F059F841F20040C1F62A
S32D00010150FF706FF07F4155F0C3F97B6803F104023B6803F1200341F20040C1F6FF7011461A4656F043F841F256
S32D000101780040C1F6FF706FF07F4155F0ADF97B6803F104023B6803F1210341F20040C1F6FF7011461A4656F0BA
S32D000101A02DF841F20040C1F6FF706FF07F4155F097F97B6803F104023B6803F1220341F20040C1F6FF701146F5
S32D000101C81A4656F017F841F20040C1F6FF706FF07F4155F081F97B6803F104023B6803F1230341F20040C1F618
S32D000101F0FF7011461A4656F001F841F20040C1F6FF706FF07F4155F06BF97B6803F104023B6803F1240341F24C
S32D000102180040C1F6FF7011461A4655F0EBFF41F20040C1F6FF706FF07F4155F055F97B6803F104023B6803F1AC
S32D00010240250341F20040C1F6FF7011461A4655F0D5FF41F20040C1F6FF706FF07F4155F03FF97B6803F10402EC
S32D000102683B6803F1260341F20040C1F6FF7011461A4655F0BFFF41F20040C1F6FF706FF07F4155F029F97B6852
S32D0001029003F104023B6803F1270341F20040C1F6FF7011461A4655F0A9FF41F20040C1F6FF706FF07F4155F04A
S32D000102B813F97B6803F104023B6803F1280341F20040C1F6FF7011461A4655F093FF41F20040C1F6FF706FF04D
S32D000102E07F4155F0FDF87B6803F104023B6803F1290341F20040C1F6FF7011461A4655F07DFF41F20040C1F61A
S32D00010308FF706FF07F4155F0E7F87B6803F104023B6803F12A0341F20040C1F6FF7011461A4655F067FF41F245
S32D000103300040C1F6FF706FF07F4155F0D1F87B6803F1050341F20040C1F6FF7019463A6855F054FF41F2004087
S32D00010358C1F6FF706FF07F4155F0BEF87B6803F105023B6803F1010341F20040C1F6FF7011461A4655F03EFFEB
S32D0001038041F20040C1F6FF706FF07F4155F0A8F87B6803F105023B6803F1020341F20040C1F6FF7011461A46E7
S32D000103A855F028FF41F20040C1F6FF706FF07F4155F092F87B6803F105023B6803F1030341F20040C1F6FF701F
S32D000103D011461A4655F012FF41F20040C1F6FF706FF07F4155F07CF87B6803F105023B6803F1040341F2004091
S32D000103F8C1F6FF7011461A4655F0FCFE41F20040C1F6FF706FF07F4155F066F87B6803F105023B6803F10503E2
S32D0001042041F20040C1F6FF7011461A4655F0E6FE41F20040C1F6FF706FF07F4155F050F87B6803F105023B686E
S32D0001044803F1060341F20040C1F6FF7011461A4655F0D0FE41F20040C1F6FF706FF07F4155F03AF87B6803F11F
S32D0001047005023B6803F1070341F20040C1F6FF7011461A4655F0BAFE41F20040C1F6FF706FF07F4155F024F84F
S32D000104987B6803F105023B6803F1080341F20040C1F6FF7011461A4655F0A4FE41F20040C1F6FF706FF07F41C6
S32D000104C055F00EF87B6803F105023B6803F1090341F20040C1F6FF7011461A4655F08EFE41F20040C1F6FF7087
S32D000104E86FF07F4154F0F8FF7B6803F105023B6803F10A0341F20040C1F6FF7011461A4655F078FE41F200408B
S32D00010510C1F6FF706FF07F4154F0E2FF7B6803F105023B6803F10B0341F20040C1F6FF7011461A4655F062FEDA
S32D0001053841F20040C1F6FF706FF07F4154F0CCFF7B6803F105023B6803F10C0341F20040C1F6FF7011461A46F9
S32D0001056055F04CFE41F20040C1F6FF706FF07F4154F0B6FF7B6803F105023B6803F10D0341F20040C1F6FF700E
S32D0001058811461A4655F036FE41F20040C1F6FF706FF07F4154F0A0FF7B6803F105023B6803F10E0341F2004080
S32D000105B0C1F6FF7011461A4655F020FE41F20040C1F6FF706FF07F4154F08AFF7B6803F105023B6803F10F03D0
S32D000105D841F20040C1F6FF7011461A4655F00AFE41F20040C1F6FF706FF07F4154F074FF7B6803F105023B6867
S32D0001060003F1100341F20040C1F6FF7011461A4655F0F4FD41F20040C1F6FF706FF07F4154F05EFF7B6803F10E
S32D0001062805023B6803F1110341F20040C1F6FF7011461A4655F0DEFD41F20040C1F6FF706FF07F4154F048FF3E
S32D000106507B6803F105023B6803F1120341F20040C1F6FF7011461A4655F0C8FD41F20040C1F6FF706FF07F41DF
S32D0001067854F032FF7B6803F105023B6803F1130341F20040C1F6FF7011461A4655F0B2FD41F20040C1F6FF7076
S32D000106A06FF07F4154F01CFF7B6803F105023B6803F1140341F20040C1F6FF7011461A4655F09CFD41F2004080
S32D000106C8C1F6FF7047F67F71C0F2FF0154F004FF7B6803F105023B6803F1150341F20040C1F6FF7011461A46DA
S32D000106F055F084FD41F20040C1F6FF7047F67F71C0F2FF0154F0ECFE7B6803F105023B6803F1160341F200406E
S32D00010718C1F6FF7011461A4655F06CFD41F20040C1F6FF7047F67F71C0F2FF0154F0D4FE7B6803F105023B6818
S32D0001074003F1170341F20040C1F6FF7011461A4655F054FD41F20040C1F6FF7047F67F71C0F2FF0154F0BCFE20
S32D000107687B6803F105023B6803F1180341F20040C1F6FF7011461A4655F03CFD41F20040C1F6FF7047F67F713E
S32D00010790C0F2FF0154F0A4FE7B6803F105023B6803F1190341F20040C1F6FF7011461A4655F024FD41F20040E8
S32D000107B8C1F6FF7047F67F71C0F2FF0154F08CFE7B6803F105023B6803F11A0341F20040C1F6FF7011461A465D
S32D000107E055F00CFD41F20040C1F6FF7047F67F71C0F2FF0154F074FE7B6803F105023B6803F11B0341F2004068
S32D00010808C1F6FF7011461A4655F0F4FC41F20040C1F6FF7047F67F71C0F2FF0154F05CFE7B6803F105023B6818
S32D0001083003F11C0341F20040C1F6FF7011461A4655F0DCFC41F20040C1F6FF7047F67F71C0F2FF0154F044FE1B
S32D000108587B6803F105023B6803F11D0341F20040C1F6FF7011461A4655F0C4FC41F20040C1F6FF7047F67F71C1
S32D00010880C0F2FF0154F02CFE7B6803F105023B6803F11E0341F20040C1F6FF7011461A4655F0ACFC41F20040E3
S32D000108A8C1F6FF706FF07F4154F016FE7B6803F105023B6803F11F0341F20040C1F6FF7011461A4655F096FCC6
S32D000108D041F20040C1F6FF706FF07F4154F000FE7B6803F105023B6803F1200341F20040C1F6FF7011461A4617
S32D000108F855F080FC41F20040C1F6FF706FF07F4154F0EAFD7B6803F105023B6803F1210341F20040C1F6FF70FB
S32D0001092011461A4655F06AFC41F20040C1F6FF706FF07F4154F0D4FD7B6803F105023B6803F1220341F200406C
S32D00010948C1F6FF7011461A4655F054FC41F20040C1F6FF706FF07F4154F0BEFD7B6803F105023B6803F12303BC
S32D0001097041F20040C1F6FF7011461A4655F03EFC41F20040C1F6FF706FF07F4154F0A8FD7B6803F105023B6867
S32D0001099803F1240341F20040C1F6FF7011461A4655F028FC41F20040C1F6FF706FF07F4154F092FD7B6803F1FA
S32D000109C005023B6803F1250341F20040C1F6FF7011461A4655F012FC41F20040C1F6FF706FF07F4154F07CFD2A
S32D000109E87B6803F105023B6803F1260341F20040C1F6FF7011461A4655F0FCFB41F20040C1F6FF706FF07F41FE
S32D00010A1054F066FD7B6803F105023B6803F1270341F20040C1F6FF7011461A4655F0E6FB41F20040C1F6FF7062
S32D00010A386FF07F4154F050FD7B6803F105023B6803F1280341F20040C1F6FF7011461A4655F0D0FB41F200406C
S32D00010A60C1F6FF706FF07F4154F03AFD7B6803F105023B6803F1290341F20040C1F6FF7011461A4655F0BAFBBC
S32D00010A8841F20040C1F6FF706FF07F4154F024FD7B6803F105023B6803F12A0341F20040C1F6FF7011461A4630
S32D00010AB055F0A4FB41F20040C1F6FF706FF07F4154F00EFD7B6803F1060341F20040C1F6FF7019463A6855F06D
S32D00010AD891FB41F20040C1F6FF706FF07F4154F0FBFC7B6803F106023B6803F1010341F20040C1F6FF70114606
S32D00010B001A4655F07BFB41F20040C1F6FF706FF07F4154F0E5FC7B6803F106023B6803F1020341F20040C1F629
S32D00010B28FF7011461A4655F065FB41F20040C1F6FF706FF07F4154F0CFFC7B6803F106023B6803F1030341F25D
S32D00010B500040C1F6FF7011461A4655F04FFB41F20040C1F6FF706FF07F4154F0B9FC7B6803F106023B6803F1A3
S32D00010B78040341F20040C1F6FF7011461A4655F039FB41F20040C1F6FF706FF07F4154F0A3FC7B6803F1060204
S32D00010BA03B6803F1050341F20040C1F6FF7011461A4655F023FB41F20040C1F6FF706FF07F4154F08DFC7B686C
S32D00010BC803F106023B6803F1060341F20040C1F6FF7011461A4655F00DFB41F20040C1F6FF706FF07F4154F0C9
S32D00010BF077FC7B6803F106023B6803F1070341F20040C1F6FF7011461A4655F0F7FA41F20040C1F6FF706FF065
S32D00010C187F4154F061FC7B6803F106023B6803F1080341F20040C1F6FF7011461A4655F0E1FA41F20040C1F631
S32D00010C40FF706FF07F4154F04BFC7B6803F106023B6803F1090341F20040C1F6FF7011461A4655F0CBFA41F25D
S32D00010C680040C1F6FF706FF07F4154F035FC7B6803F106023B6803F10A0341F20040C1F6FF7011461A4655F04B
S32D00010C90B5FA41F20040C1F6FF706FF07F4154F01FFC7B6803F106023B6803F10B0341F20040C1F6FF701146FB
S32D00010CB81A4655F09FFA41F20040C1F6FF706FF07F4154F009FC7B6803F106023B6803F10C0341F20040C1F61F
S32D00010CE0FF7011461A4655F089FA41F20040C1F6FF706FF07F4154F0F3FB7B6803F106023B6803F10D0341F254
S32D00010D080040C1F6FF7011461A4655F073FA41F20040C1F6FF706FF07F4154F0DDFB7B6803F106023B6803F1A3
S32D00010D300E0341F20040C1F6FF7011461A4655F05DFA41F20040C1F6FF706FF07F4154F0C7FB7B6803F10602FA
S32D00010D583B6803F10F0341F20040C1F6FF7011461A4655F047FA41F20040C1F6FF706FF07F4154F0B1FB7B6862
S32D00010D8003F106023B6803F1100341F20040C1F6FF7011461A4655F031FA41F20040C1F6FF706FF07F4154F0E2
S32D00010DA89BFB7B6803F106023B6803F1110341F20040C1F6FF7011461A4655F01BFA41F20040C1F6FF706FF05A
S32D00010DD07F4154F085FB7B6803F106023B6803F1120341F20040C1F6FF7011461A4655F005FA41F20040C1F627
S32D00010DF8FF706FF07F4154F06FFB7B6803F106023B6803F1130341F20040C1F6FF7011461A4655F0EFF941F254
S32D00010E200040C1F6FF706FF07F4154F059FB7B6803F106023B6803F1140341F20040C1F6FF7011461A4655F064
S32D00010E48D9F941F20040C1F6FF704FF67F71C0F27F0154F041FB7B6803F106023B6803F1150341F20040C1F671
S32D00010E70FF7011461A4655F0C1F941F20040C1F6FF704FF67F71C0F27F0154F029FB7B6803F106023B6803F150
S32D00010E98160341F20040C1F6FF7011461A4655F0A9F941F20040C1F6FF704FF67F71C0F27F0154F011FB7B68A8
S32D00010EC003F106023B6803F1170341F20040C1F6FF7011461A4655F091F941F20040C1F6FF704FF67F71C0F2B7
S32D00010EE87F0154F0F9FA7B6803F106023B6803F1180341F20040C1F6FF7011461A4655F079F941F20040C1F662
S32D00010F10FF704FF67F71C0F27F0154F0E1FA7B6803F106023B6803F1190341F20040C1F6FF7011461A4655F096
S32D00010F3861F941F20040C1F6FF704FF67F71C0F27F0154F0C9FA7B6803F106023B6803F11A0341F20040C1F66C
S32D00010F60FF7011461A4655F049F941F20040C1F6FF704FF67F71C0F27F0154F0B1FA7B6803F106023B6803F150
S32D00010F881B0341F20040C1F6FF7011461A4655F031F941F20040C1F6FF704FF67F71C0F27F0154F099FA7B68A3
S32D00010FB003F106023B6803F11C0341F20040C1F6FF7011461A4655F019F941F20040C1F6FF704FF67F71C0F239
S32D00010FD87F0154F081FA7B6803F106023B6803F11D0341F20040C1F6FF7011461A4655F001F941F20040C1F65C
S32D00011000FF704FF67F71C0F27F0154F069FA7B6803F106023B6803F11E0341F20040C1F6FF7011461A4655F018
S32D00011028E9F841F20040C1F6FF706FF07F4154F053FA7B6803F106023B6803F11F0341F20040C1F6FF701146E7
S32D000110501A4655F0D3F841F20040C1F6FF706FF07F4154F03DFA7B6803F106023B6803F1200341F20040C1F60B
S32D00011078FF7011461A4655F0BDF841F20040C1F6FF706FF07F4154F027FA7B6803F106023B6803F1210341F23F
S32D000110A00040C1F6FF7011461A4655F0A7F841F20040C1F6FF706FF07F4154F011FA7B6803F106023B6803F1A3
S32D000110C8220341F20040C1F6FF7011461A4655F091F841F20040C1F6FF706FF07F4154F0FBF97B6803F10602E7
S32D000110F03B6803F1230341F20040C1F6FF7011461A4655F07BF841F20040C1F6FF706FF07F4154F0E5F97B684F
S32D0001111803F106023B6803F1240341F20040C1F6FF7011461A4655F065F841F20040C1F6FF706FF07F4154F000
S32D00011140CFF97B6803F106023B6803F1250341F20040C1F6FF7011461A4655F04FF841F20040C1F6FF706FF046
S32D000111687F4154F0B9F97B6803F106023B6803F1260341F20040C1F6FF7011461A4655F039F841F20040C1F613
S32D00011190FF706FF07F4154F0A3F97B6803F106023B6803F1270341F20040C1F6FF7011461A4655F023F841F23F
S32D000111B80040C1F6FF706FF07F4154F08DF97B6803F106023B6803F1280341F20040C1F6FF7011461A4655F083
S32D000111E00DF841F20040C1F6FF706FF07F4154F077F97B6803F106023B6803F1290341F20040C1F6FF701146DD
S32D000112081A4654F0F7FF41F20040C1F6FF706FF07F4154F061F97B6803F106023B6803F12A0341F20040C1F6FA
S32D00011230FF7011461A4654F0E1FF41F20040C1F6FF706FF07F4154F04BF97B6803F1070341F20040C1F6FF708B
S32D0001125819463A6854F0CEFF41F20040C1F6FF706FF07F4154F038F97B6803F107023B6803F1010341F200403A
S32D00011280C1F6FF7011461A4654F0B8FF41F20040C1F6FF706FF07F4154F022F97B6803F107023B6803F10203D4
S32D000112A841F20040C1F6FF7011461A4654F0A2FF41F20040C1F6FF706FF07F4154F00CF97B6803F107023B685E
S32D000112D003F1030341F20040C1F6FF7011461A4654F08CFF41F20040C1F6FF706FF07F4154F0F6F87B6803F115
S32D000112F807023B6803F1040341F20040C1F6FF7011461A4654F076FF41F20040C1F6FF706FF07F4154F0E0F843
S32D000113207B6803F107023B6803F1050341F20040C1F6FF7011461A4654F060FF41F20040C1F6FF706FF07F4174
S32D0001134854F0CAF87B6803F107023B6803F1060341F20040C1F6FF7011461A4654F04AFF41F20040C1F6FF707A
S32D000113706FF07F4154F0B4F87B6803F107023B6803F1070341F20040C1F6FF7011461A4654F034FF41F2004084
S32D00011398C1F6FF706FF07F4154F09EF87B6803F107023B6803F1080341F20040C1F6FF7011461A4654F01EFFD4
S32D000113C041F20040C1F6FF706FF07F4154F088F87B6803F107023B6803F1090341F20040C1F6FF7011461A46AF
S32D000113E854F008FF41F20040C1F6FF706FF07F4154F072F87B6803F107023B6803F10A0341F20040C1F6FF7008
S32D0001141011461A4654F0F2FE41F20040C1F6FF706FF07F4154F05CF87B6803F107023B6803F10B0341F200407A
S32D00011438C1F6FF7011461A4654F0DCFE41F20040C1F6FF706FF07F4154F046F87B6803F107023B6803F10C03CA
S32D0001146041F20040C1F6FF7011461A4654F0C6FE41F20040C1F6FF706FF07F4154F030F87B6803F107023B685E
S32D0001148803F10D0341F20040C1F6FF7011461A4654F0B0FE41F20040C1F6FF706FF07F4154F01AF87B6803F10A
S32D000114B007023B6803F10E0341F20040C1F6FF7011461A4654F09AFE41F20040C1F6FF706FF07F4154F004F838
S32D000114D87B6803F107023B6803F10F0341F20040C1F6FF7011461A4654F084FE41F20040C1F6FF706FF07F418E
S32D0001150053F0EEFF7B6803F107023B6803F1100341F20040C1F6FF7011461A4654F06EFE41F20040C1F6FF7069
S32D000115286FF07F4153F0D8FF7B6803F107023B6803F1110341F20040C1F6FF7011461A4654F058FE41F2004073
S32D00011550C1F6FF706FF07F4153F0C2FF7B6803F107023B6803F1120341F20040C1F6FF7011461A4654F042FEC3
S32D0001157841F20040C1F6FF706FF07F4153F0ACFF7B6803F107023B6803F1130341F20040C1F6FF7011461A46C1
S32D000115A054F02CFE41F20040C1F6FF706FF07F4153F096FF7B6803F107023B6803F1140341F20040C1F6FF70F7
S32D000115C811461A4654F016FE41F20040C1F6FF7047F6FF71C0F27F0153F07EFF7B6803F107023B6803F115031E
S32D000115F041F20040C1F6FF7011461A4654F0FEFD41F20040C1F6FF7047F6FF71C0F27F0153F066FF7B6803F146
S32D0001161807023B6803F1160341F20040C1F6FF7011461A4654F0E6FD41F20040C1F6FF7047F6FF71C0F27F01FB
S32D0001164053F04EFF7B6803F107023B6803F1170341F20040C1F6FF7011461A4654F0CEFD41F20040C1F6FF7062
S32D0001166847F6FF71C0F27F0153F036FF7B6803F107023B6803F1180341F20040C1F6FF7011461A4654F0B6FD23
S32D0001169041F20040C1F6FF7047F6FF71C0F27F0153F01EFF7B6803F107023B6803F1190341F20040C1F6FF7027
S32D000116B811461A4654F09EFD41F20040C1F6FF7047F6FF71C0F27F0153F006FF7B6803F107023B6803F11A0319
S32D000116E041F20040C1F6FF7011461A4654F086FD41F20040C1F6FF7047F6FF71C0F27F0153F0EEFE7B6803F146
S32D0001170807023B6803F11B0341F20040C1F6FF7011461A4654F06EFD41F20040C1F6FF7047F6FF71C0F27F017D
S32D0001173053F0D6FE7B6803F107023B6803F11C0341F20040C1F6FF7011461A4654F056FD41F20040C1F6FF705D
S32D0001175847F6FF71C0F27F0153F0BEFE7B6803F107023B6803F11D0341F20040C1F6FF7011461A4654F03EFD1E
S32D0001178041F20040C1F6FF7047F6FF71C0F27F0153F0A6FE7B6803F107023B6803F11E0341F20040C1F6FF70AA
S32D000117A811461A4654F026FD41F20040C1F6FF706FF07F4153F090FE7B6803F107023B6803F11F0341F200405F
S32D000117D0C1F6FF7011461A4654F010FD41F20040C1F6FF706FF07F4153F07AFE7B6803F107023B6803F12003AF
S32D000117F841F20040C1F6FF7011461A4654F0FAFC41F20040C1F6FF706FF07F4153F064FE7B6803F107023B6858
S32D0001182003F1210341F20040C1F6FF7011461A4654F0E4FC41F20040C1F6FF706FF07F4153F04EFE7B6803F1EF
S32D0001184807023B6803F1220341F20040C1F6FF7011461A4654F0CEFC41F20040C1F6FF706FF07F4153F038FE1D
S32D000118707B6803F107023B6803F1230341F20040C1F6FF7011461A4654F0B8FC41F20040C1F6FF706FF07F41AC
S32D0001189853F022FE7B6803F107023B6803F1240341F20040C1F6FF7011461A4654F0A2FC41F20040C1F6FF7055
S32D000118C06FF07F4153F00CFE7B6803F107023B6803F1250341F20040C1F6FF7011461A4654F08CFC41F200405F
S32D000118E8C1F6FF706FF07F4153F0F6FD7B6803F107023B6803F1260341F20040C1F6FF7011461A4654F076FCB0
S32D0001191041F20040C1F6FF706FF07F4153F0E0FD7B6803F107023B6803F1270341F20040C1F6FF7011461A46DF
S32D0001193854F060FC41F20040C1F6FF706FF07F4153F0CAFD7B6803F107023B6803F1280341F20040C1F6FF70E3
S32D0001196011461A4654F04AFC41F20040C1F6FF706FF07F4153F0B4FD7B6803F107023B6803F1290341F2004055
S32D00011988C1F6FF7011461A4654F034FC41F20040C1F6FF706FF07F4153F09EFD7B6803F107023B6803F12A03A5
S32D000119B041F20040C1F6FF7011461A4654F01EFC41F20040C1F6FF706FF07F4153F088FD7B6803F1080341F2C5
S32D000119D80040C1F6FF7019463A6854F00BFC41F20040C1F6FF706FF07F4153F075FD7B6803F108023B6803F149
S32D00011A00010341F20040C1F6FF7011461A4654F0F5FB41F20040C1F6FF706FF07F4153F05FFD7B6803F10802F7
S32D00011A283B6803F1020341F20040C1F6FF7011461A4654F0DFFB41F20040C1F6FF706FF07F4153F049FD7B6861
S32D00011A5003F108023B6803F1030341F20040C1F6FF7011461A4654F0C9FB41F20040C1F6FF706FF07F4153F079
S32D00011A7833FD7B6803F108023B6803F1040341F20040C1F6FF7011461A4654F0B3FB41F20040C1F6FF706FF056
S32D00011AA07F4153F01DFD7B6803F108023B6803F1050341F20040C1F6FF7011461A4654F09DFB41F20040C1F624
S32D00011AC8FF706FF07F4153F007FD7B6803F108023B6803F1060341F20040C1F6FF7011461A4654F087FB41F250
S32D00011AF00040C1F6FF706FF07F4153F0F1FC7B6803F108023B6803F1070341F20040C1F6FF7011461A4654F0FC
S32D00011B1871FB41F20040C1F6FF706FF07F4153F0DBFC7B6803F108023B6803F1080341F20040C1F6FF701146ED
S32D00011B401A4654F05BFB41F20040C1F6FF706FF07F4153F0C5FC7B6803F108023B6803F1090341F20040C1F612
S32D00011B68FF7011461A4654F045FB41F20040C1F6FF706FF07F4153F0AFFC7B6803F108023B6803F10A0341F246
S32D00011B900040C1F6FF7011461A4654F02FFB41F20040C1F6FF706FF07F4153F099FC7B6803F108023B6803F193
S32D00011BB80B0341F20040C1F6FF7011461A4654F019FB41F20040C1F6FF706FF07F4153F083FC7B6803F10802ED
S32D00011BE03B6803F10C0341F20040C1F6FF7011461A4654F003FB41F20040C1F6FF706FF07F4153F06DFC7B6857
S32D00011C0803F108023B6803F10D0341F20040C1F6FF7011461A4654F0EDFA41F20040C1F6FF706FF07F4153F092
S32D00011C3057FC7B6803F108023B6803F10E0341F20040C1F6FF7011461A4654F0D7FA41F20040C1F6FF706FF04C
S32D00011C587F4153F041FC7B6803F108023B6803F10F0341F20040C1F6FF7011461A4654F0C1FA41F20040C1F61A
S32D00011C80FF706FF07F4153F02BFC7B6803F108023B6803F1100341F20040C1F6FF7011461A4654F0ABFA41F246
S32D00011CA80040C1F6FF706FF07F4153F015FC7B6803F108023B6803F1110341F20040C1F6FF7011461A4654F014
S32D00011CD095FA41F20040C1F6FF706FF07F4153F0FFFB7B6803F108023B6803F1120341F20040C1F6FF701146E4
S32D00011CF81A4654F07FFA41F20040C1F6FF706FF07F4153F0E9FB7B6803F108023B6803F1130341F20040C1F609
S32D00011D20FF7011461A4654F069FA41F20040C1F6FF706FF07F4153F0D3FB7B6803F108023B6803F1140341F23C
S32D00011D480040C1F6FF7011461A4654F053FA41F20040C1F6FF706FF07F4153F0BDFB7B6803F108023B6803F193
S32D00011D70150341F20040C1F6FF7011461A4654F03DFA41F20040C1F6FF706FF07F4153F0A7FB7B6803F10802E3
S32D00011D983B6803F1160341F20040C1F6FF7011461A4654F027FA41F20040C1F6FF7047F67F71C0F27F0153F07C
S32D00011DC08FFB7B6803F108023B6803F1170341F20040C1F6FF7011461A4654F00FFA41F20040C1F6FF7047F665
S32D00011DE87F71C0F27F0153F077FB7B6803F108023B6803F1180341F20040C1F6FF7011461A4654F0F7F941F2AB
S32D00011E100040C1F6FF7047F67F71C0F27F0153F05FFB7B6803F108023B6803F1190341F20040C1F6FF701146BD
S32D00011E381A4654F0DFF941F20040C1F6FF7047F67F71C0F27F0153F047FB7B6803F108023B6803F11A0341F2BA
S32D00011E600040C1F6FF7011461A4654F0C7F941F20040C1F6FF7047F67F71C0F27F0153F02FFB7B6803F10802EC
S32D00011E883B6803F11B0341F20040C1F6FF7011461A4654F0AFF941F20040C1F6FF7047F67F71C0F27F0153F0FF
S32D00011EB017FB7B6803F108023B6803F11C0341F20040C1F6FF7011461A4654F097F941F20040C1F6FF7047F660
S32D00011ED87F71C0F27F0153F0FFFA7B6803F108023B6803F11D0341F20040C1F6FF7011461A4654F07FF941F2A6
S32D00011F000040C1F6FF7047F67F71C0F27F0153F0E7FA7B6803F108023B6803F11E0341F20040C1F6FF70114640
S32D00011F281A4654F067F941F20040C1F6FF7047F67F71C0F27F0153F0CFFA7B6803F108023B6803F11F0341F2B5
S32D00011F500040C1F6FF7011461A4654F04FF941F20040C1F6FF7047F67F71C0F27F0153F0B7FA7B6803F10802EC
S32D00011F783B6803F1200341F20040C1F6FF7011461A4654F037F941F20040C1F6FF706FF07F4153F0A1FA7B6843
S32D00011FA003F108023B6803F1210341F20040C1F6FF7011461A4654F021F941F20040C1F6FF706FF07F4153F0B0
S32D00011FC88BFA7B6803F108023B6803F1220341F20040C1F6FF7011461A4654F00BF941F20040C1F6FF706FF038
S32D00011FF07F4153F075FA7B6803F108023B6803F1230341F20040C1F6FF7011461A4654F0F5F841F20040C1F607
S32D00012018FF706FF07F4153F05FFA7B6803F108023B6803F1240341F20040C1F6FF7011461A4654F0DFF841F232
S32D000120400040C1F6FF706FF07F4153F049FA7B6803F108023B6803F1250341F20040C1F6FF7011461A4654F032
S32D00012068C9F841F20040C1F6FF706FF07F4153F033FA7B6803F108023B6803F1260341F20040C1F6FF701146CF
S32D000120901A4654F0B3F841F20040C1F6FF706FF07F4153F01DFA7B6803F108023B6803F1270341F20040C1F6F4
S32D000120B8FF7011461A4654F09DF841F20040C1F6FF706FF07F4153F007FA7B6803F108023B6803F1280341F228
S32D000120E00040C1F6FF7011461A4654F087F841F20040C1F6FF706FF07F4153F0F1F97B6803F108023B6803F194
S32D00012108290341F20040C1F6FF7011461A4654F071F841F20040C1F6FF706FF07F4153F0DBF97B6803F10802CF
S32D000121303B6803F12A0341F20040C1F6FF7011461A4654F05BF841F20040C1F6FF706FF07F4153F0C5F97B6839
S32D0001215803F1090341F20040C1F6FF7019463A6854F048F841F20040C1F6FF706FF07F4153F0B2F97B6803F1BD
S32D0001218009023B6803F1010341F20040C1F6FF7011461A4654F032F841F20040C1F6FF706FF07F4153F09CF93C
S32D000121A87B6803F109023B6803F1020341F20040C1F6FF7011461A4654F01CF841F20040C1F6FF706FF07F412A
S32D000121D053F086F97B6803F109023B6803F1030341F20040C1F6FF7011461A4654F006F841F20040C1F6FF7074
S32D000121F86FF07F4153F070F97B6803F109023B6803F1040341F20040C1F6FF7011461A4653F0F0FF41F2004078
S32D00012220C1F6FF706FF07F4153F05AF97B6803F109023B6803F1050341F20040C1F6FF7011461A4653F0DAFFC7
S32D0001224841F20040C1F6FF706FF07F4153F044F97B6803F109023B6803F1060341F20040C1F6FF7011461A465D
S32D0001227053F0C4FF41F20040C1F6FF706FF07F4153F02EF97B6803F109023B6803F1070341F20040C1F6FF70FB
S32D0001229811461A4653F0AEFF41F20040C1F6FF706FF07F4153F018F97B6803F109023B6803F1080341F200406D
S32D000122C0C1F6FF7011461A4653F098FF41F20040C1F6FF706FF07F4153F002F97B6803F109023B6803F10903BD
S32D000122E841F20040C1F6FF7011461A4653F082FF41F20040C1F6FF706FF07F4153F0ECF87B6803F109023B684F
S32D0001231003F10A0341F20040C1F6FF7011461A4653F06CFF41F20040C1F6FF706FF07F4153F0D6F87B6803F1FF
S32D0001233809023B6803F10B0341F20040C1F6FF7011461A4653F056FF41F20040C1F6FF706FF07F4153F0C0F82B
S32D000123607B6803F109023B6803F10C0341F20040C1F6FF7011461A4653F040FF41F20040C1F6FF706FF07F413C
S32D0001238853F0AAF87B6803F109023B6803F10D0341F20040C1F6FF7011461A4653F02AFF41F20040C1F6FF7063
S32D000123B06FF07F4153F094F87B6803F109023B6803F10E0341F20040C1F6FF7011461A4653F014FF41F200406D
S32D000123D8C1F6FF706FF07F4153F07EF87B6803F109023B6803F10F0341F20040C1F6FF7011461A4653F0FEFEBE
S32D0001240041F20040C1F6FF706FF07F4153F068F87B6803F109023B6803F1100341F20040C1F6FF7011461A4676
S32D0001242853F0E8FE41F20040C1F6FF706FF07F4153F052F87B6803F109023B6803F1110341F20040C1F6FF70F1
S32D0001245011461A4653F0D2FE41F20040C1F6FF706FF07F4153F03CF87B6803F109023B6803F1120341F2004063
S32D00012478C1F6FF7011461A4653F0BCFE41F20040C1F6FF706FF07F4153F026F87B6803F109023B6803F11303B3
S32D000124A041F20040C1F6FF7011461A4653F0A6FE41F20040C1F6FF706FF07F4153F010F87B6803F109023B684E
S32D000124C803F1140341F20040C1F6FF7011461A4653F090FE41F20040C1F6FF706FF07F4152F0FAFF7B6803F1EF
S32D000124F009023B6803F1150341F20040C1F6FF7011461A4653F07AFE41F20040C1F6FF706FF07F4152F0E4FF1B
S32D000125187B6803F109023B6803F1160341F20040C1F6FF7011461A4653F064FE41F20040C1F6FF7047F67F7147
S32D00012540C0F2FF0152F0CCFF7B6803F109023B6803F1170341F20040C1F6FF7011461A4653F04CFE41F20040CA
S32D00012568C1F6FF7047F67F71C0F2FF0152F0B4FF7B6803F109023B6803F1180341F20040C1F6FF7011461A4666
S32D0001259053F034FE41F20040C1F6FF7047F67F71C0F2FF0152F09CFF7B6803F109023B6803F1190341F200404A
S32D000125B8C1F6FF7011461A4653F01CFE41F20040C1F6FF7047F67F71C0F2FF0152F084FF7B6803F109023B68F8
S32D000125E003F11A0341F20040C1F6FF7011461A4653F004FE41F20040C1F6FF7047F67F71C0F2FF0152F06CFF01
S32D000126087B6803F109023B6803F11B0341F20040C1F6FF7011461A4653F0ECFD41F20040C1F6FF7047F67F71CA
S32D00012630C0F2FF0152F054FF7B6803F109023B6803F11C0341F20040C1F6FF7011461A4653F0D4FD41F20040C5
S32D00012658C1F6FF7047F67F71C0F2FF0152F03CFF7B6803F109023B6803F11D0341F20040C1F6FF7011461A46E8
S32D0001268053F0BCFD41F20040C1F6FF7047F67F71C0F2FF0152F024FF7B6803F109023B6803F11E0341F2004045
S32D000126A8C1F6FF7011461A4653F0A4FD41F20040C1F6FF7047F67F71C0F2FF0152F00CFF7B6803F109023B68F8
S32D000126D003F11F0341F20040C1F6FF7011461A4653F08CFD41F20040C1F6FF7047F67F71C0F2FF0152F0F4FEFD
S32D000126F87B6803F109023B6803F1200341F20040C1F6FF7011461A4653F074FD41F20040C1F6FF706FF07F415B
S32D0001272052F0DEFE7B6803F109023B6803F1210341F20040C1F6FF7011461A4653F05EFD41F20040C1F6FF7048
S32D000127486FF07F4152F0C8FE7B6803F109023B6803F1220341F20040C1F6FF7011461A4653F048FD41F2004052
S32D00012770C1F6FF706FF07F4152F0B2FE7B6803F109023B6803F1230341F20040C1F6FF7011461A4653F032FDA2
S32D0001279841F20040C1F6FF706FF07F4152F09CFE7B6803F109023B6803F1240341F20040C1F6FF7011461A468E
S32D000127C053F01CFD41F20040C1F6FF706FF07F4152F086FE7B6803F109023B6803F1250341F20040C1F6FF70D6
S32D000127E811461A4653F006FD41F20040C1F6FF706FF07F4152F070FE7B6803F109023B6803F1260341F2004048
S32D00012810C1F6FF7011461A4653F0F0FC41F20040C1F6FF706FF07F4152F05AFE7B6803F109023B6803F1270398
S32D0001283841F20040C1F6FF7011461A4653F0DAFC41F20040C1F6FF706FF07F4152F044FE7B6803F109023B6847
S32D0001286003F1280341F20040C1F6FF7011461A4653F0C4FC41F20040C1F6FF706FF07F4152F02EFE7B6803F1DA
S32D0001288809023B6803F1290341F20040C1F6FF7011461A4653F0AEFC41F20040C1F6FF706FF07F4152F018FE06
S32D000128B07B6803F109023B6803F12A0341F20040C1F6FF7011461A4653F098FC41F20040C1F6FF706FF07F4174
S32D000128D852F002FE7B6803F10A0341F20040C1F6FF7019463A6853F085FC41F20040C1F6FF706FF07F4152F053
S32D00012900EFFD7B6803F10A023B6803F1010341F20040C1F6FF7011461A4653F06FFC41F20040C1F6FF706FF048
S32D000129287F4152F0D9FD7B6803F10A023B6803F1020341F20040C1F6FF7011461A4653F059FC41F20040C1F617
S32D00012950FF706FF07F4152F0C3FD7B6803F10A023B6803F1030341F20040C1F6FF7011461A4653F043FC41F243
S32D000129780040C1F6FF706FF07F4152F0ADFD7B6803F10A023B6803F1040341F20040C1F6FF7011461A4653F0AB
S32D000129A02DFC41F20040C1F6FF706FF07F4152F097FD7B6803F10A023B6803F1050341F20040C1F6FF701146DF
S32D000129C81A4653F017FC41F20040C1F6FF706FF07F4152F081FD7B6803F10A023B6803F1060341F20040C1F605
S32D000129F0FF7011461A4653F001FC41F20040C1F6FF706FF07F4152F06BFD7B6803F10A023B6803F1070341F239
S32D00012A180040C1F6FF7011461A4653F0EBFB41F20040C1F6FF706FF07F4152F055FD7B6803F10A023B6803F183
S32D00012A40080341F20040C1F6FF7011461A4653F0D5FB41F20040C1F6FF706FF07F4152F03FFD7B6803F10A02E0
S32D00012A683B6803F1090341F20040C1F6FF7011461A4653F0BFFB41F20040C1F6FF706FF07F4152F029FD7B684C
S32D00012A9003F10A023B6803F10A0341F20040C1F6FF7011461A4653F0A9FB41F20040C1F6FF706FF07F4152F042
S32D00012AB813FD7B6803F10A023B6803F10B0341F20040C1F6FF7011461A4653F093FB41F20040C1F6FF706FF03E
S32D00012AE07F4152F0FDFC7B6803F10A023B6803F10C0341F20040C1F6FF7011461A4653F07DFB41F20040C1F60E
S32D00012B08FF706FF07F4152F0E7FC7B6803F10A023B6803F10D0341F20040C1F6FF7011461A4653F067FB41F239
S32D00012B300040C1F6FF706FF07F4152F0D1FC7B6803F10A023B6803F10E0341F20040C1F6FF7011461A4653F0C4
