S01200002E2E2F44696E6F47616D652E73313953
S32D0000C000000000201D770400797A0400797A0400797A0400797A0400797A040000000000000000000000000087
S32D0000C02800000000797A0400797A040000000000797A0400797A0400797A0400797A0400797A0400797A040032
S32D0000C050797A0400797A0400797A0400797A0400797A0400797A0400797A0400797A0400797A0400797A04001C
S32D0000C078797A0400797A0400797A0400797A0400797A0400797A0400797A0400797A0400797A0400797A0400F4
S32D0000C0A0797A0400797A0400797A0400797A0400797A0400797A0400797A0400797A0400797A0400797A0400CC
S32D0000C0C8797A0400797A0400797A0400797A0400797A0400797A0400797A0400797A0400797A0400797A0400A4
S32D0000C0F0797A040031CE0400797A0400797A0400797A0400797A0400797A0400797A0400797A0400797A040070
S32D0000C118797A0400797A0400797A0400797A0400797A0400797A0400797A0400797A0400797A0400797A040053
S32D0000C140797A0400797A0400797A0400797A040091A50400797A0400797A0400797A0400797A0400797A0400E8
S32D0000C168797A0400797A0400797A0400797A0400797A0400797A0400797A0400797A0400797A0400797A040003
S32D0000C190797A0400797A0400797A0400C5A1040019A00400EDA00400C97A04009DA20400797A0400797A04006C
S32D0000C1B8797A0400797A0400797A0400797A0400797A0400797A0400797A0400797A0400797A0400797A0400B3
S32D0000C41081F0004102E000BF83F0004330B54FEA41044FEA430594EA050F08BF90EA020F1FBF54EA000C55EAC6
S32D0000C438020C7FEA645C7FEA655C00F0E2804FEA5454D4EB5555B8BF6D420CDD2C4480EA020281EA030382EA0F
S32D0000C460000083EA010180EA020281EA0303362D88BF30BD11F0004F4FEA01314FF4801C4CEA113102D0404263
S32D0000C48861EB410113F0004F4FEA03334CEA133302D0524263EB430394EA050F00F0A780A4F10104D5F1200E8A
S32D0000C4B00DDB02FA0EFC22FA05F2801841F1000103FA0EF2801843FA05F359410EE0A5F120050EF1200E012A2D
S32D0000C4D803FA0EFC28BF4CF0020C43FA05F3C01851EBE37101F0004507D54FF0000EDCF1000C7EEB00006EEB67
S32D0000C5000101B1F5801F1BD3B1F5001F0CD349085FEA30004FEA3C0C04F101044FEA445212F5800F80F09A8000
S32D0000C528BCF1004F08BF5FEA500C50F1000041EB045141EA050130BD5FEA4C0C404141EB010111F4801FA4F114
S32D0000C5500104E9D191F0000F04BF01460020B1FA81F308BF2033A3F10B03B3F120020CDA0C3208DD02F1140C87
S32D0000C578C2F10C0201FA0CF021FA02F10CE002F11402D8BFC2F1200C01FA02F120FA0CFCDCBF41EA0C019040B1
S32D0000C5A0E41AA2BF01EB0451294330BD6FEA04041F3C1CDA0C340EDC04F11404C4F1200220FA04F001FA02F3B6
S32D0000C5C840EA030021FA04F345EA030130BDC4F10C04C4F1200220FA02F001FA04F340EA0300294630BD21FAA8
S32D0000C5F004F0294630BD94F0000F83F4801306BF81F480110134013D4EE77FEA645C18BF7FEA655C29D094EA1C
S32D0000C618050F08BF90EA020F05D054EA000C04BF1946104630BD91EA030F1EBF0021002030BD5FEA545C05D1A3
S32D0000C6404000494128BF41F0004130BD14F580043CBF01F5801130BD01F0004545F0FE4141F470014FF0000031
S32D0000C66830BD7FEA645C1ABF194610467FEA655C1CBF0B46024650EA013406BF52EA033591EA030F41F40021D7
S32D0000C69030BD00BF90F0000F04BF0021704730B54FF4806404F132044FF000054FF0000150E700BF90F0000F66
S32D0000C6B804BF0021704730B54FF4806404F1320410F0004548BF40424FF000013EE700BF42004FEAE2014FEAF9
S32D0000C6E031014FEA02701FBF12F07F4393F07F4F81F06051704792F0000F14BF93F07F4F704730B54FF460741B
S32D0000C70801F0004521F0004120E700BF50EA010208BF704730B54FF000050AE050EA010208BF704730B511F046
S32D0000C730004502D5404261EB41014FF4806404F132045FEA915C3FF4DCAE4FF003025FEADC0C18BF03325FEAA0
S32D0000C758DC0C18BF033202EBDC02C2F1200300FA03FC20FA02F001FA03FE40EA0E0021FA02F11444C1E600BF19
S32D0000C78070B54FF0FF0C4CF4E06C1CEA11541DBF1CEA135594EA0C0F95EA0C0F00F0DEF82C4481EA030621EAF3
S32D0000C7A84C5123EA4C5350EA013518BF52EA033541F4801143F4801338D0A0FB02CE4FF00005E1FB02E506F05F
S32D0000C7D00042E0FB03E54FF00006E1FB03569CF0000F18BF4EF0010EA4F1FF04B6F5007F64F5407404D25FEA0F
S32D0000C7F84E0E6D4146EB060642EAC62141EA55514FEAC52040EA5E504FEACE2EB4F1FD0C88BFBCF5E06F1ED8D2
S32D0000C820BEF1004F08BF5FEA500E50F1000041EB045170BD06F0004646EA010140EA020081EA0301B4EB5C0487
S32D0000C848C2BFD4EB0C0541EA045170BD41F480114FF0000E013C00F3AB8014F1360FDEBF002001F0004170BDF0
S32D0000C870C4F10004203C35DA0C341BDC04F11404C4F1200500FA05F320FA04F001FA05F240EA020001F0004207
S32D0000C89821F0004110EBD37021FA04F642EB06015EEA430E08BF20EAD37070BDC4F10C04C4F1200500FA04F32F
S32D0000C8C020FA05F001FA04F240EA020001F0004110EBD37041F100015EEA430E08BF20EAD37070BDC4F12005C7
S32D0000C8E800FA05F24EEA020E20FA04F301FA05F243EA020321FA04F001F0004121FA04F220EA020000EBD37028
S32D0000C9105EEA430E08BF20EAD37070BD94F0000F0FD101F00046400041EB010111F4801F08BF013CF7D041EA6D
S32D0000C938060195F0000F18BF704703F00046520043EB030313F4801F08BF013DF7D043EA0603704794EA0C0FF1
S32D0000C9600CEA135518BF95EA0C0F0CD050EA410618BF52EA4306D1D181EA030101F000414FF0000070BD50EA38
S32D0000C988410606BF1046194652EA430619D094EA0C0F02D150EA013613D195EA0C0F05D152EA03361CBF10467B
S32D0000C9B019460AD181EA030101F0004141F0FE4141F470014FF0000070BD41F0FE4141F4780170BD70B54FF04D
S32D0000C9D8FF0C4CF4E06C1CEA11541DBF1CEA135594EA0C0F95EA0C0F00F0A7F8A4EB050481EA030E52EA03359B
S32D0000CA004FEA013100F088804FEA03334FF0805545EA131343EA12634FEA022245EA111545EA10654FEA002676
S32D0000CA280EF000419D4208BF964244F1FD0404F5407402D25B084FEA3202B61A65EB03055B084FEA32024FF461
S32D0000CA5080104FF4002CB6EB020E75EB030E22BFB61A754640EA0C005B084FEA3202B6EB020E75EB030E22BF22
S32D0000CA78B61A754640EA5C005B084FEA3202B6EB020E75EB030E22BFB61A754640EA9C005B084FEA3202B6EBEA
S32D0000CAA0020E75EB030E22BFB61A754640EADC0055EA060E18D04FEA051545EA16754FEA06164FEAC30343EAAC
S32D0000CAC852734FEAC2025FEA1C1CC0D111F4801F0BD141EA00014FF000004FF0004CB6E711F4801F04BF0143AE
S32D0000CAF00020B4F1FD0C88BFBCF5E06F3FF6AFAEB5EB030C04BFB6EB020C5FEA500C50F1000041EB045170BDBC
S32D0000CB180EF0004E4EEA113114EB5C04C2BFD4EB0C0541EA045170BD41F480114FF0000E013C90E645EA060EC3
S32D0000CB408DE60CEA135594EA0C0F08BF95EA0C0F3FF43BAF94EA0C0F0AD150EA01347FF434AF95EA0C0F7FF499
S32D0000CB6825AF104619462CE795EA0C0F06D152EA03353FF4FDAE1046194622E750EA410618BF52EA43067FF432
S32D0000CB90C5AE50EA41047FF40DAF52EA43057FF4EBAE12E74FEA410212F5001215D211D56FF47873B3EB6252CB
S32D0000CBB812D94FEAC12343F0004343EA505311F0004F23FA02F018BF404270474FF00000704750EA013005D15B
S32D0000CBE011F0004008BF6FF0004070474FF00000704700BF4A0011D212F5001211D20DD56FF47873B3EB625269
S32D0000CC080ED44FEAC12343F0004343EA505323FA02F070474FF00000704750EA013002D14FF0FF3070474FF05B
S32D0000CC30000070474FEA4102B2F1E04324BFB3F5001CDCF1FE5C0DD901F0004C4FEAC0024CEA5070B2F1004F09
S32D0000CC5840EB830008BF20F00100704711F0804F21D113F13872BCBF01F00040704741F480114FEA5252C2F148
S32D0000CC801802C2F1200C10FA0CF320FA02F018BF40F001004FEAC1234FEAD32303FA0CFC40EA0C0023FA02F3D7
S32D0000CCA84FEA4303CCE77FEA625307D150EA01331EBF4FF0FE4040F44000704701F0004040F0FE4040F4000070
S32D0000CCD0704700BF80F0004002E000BF81F0004142001FBF5FEA410392EA030F7FEA226C7FEA236C6AD04FEA20
S32D0000CCF81262D2EB1363C1BFD218414048404140B8BF5B42192B88BF704710F0004F40F4000020F07F4018BFF4
S32D0000CD20404211F0004F41F4000121F07F4118BF494292EA030F3FD0A2F1010241FA03FC10EB0C00C3F120035F
S32D0000CD4801FA03F100F0004302D5494260EB4000B0F5000F13D3B0F1807F06D340084FEA310102F10102FE2ACA
S32D0000CD7051D2B1F1004F40EBC25008BF20F0010040EA03007047490040EB000010F4000FA2F10102EDD1B0FA03
S32D0000CD9880FCACF1080CB2EB0C0200FA0CF0AABF00EBC25052421843BCBFD0401843704792F0000F81F40001A6
S32D0000CDC006BF80F400000132013BB5E74FEA41037FEA226C18BF7FEA236C21D092EA030F04D092F0000F08BF13
S32D0000CDE80846704790EA010F1CBF0020704712F07F4F04D1400028BF40F00040704712F100723CBF00F5000084
S32D0000CE10704700F0004343F0FE4040F4000070477FEA226216BF08467FEA23630146420206BF5FEA412390EA38
S32D0000CE38010F40F4800070474FF0000304E000BF10F0004348BF40425FEA000C08BF704743F0964301464FF03B
S32D0000CE6000001CE050EA010208BF70474FF000030AE000BF50EA010208BF704711F0004302D5404261EB41011C
S32D0000CE885FEA010C02BF84460146002043F0B64308BFA3F18053A3F50003BCFA8CF2083AA3EBC25310DB01FA40
S32D0000CEB002FC634400FA02FCC2F12002BCF1004F20FA02F243EB020008BF20F00100704702F1200201FA02FC0B
S32D0000CED8C2F1200250EA4C0021FA02F243EB020008BF20EADC7070474FF0FF0C1CEAD0521EBF1CEAD15392EAC9
S32D0000CF000C0F93EA0C0F6FD01A4480EA010C400218BF5FEA41211ED04FF0006343EA501043EA5111A0FB0131FF
S32D0000CF280CF00040B1F5000F3EBF490041EAD3715B0040EA010062F17F02FD2A1DD8B3F1004F40EBC25008BFC8
S32D0000CF5020F00100704790F0000F0CF0004C08BF49024CEA502040EA51207F3AC2BFD2F1FF0340EAC2507047CF
S32D0000CF7840F400004FF00003013A5DDC12F1190FDCBF00F000407047C2F10002410021FA02F1C2F1200200FA21
S32D0000CFA002FC5FEA310040F1000053EA4C0308BF20EADC70704792F0000F00F0004C02BF400010F4000F013A3E
S32D0000CFC8F9D040EA0C0093F0000F01F0004C02BF490011F4000F013BF9D041EA0C018FE70CEAD15392EA0C0FEB
S32D0000CFF018BF93EA0C0F0AD030F0004C18BF31F0004CD8D180EA010000F00040704790F0000F17BF90F0004FEB
S32D0000D018084691F0000F91F0004F14D092EA0C0F01D142020FD193EA0C0F03D14B0218BF084608D180EA0100A9
S32D0000D04000F0004040F0FE4040F40000704740F0FE4040F4400070474FF0FF0C1CEAD0521EBF1CEAD15392EAAB
S32D0000D0680C0F93EA0C0F69D0A2EB030280EA010C49024FEA402037D04FF0805343EA111143EA10130CF00040CD
S32D0000D0908B4238BF5B0042F17D024FF4000C8B4224BF5B1A40EA0C00B3EB510F24BFA3EB510340EA5C00B3EB10
S32D0000D0B8910F24BFA3EB910340EA9C00B3EBD10F24BFA3EBD10340EADC001B0118BF5FEA1C1CE0D1FD2A3FF695
S32D0000D0E050AF8B4240EBC25008BF20F0010070470CF0004C4CEA50207F32C2BFD2F1FF0340EAC250704740F47E
S32D0000D10800004FF00003013A37E792F0000F00F0004C02BF400010F4000F013AF9D040EA0C0093F0000F01F0C0
S32D0000D130004C02BF490011F4000F013BF9D041EA0C0195E70CEAD15392EA0C0F08D142027FF47DAF93EA0C0FA9
S32D0000D1587FF470AF084676E793EA0C0F04D14B023FF44CAF08466EE730F0004C18BF31F0004CCAD130F0004234
S32D0000D1807FF45CAF31F000437FF43CAF5FE700BF4FF0FF3C06E000BF4FF0010C02E000BF4FF0010C4DF804CDCE
S32D0000D1A84FEA40024FEA41037FEA226C18BF7FEA236C11D001B052EA530C18BF90EA010F58BFB2EB030088BF0F
S32D0000D1D0C81738BF6FEAE17018BF40F0010070477FEA226C02D15FEA402C05D17FEA236CE4D15FEA412CE1D089
S32D0000D1F85DF8040B704700BF844608466146FFE70FB5FFF7C9FF002848BF10F1000F0FBD4DF808EDFFF7F4FFDA
S32D0000D2200CBF012000205DF808FB00BF4DF808EDFFF7EAFF34BF012000205DF808FB00BF4DF808EDFFF7E0FF4A
S32D0000D24894BF012000205DF808FB00BF4DF808EDFFF7D2FF94BF012000205DF808FB00BF4DF808EDFFF7C8FF6A
S32D0000D27034BF012000205DF808FB00BF80B584B000AF4FF00103FB604FF00003FB7200F037F803467B607B68BA
S32D0000D29803F1FF33032B21D801A252F823F000BFC1D20000D3D20000D9D20000DFD2000000F082FB0346FB60B7
S32D0000D2C0FB68012B14BF00230123DBB2002BF3D108E000F05FFD05E000F014FD02E000F0A1FD00BFFB7A83F0EA
S32D0000D2E80103DBB2002BCED14FF00003184607F11007BD4680BD00BF90B585B002AF41F20040C1F6FF706FF0EC
S32D0000D3107F413EF02BF841F20040C1F6FF703EF005F841F20040C1F6FF704FF000013EF045F841F20040C1F6AC
S32D0000D338FF704EF2AC31C0F204014FF064024FF00A033EF04BF84FF03703009341F20040C1F6FF704FF0340109
S32D0000D3604FF042024FF069033EF0DAFE4FF03703009341F20040C1F6FF704FF0A2014FF042024FF069033EF088
S32D0000D388CBFE4FF03703009341F20040C1F6FF704FF034014FF07E024FF069033EF0BCFE4FF03703009341F204
S32D0000D3B00040C1F6FF704FF0A2014FF07E024FF069033EF0ADFE41F20040C1F6FF706FF07F413DF0F3FF4FF0AE
S32D0000D3D82D03009341F20040C1F6FF704FF039014FF047024FF05F033EF096FE4FF02D03009341F20040C1F63B
S32D0000D400FF704FF0A7014FF047024FF05F033EF087FE4FF02D03009341F20040C1F6FF704FF039014FF08302F4
S32D0000D4284FF05F033EF078FE4FF02D03009341F20040C1F6FF704FF0A7014FF083024FF05F033EF069FE41F2E2
S32D0000D4500040C1F6FF704FF000013DF0AFFF41F20040C1F6FF704EF2B831C0F204014FF03E024FF04C033DF07A
S32D0000D478B5FF41F20040C1F6FF704EF2C031C0F204014FF03E024FF04C033DF0A7FF41F20040C1F6FF704EF298
S32D0000D4A0C831C0F204014FF03E024FF04C033DF099FF41F20040C1F6FF704EF2D831C0F204014FF03E024FF085
S32D0000D4C84C033DF08BFF00BF07F104023B4641F20040C1F6FF7011461A463EF001F80346002BF1D100BF07F18E
S32D0000D4F004023B4641F20040C1F6FF7011461A463DF0F2FF034683F00103DBB2002BEED17B684FF00102144663
S32D0000D5181846DFF88414FFF7A3FE0346002B02D14FF000031C46E3B2002B00F081807B684FF001021446184608
S32D0000D540DFF86014FFF772FE0346002B02D14FF000031C46E3B2002B6ED03B684FF0010214461846DFF840145B
S32D0000D568FFF77EFE0346002B02D14FF000031C46E3B2002B5CD03B684FF0010214461846DFF82014FFF74EFE62
S32D0000D5900346002B02D14FF000031C46E3B2002B4AD041F20040C1F6FF704FF0FF013DF005FF4FF03703009393
S32D0000D5B841F20040C1F6FF704FF034014FF042024FF069033EF0A8FD41F20040C1F6FF706FF07F413DF0EEFE66
S32D0000D5E04FF02D03009341F20040C1F6FF704FF039014FF047024FF05F033EF091FD41F20040C1F6FF704FF04C
S32D0000D608FF013DF0D7FE41F20040C1F6FF704EF2B831C0F204014FF03E024FF04C033DF0DDFE4FF4FA703CF08B
S32D0000D63073FC4FF00103ADE17B684FF0010214461846DB49FFF710FE0346002B02D14FF000031C46E3B2002BDC
S32D0000D6587DD07B684FF0010214461846D349FFF7E1FD0346002B02D14FF000031C46E3B2002B6CD03B684FF0C1
S32D0000D680010214461846C849FFF7EEFD0346002B02D14FF000031C46E3B2002B5BD03B684FF00102144618465C
S32D0000D6A8C049FFF7BFFD0346002B02D14FF000031C46E3B2002B4AD041F20040C1F6FF704FF0FF013DF076FE5B
S32D0000D6D04FF03703009341F20040C1F6FF704FF0A2014FF042024FF069033EF019FD41F20040C1F6FF706FF03B
S32D0000D6F87F413DF05FFE4FF02D03009341F20040C1F6FF704FF0A7014FF047024FF05F033EF002FD41F200406F
S32D0000D720C1F6FF704FF0FF013DF048FE41F20040C1F6FF704EF2C031C0F204014FF03E024FF04C033DF04EFEFC
S32D0000D7484FF4FA703CF0E4FB4FF002031EE17B684FF00102144618468F49FFF781FD0346002B02D14FF0000306
S32D0000D7701C46E3B2002B7DD07B684FF00102144618468849FFF752FD0346002B02D14FF000031C46E3B2002B7E
S32D0000D7986CD03B684FF00102144618468449FFF75FFD0346002B02D14FF000031C46E3B2002B5BD03B684FF0B3
S32D0000D7C00102144618467D49FFF730FD0346002B02D14FF000031C46E3B2002B4AD041F20040C1F6FF704FF0FA
S32D0000D7E8FF013DF0E7FD4FF03703009341F20040C1F6FF704FF034014FF07E024FF069033EF08AFC41F2004058
S32D0000D810C1F6FF706FF07F413DF0D0FD4FF02D03009341F20040C1F6FF704FF039014FF083024FF05F033EF004
S32D0000D83873FC41F20040C1F6FF704FF0FF013DF0B9FD41F20040C1F6FF704EF2C831C0F204014FF03E024FF051
S32D0000D8604C033DF0BFFD4FF4FA703CF055FB4FF003038FE07B684FF00102144618464C49FFF7F2FC0346002BBB
S32D0000D88802D14FF000031C46E3B2002B7DD07B684FF00102144618464449FFF7C3FC0346002B02D14FF0000346
S32D0000D8B01C46E3B2002B6CD03B684FF00102144618463D49FFF7D0FC0346002B02D14FF000031C46E3B2002B5C
S32D0000D8D85BD03B684FF00102144618463549FFF7A1FC0346002B02D14FF000031C46E3B2002B4AD041F2004011
S32D0000D900C1F6FF704FF0FF013DF058FD4FF03703009341F20040C1F6FF704FF0A2014FF07E024FF069033EF0F3
S32D0000D928FBFB41F20040C1F6FF706FF07F413DF041FD4FF02D03009341F20040C1F6FF704FF0A7014FF0830272
S32D0000D9504FF05F033EF0E4FB41F20040C1F6FF704FF0FF013DF02AFD41F20040C1F6FF704EF2D831C0F2040136
S32D0000D9784FF03E024FF04C033DF030FD4FF4FA703CF0C6FA4FF0040300E0FFE7184607F10C07BD4690BD00BFFD
S32D0000D9A0000064420000184300008E420000E84200002743000083430000034300003043B0B58CB002AF4FF0E4
S32D0000D9C80003FB764FF032037B614FF089037B624FF001033B624FF00003FB613CF0E0FA02460B46C7E90223D3
S32D0000D9F0BCE04FF00003FB6107F104023B4641F20040C1F6FF7011461A463DF06DFD0346002B02D17B6A882B8A
S32D0000DA1802DC4FF0010301E04FF00003002B00F08D803B684FF00102144618465649FFF703FC0346002B02D1FC
S32D0000DA404FF000031C46E3B2002B52D04FF00003FB613CF0A9FA02460B4610461946D7E90223FEF7D9FC024680
S32D0000DA680B4614461D463CF09BFA02460B4610461946D7E90223FEF7CBFC02460B4620462946FEF779FE0246B0
S32D0000DA900B4614461D463CF087FA02460B4610461946D7E90223FEF7B7FC02460B46104619464FF000024FF004
S32D0000DAB8804303F55013FEF75FFE02460B4620462946FEF7A5FC02460B46104619462CA3D3E90023FEF79EFC41
S32D0000DAE002460B4610461946FFF75CF803467B6228E007F104023B4641F20040C1F6FF7011461A463DF0F0FC6A
S32D0000DB080346002B13D03B684FF00102144618461D49FFF7A5FB0346002B02D14FF000031C46E3B2002B02D082
S32D0000DB304FF0010301E04FF00003002B02D04FF00103FB617B6A892B02DD4FF089037B627B6A0093FB69019335
S32D0000DB58D7E902013A6A7B6900F01AF83B6A03F101033B62FB7E83F00103DBB2002B7FF43CAF4FF00003184672
S32D0000DB8007F12807BD46B0BD00000000002061400000F042AFF3008080B586B000AFC7E902017A603B6041F256
S32D0000DBA80040C1F6FF706FF07F413DF0DBFB41F20040C1F6FF703DF0B5FB41F20040C1F6FF704FF000013DF04B
S32D0000DBD0F5FB41F20040C1F6FF704FF0B4014FF0000240F23F133EF0D7F941F20040C1F6FF704FF0B5014FF01A
S32D0000DBF8000240F23F133EF0CBF941F20040C1F6FF704FF0B6014FF0000240F23F133EF0BFF9796846F267636A
S32D0000DC20C6F2666383FB01234FEAA3024FEAE173D21A13464FEA83039B184FEA4303CA1A002A19DB796846F2F7
S32D0000DC486763C6F2666383FB01234FEAA3024FEAE173D21A13464FEA83039B184FEA4303CA1A042A04DC38688E
S32D0000DC70396A13F057FA41E0796846F26763C6F2666383FB01234FEAA3024FEAE173D21A13464FEA83039B1846
S32D0000DC984FEA4303CA1A042A19DD796846F26763C6F2666383FB01234FEAA3024FEAE173D21A13464FEA830362
S32D0000DCC09B184FEA4303CA1A092A04DC3868396A00F0F0F812E03B6A882B04DC3868396A26F090FB0AE04FF0BB
S32D0000DCE801037B614FF00103002B03D03868396A39F0ECFC07F11807BD4680BD80B582B000AF41F20040C1F602
S32D0000DD10FF706FF07F413DF029FB41F20040C1F6FF703DF003FB41F20040C1F6FF704FF000013DF043FB41F2CB
S32D0000DD380040C1F6FF704EF2C831C0F204013DF003FD00BF07F104023B4641F20040C1F6FF7011461A463DF07F
S32D0000DD60C3FB0346002BF1D100BF07F104023B4641F20040C1F6FF7011461A463DF0B4FB034683F00103DBB2EA
S32D0000DD88002BEED107F10807BD4680BD80B582B000AF41F20040C1F6FF706FF07F413DF0E1FA41F20040C1F63C
S32D0000DDB0FF703DF0BBFA41F20040C1F6FF704FF000013DF0FBFA41F20040C1F6FF704EF2E031C0F204013DF02B
S32D0000DDD8BBFC00BF07F104023B4641F20040C1F6FF7011461A463DF07BFB0346002BF1D100BF07F104023B46C1
S32D0000DE0041F20040C1F6FF7011461A463DF06CFB034683F00103DBB2002BEED107F10807BD4680BD80B582B02B
S32D0000DE2800AF41F20040C1F6FF706FF07F413DF099FA41F20040C1F6FF703DF073FA41F20040C1F6FF704FF09A
S32D0000DE5000013DF0B3FA41F20040C1F6FF704EF2D831C0F204013DF073FC00BF07F104023B4641F20040C1F62C
S32D0000DE78FF7011461A463DF033FB0346002BF1D100BF07F104023B4641F20040C1F6FF7011461A463DF024FBEB
S32D0000DEA0034683F00103DBB2002BEED107F10807BD4680BD80B582B000AF7860396041F20040C1F6FF706FF057
S32D0000DEC87F413DF077FA41F20040C1F6FF7079683A683EF031F841F20040C1F6FF706FF07F413DF067FA3B6872
S32D0000DEF003F1010341F20040C1F6FF7079681A463EF01EF841F20040C1F6FF706FF07F413DF054FA3B6803F124
S32D0000DF18020341F20040C1F6FF7079681A463EF00BF841F20040C1F6FF706FF07F413DF041FA3B6803F103030E
S32D0000DF4041F20040C1F6FF7079681A463DF0F8FF41F20040C1F6FF706FF07F413DF02EFA3B6803F1040341F2D7
S32D0000DF680040C1F6FF7079681A463DF0E5FF41F20040C1F6FF706FF07F413DF01BFA3B6803F1050341F20040C7
S32D0000DF90C1F6FF7079681A463DF0D2FF41F20040C1F6FF706FF07F413DF008FA3B6803F1060341F20040C1F64D
S32D0000DFB8FF7079681A463DF0BFFF41F20040C1F6FF706FF07F413DF0F5F93B6803F1070341F20040C1F6FF7093
S32D0000DFE079681A463DF0ACFF41F20040C1F6FF706FF07F413DF0E2F93B6803F1080341F20040C1F6FF7079681E
S32D0000E0081A463DF099FF41F20040C1F6FF706FF07F413DF0CFF93B6803F1090341F20040C1F6FF7079681A469B
S32D0000E0303DF086FF41F20040C1F6FF706FF07F413DF0BCF93B6803F10A0341F20040C1F6FF7079681A463DF0CB
S32D0000E05873FF41F20040C1F6FF706FF07F413DF0A9F93B6803F10B0341F20040C1F6FF7079681A463DF060FF96
S32D0000E08041F20040C1F6FF706FF07F413DF096F93B6803F10C0341F20040C1F6FF7079681A463DF04DFF41F2D2
S32D0000E0A80040C1F6FF706FF07F413DF083F93B6803F10D0341F20040C1F6FF7079681A463DF03AFF41F20040C2
S32D0000E0D0C1F6FF706FF07F413DF070F93B6803F10E0341F20040C1F6FF7079681A463DF027FF41F20040C1F648
S32D0000E0F8FF7047F67F71C0F27F013DF05BF93B6803F10F0341F20040C1F6FF7079681A463DF012FF41F2004077
S32D0000E120C1F6FF7047F67F71C0F27F013DF046F93B6803F1100341F20040C1F6FF7079681A463DF0FDFE41F201
S32D0000E1480040C1F6FF7047F67F71C0F27F013DF031F93B6803F1110341F20040C1F6FF7079681A463DF0E8FEF5
S32D0000E17041F20040C1F6FF7047F67F71C0F27F013DF01CF93B6803F1120341F20040C1F6FF7079681A463DF094
S32D0000E198D3FE41F20040C1F6FF7047F67F71C0F27F013DF007F93B6803F1130341F20040C1F6FF7079681A46DC
S32D0000E1C03DF0BEFE41F20040C1F6FF7047F67F71C0F27F013DF0F2F83B6803F1140341F20040C1F6FF70796811
S32D0000E1E81A463DF0A9FE41F20040C1F6FF7047F67F71C0F27F013DF0DDF83B6803F1150341F20040C1F6FF7093
S32D0000E21079681A463DF094FE41F20040C1F6FF7047F67F71C0F27F013DF0C8F83B6803F1160341F20040C1F621
S32D0000E238FF7079681A463DF07FFE41F20040C1F6FF7047F67F71C0F27F013DF0B3F83B6803F1170341F200406A
S32D0000E260C1F6FF7079681A463DF06AFE41F20040C1F6FF7047F67F71C0F27F013DF09EF83B6803F1180341F2F4
S32D0000E2880040C1F6FF7079681A463DF055FE41F20040C1F6FF7047F67F71C0F27F013DF089F83B6803F11903E8
S32D0000E2B041F20040C1F6FF7079681A463DF040FE41F20040C1F6FF7047F67F71C0F27F013DF074F83B6803F1D3
S32D0000E2D81A0341F20040C1F6FF7079681A463DF02BFE41F20040C1F6FF706FF07F413DF061F83B6803F11B03D8
S32D0000E30041F20040C1F6FF7079681A463DF018FE41F20040C1F6FF706FF07F413DF04EF83B6803F11C0341F2BE
S32D0000E3280040C1F6FF7079681A463DF005FE41F20040C1F6FF706FF07F413DF03BF83B6803F11D0341F20040AE
S32D0000E350C1F6FF7079681A463DF0F2FD41F20040C1F6FF706FF07F413DF028F83B6803F11E0341F20040C1F635
S32D0000E378FF7079681A463DF0DFFD41F20040C1F6FF706FF07F413DF015F83B6803F11F0341F20040C1F6FF707A
S32D0000E3A079681A463DF0CCFD41F20040C1F6FF706FF07F413DF002F83B6803F1200341F20040C1F6FF70796805
S32D0000E3C81A463DF0B9FD41F20040C1F6FF706FF07F413CF0EFFF3B6803F1210341F20040C1F6FF7079681A467D
S32D0000E3F03DF0A6FD41F20040C1F6FF706FF07F413CF0DCFF3B6803F1220341F20040C1F6FF7079681A463DF0AD
S32D0000E41893FD41F20040C1F6FF706FF07F413CF0C9FF3B6803F1230341F20040C1F6FF7079681A463DF080FD59
S32D0000E44041F20040C1F6FF706FF07F413CF0B6FF3B6803F1240341F20040C1F6FF7079681A463DF06DFD41F2B3
S32D0000E4680040C1F6FF706FF07F413CF0A3FF3B6803F1250341F20040C1F6FF7079681A463DF05AFD41F20040A3
S32D0000E490C1F6FF706FF07F413CF090FF3B6803F1260341F20040C1F6FF7079681A463DF047FD41F20040C1F629
S32D0000E4B8FF706FF07F413CF07DFF3B6803F1270341F20040C1F6FF7079681A463DF034FD41F20040C1F6FF706E
S32D0000E4E06FF07F413CF06AFF3B6803F1280341F20040C1F6FF7079681A463DF021FD41F20040C1F6FF706FF07B
S32D0000E5087F413CF057FF3B6803F1290341F20040C1F6FF7079681A463DF00EFD41F20040C1F6FF706FF07F4116
S32D0000E5303CF044FF3B6803F12A0341F20040C1F6FF7079681A463DF0FBFC41F20040C1F6FF706FF07F413CF0A8
S32D0000E55831FF7B6803F1010341F20040C1F6FF7019463A683DF0E8FC41F20040C1F6FF706FF07F413CF01EFFDE
S32D0000E5807B6803F101023B6803F1010341F20040C1F6FF7011461A463DF0D2FC41F20040C1F6FF706FF07F41F5
S32D0000E5A83CF008FF7B6803F101023B6803F1020341F20040C1F6FF7011461A463DF0BCFC41F20040C1F6FF70CE
S32D0000E5D06FF07F413CF0F2FE7B6803F101023B6803F1030341F20040C1F6FF7011461A463DF0A6FC41F20040D9
S32D0000E5F8C1F6FF706FF07F413CF0DCFE7B6803F101023B6803F1040341F20040C1F6FF7011461A463DF090FC29
S32D0000E62041F20040C1F6FF706FF07F413CF0C6FE7B6803F101023B6803F1050341F20040C1F6FF7011461A465B
S32D0000E6483DF07AFC41F20040C1F6FF706FF07F413CF0B0FE7B6803F101023B6803F1060341F20040C1F6FF705C
S32D0000E67011461A463DF064FC41F20040C1F6FF706FF07F413CF09AFE7B6803F101023B6803F1070341F20040CE
S32D0000E698C1F6FF7011461A463DF04EFC41F20040C1F6FF706FF07F413CF084FE7B6803F101023B6803F108031E
S32D0000E6C041F20040C1F6FF7011461A463DF038FC41F20040C1F6FF706FF07F413CF06EFE7B6803F101023B68AE
S32D0000E6E803F1090341F20040C1F6FF7011461A463DF022FC41F20040C1F6FF706FF07F413CF058FE7B6803F158
S32D0000E71001023B6803F10A0341F20040C1F6FF7011461A463DF00CFC41F20040C1F6FF706FF07F413CF042FE8B
S32D0000E7387B6803F101023B6803F10B0341F20040C1F6FF7011461A463DF0F6FB41F20040C1F6FF706FF07F410E
S32D0000E7603CF02CFE7B6803F101023B6803F10C0341F20040C1F6FF7011461A463DF0E0FB41F20040C1F6FF70C4
S32D0000E7886FF07F413CF016FE7B6803F101023B6803F10D0341F20040C1F6FF7011461A463DF0CAFB41F20040CE
S32D0000E7B0C1F6FF706FF07F413CF000FE7B6803F101023B6803F10E0341F20040C1F6FF7011461A463DF0B4FB1E
S32D0000E7D841F20040C1F6FF7047F67F71C0F2FF013CF0E8FD7B6803F101023B6803F10F0341F20040C1F6FF706E
S32D0000E80011461A463DF09CFB41F20040C1F6FF7047F67F71C0F2FF013CF0D0FD7B6803F101023B6803F110037A
S32D0000E82841F20040C1F6FF7011461A463DF084FB41F20040C1F6FF7047F67F71C0F2FF013CF0B8FD7B6803F196
S32D0000E85001023B6803F1110341F20040C1F6FF7011461A463DF06CFB41F20040C1F6FF7047F67F71C0F2FF0190
S32D0000E8783CF0A0FD7B6803F101023B6803F1120341F20040C1F6FF7011461A463DF054FB41F20040C1F6FF70BE
S32D0000E8A047F67F71C0F2FF013CF088FD7B6803F101023B6803F1130341F20040C1F6FF7011461A463DF03CFB7F
S32D0000E8C841F20040C1F6FF7047F67F71C0F2FF013CF070FD7B6803F101023B6803F1140341F20040C1F6FF70F0
S32D0000E8F011461A463DF024FB41F20040C1F6FF7047F67F71C0F2FF013CF058FD7B6803F101023B6803F1150375
S32D0000E91841F20040C1F6FF7011461A463DF00CFB41F20040C1F6FF7047F67F71C0F2FF013CF040FD7B6803F195
S32D0000E94001023B6803F1160341F20040C1F6FF7011461A463DF0F4FA41F20040C1F6FF7047F67F71C0F2FF0113
S32D0000E9683CF028FD7B6803F101023B6803F1170341F20040C1F6FF7011461A463DF0DCFA41F20040C1F6FF70B9
S32D0000E99047F67F71C0F2FF013CF010FD7B6803F101023B6803F1180341F20040C1F6FF7011461A463DF0C4FA7A
S32D0000E9B841F20040C1F6FF7047F67F71C0F2FF013CF0F8FC7B6803F101023B6803F1190341F20040C1F6FF7073
S32D0000E9E011461A463DF0ACFA41F20040C1F6FF7047F67F71C0F2FF013CF0E0FC7B6803F101023B6803F11A0371
S32D0000EA0841F20040C1F6FF7011461A463DF094FA41F20040C1F6FF706FF07F413CF0CAFC7B6803F101023B68AE
S32D0000EA3003F11B0341F20040C1F6FF7011461A463DF07EFA41F20040C1F6FF706FF07F413CF0B4FC7B6803F146
S32D0000EA5801023B6803F11C0341F20040C1F6FF7011461A463DF068FA41F20040C1F6FF706FF07F413CF09EFC7A
S32D0000EA807B6803F101023B6803F11D0341F20040C1F6FF7011461A463DF052FA41F20040C1F6FF706FF07F4156
S32D0000EAA83CF088FC7B6803F101023B6803F11E0341F20040C1F6FF7011461A463DF03CFA41F20040C1F6FF70B2
S32D0000EAD06FF07F413CF072FC7B6803F101023B6803F11F0341F20040C1F6FF7011461A463DF026FA41F20040BC
S32D0000EAF8C1F6FF706FF07F413CF05CFC7B6803F101023B6803F1200341F20040C1F6FF7011461A463DF010FA0C
S32D0000EB2041F20040C1F6FF706FF07F413CF046FC7B6803F101023B6803F1210341F20040C1F6FF7011461A46BC
S32D0000EB483DF0FAF941F20040C1F6FF706FF07F413CF030FC7B6803F101023B6803F1220341F20040C1F6FF7040
S32D0000EB7011461A463DF0E4F941F20040C1F6FF706FF07F413CF01AFC7B6803F101023B6803F1230341F20040B2
S32D0000EB98C1F6FF7011461A463DF0CEF941F20040C1F6FF706FF07F413CF004FC7B6803F101023B6803F1240302
S32D0000EBC041F20040C1F6FF7011461A463DF0B8F941F20040C1F6FF706FF07F413CF0EEFB7B6803F101023B68AF
S32D0000EBE803F1250341F20040C1F6FF7011461A463DF0A2F941F20040C1F6FF706FF07F413CF0D8FB7B6803F13D
S32D0000EC1001023B6803F1260341F20040C1F6FF7011461A463DF08CF941F20040C1F6FF706FF07F413CF0C2FB70
S32D0000EC387B6803F101023B6803F1270341F20040C1F6FF7011461A463DF076F941F20040C1F6FF706FF07F416F
S32D0000EC603CF0ACFB7B6803F101023B6803F1280341F20040C1F6FF7011461A463DF060F941F20040C1F6FF70A8
S32D0000EC886FF07F413CF096FB7B6803F101023B6803F1290341F20040C1F6FF7011461A463DF04AF941F20040B2
S32D0000ECB0C1F6FF706FF07F413CF080FB7B6803F101023B6803F12A0341F20040C1F6FF7011461A463DF034F902
S32D0000ECD841F20040C1F6FF706FF07F413CF06AFB7B6803F1020341F20040C1F6FF7019463A683DF021F941F2D5
S32D0000ED000040C1F6FF706FF07F413CF057FB7B6803F102023B6803F1010341F20040C1F6FF7011461A463DF0EF
S32D0000ED280BF941F20040C1F6FF706FF07F413CF041FB7B6803F102023B6803F1020341F20040C1F6FF70114632
S32D0000ED501A463DF0F5F841F20040C1F6FF706FF07F413CF02BFB7B6803F102023B6803F1030341F20040C1F66F
S32D0000ED78FF7011461A463DF0DFF841F20040C1F6FF706FF07F413CF015FB7B6803F102023B6803F1040341F2A3
S32D0000EDA00040C1F6FF7011461A463DF0C9F841F20040C1F6FF706FF07F413CF0FFFA7B6803F102023B6803F1EB
S32D0000EDC8050341F20040C1F6FF7011461A463DF0B3F841F20040C1F6FF706FF07F413CF0E9FA7B6803F102024B
S32D0000EDF03B6803F1060341F20040C1F6FF7011461A463DF09DF841F20040C1F6FF706FF07F413CF0D3FA7B68AF
S32D0000EE1803F102023B6803F1070341F20040C1F6FF7011461A463DF087F841F20040C1F6FF706FF07F413CF053
S32D0000EE40BDFA7B6803F102023B6803F1080341F20040C1F6FF7011461A463DF071F841F20040C1F6FF706FF092
S32D0000EE687F413CF0A7FA7B6803F102023B6803F1090341F20040C1F6FF7011461A463DF05BF841F20040C1F677
S32D0000EE90FF706FF07F413CF091FA7B6803F102023B6803F10A0341F20040C1F6FF7011461A463DF045F841F2A3
S32D0000EEB80040C1F6FF706FF07F413CF07BFA7B6803F102023B6803F10B0341F20040C1F6FF7011461A463DF009
S32D0000EEE02FF841F20040C1F6FF706FF07F413CF065FA7B6803F102023B6803F10C0341F20040C1F6FF70114629
S32D0000EF081A463DF019F841F20040C1F6FF706FF07F413CF04FFA7B6803F102023B6803F10D0341F20040C1F664
S32D0000EF30FF7011461A463DF003F841F20040C1F6FF706FF07F413CF039FA7B6803F102023B6803F10E0341F298
S32D0000EF580040C1F6FF7011461A463CF0EDFF41F20040C1F6FF704FF6FF71C0F27F013CF021FA7B6803F10202B4
S32D0000EF803B6803F10F0341F20040C1F6FF7011461A463CF0D5FF41F20040C1F6FF704FF6FF71C0F27F013CF0BE
S32D0000EFA809FA7B6803F102023B6803F1100341F20040C1F6FF7011461A463CF0BDFF41F20040C1F6FF704FF69D
S32D0000EFD0FF71C0F27F013CF0F1F97B6803F102023B6803F1110341F20040C1F6FF7011461A463CF0A5FF41F282
S32D0000EFF80040C1F6FF704FF6FF71C0F27F013CF0D9F97B6803F102023B6803F1120341F20040C1F6FF70114629
S32D0000F0201A463CF08DFF41F20040C1F6FF704FF67F71C0F27F013CF0C1F97B6803F102023B6803F1130341F209
S32D0000F0480040C1F6FF7011461A463CF075FF41F20040C1F6FF704FF67F71C0F27F013CF0A9F97B6803F1020234
S32D0000F0703B6803F1140341F20040C1F6FF7011461A463CF05DFF41F20040C1F6FF704FF67F71C0F27F013CF0C0
S32D0000F09891F97B6803F102023B6803F1150341F20040C1F6FF7011461A463CF045FF41F20040C1F6FF704FF698
S32D0000F0C07F71C0F27F013CF079F97B6803F102023B6803F1160341F20040C1F6FF7011461A463CF02DFF41F2FC
S32D0000F0E80040C1F6FF704FF67F71C0F27F013CF061F97B6803F102023B6803F1170341F20040C1F6FF7011462B
S32D0000F1101A463CF015FF41F20040C1F6FF704FF67F71C0F27F013CF049F97B6803F102023B6803F1180341F203
S32D0000F1380040C1F6FF7011461A463CF0FDFE41F20040C1F6FF704FF67F71C0F27F013CF031F97B6803F1020234
S32D0000F1603B6803F1190341F20040C1F6FF7011461A463CF0E5FE41F20040C1F6FF704FF67F71C0F27F013CF043
S32D0000F18819F97B6803F102023B6803F11A0341F20040C1F6FF7011461A463CF0CDFE41F20040C1F6FF704FF693
S32D0000F1B07F71C0F2FF013CF001F97B6803F102023B6803F11B0341F20040C1F6FF7011461A463CF0B5FE41F277
S32D0000F1D80040C1F6FF704FF67F71C0F2FF013CF0E9F87B6803F102023B6803F11C0341F20040C1F6FF7011462E
S32D0000F2001A463CF09DFE41F20040C1F6FF706FF07F413CF0D3F87B6803F102023B6803F11D0341F20040C1F64E
S32D0000F228FF7011461A463CF087FE41F20040C1F6FF706FF07F413CF0BDF87B6803F102023B6803F11E0341F282
S32D0000F2500040C1F6FF7011461A463CF071FE41F20040C1F6FF706FF07F413CF0A7F87B6803F102023B6803F1E3
S32D0000F2781F0341F20040C1F6FF7011461A463CF05BFE41F20040C1F6FF706FF07F413CF091F87B6803F1020229
S32D0000F2A03B6803F1200341F20040C1F6FF7011461A463CF045FE41F20040C1F6FF706FF07F413CF07BF87B688D
S32D0000F2C803F102023B6803F1210341F20040C1F6FF7011461A463CF02FFE41F20040C1F6FF706FF07F413CF0D8
S32D0000F2F065F87B6803F102023B6803F1220341F20040C1F6FF7011461A463CF019FE41F20040C1F6FF706FF071
S32D0000F3187F413CF04FF87B6803F102023B6803F1230341F20040C1F6FF7011461A463CF003FE41F20040C1F655
S32D0000F340FF706FF07F413CF039F87B6803F102023B6803F1240341F20040C1F6FF7011461A463CF0EDFD41F282
S32D0000F3680040C1F6FF706FF07F413CF023F87B6803F102023B6803F1250341F20040C1F6FF7011461A463CF095
S32D0000F390D7FD41F20040C1F6FF706FF07F413CF00DF87B6803F102023B6803F1260341F20040C1F6FF70114607
S32D0000F3B81A463CF0C1FD41F20040C1F6FF706FF07F413BF0F7FF7B6803F102023B6803F1270341F20040C1F63E
S32D0000F3E0FF7011461A463CF0ABFD41F20040C1F6FF706FF07F413BF0E1FF7B6803F102023B6803F1280341F272
S32D0000F4080040C1F6FF7011461A463CF095FD41F20040C1F6FF706FF07F413BF0CBFF7B6803F102023B6803F1DC
S32D0000F430290341F20040C1F6FF7011461A463CF07FFD41F20040C1F6FF706FF07F413BF0B5FF7B6803F1020218
S32D0000F4583B6803F12A0341F20040C1F6FF7011461A463CF069FD41F20040C1F6FF706FF07F413BF09FFF7B687C
S32D0000F48003F1030341F20040C1F6FF7019463A683CF056FD41F20040C1F6FF706FF07F413BF08CFF7B6803F106
S32D0000F4A803023B6803F1010341F20040C1F6FF7011461A463CF040FD41F20040C1F6FF706FF07F413BF076FF85
S32D0000F4D07B6803F103023B6803F1020341F20040C1F6FF7011461A463CF02AFD41F20040C1F6FF706FF07F413B
S32D0000F4F83BF060FF7B6803F103023B6803F1030341F20040C1F6FF7011461A463CF014FD41F20040C1F6FF70BD
S32D0000F5206FF07F413BF04AFF7B6803F103023B6803F1040341F20040C1F6FF7011461A463CF0FEFC41F20040C7
S32D0000F548C1F6FF706FF07F413BF034FF7B6803F103023B6803F1050341F20040C1F6FF7011461A463CF0E8FC17
S32D0000F57041F20040C1F6FF706FF07F413BF01EFF7B6803F103023B6803F1060341F20040C1F6FF7011461A46A1
S32D0000F5983CF0D2FC41F20040C1F6FF706FF07F413BF008FF7B6803F103023B6803F1070341F20040C1F6FF704B
S32D0000F5C011461A463CF0BCFC41F20040C1F6FF706FF07F413BF0F2FE7B6803F103023B6803F1080341F20040BE
S32D0000F5E8C1F6FF7011461A463CF0A6FC41F20040C1F6FF706FF07F413BF0DCFE7B6803F103023B6803F109030E
S32D0000F61041F20040C1F6FF7011461A463CF090FC41F20040C1F6FF706FF07F413BF0C6FE7B6803F103023B689E
S32D0000F63803F10A0341F20040C1F6FF7011461A463CF07AFC41F20040C1F6FF706FF07F413BF0B0FE7B6803F149
S32D0000F66003023B6803F10B0341F20040C1F6FF7011461A463CF064FC41F20040C1F6FF706FF07F413BF09AFE7B
S32D0000F6887B6803F103023B6803F10C0341F20040C1F6FF7011461A463CF04EFC41F20040C1F6FF706FF07F4154
S32D0000F6B03BF084FE7B6803F103023B6803F10D0341F20040C1F6FF7011461A463CF038FC41F20040C1F6FF70B3
S32D0000F6D86FF07F413BF06EFE7B6803F103023B6803F10E0341F20040C1F6FF7011461A463CF022FC41F20040BD
S32D0000F700C1F6FF706FF07F413BF058FE7B6803F103023B6803F10F0341F20040C1F6FF7011461A463CF00CFC0C
S32D0000F72841F20040C1F6FF706FF07F413BF042FE7B6803F103023B6803F1100341F20040C1F6FF7011461A46BA
S32D0000F7503CF0F6FB41F20040C1F6FF706FF07F413BF02CFE7B6803F103023B6803F1110341F20040C1F6FF7041
S32D0000F77811461A463CF0E0FB41F20040C1F6FF706FF07F413BF016FE7B6803F103023B6803F1120341F20040B3
S32D0000F7A0C1F6FF7011461A463CF0CAFB41F20040C1F6FF7047F6FF71C0F27F013BF0FEFD7B6803F103023B6850
S32D0000F7C803F1130341F20040C1F6FF7011461A463CF0B2FB41F20040C1F6FF7047F6FF71C0F27F013BF0E6FD5A
S32D0000F7F07B6803F103023B6803F1140341F20040C1F6FF7011461A463CF09AFB41F20040C1F6FF7047F6FF710A
S32D0000F818C0F27F013BF0CEFD7B6803F103023B6803F1150341F20040C1F6FF7011461A463CF082FB41F20040A3
S32D0000F840C1F6FF7047F6FF71C0F27F013BF0B6FD7B6803F103023B6803F1160341F20040C1F6FF7011461A46DB
S32D0000F8683CF06AFB41F20040C1F6FF7047F6FF71C0F27F013BF09EFD7B6803F103023B6803F1170341F20040A3
S32D0000F890C1F6FF7011461A463CF052FB41F20040C1F6FF7047F6FF71C0F27F013BF086FD7B6803F103023B684F
S32D0000F8B803F1180341F20040C1F6FF7011461A463CF03AFB41F20040C1F6FF7047F6FF71C0F27F013BF06EFD54
S32D0000F8E07B6803F103023B6803F1190341F20040C1F6FF7011461A463CF022FB41F20040C1F6FF7047F6FF718C
S32D0000F908C0F27F013BF056FD7B6803F103023B6803F11A0341F20040C1F6FF7011461A463CF00AFB41F200409D
S32D0000F930C1F6FF7047F6FF71C0F27F013BF03EFD7B6803F103023B6803F11B0341F20040C1F6FF7011461A465D
S32D0000F9583CF0F2FA41F20040C1F6FF7047F6FF71C0F27F013BF026FD7B6803F103023B6803F11C0341F200409E
S32D0000F980C1F6FF7011461A463CF0DAFA41F20040C1F6FF706FF07F413BF010FD7B6803F103023B6803F11D03F9
S32D0000F9A841F20040C1F6FF7011461A463CF0C4FA41F20040C1F6FF706FF07F413BF0FAFC7B6803F103023B689F
S32D0000F9D003F11E0341F20040C1F6FF7011461A463CF0AEFA41F20040C1F6FF706FF07F413BF0E4FC7B6803F136
S32D0000F9F803023B6803F11F0341F20040C1F6FF7011461A463CF098FA41F20040C1F6FF706FF07F413BF0CEFC68
S32D0000FA207B6803F103023B6803F1200341F20040C1F6FF7011461A463CF082FA41F20040C1F6FF706FF07F4172
S32D0000FA483BF0B8FC7B6803F103023B6803F1210341F20040C1F6FF7011461A463CF06CFA41F20040C1F6FF709F
S32D0000FA706FF07F413BF0A2FC7B6803F103023B6803F1220341F20040C1F6FF7011461A463CF056FA41F20040A9
S32D0000FA98C1F6FF706FF07F413BF08CFC7B6803F103023B6803F1230341F20040C1F6FF7011461A463CF040FAF9
S32D0000FAC041F20040C1F6FF706FF07F413BF076FC7B6803F103023B6803F1240341F20040C1F6FF7011461A46D9
S32D0000FAE83CF02AFA41F20040C1F6FF706FF07F413BF060FC7B6803F103023B6803F1250341F20040C1F6FF702D
S32D0000FB1011461A463CF014FA41F20040C1F6FF706FF07F413BF04AFC7B6803F103023B6803F1260341F200409E
S32D0000FB38C1F6FF7011461A463CF0FEF941F20040C1F6FF706FF07F413BF034FC7B6803F103023B6803F12703EF
S32D0000FB6041F20040C1F6FF7011461A463CF0E8F941F20040C1F6FF706FF07F413BF01EFC7B6803F103023B689E
S32D0000FB8803F1280341F20040C1F6FF7011461A463CF0D2F941F20040C1F6FF706FF07F413BF008FC7B6803F12B
S32D0000FBB003023B6803F1290341F20040C1F6FF7011461A463CF0BCF941F20040C1F6FF706FF07F413BF0F2FB5E
S32D0000FBD87B6803F103023B6803F12A0341F20040C1F6FF7011461A463CF0A6F941F20040C1F6FF706FF07F418C
S32D0000FC003BF0DCFB7B6803F1040341F20040C1F6FF7019463A683CF093F941F20040C1F6FF706FF07F413BF0C1
S32D0000FC28C9FB7B6803F104023B6803F1010341F20040C1F6FF7011461A463CF07DF941F20040C1F6FF706FF088
S32D0000FC507F413BF0B3FB7B6803F104023B6803F1020341F20040C1F6FF7011461A463CF067F941F20040C1F66E
S32D0000FC78FF706FF07F413BF09DFB7B6803F104023B6803F1030341F20040C1F6FF7011461A463CF051F941F29A
S32D0000FCA00040C1F6FF706FF07F413BF087FB7B6803F104023B6803F1040341F20040C1F6FF7011461A463CF00D
S32D0000FCC83BF941F20040C1F6FF706FF07F413BF071FB7B6803F104023B6803F1050341F20040C1F6FF7011461F
S32D0000FCF01A463CF025F941F20040C1F6FF706FF07F413BF05BFB7B6803F104023B6803F1060341F20040C1F65C
S32D0000FD18FF7011461A463CF00FF941F20040C1F6FF706FF07F413BF045FB7B6803F104023B6803F1070341F28F
S32D0000FD400040C1F6FF7011461A463CF0F9F841F20040C1F6FF706FF07F413BF02FFB7B6803F104023B6803F1DA
S32D0000FD68080341F20040C1F6FF7011461A463CF0E3F841F20040C1F6FF706FF07F413BF019FB7B6803F1040237
S32D0000FD903B6803F1090341F20040C1F6FF7011461A463CF0CDF841F20040C1F6FF706FF07F413BF003FB7B689D
S32D0000FDB803F104023B6803F10A0341F20040C1F6FF7011461A463CF0B7F841F20040C1F6FF706FF07F413BF071
S32D0000FDE0EDFA7B6803F104023B6803F10B0341F20040C1F6FF7011461A463CF0A1F841F20040C1F6FF706FF07F
S32D0000FE087F413BF0D7FA7B6803F104023B6803F10C0341F20040C1F6FF7011461A463CF08BF841F20040C1F664
S32D0000FE30FF706FF07F413BF0C1FA7B6803F104023B6803F10D0341F20040C1F6FF7011461A463CF075F841F290
S32D0000FE580040C1F6FF706FF07F413BF0ABFA7B6803F104023B6803F10E0341F20040C1F6FF7011461A463CF026
S32D0000FE805FF841F20040C1F6FF706FF07F413BF095FA7B6803F104023B6803F10F0341F20040C1F6FF70114615
S32D0000FEA81A463CF049F841F20040C1F6FF706FF07F413BF07FFA7B6803F104023B6803F1100341F20040C1F652
S32D0000FED0FF7011461A463CF033F841F20040C1F6FF706FF07F413BF069FA7B6803F104023B6803F1110341F286
S32D0000FEF80040C1F6FF7011461A463CF01DF841F20040C1F6FF706FF07F413BF053FA7B6803F104023B6803F1DA
S32D0000FF20120341F20040C1F6FF7011461A463CF007F841F20040C1F6FF7047F67F71C0F27F013BF03BFA7B68E8
S32D0000FF4803F104023B6803F1130341F20040C1F6FF7011461A463BF0EFFF41F20040C1F6FF7047F67F71C0F203
S32D0000FF707F013BF023FA7B6803F104023B6803F1140341F20040C1F6FF7011461A463BF0D7FF41F20040C1F695
S32D0000FF98FF7047F67F71C0F27F013BF00BFA7B6803F104023B6803F1150341F20040C1F6FF7011461A463BF036
S32D0000FFC0BFFF41F20040C1F6FF7047F67F71C0F27F013BF0F3F97B6803F104023B6803F1160341F20040C1F68F
S32D0000FFE8FF7011461A463BF0A7FF41F20040C1F6FF7047F67F71C0F27F013BF0DBF97B6803F104023B6803F189
S32D00010010170341F20040C1F6FF7011461A463BF08FFF41F20040C1F6FF7047F67F71C0F27F013BF0C3F97B68DC
S32D0001003803F104023B6803F1180341F20040C1F6FF7011461A463BF077FF41F20040C1F6FF7047F67F71C0F284
S32D000100607F013BF0ABF97B6803F104023B6803F1190341F20040C1F6FF7011461A463BF05FFF41F20040C1F68F
S32D00010088FF7047F67F71C0F27F013BF093F97B6803F104023B6803F11A0341F20040C1F6FF7011461A463BF0B8
S32D000100B047FF41F20040C1F6FF7047F67F71C0F27F013BF07BF97B6803F104023B6803F11B0341F20040C1F688
S32D000100D8FF7011461A463BF02FFF41F20040C1F6FF7047F67F71C0F27F013BF063F97B6803F104023B6803F187
S32D000101001C0341F20040C1F6FF7011461A463BF017FF41F20040C1F6FF706FF07F413BF04DF97B6803F104021A
S32D000101283B6803F11D0341F20040C1F6FF7011461A463BF001FF41F20040C1F6FF706FF07F413BF037F97B6880
S32D0001015003F104023B6803F11E0341F20040C1F6FF7011461A463BF0EBFE41F20040C1F6FF706FF07F413BF087
S32D0001017821F97B6803F104023B6803F11F0341F20040C1F6FF7011461A463BF0D5FE41F20040C1F6FF706FF062
S32D000101A07F413BF00BF97B6803F104023B6803F1200341F20040C1F6FF7011461A463BF0BFFE41F20040C1F648
S32D000101C8FF706FF07F413BF0F5F87B6803F104023B6803F1210341F20040C1F6FF7011461A463BF0A9FE41F275
S32D000101F00040C1F6FF706FF07F413BF0DFF87B6803F104023B6803F1220341F20040C1F6FF7011461A463BF045
S32D0001021893FE41F20040C1F6FF706FF07F413BF0C9F87B6803F104023B6803F1230341F20040C1F6FF701146F8
S32D000102401A463BF07DFE41F20040C1F6FF706FF07F413BF0B3F87B6803F104023B6803F1240341F20040C1F636
S32D00010268FF7011461A463BF067FE41F20040C1F6FF706FF07F413BF09DF87B6803F104023B6803F1250341F26A
S32D000102900040C1F6FF7011461A463BF051FE41F20040C1F6FF706FF07F413BF087F87B6803F104023B6803F1D2
S32D000102B8260341F20040C1F6FF7011461A463BF03BFE41F20040C1F6FF706FF07F413BF071F87B6803F1040211
S32D000102E03B6803F1270341F20040C1F6FF7011461A463BF025FE41F20040C1F6FF706FF07F413BF05BF87B6877
S32D0001030803F104023B6803F1280341F20040C1F6FF7011461A463BF00FFE41F20040C1F6FF706FF07F413BF09F
S32D0001033045F87B6803F104023B6803F1290341F20040C1F6FF7011461A463BF0F9FD41F20040C1F6FF706FF058
S32D000103587F413BF02FF87B6803F104023B6803F12A0341F20040C1F6FF7011461A463BF0E3FD41F20040C1F63E
S32D00010380FF706FF07F413BF019F87B6803F1050341F20040C1F6FF7019463A683BF0D0FD41F20040C1F6FF707A
S32D000103A86FF07F413BF006F87B6803F105023B6803F1010341F20040C1F6FF7011461A463BF0BAFD41F20040C0
S32D000103D0C1F6FF706FF07F413AF0F0FF7B6803F105023B6803F1020341F20040C1F6FF7011461A463BF0A4FD0A
S32D000103F841F20040C1F6FF706FF07F413AF0DAFF7B6803F105023B6803F1030341F20040C1F6FF7011461A4650
S32D000104203BF08EFD41F20040C1F6FF706FF07F413AF0C4FF7B6803F105023B6803F1040341F20040C1F6FF703D
S32D0001044811461A463BF078FD41F20040C1F6FF706FF07F413AF0AEFF7B6803F105023B6803F1050341F20040AF
S32D00010470C1F6FF7011461A463BF062FD41F20040C1F6FF706FF07F413AF098FF7B6803F105023B6803F10603FF
S32D0001049841F20040C1F6FF7011461A463BF04CFD41F20040C1F6FF706FF07F413AF082FF7B6803F105023B688D
S32D000104C003F1070341F20040C1F6FF7011461A463BF036FD41F20040C1F6FF706FF07F413AF06CFF7B6803F13D
S32D000104E805023B6803F1080341F20040C1F6FF7011461A463BF020FD41F20040C1F6FF706FF07F413AF056FF6D
S32D000105107B6803F105023B6803F1090341F20040C1F6FF7011461A463BF00AFD41F20040C1F6FF706FF07F4101
S32D000105383AF040FF7B6803F105023B6803F10A0341F20040C1F6FF7011461A463BF0F4FC41F20040C1F6FF70A5
S32D000105606FF07F413AF02AFF7B6803F105023B6803F10B0341F20040C1F6FF7011461A463BF0DEFC41F20040AF
S32D00010588C1F6FF706FF07F413AF014FF7B6803F105023B6803F10C0341F20040C1F6FF7011461A463BF0C8FCFF
S32D000105B041F20040C1F6FF706FF07F413AF0FEFE7B6803F105023B6803F10D0341F20040C1F6FF7011461A4669
S32D000105D83BF0B2FC41F20040C1F6FF706FF07F413AF0E8FE7B6803F105023B6803F10E0341F20040C1F6FF7034
S32D0001060011461A463BF09CFC41F20040C1F6FF706FF07F413AF0D2FE7B6803F105023B6803F10F0341F20040A5
S32D00010628C1F6FF7011461A463BF086FC41F20040C1F6FF706FF07F413AF0BCFE7B6803F105023B6803F11003F5
S32D0001065041F20040C1F6FF7011461A463BF070FC41F20040C1F6FF706FF07F413AF0A6FE7B6803F105023B688D
S32D0001067803F1110341F20040C1F6FF7011461A463BF05AFC41F20040C1F6FF706FF07F413AF090FE7B6803F133
S32D000106A005023B6803F1120341F20040C1F6FF7011461A463BF044FC41F20040C1F6FF706FF07F413AF07AFE63
S32D000106C87B6803F105023B6803F1130341F20040C1F6FF7011461A463BF02EFC41F20040C1F6FF706FF07F411B
S32D000106F03AF064FE7B6803F105023B6803F1140341F20040C1F6FF7011461A463BF018FC41F20040C1F6FF709B
S32D0001071847F67F71C0F2FF013AF04CFE7B6803F105023B6803F1150341F20040C1F6FF7011461A463BF000FC5B
S32D0001074041F20040C1F6FF7047F67F71C0F2FF013AF034FE7B6803F105023B6803F1160341F20040C1F6FF708F
S32D0001076811461A463BF0E8FB41F20040C1F6FF7047F67F71C0F2FF013AF01CFE7B6803F105023B6803F1170352
S32D0001079041F20040C1F6FF7011461A463BF0D0FB41F20040C1F6FF7047F67F71C0F2FF013AF004FE7B6803F179
S32D000107B805023B6803F1180341F20040C1F6FF7011461A463BF0B8FB41F20040C1F6FF7047F67F71C0F2FF01B3
S32D000107E03AF0ECFD7B6803F105023B6803F1190341F20040C1F6FF7011461A463BF0A0FB41F20040C1F6FF7097
S32D0001080847F67F71C0F2FF013AF0D4FD7B6803F105023B6803F11A0341F20040C1F6FF7011461A463BF088FB57
S32D0001083041F20040C1F6FF7047F67F71C0F2FF013AF0BCFD7B6803F105023B6803F11B0341F20040C1F6FF7012
S32D0001085811461A463BF070FB41F20040C1F6FF7047F67F71C0F2FF013AF0A4FD7B6803F105023B6803F11C034D
S32D0001088041F20040C1F6FF7011461A463BF058FB41F20040C1F6FF7047F67F71C0F2FF013AF08CFD7B6803F179
S32D000108A805023B6803F11D0341F20040C1F6FF7011461A463BF040FB41F20040C1F6FF7047F67F71C0F2FF0135
S32D000108D03AF074FD7B6803F105023B6803F11E0341F20040C1F6FF7011461A463BF028FB41F20040C1F6FF7091
S32D000108F86FF07F413AF05EFD7B6803F105023B6803F11F0341F20040C1F6FF7011461A463BF012FB41F200409B
S32D00010920C1F6FF706FF07F413AF048FD7B6803F105023B6803F1200341F20040C1F6FF7011461A463BF0FCFAEB
S32D0001094841F20040C1F6FF706FF07F413AF032FD7B6803F105023B6803F1210341F20040C1F6FF7011461A4686
S32D000109703BF0E6FA41F20040C1F6FF706FF07F413AF01CFD7B6803F105023B6803F1220341F20040C1F6FF701F
S32D0001099811461A463BF0D0FA41F20040C1F6FF706FF07F413AF006FD7B6803F105023B6803F1230341F2004091
S32D000109C0C1F6FF7011461A463BF0BAFA41F20040C1F6FF706FF07F413AF0F0FC7B6803F105023B6803F12403E2
S32D000109E841F20040C1F6FF7011461A463BF0A4FA41F20040C1F6FF706FF07F413AF0DAFC7B6803F105023B688E
S32D00010A1003F1250341F20040C1F6FF7011461A463BF08EFA41F20040C1F6FF706FF07F413AF0C4FC7B6803F11F
S32D00010A3805023B6803F1260341F20040C1F6FF7011461A463BF078FA41F20040C1F6FF706FF07F413AF0AEFC4F
S32D00010A607B6803F105023B6803F1270341F20040C1F6FF7011461A463BF062FA41F20040C1F6FF706FF07F4139
S32D00010A883AF098FC7B6803F105023B6803F1280341F20040C1F6FF7011461A463BF04CFA41F20040C1F6FF7087
S32D00010AB06FF07F413AF082FC7B6803F105023B6803F1290341F20040C1F6FF7011461A463BF036FA41F2004091
S32D00010AD8C1F6FF706FF07F413AF06CFC7B6803F105023B6803F12A0341F20040C1F6FF7011461A463BF020FAE1
S32D00010B0041F20040C1F6FF706FF07F413AF056FC7B6803F1060341F20040C1F6FF7019463A683BF00DFA41F2B3
S32D00010B280040C1F6FF706FF07F413AF043FC7B6803F106023B6803F1010341F20040C1F6FF7011461A463BF0BB
S32D00010B50F7F941F20040C1F6FF706FF07F413AF02DFC7B6803F106023B6803F1020341F20040C1F6FF70114610
S32D00010B781A463BF0E1F941F20040C1F6FF706FF07F413AF017FC7B6803F106023B6803F1030341F20040C1F64E
S32D00010BA0FF7011461A463BF0CBF941F20040C1F6FF706FF07F413AF001FC7B6803F106023B6803F1040341F282
S32D00010BC80040C1F6FF7011461A463BF0B5F941F20040C1F6FF706FF07F413AF0EBFB7B6803F106023B6803F1CA
S32D00010BF0050341F20040C1F6FF7011461A463BF09FF941F20040C1F6FF706FF07F413AF0D5FB7B6803F106022A
S32D00010C183B6803F1060341F20040C1F6FF7011461A463BF089F941F20040C1F6FF706FF07F413AF0BFFB7B6891
S32D00010C4003F106023B6803F1070341F20040C1F6FF7011461A463BF073F941F20040C1F6FF706FF07F413AF01F
S32D00010C68A9FB7B6803F106023B6803F1080341F20040C1F6FF7011461A463BF05DF941F20040C1F6FF706FF06F
S32D00010C907F413AF093FB7B6803F106023B6803F1090341F20040C1F6FF7011461A463BF047F941F20040C1F656
S32D00010CB8FF706FF07F413AF07DFB7B6803F106023B6803F10A0341F20040C1F6FF7011461A463BF031F941F282
S32D00010CE00040C1F6FF706FF07F413AF067FB7B6803F106023B6803F10B0341F20040C1F6FF7011461A463BF0D5
S32D00010D081BF941F20040C1F6FF706FF07F413AF051FB7B6803F106023B6803F10C0341F20040C1F6FF70114605
S32D00010D301A463BF005F941F20040C1F6FF706FF07F413AF03BFB7B6803F106023B6803F10D0341F20040C1F643
S32D00010D58FF7011461A463BF0EFF841F20040C1F6FF706FF07F413AF025FB7B6803F106023B6803F10E0341F278
S32D00010D800040C1F6FF7011461A463BF0D9F841F20040C1F6FF706FF07F413AF00FFB7B6803F106023B6803F1C9
S32D00010DA80F0341F20040C1F6FF7011461A463BF0C3F841F20040C1F6FF706FF07F413AF0F9FA7B6803F1060220
S32D00010DD03B6803F1100341F20040C1F6FF7011461A463BF0ADF841F20040C1F6FF706FF07F413AF0E3FA7B6888
S32D00010DF803F106023B6803F1110341F20040C1F6FF7011461A463BF097F841F20040C1F6FF706FF07F413AF039
S32D00010E20CDFA7B6803F106023B6803F1120341F20040C1F6FF7011461A463BF081F841F20040C1F6FF706FF065
S32D00010E487F413AF0B7FA7B6803F106023B6803F1130341F20040C1F6FF7011461A463BF06BF841F20040C1F64C
S32D00010E70FF706FF07F413AF0A1FA7B6803F106023B6803F1140341F20040C1F6FF7011461A463BF055F841F278
S32D00010E980040C1F6FF704FF67F71C0F27F013AF089FA7B6803F106023B6803F1150341F20040C1F6FF70114633
S32D00010EC01A463BF03DF841F20040C1F6FF704FF67F71C0F27F013AF071FA7B6803F106023B6803F1160341F2EC
S32D00010EE80040C1F6FF7011461A463BF025F841F20040C1F6FF704FF67F71C0F27F013AF059FA7B6803F106021A
S32D00010F103B6803F1170341F20040C1F6FF7011461A463BF00DF841F20040C1F6FF704FF67F71C0F27F013AF057
S32D00010F3841FA7B6803F106023B6803F1180341F20040C1F6FF7011461A463AF0F5FF41F20040C1F6FF704FF672
S32D00010F607F71C0F27F013AF029FA7B6803F106023B6803F1190341F20040C1F6FF7011461A463AF0DDFF41F2D8
S32D00010F880040C1F6FF704FF67F71C0F27F013AF011FA7B6803F106023B6803F11A0341F20040C1F6FF701146B5
S32D00010FB01A463AF0C5FF41F20040C1F6FF704FF67F71C0F27F013AF0F9F97B6803F106023B6803F11B0341F2E1
S32D00010FD80040C1F6FF7011461A463AF0ADFF41F20040C1F6FF704FF67F71C0F27F013AF0E1F97B6803F1060214
S32D000110003B6803F11C0341F20040C1F6FF7011461A463AF095FF41F20040C1F6FF704FF67F71C0F27F013AF0D3
S32D00011028C9F97B6803F106023B6803F11D0341F20040C1F6FF7011461A463AF07DFF41F20040C1F6FF704FF66D
S32D000110507F71C0F27F013AF0B1F97B6803F106023B6803F11E0341F20040C1F6FF7011461A463AF065FF41F2D3
S32D000110780040C1F6FF706FF07F413AF09BF97B6803F106023B6803F11F0341F20040C1F6FF7011461A463AF0F4
S32D000110A04FFF41F20040C1F6FF706FF07F413AF085F97B6803F106023B6803F1200341F20040C1F6FF701146EA
S32D000110C81A463AF039FF41F20040C1F6FF706FF07F413AF06FF97B6803F106023B6803F1210341F20040C1F629
S32D000110F0FF7011461A463AF023FF41F20040C1F6FF706FF07F413AF059F97B6803F106023B6803F1220341F25D
S32D000111180040C1F6FF7011461A463AF00DFF41F20040C1F6FF706FF07F413AF043F97B6803F106023B6803F1C1
S32D00011140230341F20040C1F6FF7011461A463AF0F7FE41F20040C1F6FF706FF07F413AF02DF97B6803F1060204
S32D000111683B6803F1240341F20040C1F6FF7011461A463AF0E1FE41F20040C1F6FF706FF07F413AF017F97B686C
S32D0001119003F106023B6803F1250341F20040C1F6FF7011461A463AF0CBFE41F20040C1F6FF706FF07F413AF050
S32D000111B801F97B6803F106023B6803F1260341F20040C1F6FF7011461A463AF0B5FE41F20040C1F6FF706FF04A
S32D000111E07F413AF0EBF87B6803F106023B6803F1270341F20040C1F6FF7011461A463AF09FFE41F20040C1F632
S32D00011208FF706FF07F413AF0D5F87B6803F106023B6803F1280341F20040C1F6FF7011461A463AF089FE41F25D
S32D000112300040C1F6FF706FF07F413AF0BFF87B6803F106023B6803F1290341F20040C1F6FF7011461A463AF00D
S32D0001125873FE41F20040C1F6FF706FF07F413AF0A9F87B6803F106023B6803F12A0341F20040C1F6FF701146E0
S32D000112801A463AF05DFE41F20040C1F6FF706FF07F413AF093F87B6803F1070341F20040C1F6FF7019463A6872
S32D000112A83AF04AFE41F20040C1F6FF706FF07F413AF080F87B6803F107023B6803F1010341F20040C1F6FF7037
S32D000112D011461A463AF034FE41F20040C1F6FF706FF07F413AF06AF87B6803F107023B6803F1020341F20040A9
S32D000112F8C1F6FF7011461A463AF01EFE41F20040C1F6FF706FF07F413AF054F87B6803F107023B6803F10303F9
S32D0001132041F20040C1F6FF7011461A463AF008FE41F20040C1F6FF706FF07F413AF03EF87B6803F107023B6883
S32D0001134803F1040341F20040C1F6FF7011461A463AF0F2FD41F20040C1F6FF706FF07F413AF028F87B6803F139
S32D0001137007023B6803F1050341F20040C1F6FF7011461A463AF0DCFD41F20040C1F6FF706FF07F413AF012F867
S32D000113987B6803F107023B6803F1060341F20040C1F6FF7011461A463AF0C6FD41F20040C1F6FF706FF07F41B1
S32D000113C039F0FCFF7B6803F107023B6803F1070341F20040C1F6FF7011461A463AF0B0FD41F20040C1F6FF7099
S32D000113E86FF07F4139F0E6FF7B6803F107023B6803F1080341F20040C1F6FF7011461A463AF09AFD41F20040A3
S32D00011410C1F6FF706FF07F4139F0D0FF7B6803F107023B6803F1090341F20040C1F6FF7011461A463AF084FDF2
S32D0001143841F20040C1F6FF706FF07F4139F0BAFF7B6803F107023B6803F10A0341F20040C1F6FF7011461A4617
S32D000114603AF06EFD41F20040C1F6FF706FF07F4139F0A4FF7B6803F107023B6803F10B0341F20040C1F6FF7026
S32D0001148811461A463AF058FD41F20040C1F6FF706FF07F4139F08EFF7B6803F107023B6803F10C0341F2004098
S32D000114B0C1F6FF7011461A463AF042FD41F20040C1F6FF706FF07F4139F078FF7B6803F107023B6803F10D03E8
S32D000114D841F20040C1F6FF7011461A463AF02CFD41F20040C1F6FF706FF07F4139F062FF7B6803F107023B687D
S32D0001150003F10E0341F20040C1F6FF7011461A463AF016FD41F20040C1F6FF706FF07F4139F04CFF7B6803F127
S32D0001152807023B6803F10F0341F20040C1F6FF7011461A463AF000FD41F20040C1F6FF706FF07F4139F036FF55
S32D000115507B6803F107023B6803F1100341F20040C1F6FF7011461A463AF0EAFC41F20040C1F6FF706FF07F41CA
S32D0001157839F020FF7B6803F107023B6803F1110341F20040C1F6FF7011461A463AF0D4FC41F20040C1F6FF708E
S32D000115A06FF07F4139F00AFF7B6803F107023B6803F1120341F20040C1F6FF7011461A463AF0BEFC41F2004098
S32D000115C8C1F6FF706FF07F4139F0F4FE7B6803F107023B6803F1130341F20040C1F6FF7011461A463AF0A8FCE9
S32D000115F041F20040C1F6FF706FF07F4139F0DEFE7B6803F107023B6803F1140341F20040C1F6FF7011461A4631
S32D000116183AF092FC41F20040C1F6FF7047F6FF71C0F27F0139F0C6FE7B6803F107023B6803F1150341F2004084
S32D00011640C1F6FF7011461A463AF07AFC41F20040C1F6FF7047F6FF71C0F27F0139F0AEFE7B6803F107023B682E
S32D0001166803F1160341F20040C1F6FF7011461A463AF062FC41F20040C1F6FF7047F6FF71C0F27F0139F096FE39
S32D000116907B6803F107023B6803F1170341F20040C1F6FF7011461A463AF04AFC41F20040C1F6FF7047F6FF7194
S32D000116B8C0F27F0139F07EFE7B6803F107023B6803F1180341F20040C1F6FF7011461A463AF032FC41F200407F
S32D000116E0C1F6FF7047F6FF71C0F27F0139F066FE7B6803F107023B6803F1190341F20040C1F6FF7011461A4666
S32D000117083AF01AFC41F20040C1F6FF7047F6FF71C0F27F0139F04EFE7B6803F107023B6803F11A0341F200407E
S32D00011730C1F6FF7011461A463AF002FC41F20040C1F6FF7047F6FF71C0F27F0139F036FE7B6803F107023B682D
S32D0001175803F11B0341F20040C1F6FF7011461A463AF0EAFB41F20040C1F6FF7047F6FF71C0F27F0139F01EFE34
S32D000117807B6803F107023B6803F11C0341F20040C1F6FF7011461A463AF0D2FB41F20040C1F6FF7047F6FF7117
S32D000117A8C0F27F0139F006FE7B6803F107023B6803F11D0341F20040C1F6FF7011461A463AF0BAFB41F200407A
S32D000117D0C1F6FF7047F6FF71C0F27F0139F0EEFD7B6803F107023B6803F11E0341F20040C1F6FF7011461A46E9
S32D000117F83AF0A2FB41F20040C1F6FF706FF07F4139F0D8FD7B6803F107023B6803F11F0341F20040C1F6FF7013
S32D0001182011461A463AF08CFB41F20040C1F6FF706FF07F4139F0C2FD7B6803F107023B6803F1200341F2004084
S32D00011848C1F6FF7011461A463AF076FB41F20040C1F6FF706FF07F4139F0ACFD7B6803F107023B6803F12103D4
S32D0001187041F20040C1F6FF7011461A463AF060FB41F20040C1F6FF706FF07F4139F096FD7B6803F107023B687D
S32D0001189803F1220341F20040C1F6FF7011461A463AF04AFB41F20040C1F6FF706FF07F4139F080FD7B6803F114
S32D000118C007023B6803F1230341F20040C1F6FF7011461A463AF034FB41F20040C1F6FF706FF07F4139F06AFD42
S32D000118E87B6803F107023B6803F1240341F20040C1F6FF7011461A463AF01EFB41F20040C1F6FF706FF07F41E8
S32D0001191039F054FD7B6803F107023B6803F1250341F20040C1F6FF7011461A463AF008FB41F20040C1F6FF7079
S32D000119386FF07F4139F03EFD7B6803F107023B6803F1260341F20040C1F6FF7011461A463AF0F2FA41F2004084
S32D00011960C1F6FF706FF07F4139F028FD7B6803F107023B6803F1270341F20040C1F6FF7011461A463AF0DCFAD4
S32D0001198841F20040C1F6FF706FF07F4139F012FD7B6803F107023B6803F1280341F20040C1F6FF7011461A464E
S32D000119B03AF0C6FA41F20040C1F6FF706FF07F4139F0FCFC7B6803F107023B6803F1290341F20040C1F6FF7009
S32D000119D811461A463AF0B0FA41F20040C1F6FF706FF07F4139F0E6FC7B6803F107023B6803F12A0341F200407B
S32D00011A00C1F6FF7011461A463AF09AFA41F20040C1F6FF706FF07F4139F0D0FC7B6803F1080341F20040C1F663
S32D00011A28FF7019463A683AF087FA41F20040C1F6FF706FF07F4139F0BDFC7B6803F108023B6803F1010341F22B
S32D00011A500040C1F6FF7011461A463AF071FA41F20040C1F6FF706FF07F4139F0A7FC7B6803F108023B6803F1B9
S32D00011A78020341F20040C1F6FF7011461A463AF05BFA41F20040C1F6FF706FF07F4139F091FC7B6803F108021C
S32D00011AA03B6803F1030341F20040C1F6FF7011461A463AF045FA41F20040C1F6FF706FF07F4139F07BFC7B6886
S32D00011AC803F108023B6803F1040341F20040C1F6FF7011461A463AF02FFA41F20040C1F6FF706FF07F4139F0CF
S32D00011AF065FC7B6803F108023B6803F1050341F20040C1F6FF7011461A463AF019FA41F20040C1F6FF706FF061
S32D00011B187F4139F04FFC7B6803F108023B6803F1060341F20040C1F6FF7011461A463AF003FA41F20040C1F648
S32D00011B40FF706FF07F4139F039FC7B6803F108023B6803F1070341F20040C1F6FF7011461A463AF0EDF941F275
S32D00011B680040C1F6FF706FF07F4139F023FC7B6803F108023B6803F1080341F20040C1F6FF7011461A463AF084
S32D00011B90D7F941F20040C1F6FF706FF07F4139F00DFC7B6803F108023B6803F1090341F20040C1F6FF701146F8
S32D00011BB81A463AF0C1F941F20040C1F6FF706FF07F4139F0F7FB7B6803F108023B6803F10A0341F20040C1F638
S32D00011BE0FF7011461A463AF0ABF941F20040C1F6FF706FF07F4139F0E1FB7B6803F108023B6803F10B0341F26C
S32D00011C080040C1F6FF7011461A463AF095F941F20040C1F6FF706FF07F4139F0CBFB7B6803F108023B6803F1B9
S32D00011C300C0341F20040C1F6FF7011461A463AF07FF941F20040C1F6FF706FF07F4139F0B5FB7B6803F1080212
S32D00011C583B6803F10D0341F20040C1F6FF7011461A463AF069F941F20040C1F6FF706FF07F4139F09FFB7B687C
S32D00011C8003F108023B6803F10E0341F20040C1F6FF7011461A463AF053F941F20040C1F6FF706FF07F4139F0E8
S32D00011CA889FB7B6803F108023B6803F10F0341F20040C1F6FF7011461A463AF03DF941F20040C1F6FF706FF057
S32D00011CD07F4139F073FB7B6803F108023B6803F1100341F20040C1F6FF7011461A463AF027F941F20040C1F63F
S32D00011CF8FF706FF07F4139F05DFB7B6803F108023B6803F1110341F20040C1F6FF7011461A463AF011F941F26B
S32D00011D200040C1F6FF706FF07F4139F047FB7B6803F108023B6803F1120341F20040C1F6FF7011461A463AF09D
S32D00011D48FBF841F20040C1F6FF706FF07F4139F031FB7B6803F108023B6803F1130341F20040C1F6FF701146EE
S32D00011D701A463AF0E5F841F20040C1F6FF706FF07F4139F01BFB7B6803F108023B6803F1140341F20040C1F62D
S32D00011D98FF7011461A463AF0CFF841F20040C1F6FF706FF07F4139F005FB7B6803F108023B6803F1150341F261
S32D00011DC00040C1F6FF7011461A463AF0B9F841F20040C1F6FF706FF07F4139F0EFFA7B6803F108023B6803F1BA
S32D00011DE8160341F20040C1F6FF7011461A463AF0A3F841F20040C1F6FF7047F67F71C0F27F0139F0D7FA7B68C9
S32D00011E1003F108023B6803F1170341F20040C1F6FF7011461A463AF08BF841F20040C1F6FF7047F67F71C0F27F
S32D00011E387F0139F0BFFA7B6803F108023B6803F1180341F20040C1F6FF7011461A463AF073F841F20040C1F677
S32D00011E60FF7047F67F71C0F27F0139F0A7FA7B6803F108023B6803F1190341F20040C1F6FF7011461A463AF0AD
S32D00011E885BF841F20040C1F6FF7047F67F71C0F27F0139F08FFA7B6803F108023B6803F11A0341F20040C1F66F
S32D00011EB0FF7011461A463AF043F841F20040C1F6FF7047F67F71C0F27F0139F077FA7B6803F108023B6803F16E
S32D00011ED81B0341F20040C1F6FF7011461A463AF02BF841F20040C1F6FF7047F67F71C0F27F0139F05FFA7B68C3
S32D00011F0003F108023B6803F11C0341F20040C1F6FF7011461A463AF013F841F20040C1F6FF7047F67F71C0F201
S32D00011F287F0139F047FA7B6803F108023B6803F11D0341F20040C1F6FF7011461A4639F0FBFF41F20040C1F66B
S32D00011F50FF7047F67F71C0F27F0139F02FFA7B6803F108023B6803F11E0341F20040C1F6FF7011461A4639F030
S32D00011F78E3FF41F20040C1F6FF7047F67F71C0F27F0139F017FA7B6803F108023B6803F11F0341F20040C1F662
S32D00011FA0FF7011461A4639F0CBFF41F20040C1F6FF7047F67F71C0F27F0139F0FFF97B6803F108023B6803F168
S32D00011FC8200341F20040C1F6FF7011461A4639F0B3FF41F20040C1F6FF706FF07F4139F0E9F97B6803F10802F8
S32D00011FF03B6803F1210341F20040C1F6FF7011461A4639F09DFF41F20040C1F6FF706FF07F4139F0D3F97B6862
S32D0001201803F108023B6803F1220341F20040C1F6FF7011461A4639F087FF41F20040C1F6FF706FF07F4139F0FF
S32D00012040BDF97B6803F108023B6803F1230341F20040C1F6FF7011461A4639F071FF41F20040C1F6FF706FF03C
S32D000120687F4139F0A7F97B6803F108023B6803F1240341F20040C1F6FF7011461A4639F05BFF41F20040C1F624
S32D00012090FF706FF07F4139F091F97B6803F108023B6803F1250341F20040C1F6FF7011461A4639F045FF41F250
S32D000120B80040C1F6FF706FF07F4139F07BF97B6803F108023B6803F1260341F20040C1F6FF7011461A4639F0BD
S32D000120E02FFF41F20040C1F6FF706FF07F4139F065F97B6803F108023B6803F1270341F20040C1F6FF701146D2
S32D000121081A4639F019FF41F20040C1F6FF706FF07F4139F04FF97B6803F108023B6803F1280341F20040C1F611
S32D00012130FF7011461A4639F003FF41F20040C1F6FF706FF07F4139F039F97B6803F108023B6803F1290341F245
S32D000121580040C1F6FF7011461A4639F0EDFE41F20040C1F6FF706FF07F4139F023F97B6803F108023B6803F1B2
S32D000121802A0341F20040C1F6FF7011461A4639F0D7FE41F20040C1F6FF706FF07F4139F00DF97B6803F10903EB
S32D000121A841F20040C1F6FF7019463A6839F0C4FE41F20040C1F6FF706FF07F4139F0FAF87B6803F109023B682B
S32D000121D003F1010341F20040C1F6FF7011461A4639F0AEFE41F20040C1F6FF706FF07F4139F0E4F87B6803F12F
S32D000121F809023B6803F1020341F20040C1F6FF7011461A4639F098FE41F20040C1F6FF706FF07F4139F0CEF85B
S32D000122207B6803F109023B6803F1030341F20040C1F6FF7011461A4639F082FE41F20040C1F6FF706FF07F415F
S32D0001224839F0B8F87B6803F109023B6803F1040341F20040C1F6FF7011461A4639F06CFE41F20040C1F6FF7092
S32D000122706FF07F4139F0A2F87B6803F109023B6803F1050341F20040C1F6FF7011461A4639F056FE41F200409C
S32D00012298C1F6FF706FF07F4139F08CF87B6803F109023B6803F1060341F20040C1F6FF7011461A4639F040FEEC
S32D000122C041F20040C1F6FF706FF07F4139F076F87B6803F109023B6803F1070341F20040C1F6FF7011461A46CD
S32D000122E839F02AFE41F20040C1F6FF706FF07F4139F060F87B6803F109023B6803F1080341F20040C1F6FF7020
S32D0001231011461A4639F014FE41F20040C1F6FF706FF07F4139F04AF87B6803F109023B6803F1090341F2004091
S32D00012338C1F6FF7011461A4639F0FEFD41F20040C1F6FF706FF07F4139F034F87B6803F109023B6803F10A03E2
S32D0001236041F20040C1F6FF7011461A4639F0E8FD41F20040C1F6FF706FF07F4139F01EF87B6803F109023B6874
S32D0001238803F10B0341F20040C1F6FF7011461A4639F0D2FD41F20040C1F6FF706FF07F4139F008F87B6803F124
S32D000123B009023B6803F10C0341F20040C1F6FF7011461A4639F0BCFD41F20040C1F6FF706FF07F4138F0F2FF4A
S32D000123D87B6803F109023B6803F10D0341F20040C1F6FF7011461A4639F0A6FD41F20040C1F6FF706FF07F4179
S32D0001240038F0DCFF7B6803F109023B6803F10E0341F20040C1F6FF7011461A4639F090FD41F20040C1F6FF7081
S32D000124286FF07F4138F0C6FF7B6803F109023B6803F10F0341F20040C1F6FF7011461A4639F07AFD41F200408B
S32D00012450C1F6FF706FF07F4138F0B0FF7B6803F109023B6803F1100341F20040C1F6FF7011461A4639F064FDDB
S32D0001247841F20040C1F6FF706FF07F4138F09AFF7B6803F109023B6803F1110341F20040C1F6FF7011461A46DF
S32D000124A039F04EFD41F20040C1F6FF706FF07F4138F084FF7B6803F109023B6803F1120341F20040C1F6FF700F
S32D000124C811461A4639F038FD41F20040C1F6FF706FF07F4138F06EFF7B6803F109023B6803F1130341F2004081
S32D000124F0C1F6FF7011461A4639F022FD41F20040C1F6FF706FF07F4138F058FF7B6803F109023B6803F11403D1
S32D0001251841F20040C1F6FF7011461A4639F00CFD41F20040C1F6FF706FF07F4138F042FF7B6803F109023B686C
S32D0001254003F1150341F20040C1F6FF7011461A4639F0F6FC41F20040C1F6FF706FF07F4138F02CFF7B6803F113
S32D0001256809023B6803F1160341F20040C1F6FF7011461A4639F0E0FC41F20040C1F6FF7047F67F71C0F2FF01BC
S32D0001259038F014FF7B6803F109023B6803F1170341F20040C1F6FF7011461A4639F0C8FC41F20040C1F6FF7078
S32D000125B847F67F71C0F2FF0138F0FCFE7B6803F109023B6803F1180341F20040C1F6FF7011461A4639F0B0FC3A
S32D000125E041F20040C1F6FF7047F67F71C0F2FF0138F0E4FE7B6803F109023B6803F1190341F20040C1F6FF701C
S32D0001260811461A4639F098FC41F20040C1F6FF7047F67F71C0F2FF0138F0CCFE7B6803F109023B6803F11A032F
S32D0001263041F20040C1F6FF7011461A4639F080FC41F20040C1F6FF7047F67F71C0F2FF0138F0B4FE7B6803F15D
S32D0001265809023B6803F11B0341F20040C1F6FF7011461A4639F068FC41F20040C1F6FF7047F67F71C0F2FF013E
S32D0001268038F09CFE7B6803F109023B6803F11C0341F20040C1F6FF7011461A4639F050FC41F20040C1F6FF7073
S32D000126A847F67F71C0F2FF0138F084FE7B6803F109023B6803F11D0341F20040C1F6FF7011461A4639F038FC34
S32D000126D041F20040C1F6FF7047F67F71C0F2FF0138F06CFE7B6803F109023B6803F11E0341F20040C1F6FF709E
S32D000126F811461A4639F020FC41F20040C1F6FF7047F67F71C0F2FF0138F054FE7B6803F109023B6803F11F032A
S32D0001272041F20040C1F6FF7011461A4639F008FC41F20040C1F6FF7047F67F71C0F2FF0138F03CFE7B6803F15C
S32D0001274809023B6803F1200341F20040C1F6FF7011461A4639F0F0FB41F20040C1F6FF706FF07F4138F026FE35
S32D000127707B6803F109023B6803F1210341F20040C1F6FF7011461A4639F0DAFB41F20040C1F6FF706FF07F4197
S32D0001279838F010FE7B6803F109023B6803F1220341F20040C1F6FF7011461A4639F0C4FB41F20040C1F6FF706D
S32D000127C06FF07F4138F0FAFD7B6803F109023B6803F1230341F20040C1F6FF7011461A4639F0AEFB41F2004078
S32D000127E8C1F6FF706FF07F4138F0E4FD7B6803F109023B6803F1240341F20040C1F6FF7011461A4639F098FBC8
S32D0001281041F20040C1F6FF706FF07F4138F0CEFD7B6803F109023B6803F1250341F20040C1F6FF7011461A46FD
S32D0001283839F082FB41F20040C1F6FF706FF07F4138F0B8FD7B6803F109023B6803F1260341F20040C1F6FF70FB
S32D0001286011461A4639F06CFB41F20040C1F6FF706FF07F4138F0A2FD7B6803F109023B6803F1270341F200406D
S32D00012888C1F6FF7011461A4639F056FB41F20040C1F6FF706FF07F4138F08CFD7B6803F109023B6803F12803BD
S32D000128B041F20040C1F6FF7011461A4639F040FB41F20040C1F6FF706FF07F4138F076FD7B6803F109023B686D
S32D000128D803F1290341F20040C1F6FF7011461A4639F02AFB41F20040C1F6FF706FF07F4138F060FD7B6803F1FF
S32D0001290009023B6803F12A0341F20040C1F6FF7011461A4639F014FB41F20040C1F6FF706FF07F4138F04AFD2A
S32D000129287B6803F10A0341F20040C1F6FF7019463A6839F001FB41F20040C1F6FF706FF07F4138F037FD7B68E6
S32D0001295003F10A023B6803F1010341F20040C1F6FF7011461A4639F0EBFA41F20040C1F6FF706FF07F4138F07F
S32D0001297821FD7B6803F10A023B6803F1020341F20040C1F6FF7011461A4639F0D5FA41F20040C1F6FF706FF053
S32D000129A07F4138F00BFD7B6803F10A023B6803F1030341F20040C1F6FF7011461A4639F0BFFA41F20040C1F63C
S32D000129C8FF706FF07F4138F0F5FC7B6803F10A023B6803F1040341F20040C1F6FF7011461A4639F0A9FA41F269
S32D000129F00040C1F6FF706FF07F4138F0DFFC7B6803F10A023B6803F1050341F20040C1F6FF7011461A4639F035
S32D00012A1893FA41F20040C1F6FF706FF07F4138F0C9FC7B6803F10A023B6803F1060341F20040C1F6FF701146EA
S32D00012A401A4639F07DFA41F20040C1F6FF706FF07F4138F0B3FC7B6803F10A023B6803F1070341F20040C1F62A
S32D00012A68FF7011461A4639F067FA41F20040C1F6FF706FF07F4138F09DFC7B6803F10A023B6803F1080341F25E
S32D00012A900040C1F6FF7011461A4639F051FA41F20040C1F6FF706FF07F4138F087FC7B6803F10A023B6803F1A9
S32D00012AB8090341F20040C1F6FF7011461A4639F03BFA41F20040C1F6FF706FF07F4138F071FC7B6803F10A0205
S32D00012AE03B6803F10A0341F20040C1F6FF7011461A4639F025FA41F20040C1F6FF706FF07F4138F05BFC7B6871
S32D00012B0803F10A023B6803F10B0341F20040C1F6FF7011461A4639F00FFA41F20040C1F6FF706FF07F4138F097
S32D00012B3045FC7B6803F10A023B6803F10C0341F20040C1F6FF7011461A4639F0F9F941F20040C1F6FF706FF049
