S01200002E2E2F44696E6F47616D652E73313953
S32D0000C00000000020F9090100550D0100550D0100550D0100550D0100550D010000000000000000000000000000
S32D0000C02800000000550D0100550D010000000000550D0100550D0100550D0100550D0100550D0100550D0100D2
S32D0000C050550D0100550D0100550D0100550D0100550D0100550D0100550D0100550D0100550D0100550D0100E4
S32D0000C078550D0100550D0100550D0100550D0100550D0100550D0100550D0100550D0100550D0100550D0100BC
S32D0000C0A0550D0100550D0100550D0100550D0100550D0100550D0100550D0100550D0100550D0100550D010094
S32D0000C0C8550D0100550D0100550D0100550D0100550D0100550D0100550D0100550D0100550D0100550D01006C
S32D0000C0F0550D0100CD620100550D0100550D0100550D0100550D0100550D0100550D0100550D0100550D010077
S32D0000C118550D0100550D0100550D0100550D0100550D0100550D0100550D0100550D0100550D0100550D01001B
S32D0000C140550D0100550D0100550D0100550D0100A1380100550D0100550D0100550D0100550D0100550D01007C
S32D0000C168550D0100550D0100550D0100550D0100550D0100550D0100550D0100550D0100550D0100550D0100CB
S32D0000C190550D0100550D0100550D0100D534010029330100FD330100A50D0100AD350100550D0100550D010064
S32D0000C1B8550D0100550D0100550D0100550D0100550D0100550D0100550D0100550D0100550D0100550D01007B
S32D0000C41081F0004102E000BF83F0004330B54FEA41044FEA430594EA050F08BF90EA020F1FBF54EA000C55EAC6
S32D0000C438020C7FEA645C7FEA655C00F0E2804FEA5454D4EB5555B8BF6D420CDD2C4480EA020281EA030382EA0F
S32D0000C460000083EA010180EA020281EA0303362D88BF30BD11F0004F4FEA01314FF4801C4CEA113102D0404263
S32D0000C48861EB410113F0004F4FEA03334CEA133302D0524263EB430394EA050F00F0A780A4F10104D5F1200E8A
S32D0000C4B00DDB02FA0EFC22FA05F2801841F1000103FA0EF2801843FA05F359410EE0A5F120050EF1200E012A2D
S32D0000C4D803FA0EFC28BF4CF0020C43FA05F3C01851EBE37101F0004507D54FF0000EDCF1000C7EEB00006EEB67
S32D0000C5000101B1F5801F1BD3B1F5001F0CD349085FEA30004FEA3C0C04F101044FEA445212F5800F80F09A8000
S32D0000C528BCF1004F08BF5FEA500C50F1000041EB045141EA050130BD5FEA4C0C404141EB010111F4801FA4F114
S32D0000C5500104E9D191F0000F04BF01460020B1FA81F308BF2033A3F10B03B3F120020CDA0C3208DD02F1140C87
S32D0000C578C2F10C0201FA0CF021FA02F10CE002F11402D8BFC2F1200C01FA02F120FA0CFCDCBF41EA0C019040B1
S32D0000C5A0E41AA2BF01EB0451294330BD6FEA04041F3C1CDA0C340EDC04F11404C4F1200220FA04F001FA02F3B6
S32D0000C5C840EA030021FA04F345EA030130BDC4F10C04C4F1200220FA02F001FA04F340EA0300294630BD21FAA8
S32D0000C5F004F0294630BD94F0000F83F4801306BF81F480110134013D4EE77FEA645C18BF7FEA655C29D094EA1C
S32D0000C618050F08BF90EA020F05D054EA000C04BF1946104630BD91EA030F1EBF0021002030BD5FEA545C05D1A3
S32D0000C6404000494128BF41F0004130BD14F580043CBF01F5801130BD01F0004545F0FE4141F470014FF0000031
S32D0000C66830BD7FEA645C1ABF194610467FEA655C1CBF0B46024650EA013406BF52EA033591EA030F41F40021D7
S32D0000C69030BD00BF90F0000F04BF0021704730B54FF4806404F132044FF000054FF0000150E700BF90F0000F66
S32D0000C6B804BF0021704730B54FF4806404F1320410F0004548BF40424FF000013EE700BF42004FEAE2014FEAF9
S32D0000C6E031014FEA02701FBF12F07F4393F07F4F81F06051704792F0000F14BF93F07F4F704730B54FF460741B
S32D0000C70801F0004521F0004120E700BF50EA010208BF704730B54FF000050AE050EA010208BF704730B511F046
S32D0000C730004502D5404261EB41014FF4806404F132045FEA915C3FF4DCAE4FF003025FEADC0C18BF03325FEAA0
S32D0000C758DC0C18BF033202EBDC02C2F1200300FA03FC20FA02F001FA03FE40EA0E0021FA02F11444C1E600BF19
S32D0000C78070B54FF0FF0C4CF4E06C1CEA11541DBF1CEA135594EA0C0F95EA0C0F00F0DEF82C4481EA030621EAF3
S32D0000C7A84C5123EA4C5350EA013518BF52EA033541F4801143F4801338D0A0FB02CE4FF00005E1FB02E506F05F
S32D0000C7D00042E0FB03E54FF00006E1FB03569CF0000F18BF4EF0010EA4F1FF04B6F5007F64F5407404D25FEA0F
S32D0000C7F84E0E6D4146EB060642EAC62141EA55514FEAC52040EA5E504FEACE2EB4F1FD0C88BFBCF5E06F1ED8D2
S32D0000C820BEF1004F08BF5FEA500E50F1000041EB045170BD06F0004646EA010140EA020081EA0301B4EB5C0487
S32D0000C848C2BFD4EB0C0541EA045170BD41F480114FF0000E013C00F3AB8014F1360FDEBF002001F0004170BDF0
S32D0000C870C4F10004203C35DA0C341BDC04F11404C4F1200500FA05F320FA04F001FA05F240EA020001F0004207
S32D0000C89821F0004110EBD37021FA04F642EB06015EEA430E08BF20EAD37070BDC4F10C04C4F1200500FA04F32F
S32D0000C8C020FA05F001FA04F240EA020001F0004110EBD37041F100015EEA430E08BF20EAD37070BDC4F12005C7
S32D0000C8E800FA05F24EEA020E20FA04F301FA05F243EA020321FA04F001F0004121FA04F220EA020000EBD37028
S32D0000C9105EEA430E08BF20EAD37070BD94F0000F0FD101F00046400041EB010111F4801F08BF013CF7D041EA6D
S32D0000C938060195F0000F18BF704703F00046520043EB030313F4801F08BF013DF7D043EA0603704794EA0C0FF1
S32D0000C9600CEA135518BF95EA0C0F0CD050EA410618BF52EA4306D1D181EA030101F000414FF0000070BD50EA38
S32D0000C988410606BF1046194652EA430619D094EA0C0F02D150EA013613D195EA0C0F05D152EA03361CBF10467B
S32D0000C9B019460AD181EA030101F0004141F0FE4141F470014FF0000070BD41F0FE4141F4780170BD70B54FF04D
S32D0000C9D8FF0C4CF4E06C1CEA11541DBF1CEA135594EA0C0F95EA0C0F00F0A7F8A4EB050481EA030E52EA03359B
S32D0000CA004FEA013100F088804FEA03334FF0805545EA131343EA12634FEA022245EA111545EA10654FEA002676
S32D0000CA280EF000419D4208BF964244F1FD0404F5407402D25B084FEA3202B61A65EB03055B084FEA32024FF461
S32D0000CA5080104FF4002CB6EB020E75EB030E22BFB61A754640EA0C005B084FEA3202B6EB020E75EB030E22BF22
S32D0000CA78B61A754640EA5C005B084FEA3202B6EB020E75EB030E22BFB61A754640EA9C005B084FEA3202B6EBEA
S32D0000CAA0020E75EB030E22BFB61A754640EADC0055EA060E18D04FEA051545EA16754FEA06164FEAC30343EAAC
S32D0000CAC852734FEAC2025FEA1C1CC0D111F4801F0BD141EA00014FF000004FF0004CB6E711F4801F04BF0143AE
S32D0000CAF00020B4F1FD0C88BFBCF5E06F3FF6AFAEB5EB030C04BFB6EB020C5FEA500C50F1000041EB045170BDBC
S32D0000CB180EF0004E4EEA113114EB5C04C2BFD4EB0C0541EA045170BD41F480114FF0000E013C90E645EA060EC3
S32D0000CB408DE60CEA135594EA0C0F08BF95EA0C0F3FF43BAF94EA0C0F0AD150EA01347FF434AF95EA0C0F7FF499
S32D0000CB6825AF104619462CE795EA0C0F06D152EA03353FF4FDAE1046194622E750EA410618BF52EA43067FF432
S32D0000CB90C5AE50EA41047FF40DAF52EA43057FF4EBAE12E74A0011D212F5001211D20DD56FF47873B3EB625222
S32D0000CBB80ED44FEAC12343F0004343EA505323FA02F070474FF00000704750EA013002D14FF0FF3070474FF0AC
S32D0000CBE0000070474FEA4102B2F1E04324BFB3F5001CDCF1FE5C0DD901F0004C4FEAC0024CEA5070B2F1004F5A
S32D0000CC0840EB830008BF20F00100704711F0804F21D113F13872BCBF01F00040704741F480114FEA5252C2F198
S32D0000CC301802C2F1200C10FA0CF320FA02F018BF40F001004FEAC1234FEAD32303FA0CFC40EA0C0023FA02F327
S32D0000CC584FEA4303CCE77FEA625307D150EA01331EBF4FF0FE4040F44000704701F0004040F0FE4040F40000C0
S32D0000CC80704700BF80F0004002E000BF81F0004142001FBF5FEA410392EA030F7FEA226C7FEA236C6AD04FEA70
S32D0000CCA81262D2EB1363C1BFD218414048404140B8BF5B42192B88BF704710F0004F40F4000020F07F4018BF44
S32D0000CCD0404211F0004F41F4000121F07F4118BF494292EA030F3FD0A2F1010241FA03FC10EB0C00C3F12003B0
S32D0000CCF801FA03F100F0004302D5494260EB4000B0F5000F13D3B0F1807F06D340084FEA310102F10102FE2A1B
S32D0000CD2051D2B1F1004F40EBC25008BF20F0010040EA03007047490040EB000010F4000FA2F10102EDD1B0FA53
S32D0000CD4880FCACF1080CB2EB0C0200FA0CF0AABF00EBC25052421843BCBFD0401843704792F0000F81F40001F6
S32D0000CD7006BF80F400000132013BB5E74FEA41037FEA226C18BF7FEA236C21D092EA030F04D092F0000F08BF63
S32D0000CD980846704790EA010F1CBF0020704712F07F4F04D1400028BF40F00040704712F100723CBF00F50000D4
S32D0000CDC0704700F0004343F0FE4040F4000070477FEA226216BF08467FEA23630146420206BF5FEA412390EA89
S32D0000CDE8010F40F4800070474FF0000304E000BF10F0004348BF40425FEA000C08BF704743F0964301464FF08C
S32D0000CE1000001CE050EA010208BF70474FF000030AE000BF50EA010208BF704711F0004302D5404261EB41016C
S32D0000CE385FEA010C02BF84460146002043F0B64308BFA3F18053A3F50003BCFA8CF2083AA3EBC25310DB01FA90
S32D0000CE6002FC634400FA02FCC2F12002BCF1004F20FA02F243EB020008BF20F00100704702F1200201FA02FC5B
S32D0000CE88C2F1200250EA4C0021FA02F243EB020008BF20EADC7070474FF0FF0C1CEAD0521EBF1CEAD15392EA19
S32D0000CEB00C0F93EA0C0F6FD01A4480EA010C400218BF5FEA41211ED04FF0006343EA501043EA5111A0FB013150
S32D0000CED80CF00040B1F5000F3EBF490041EAD3715B0040EA010062F17F02FD2A1DD8B3F1004F40EBC25008BF19
S32D0000CF0020F00100704790F0000F0CF0004C08BF49024CEA502040EA51207F3AC2BFD2F1FF0340EAC25070471F
S32D0000CF2840F400004FF00003013A5DDC12F1190FDCBF00F000407047C2F10002410021FA02F1C2F1200200FA71
S32D0000CF5002FC5FEA310040F1000053EA4C0308BF20EADC70704792F0000F00F0004C02BF400010F4000F013A8E
S32D0000CF78F9D040EA0C0093F0000F01F0004C02BF490011F4000F013BF9D041EA0C018FE70CEAD15392EA0C0F3B
S32D0000CFA018BF93EA0C0F0AD030F0004C18BF31F0004CD8D180EA010000F00040704790F0000F17BF90F0004F3B
S32D0000CFC8084691F0000F91F0004F14D092EA0C0F01D142020FD193EA0C0F03D14B0218BF084608D180EA0100FA
S32D0000CFF000F0004040F0FE4040F40000704740F0FE4040F4400070474FF0FF0C1CEAD0521EBF1CEAD15392EAFC
S32D0000D0180C0F93EA0C0F69D0A2EB030280EA010C49024FEA402037D04FF0805343EA111143EA10130CF000401D
S32D0000D0408B4238BF5B0042F17D024FF4000C8B4224BF5B1A40EA0C00B3EB510F24BFA3EB510340EA5C00B3EB60
S32D0000D068910F24BFA3EB910340EA9C00B3EBD10F24BFA3EBD10340EADC001B0118BF5FEA1C1CE0D1FD2A3FF6E5
S32D0000D09050AF8B4240EBC25008BF20F0010070470CF0004C4CEA50207F32C2BFD2F1FF0340EAC250704740F4CE
S32D0000D0B800004FF00003013A37E792F0000F00F0004C02BF400010F4000F013AF9D040EA0C0093F0000F01F011
S32D0000D0E0004C02BF490011F4000F013BF9D041EA0C0195E70CEAD15392EA0C0F08D142027FF47DAF93EA0C0FFA
S32D0000D1087FF470AF084676E793EA0C0F04D14B023FF44CAF08466EE730F0004C18BF31F0004CCAD130F0004284
S32D0000D1307FF45CAF31F000437FF43CAF5FE700BF4FF0FF3C06E000BF4FF0010C02E000BF4FF0010C4DF804CD1E
S32D0000D1584FEA40024FEA41037FEA226C18BF7FEA236C11D001B052EA530C18BF90EA010F58BFB2EB030088BF5F
S32D0000D180C81738BF6FEAE17018BF40F0010070477FEA226C02D15FEA402C05D17FEA236CE4D15FEA412CE1D0D9
S32D0000D1A85DF8040B704700BF844608466146FFE70FB5FFF7C9FF002848BF10F1000F0FBD4DF808EDFFF7F4FF2A
S32D0000D1D00CBF012000205DF808FB00BF4DF808EDFFF7EAFF34BF012000205DF808FB00BF4DF808EDFFF7E0FF9B
S32D0000D1F894BF012000205DF808FB00BF4DF808EDFFF7D2FF94BF012000205DF808FB00BF4DF808EDFFF7C8FFBB
S32D0000D22034BF012000205DF808FB00BF80B586B000AF3B46184600F035F800E000BF00F035F903463B614FF09E
S32D0000D24801037B613B6903F1FF33032BF2D801A252F823F079D200008BD2000095D200009BD200003B461846BB
S32D0000D27000F07EFC03467B617B69012B14BF00230123DBB2002BF1D10AE03B46184600F067F805E001F080FCF3
S32D0000D29802E001F005FD00BFCCE700BF80B483B000AF78607B684FF000021A607B684FF000025A607B684FF0D6
S32D0000D2C000029A607B684FF00002DA607B68184607F10C07BD4680BC704700BF80B483B000AF786039607B687B
S32D0000D2E81A683B68D2187B681A6007F10C07BD4680BC704780B483B000AF786039607B685A683B689A4202DA24
S32D0000D3107B683A685A6007F10C07BD4680BC704780B483B000AF786039607B68DA683B68D2187B68DA6007F161
S32D0000D3380C07BD4680BC704780B483B000AF786039607B689A683B68D2187B689A6007F10C07BD4680BC7047E7
S32D0000D36080B584B000AF786041F20440C1F6FF706FF07F4107F0E8F941F20440C1F6FF7007F0C2F941F2044055
S32D0000D388C1F6FF704FF0000107F002FA41F20440C1F6FF7047F6FC01C0F2010107F028FC41F20440C1F6FF70DB
S32D0000D3B047F60811C0F2010107F01EFC41F20440C1F6FF7047F60C11C0F2010107F0CCFB7B685B6841F20440AE
S32D0000D3D8C1F6FF70194607F01FFC41F20440C1F6FF7047F61C11C0F2010107F0B9FB7B681B6841F20440C1F696
S32D0000D400FF70194607F00CFC41F20440C1F6FF7047F62C11C0F2010107F0A6FB7B689B6841F20440C1F6FF704B
S32D0000D428194607F0F9FB41F20440C1F6FF7047F63C11C0F2010107F093FB7B689B6841F20440C1F6FF7019464A
S32D0000D45007F0E6FB00BF07F10C0207F1080341F20440C1F6FF7011461A4607F049FA0346002BF0D100BF07F194
S32D0000D4780C0207F1080341F20440C1F6FF7011461A4607F039FA034683F00103DBB2002BEDD14FF4967005F083
S32D0000D4A0C3FE07F11007BD4680BD00BF90B585B002AF41F20440C1F6FF706FF07F4107F043F941F20440C1F647
S32D0000D4C8FF7007F01DF941F20440C1F6FF704FF0000107F05DF941F20440C1F6FF7047F64C11C0F201014FF066
S32D0000D4F064024FF00A0307F063F94FF03703009341F20440C1F6FF704FF034014FF042024FF0690308F052F87C
S32D0000D5184FF03703009341F20440C1F6FF704FF0A2014FF042024FF0690308F043F84FF03703009341F2044076
S32D0000D540C1F6FF704FF034014FF07E024FF0690308F034F84FF03703009341F20440C1F6FF704FF0A2014FF0CB
S32D0000D5687E024FF0690308F025F841F20440C1F6FF706FF07F4107F00BF94FF02D03009341F20440C1F6FF70FF
S32D0000D5904FF039014FF047024FF05F0308F00EF84FF02D03009341F20440C1F6FF704FF0A7014FF047024FF080
S32D0000D5B85F0307F0FFFF4FF02D03009341F20440C1F6FF704FF039014FF083024FF05F0307F0F0FF4FF02D031C
S32D0000D5E0009341F20440C1F6FF704FF0A7014FF083024FF05F0307F0E1FF41F20440C1F6FF704FF0000107F0F6
S32D0000D608C7F841F20440C1F6FF7047F65811C0F201014FF03E024FF04C0307F0CDF841F20440C1F6FF7047F69B
S32D0000D6306011C0F201014FF0AC024FF04C0307F0BFF841F20440C1F6FF7047F66811C0F201014FF03E024FF0B9
S32D0000D658880307F0B1F841F20440C1F6FF7047F67011C0F201014FF0AC024FF0880307F0A3F800BF07F1040264
S32D0000D6803B4641F20440C1F6FF7011461A4607F037F90346002BF1D100BF07F104023B4641F20440C1F6FF706F
S32D0000D6A811461A4607F028F9034683F00103DBB2002BEED17B684FF0010214461846DFF88414FFF7A5FD034621
S32D0000D6D0002B02D14FF000031C46E3B2002B00F081807B684FF0010214461846DFF86014FFF774FD0346002BD6
S32D0000D6F802D14FF000031C46E3B2002B6ED03B684FF0010214461846DFF84014FFF780FD0346002B02D14FF0CE
S32D0000D72000031C46E3B2002B5CD03B684FF0010214461846DFF82014FFF750FD0346002B02D14FF000031C46B4
S32D0000D748E3B2002B4AD041F20440C1F6FF704FF0FF0107F01DF84FF03703009341F20440C1F6FF704FF03401D4
S32D0000D7704FF042024FF0690307F020FF41F20440C1F6FF706FF07F4107F006F84FF02D03009341F20440C1F666
S32D0000D798FF704FF039014FF047024FF05F0307F009FF41F20440C1F6FF704FF0FF0106F0EFFF41F20440C1F665
S32D0000D7C0FF7047F65811C0F201014FF03E024FF04C0306F0F5FF4FF4FA7005F025FD4FF00103ADE17B684FF0C4
S32D0000D7E8010214461846DB49FFF712FD0346002B02D14FF000031C46E3B2002B7DD07B684FF00102144618465A
S32D0000D810D349FFF7E3FC0346002B02D14FF000031C46E3B2002B6CD03B684FF0010214461846C849FFF7F0FC82
S32D0000D8380346002B02D14FF000031C46E3B2002B5BD03B684FF0010214461846C049FFF7C1FC0346002B02D14C
S32D0000D8604FF000031C46E3B2002B4AD041F20440C1F6FF704FF0FF0106F08EFF4FF03703009341F20440C1F683
S32D0000D888FF704FF0A2014FF042024FF0690307F091FE41F20440C1F6FF706FF07F4106F077FF4FF02D03009343
S32D0000D8B041F20440C1F6FF704FF0A7014FF047024FF05F0307F07AFE41F20440C1F6FF704FF0FF0106F060FFFD
S32D0000D8D841F20440C1F6FF7047F66011C0F201014FF0AC024FF04C0306F066FF4FF4FA7005F096FC4FF00203D5
S32D0000D9001EE17B684FF00102144618468F49FFF783FC0346002B02D14FF000031C46E3B2002B7DD07B684FF0B6
S32D0000D9280102144618468849FFF754FC0346002B02D14FF000031C46E3B2002B6CD03B684FF00102144618467B
S32D0000D9508449FFF761FC0346002B02D14FF000031C46E3B2002B5BD03B684FF00102144618467D49FFF732FC2C
S32D0000D9780346002B02D14FF000031C46E3B2002B4AD041F20440C1F6FF704FF0FF0106F0FFFE4FF037030093E1
S32D0000D9A041F20440C1F6FF704FF034014FF07E024FF0690307F002FE41F20440C1F6FF706FF07F4106F0E8FE4F
S32D0000D9C84FF02D03009341F20440C1F6FF704FF039014FF083024FF05F0307F0EBFD41F20440C1F6FF704FF0F9
S32D0000D9F0FF0106F0D1FE41F20440C1F6FF7047F67811C0F201014FF03E024FF0880306F0D7FE4FF4FA7005F077
S32D0000DA1807FC4FF003038FE07B684FF00102144618464C49FFF7F4FB0346002B02D14FF000031C46E3B2002B27
S32D0000DA407DD07B684FF00102144618464449FFF7C5FB0346002B02D14FF000031C46E3B2002B6CD03B684FF082
S32D0000DA680102144618463D49FFF7D2FB0346002B02D14FF000031C46E3B2002B5BD03B684FF001021446184619
S32D0000DA903549FFF7A3FB0346002B02D14FF000031C46E3B2002B4AD041F20440C1F6FF704FF0FF0106F070FE51
S32D0000DAB84FF03703009341F20440C1F6FF704FF0A2014FF07E024FF0690307F073FD41F20440C1F6FF706FF0E8
S32D0000DAE07F4106F059FE4FF02D03009341F20440C1F6FF704FF0A7014FF083024FF05F0307F05CFD41F2044059
S32D0000DB08C1F6FF704FF0FF0106F042FE41F20440C1F6FF7047F67011C0F201014FF0AC024FF0880306F048FE52
S32D0000DB304FF4FA7005F078FB4FF0040300E0FFE7184607F10C07BD4690BD00BF000064420000184300008E425D
S32D0000DB580000E842000027430000834300000343000030430000000090B59DB004AF78604FF0000387F82B3053
S32D0000DB804FF0000387F82A304FF0010387F85F304FF08903BB654FF000037B654FF496733B654FF00103BB64B0
S32D0000DBA84FF000037B644FF000033B644FF00003FB634FF004037B624FF00003BB634FF000037B634FF00003C8
S32D0000DBD03B6205F071FB02460B461046194698A3D3E90023FEF7CCFD02460B4610461946FEF7D8FF0346184642
S32D0000DBF808F0F2FD41F20440C1F6FF706FF07F4106F09EFD41F20440C1F6FF7006F078FD41F20440C1F6FF7026
S32D0000DC204FF0000106F0B8FD41F20440C1F6FF7047F68811C0F201014FF09B024FF0730306F0BEFD4FF47A7055
S32D0000DC4805F0EEFA41F20440C1F6FF7006F058FD41F20440C1F6FF7047F68C11C0F201014FF09B024FF073032D
S32D0000DC7006F0A6FD4FF47A7005F0D6FA41F20440C1F6FF7006F040FD41F20440C1F6FF7047F69011C0F20101FC
S32D0000DC984FF09B024FF0730306F08EFD4FF47A7005F0BEFA41F20440C1F6FF7006F028FD41F20440C1F6FF701D
S32D0000DCC047F69411C0F201014FF098024FF0730306F076FD4FF4FA7005F0A6FA41F20440C1F6FF7006F010FDC7
S32D0000DCE8FCE2BB6C03F1FF33FA6C00923A6B0192FA6A02921846B96D7A6D3B6D00F022FE4FF000037B6507F17E
S32D0000DD10100207F10C0341F20440C1F6FF7011461A4606F0EDFD034687F82A3041F20440C1F6FF704FF0000199
S32D0000DD3806F02EFD41F20440C1F6FF7047F69811C0F201014FF000024FF0000306F034FD7B685B6841F204409E
S32D0000DD60C1F6FF7019464FF078024FF0000306F053FD41F20440C1F6FF7047F6A411C0F201014FF000024FF00C
S32D0000DD88190306F019FD41F20440C1F6FF70B96C4FF04B024FF0190306F03AFD97F82A30002B29D0BB6D4B2BC4
S32D0000DDB026DDFB684FF00102144618462249FFF70DFA0346002B02D14FF000031C46E3B2002B15D097F85F30CF
S32D0000DDD8002B11D04FF01903FB6341F20040C1F6FF704FF4DC614FF0320205F061FF7B6C03F101037B6428E0B1
S32D0000DE0097F82A30002B24D0FB684FF00102144618460D49FFF7F6F90346002B02D14FF000031C46E3B2002BA9
S32D0000DE2813D0BB6D882B0DDCFB6BA3F10703FB634FF001037B6508E00000000000408F400000F0424FF0010334
S32D0000DE507B65BB6D4B2B03DD4FF0000387F85F30BA6DFB6BD31ABB65BB6D892B09DD4FF08903BB654FF000036D
S32D0000DE78FB634FF0010387F85F30FA6B7B6AD31AFB633A6DBB6BD31A3B65FA6C7B6BD31AFB643B6D002B08DC8F
S32D0000DEA04FF496733B654FF00003BB634FF000033B63FB6C002B08DC4FF49673FB644FF000037B634FF00003A5
S32D0000DEC8FB62B96C48F68903C8F6880383FB01235B184FEA23124FEAE173D21A13464FEA03139B1A4FEA4303BF
S32D0000DEF0CA1A002A40F00C8108F062FC024646F26763C6F2666383FB02134FEA23114FEAE273C91A0B464FEA1D
S32D0000DF1883035B184FEAC303D31AFB61FB69002B1FDBFB69092B1CDC3B6DB3F5967F09D14FF001033B634FF022
S32D0000DF400103BB614FF00A03BB63D6E0FB6CB3F5967F40F0D2804FF00103FB624FF001037B614FF00A037B63E4
S32D0000DF68C7E0FB69092B1FDDFB69112B1CDC3B6DB3F5967F09D14FF002033B634FF00203BB614FF00A03BB63CD
S32D0000DF90B5E0FB6CB3F5967F40F0B1804FF00203FB624FF002037B614FF00A037B63A6E0FB69112B1FDDFB69D8
S32D0000DFB8172B1CDC3B6DB3F5967F09D14FF003033B634FF00303BB614FF00A03BB6394E0FB6CB3F5967F40F04C
S32D0000DFE090804FF00303FB624FF003037B614FF00A037B6385E0FB69172B1EDDFB69192B1BDC3B6DB3F5967F0C
S32D0000E00809D14FF004033B634FF00403BB614FF00A03BB6373E0FB6CB3F5967F6FD14FF00403FB624FF00403C0
S32D0000E0307B614FF00A037B6365E0FB69192B1EDDFB691B2B1BDC3B6DB3F5967F09D14FF005033B634FF00503C8
S32D0000E058BB614FF00A03BB6353E0FB6CB3F5967F4FD14FF00503FB624FF005037B614FF00A037B6345E0FB6923
S32D0000E0801B2B1EDDFB691D2B1BDC3B6DB3F5967F09D14FF006033B634FF00603BB614FF00A03BB6333E0FB6C21
S32D0000E0A8B3F5967F2FD14FF00603FB624FF006037B614FF00A037B6325E03B6DB3F5967F09D14FF000033B6376
S32D0000E0D04FF00003BB614FF00003BB6318E0FB6CB3F5967F14D14FF00003FB624FF000037B614FF000037B6386
S32D0000E0F80AE000BF08E000BF06E000BF04E000BF02E000BF00E000BFFB6C00933B6B0193FB6A0293B86CB96DAA
S32D0000E1207A6D3B6D00F0ECFA3B6D4B2B03DDFB6C4B2B00F3AE803B6B012B0AD13B6D03F11E03282B05DDBB6DA9
S32D0000E14803F12B03842B00F3D2803B6B022B0AD13B6D03F12303282B05DDBB6D03F12B03842B00F3C6803B6B16
S32D0000E170032B0AD13B6D03F11903282B05DDBB6D03F12B03912B00F3BA803B6B042B0AD13B6D03F12803282B8E
S32D0000E19805DDBB6D03F12B03842B00F3AE803B6B052B0AD13B6D03F11E03282B05DDBB6D03F12B03912B00F3C1
S32D0000E1C0A2803B6B062B0DD13B6D03F12D03282B08DDBB6D03F10A03782B03DD7B6D002B00F09380FB6A012B03
S32D0000E1E80AD1FB6C03F11903282B05DDBB6D03F12B03842B00F38780FB6A022B09D1FB6C03F12803282B04DD69
S32D0000E210BB6D03F12B03842B7BDCFB6A032B09D1FB6C03F10F03282B04DDBB6D03F12B039C2B70DCFB6A042B91
S32D0000E23809D1FB6C03F12803282B04DDBB6D03F12B03842B65DCFB6A052B09D1FB6C03F11E03282B04DDBB6DA3
S32D0000E26003F12B039C2B5ADCFB6A062B0DD1FB6C03F12D03282B0CDDBB6D03F10A03782B07DD7B6D002B04D19E
S32D0000E2884AE03B6C03F101033B64BA6C48F21F53C5F2EB1383FB02134FEA63114FEAE273CB1A4FF0640101FB26
S32D0000E2B003F3D31A002B09D141F20040C1F6FF704FF45C614FF0320205F0F6FCBB6C03F10103BB644FF00003E5
S32D0000E2D887F82A304FF0140004F0A2FF97F82B3083F00103DBB2002B7FF4FBAC14E000BF12E000BF10E000BF11
S32D0000E3000EE000BF0CE000BF0AE000BF08E000BF06E000BF04E000BF02E000BF00E000BF41F20040C1F6FF7026
S32D0000E3284FF45C6140F2EE2205F0C2FC7868B96CFEF7D0FF7868B96CFEF7DCFF7868796CFEF7FAFF7868396CFC
S32D0000E350FEF7E6FF41F20440C1F6FF706FF07F4106F0F2F941F20440C1F6FF7006F0CCF941F20440C1F6FF7033
S32D0000E3784FF0000106F00CFA4FF03703009341F20440C1F6FF704FF034014FF042024FF0690307F00FF94FF0B2
S32D0000E3A03703009341F20440C1F6FF704FF0A2014FF042024FF0690307F000F941F20440C1F6FF706FF07F4129
S32D0000E3C806F0E6F94FF02D03009341F20440C1F6FF704FF039014FF047024FF05F0307F0E9F84FF02D03009337
S32D0000E3F041F20440C1F6FF704FF0A7014FF047024FF05F0307F0DAF841F20440C1F6FF704FF0000106F0C0F9FD
S32D0000E41841F20440C1F6FF7047F6AC11C0F201014FF03E024FF04C0306F0C6F941F20440C1F6FF7047F6B4112A
S32D0000E440C0F201014FF0AC024FF04C0306F0B8F900E000BF00BF07F1100207F10C0341F20440C1F6FF70114675
S32D0000E4681A4606F049FA0346002BF0D100BF07F1100207F10C0341F20440C1F6FF7011461A4606F039FA034622
S32D0000E49083F00103DBB2002BEDD13B694FF00102144618469049FEF7B7FE0346002B02D14FF000031C46E3B2D0
S32D0000E4B8002B7DD03B694FF00102144618468949FEF788FE0346002B02D14FF000031C46E3B2002B6CD0FB6889
S32D0000E4E04FF00102144618468149FEF795FE0346002B02D14FF000031C46E3B2002B5BD0FB684FF001021446ED
S32D0000E50818467A49FEF766FE0346002B02D14FF000031C46E3B2002B4AD041F20440C1F6FF704FF0FF0106F0D4
S32D0000E53033F94FF03703009341F20440C1F6FF704FF034014FF042024FF0690307F036F841F20440C1F6FF7084
S32D0000E5586FF07F4106F01CF94FF02D03009341F20440C1F6FF704FF039014FF047024FF05F0307F01FF841F2E9
S32D0000E5800440C1F6FF704FF0FF0106F005F941F20440C1F6FF7047F6AC11C0F201014FF03E024FF04C0306F082
S32D0000E5A80BF94FF4FA7004F03BFE4FF0010391E03B694FF00102144618464D49FEF728FE0346002B02D14FF0DE
S32D0000E5D000031C46E3B2002B3FF43BAF3B694FF00102144618464549FEF7F8FD0346002B02D14FF000031C46DA
S32D0000E5F8E3B2002B3FF429AFFB684FF00102144618463949FEF704FE0346002B02D14FF000031C46E3B2002BA9
S32D0000E6203FF417AFFB684FF00102144618463149FEF7D4FD0346002B02D14FF000031C46E3B2002B3FF405AFA4
S32D0000E64841F20440C1F6FF704FF0FF0106F0A0F84FF03703009341F20440C1F6FF704FF0A2014FF042024FF0ED
S32D0000E670690306F0A3FF41F20440C1F6FF706FF07F4106F089F84FF02D03009341F20440C1F6FF704FF0A701BF
S32D0000E6984FF047024FF05F0306F08CFF41F20440C1F6FF704FF0FF0106F072F841F20440C1F6FF7047F6B411CF
S32D0000E6C0C0F201014FF0AC024FF04C0306F078F84FF4FA7004F0A8FD4FF00003184607F16407BD4690BD00BF3F
S32D0000E6E8000064420000184300008E420000E842000027430000834380B584B000AFF860B9607A603B6041F2A8
S32D0000E7100440C1F6FF706FF07F4106F015F841F20440C1F6FF704FF0000106F035F841F20440C1F6FF704FF073
S32D0000E738B4014FF0000240F23F1306F077FE41F20440C1F6FF704FF0B5014FF0000240F23F1306F06BFE41F2E5
S32D0000E7600440C1F6FF704FF0B6014FF0000240F23F1306F05FFEFA684FF00303C8F200031340002B05DA03F15E
S32D0000E788FF3363F0030303F10103002B1BDBFA684FF00303C8F200031340002B05DA03F1FF3363F0030303F18B
S32D0000E7B00103012B0BDCBB68892B08D17B68002B05D1B8684FF0000100F0C2FC42E0FA684FF00303C8F20003FC
S32D0000E7D81340002B05DA03F1FF3363F0030303F10103012B1BDDFA684FF00303C8F200031340002B05DA03F166
S32D0000E800FF3363F0030303F10103032B0BDCBB68892B08D17B68002B05D1B8684FF0000100F0E8FA16E0BB6873
S32D0000E828882B08DC7B68002B05D1B8684FF0000100F034FE0AE07B68002B07D0BB6803F10A0318464FF0000134
S32D0000E85000F0E4FF3B68B3F5967F37D0FB69062B34D801A252F823F0CDE8000085E8000091E800009DE800009F
S32D0000E878A9E80000B5E80000C1E8000038684FF0000101F0D7F91DE038684FF0000101F0FFFD17E038684FF05A
S32D0000E8A0000101F02BFC11E038684FF0000101F091FA0BE038684FF0000101F0BBFC05E038684FF0000101F0BB
S32D0000E8C849FF00BFBB69B3F5967F37D03B6A062B34D801A252F823F045E90000FDE8000009E9000015E900004E
S32D0000E8F021E900002DE9000039E90000B8694FF0000101F09BF91DE0B8694FF0000101F0C3FD17E0B8694FF06C
S32D0000E918000101F0EFFB11E0B8694FF0000101F055FA0BE0B8694FF0000101F07FFC05E0B8694FF0000101F074
S32D0000E9400DFF00BF07F11007BD4680BD80B584B000AFF860B9607A603B6041F20440C1F6FF706FF07F4105F0E0
S32D0000E968EFFE41F20440C1F6FF706FF07F4105F00FFF41F20440C1F6FF70B96806F01EF941F20440C1F6FF706D
S32D0000E9904FF0B4014FF0000240F23F1306F04AFD41F20440C1F6FF704FF0B5014FF0000240F23F1306F03EFDDB
S32D0000E9B841F20440C1F6FF704FF0B6014FF0000240F23F1306F032FDFA684FF00303C8F200031340002B05DAF3
S32D0000E9E003F1FF3363F0030303F10103002B1BDBFA684FF00303C8F200031340002B05DA03F1FF3363F0030331
S32D0000EA0803F10103012B0BDCBB68892B08D17B68002B05D1B8686FF07F4100F095FB42E0FA684FF00303C8F2FF
S32D0000EA3000031340002B05DA03F1FF3363F0030303F10103012B1BDDFA684FF00303C8F200031340002B05DAFC
S32D0000EA5803F1FF3363F0030303F10103032B0BDCBB68892B08D17B68002B05D1B8686FF07F4100F0BBF916E097
S32D0000EA80BB68882B08DC7B68002B05D1B8686FF07F4100F007FD0AE07B68002B07D0BB6803F10A0318466FF0E7
S32D0000EAA87F4100F0B7FEFB69062B35D801A252F823F000BF21EB0000D9EA0000E5EA0000F1EA0000FDEA00001A
S32D0000EAD009EB000015EB000038686FF07F4101F0ADF81DE038686FF07F4101F0D5FC17E038686FF07F4101F0AA
S32D0000EAF801FB11E038686FF07F4101F067F90BE038686FF07F4101F091FB05E038686FF07F4101F01FFE00BF5B
S32D0000EB203B6A062B34D801A252F823F091EB000049EB000055EB000061EB00006DEB000079EB000085EB00007D
S32D0000EB48B8696FF07F4101F075F81DE0B8696FF07F4101F09DFC17E0B8696FF07F4101F0C9FA11E0B8696FF0DE
S32D0000EB707F4101F02FF90BE0B8696FF07F4101F059FB05E0B8696FF07F4101F0E7FD00BF07F11007BD4680BD26
S32D0000EB9880B582B000AF41F20440C1F6FF706FF07F4105F0CDFD41F20440C1F6FF7005F0A7FD41F20440C1F65A
S32D0000EBC0FF704FF0000105F0E7FD41F20440C1F6FF7047F67811C0F2010106F00DF841F20440C1F6FF7047F6B3
S32D0000EBE80811C0F2010106F003F841F20440C1F6FF7047F6BC11C0F2010105F0F9FF41F20440C1F6FF7047F61F
S32D0000EC10EC11C0F2010105F0EFFF41F20440C1F6FF7047F62021C0F2010105F0E5FF41F20440C1F6FF7047F6C0
S32D0000EC385821C0F2010105F0DBFF41F20440C1F6FF7047F68421C0F2010105F0D1FF00BF07F104023B4641F249
S32D0000EC600440C1F6FF7011461A4605F049FE0346002BF1D100BF07F104023B4641F20440C1F6FF7011461A4661
S32D0000EC8805F03AFE034683F00103DBB2002BEED14FF4967004F0C4FA07F10807BD4680BD80B582B000AF41F26F
S32D0000ECB00440C1F6FF706FF07F4105F045FD41F20440C1F6FF7005F01FFD41F20440C1F6FF704FF0000105F0F6
S32D0000ECD85FFD41F20440C1F6FF7047F67011C0F2010105F085FF41F20440C1F6FF7047F60811C0F2010105F08E
S32D0000ED007BFF41F20440C1F6FF7047F69421C0F2010105F071FF41F20440C1F6FF7047F60811C0F2010105F027
S32D0000ED2867FF41F20440C1F6FF7047F6BC21C0F2010105F05DFF41F20440C1F6FF7047F6C821C0F2010105F02F
S32D0000ED5053FF41F20440C1F6FF7047F6DC21C0F2010105F049FF41F20440C1F6FF7047F6F421C0F2010105F0E3
S32D0000ED783FFF41F20440C1F6FF7047F60811C0F2010105F035FF41F20440C1F6FF7047F61431C0F2010105F097
S32D0000EDA02BFF00BF07F104023B4641F20440C1F6FF7011461A4605F0A3FD0346002BF1D100BF07F104023B4680
S32D0000EDC841F20440C1F6FF7011461A4605F094FD034683F00103DBB2002BEED14FF4967004F01EFA07F10807B0
S32D0000EDF0BD4680BD80B584B002AF786039603B6841F20440C1F6FF70194605F0C5FC4FF00F03009341F204407A
S32D0000EE18C1F6FF704FF03E017A684FF0120306F0C9FB7B6803F113034FF00F02009241F20440C1F6FF704FF08D
S32D0000EE4035011A464FF00D0306F0B8FB7B6803F10F034FF00202009241F20440C1F6FF704FF03A011A464FF0A2
S32D0000EE680B0306F0A7FB7B6803F111034FF00202009241F20440C1F6FF704FF038011A464FF00E0306F096FBCA
S32D0000EE907B6803F113034FF00A02009241F20440C1F6FF704FF041011A464FF0040306F085FB7B6803F11D0359
S32D0000EEB84FF00302009241F20440C1F6FF704FF041011A464FF0020306F074FB7B6803F113034FF0030200926C
S32D0000EEE041F20440C1F6FF704FF045011A464FF0040306F063FB7B6803F117034FF00202009241F20440C1F6F4
S32D0000EF08FF704FF048011A464FF0020306F052FB7B6803F117034FF00202009241F20440C1F6FF704FF0320128
S32D0000EF301A464FF0020306F041FB7B6803F118034FF00A02009241F20440C1F6FF704FF02F011A464FF006035A
S32D0000EF5806F030FB7B6803F122034FF00202009241F20440C1F6FF704FF030011A464FF00F0306F01FFB7B68E8
S32D0000EF8003F10F034FF00E02009241F20440C1F6FF704FF028011A464FF0020306F00EFB7B6803F113034FF0A8
S32D0000EFA80C02009241F20440C1F6FF704FF02A011A464FF0020306F0FDFA7B6803F116034FF00B02009241F202
S32D0000EFD00440C1F6FF704FF02C011A464FF0020306F0ECFA41F20440C1F6FF706FF07F4105F0D2FB4FF00203FB
S32D0000EFF8009341F20440C1F6FF704FF03D017A684FF0020306F0D6FA4FF00203009341F20440C1F6FF704FF09F
S32D0000F0204F017A684FF0010306F0C8FA7B6803F103034FF00202009241F20440C1F6FF704FF041011A464FF026
S32D0000F048020306F0B7FA7B6803F10B034FF00202009241F20440C1F6FF704FF047011A464FF0090306F0A6FACF
S32D0000F0707B6803F10D034FF00202009241F20440C1F6FF704FF04D011A464FF0030306F095FA3B6841F2044048
S32D0000F098C1F6FF70194605F07BFB7B6803F124034FF00402009241F20440C1F6FF704FF032011A464FF00403D0
S32D0000F0C006F07CFA7B6803F124034FF00202009241F20440C1F6FF704FF036011A464FF0020306F06BFA7B68EE
S32D0000F0E803F127034FF00302009241F20440C1F6FF704FF032011A464FF0020306F05AFA7B6803F12A0341F2D2
S32D0000F1100440C1F6FF7019464FF034024FF0350306F088F97B6803F125034FF00202009241F20440C1F6FF7034
S32D0000F1384FF03D011A464FF0050306F03BFA07F10807BD4680BD00BF80B584B002AF786039603B6841F20440AF
S32D0000F160C1F6FF70194605F017FB4FF00F03009341F20440C1F6FF704FF03E017A684FF0120306F01BFA7B68D2
S32D0000F18803F113034FF00F02009241F20440C1F6FF704FF035011A464FF00D0306F00AFA7B6803F10F034FF08A
S32D0000F1B00202009241F20440C1F6FF704FF03A011A464FF00B0306F0F9F97B6803F111034FF00202009241F2FC
S32D0000F1D80440C1F6FF704FF038011A464FF00E0306F0E8F97B6803F113034FF00A02009241F20440C1F6FF7039
S32D0000F2004FF041011A464FF0040306F0D7F97B6803F11D034FF00302009241F20440C1F6FF704FF041011A46A8
S32D0000F2284FF0020306F0C6F97B6803F113034FF00302009241F20440C1F6FF704FF045011A464FF0040306F03E
S32D0000F250B5F97B6803F117034FF00202009241F20440C1F6FF704FF048011A464FF0020306F0A4F97B6803F1E9
S32D0000F27817034FF00202009241F20440C1F6FF704FF032011A464FF0020306F093F97B6803F118034FF00A0207
S32D0000F2A0009241F20440C1F6FF704FF02F011A464FF0060306F082F97B6803F122034FF00202009241F2044041
S32D0000F2C8C1F6FF704FF030011A464FF00F0306F071F97B6803F10F034FF00E02009241F20440C1F6FF704FF0CB
S32D0000F2F028011A464FF0020306F060F97B6803F113034FF00C02009241F20440C1F6FF704FF02A011A464FF062
S32D0000F318020306F04FF97B6803F116034FF00B02009241F20440C1F6FF704FF02C011A464FF0020306F03EF9DC
S32D0000F34041F20440C1F6FF706FF07F4105F024FA4FF00203009341F20440C1F6FF704FF03D017A684FF00203B9
S32D0000F36806F028F94FF00203009341F20440C1F6FF704FF04F017A684FF0010306F01AF97B6803F103034FF013
S32D0000F3900202009241F20440C1F6FF704FF041011A464FF0020306F009F97B6803F10B034FF00202009241F212
S32D0000F3B80440C1F6FF704FF047011A464FF0090306F0F8F87B6803F10D034FF00202009241F20440C1F6FF704C
S32D0000F3E04FF04D011A464FF0030306F0E7F83B6841F20440C1F6FF70194605F0CDF97B6803F1240341F2044029
S32D0000F408C1F6FF7019464FF033024FF0360306F00DF87B6803F125034FF00202009241F20440C1F6FF704FF0BA
S32D0000F43035011A464FF0040306F0C0F87B6803F1240341F20440C1F6FF7019464FF03B024FF03E0305F0EEFF4C
S32D0000F4587B6803F125034FF00602009241F20440C1F6FF704FF03D011A464FF0020306F0A1F87B6803F129035E
S32D0000F4804FF00202009241F20440C1F6FF704FF03F011A464FF0020306F090F807F10807BD4680BD80B584B09B
S32D0000F4A802AF786039603B6841F20440C1F6FF70194605F06DF94FF00F03009341F20440C1F6FF704FF03E011B
S32D0000F4D07A684FF0120306F071F87B6803F113034FF00F02009241F20440C1F6FF704FF035011A464FF00D03E9
S32D0000F4F806F060F87B6803F10F034FF00202009241F20440C1F6FF704FF03A011A464FF00B0306F04FF87B68F6
S32D0000F52003F111034FF00202009241F20440C1F6FF704FF038011A464FF00E0306F03EF87B6803F113034FF0C3
S32D0000F5480A02009241F20440C1F6FF704FF041011A464FF0040306F02DF87B6803F11D034FF00302009241F218
S32D0000F5700440C1F6FF704FF041011A464FF0020306F01CF87B6803F113034FF00302009241F20440C1F6FF7074
S32D0000F5984FF045011A464FF0040306F00BF87B6803F117034FF00202009241F20440C1F6FF704FF048011A46D6
S32D0000F5C04FF0020305F0FAFF7B6803F117034FF00202009241F20440C1F6FF704FF032011A464FF0020305F07D
S32D0000F5E8E9FF7B6803F118034FF00A02009241F20440C1F6FF704FF02F011A464FF0060305F0D8FF7B6803F1E7
S32D0000F61022034FF00202009241F20440C1F6FF704FF030011A464FF00F0305F0C7FF7B6803F10F034FF00E0221
S32D0000F638009241F20440C1F6FF704FF028011A464FF0020305F0B6FF7B6803F113034FF00C02009241F204407C
S32D0000F660C1F6FF704FF02A011A464FF0020305F0A5FF7B6803F116034FF00B02009241F20440C1F6FF704FF005
S32D0000F6882C011A464FF0020305F094FF41F20440C1F6FF706FF07F4105F07AF84FF00203009341F20440C1F6D3
S32D0000F6B0FF704FF03D017A684FF0020305F07EFF4FF00203009341F20440C1F6FF704FF04F017A684FF0010380
S32D0000F6D805F070FF7B6803F103034FF00202009241F20440C1F6FF704FF041011A464FF0020305F05FFF7B68F6
S32D0000F70003F10B034FF00202009241F20440C1F6FF704FF047011A464FF0090305F04EFF7B6803F10D034FF0CD
S32D0000F7280202009241F20440C1F6FF704FF04D011A464FF0030305F03DFF3B6841F20440C1F6FF70194605F089
S32D0000F75023F87B6803F1240341F20440C1F6FF7019464FF033024FF0360305F063FE7B6803F125034FF00602EE
S32D0000F778009241F20440C1F6FF704FF035011A464FF0020305F016FF7B6803F129034FF00202009241F20440C2
S32D0000F7A0C1F6FF704FF037011A464FF0020305F005FF7B6803F1240341F20440C1F6FF7019464FF03B024FF04C
S32D0000F7C83E0305F033FE7B6803F125034FF00602009241F20440C1F6FF704FF03D011A464FF0020305F0E6FE3D
S32D0000F7F07B6803F129034FF00202009241F20440C1F6FF704FF03F011A464FF0020305F0D5FE07F10807BD4681
S32D0000F81880BD00BF80B584B002AF786039603B6841F20440C1F6FF70194604F0B1FF7B6803F103034FF01302C7
S32D0000F840009241F20440C1F6FF704FF03A011A464FF0180305F0B2FE4FF00803009341F20440C1F6FF704FF0D9
S32D0000F86828017A684FF0030305F0A4FE7B6803F103034FF00802009241F20440C1F6FF704FF02B011A464FF02C
S32D0000F890020305F093FE7B6803F103034FF00A02009241F20440C1F6FF704FF02D011A464FF0030305F082FEE1
S32D0000F8B87B6803F105034FF00B02009241F20440C1F6FF704FF030011A464FF00A0305F071FE7B6803F110035E
S32D0000F8E04FF00202009241F20440C1F6FF704FF032011A464FF0080305F060FE7B6803F112034FF00302009257
S32D0000F90841F20440C1F6FF704FF035011A464FF0050305F04FFE7B6803F101034FF00F02009241F20440C1F6EB
S32D0000F930FF704FF052011A464FF01C0305F03EFE7B6803F110034FF00202009241F20440C1F6FF704FF05201CB
S32D0000F9581A464FF00F0305F02DFE7B6803F112034FF00202009241F20440C1F6FF704FF057011A464FF0110308
S32D0000F98005F01CFE7B6803F116034FF00102009241F20440C1F6FF704FF04D011A464FF0040305F00BFE7B68D5
S32D0000F9A803F117034FF00102009241F20440C1F6FF704FF04D011A464FF0020305F0FAFD7B6803F118034FF064
S32D0000F9D00202009241F20440C1F6FF704FF04D011A464FF0050305F0E9FD7B6803F115034FF00202009241F2D0
S32D0000F9F80440C1F6FF704FF038011A464FF00E0305F0D8FD7B6803F117034FF00202009241F20440C1F6FF7022
S32D0000FA204FF037011A464FF0070305F0C7FD7B6803F117034FF00202009241F20440C1F6FF704FF03F011A469D
S32D0000FA484FF0070305F0B6FD7B6803F119034FF00102009241F20440C1F6FF704FF037011A464FF0060305F027
S32D0000FA70A5FD7B6803F119034FF00202009241F20440C1F6FF704FF03F011A464FF0040305F094FD7B6803F1DF
S32D0000FA981A034FF00202009241F20440C1F6FF704FF037011A464FF0040305F083FD7B6803F11B034FF00202E7
S32D0000FAC0009241F20440C1F6FF704FF03F011A464FF0030305F072FD7B6803F11C034FF00202009241F204401F
S32D0000FAE8C1F6FF704FF037011A464FF0030305F061FD7B6803F11E034FF00302009241F20440C1F6FF704FF0B1
S32D0000FB1037011A464FF0020305F050FD7B6803F11F034FF00202009241F20440C1F6FF704FF039011A464FF026
S32D0000FB38020305F03FFD7B6803F11D034FF00402009241F20440C1F6FF704FF03F011A464FF0020305F02EFDBB
S32D0000FB607B6803F11F034FF00202009241F20440C1F6FF704FF041011A464FF0020305F01DFD41F20440C1F6AA
S32D0000FB88FF706FF07F4104F003FE7B6803F101034FF00402009241F20440C1F6FF704FF052011A464FF0020347
S32D0000FBB005F004FD7B6803F101034FF00302009241F20440C1F6FF704FF054011A464FF0030305F0F3FC7B68E3
S32D0000FBD803F1010341F20440C1F6FF704FF057011A4605F0F7FB7B6803F101034FF00202009241F20440C1F6AE
S32D0000FC00FF704FF06C011A464FF0020305F0D6FC7B6803F105034FF00302009241F20440C1F6FF704FF0590165
S32D0000FC281A464FF0030305F0C5FC07F10807BD4680BD00BF80B584B002AF786039603B6841F20440C1F6FF7082
S32D0000FC50194604F0A1FD7B6803F108034FF03002009241F20440C1F6FF7019464FF084024FF0070305F0A2FC13
S32D0000FC787B6803F112034FF01502009241F20440C1F6FF7019464FF08A024FF0050305F091FC4FF00F03009316
S32D0000FCA041F20440C1F6FF7079684FF08A024FF0070305F083FC7B6803F101034FF00502009241F20440C1F64F
S32D0000FCC8FF7019464FF096024FF0070305F072FC7B6803F10F034FF00402009241F20440C1F6FF7019464FF0C2
S32D0000FCF09D024FF0070305F061FC7B6803F103027B6803F1070341F20440C1F6FF704FF09B0105F08FFB7B6815
S32D0000FD1803F10F027B6803F1130341F20440C1F6FF704FF0A10105F081FB41F20440C1F6FF706FF07F4104F02C
S32D0000FD402BFD7B6803F1080341F20440C1F6FF7019464FF0840205F041FB7B6803F10E0341F20440C1F6FF7014
S32D0000FD6819464FF0840205F035FB41F20440C1F6FF7079684FF08A0205F02CFB7B6803F1050341F20440C1F6B2
S32D0000FD90FF7019464FF08A0205F020FB7B6803F1120341F20440C1F6FF7019464FF08A0205F014FB7B6803F10E
S32D0000FDB8160341F20440C1F6FF7019464FF08A0205F008FB07F10807BD4680BD80B584B002AF786039603B68D0
S32D0000FDE041F20440C1F6FF70194604F0D5FC7B6803F108034FF03002009241F20440C1F6FF7019464FF084028E
S32D0000FE084FF0070305F0D6FB7B6803F112034FF01502009241F20440C1F6FF7019464FF08A024FF0050305F0E6
S32D0000FE30C5FB4FF00F03009341F20440C1F6FF7079684FF08A024FF0070305F0B7FB7B6803F101034FF00502A6
S32D0000FE58009241F20440C1F6FF7019464FF096024FF0070305F0A6FB7B6803F10F034FF00402009241F2044001
S32D0000FE80C1F6FF7019464FF09D024FF0070305F095FB7B6803F103027B6803F1070341F20440C1F6FF704FF08A
S32D0000FEA89B0105F0C3FA7B6803F10F027B6803F1130341F20440C1F6FF704FF0A10105F0B5FA41F20440C1F6B9
S32D0000FED0FF706FF07F4104F05FFC7B6803F1080341F20440C1F6FF7019464FF0840205F075FA7B6803F10E0338
S32D0000FEF841F20440C1F6FF7019464FF0840205F069FA41F20440C1F6FF7079684FF08A0205F060FA7B6803F154
S32D0000FF20050341F20440C1F6FF7019464FF08A0205F054FA7B6803F1120341F20440C1F6FF7019464FF08A02EE
S32D0000FF4805F048FA7B6803F1160341F20440C1F6FF7019464FF08A0205F03CFA7B6803F119037B603B6841F2CE
S32D0000FF700440C1F6FF70194604F00EFC7B6803F108034FF03002009241F20440C1F6FF7019464FF084024FF0B7
S32D0000FF98070305F00FFB7B6803F112034FF01502009241F20440C1F6FF7019464FF08A024FF0050305F0FEFA63
S32D0000FFC04FF00F03009341F20440C1F6FF7079684FF08A024FF0070305F0F0FA7B6803F101034FF0050200920B
S32D0000FFE841F20440C1F6FF7019464FF096024FF0070305F0DFFA7B6803F10F034FF00402009241F20440C1F613
S32D00010010FF7019464FF09D024FF0070305F0CEFA7B6803F103027B6803F1070341F20440C1F6FF704FF09B01DA
S32D0001003805F0FCF97B6803F10F027B6803F1130341F20440C1F6FF704FF0A10105F0EEF941F20440C1F6FF70E3
S32D000100606FF07F4104F098FB7B6803F1080341F20440C1F6FF7019464FF0840205F0AEF97B6803F10E0341F271
S32D000100880440C1F6FF7019464FF0840205F0A2F941F20440C1F6FF7079684FF08A0205F099F97B6803F105037C
S32D000100B041F20440C1F6FF7019464FF08A0205F08DF97B6803F1120341F20440C1F6FF7019464FF08A0205F037
S32D000100D881F97B6803F1160341F20440C1F6FF7019464FF08A0205F075F907F10807BD4680BD00BF80B584B0F6
S32D0001010002AF786039603B6841F20440C1F6FF70194604F041FB7B6803F104034FF01802009241F20440C1F6E8
S32D00010128FF7019464FF09C024FF0040305F042FA7B6803F109034FF00702009241F20440C1F6FF7019464FF08E
S32D00010150A0024FF0030305F031FA4FF00A03009341F20440C1F6FF7079684FF0A0024FF0030305F023FA7B6801
S32D0001017803F101034FF00202009241F20440C1F6FF7019464FF0A9024FF0030305F012FA7B6803F108034FF03E
S32D000101A00302009241F20440C1F6FF7019464FF0A5024FF0030305F001FA7B6803F1010341F20440C1F6FF700A
S32D000101C819464FF09F0205F005F97B6803F10A0341F20440C1F6FF7019464FF09F0205F0F9F841F20440C1F602
S32D000101F0FF706FF07F4104F0CFFA7B6803F1040341F20440C1F6FF7019464FF09C0205F0E5F87B6803F107032B
S32D0001021841F20440C1F6FF7019464FF09C0205F0D9F807F10807BD4680BD00BF80B584B002AF786039603B68E4
S32D0001024041F20440C1F6FF70194604F0A5FA7B6803F104034FF01802009241F20440C1F6FF7019464FF09C025E
S32D000102684FF0040305F0A6F97B6803F109034FF00702009241F20440C1F6FF7019464FF0A0024FF0030305F0B9
S32D0001029095F94FF00A03009341F20440C1F6FF7079684FF0A0024FF0030305F087F97B6803F101034FF002029B
S32D000102B8009241F20440C1F6FF7019464FF0A9024FF0030305F076F97B6803F108034FF00302009241F20440C7
S32D000102E0C1F6FF7019464FF0A5024FF0030305F065F97B6803F1010341F20440C1F6FF7019464FF09F0205F040
S32D0001030869F87B6803F10A0341F20440C1F6FF7019464FF09F0205F05DF841F20440C1F6FF706FF07F4104F0AB
S32D0001033033FA7B6803F1040341F20440C1F6FF7019464FF09C0205F049F87B6803F1070341F20440C1F6FF7006
S32D0001035819464FF09C0205F03DF87B6803F10F037B603B6841F20440C1F6FF70194604F00FFA7B6803F10403D2
S32D000103804FF01802009241F20440C1F6FF7019464FF09C024FF0040305F010F97B6803F109034FF00702009289
S32D000103A841F20440C1F6FF7019464FF0A0024FF0030305F0FFF84FF00A03009341F20440C1F6FF7079684FF07C
S32D000103D0A0024FF0030305F0F1F87B6803F101034FF00202009241F20440C1F6FF7019464FF0A9024FF003035E
S32D000103F805F0E0F87B6803F108034FF00302009241F20440C1F6FF7019464FF0A5024FF0030305F0CFF87B688B
S32D0001042003F1010341F20440C1F6FF7019464FF09F0204F0D3FF7B6803F10A0341F20440C1F6FF7019464FF0F4
S32D000104489F0204F0C7FF41F20440C1F6FF706FF07F4104F09DF97B6803F1040341F20440C1F6FF7019464FF0CB
S32D000104709C0204F0B3FF7B6803F1070341F20440C1F6FF7019464FF09C0204F0A7FF07F10807BD4680BD00BFBF
S32D0001049880B584B002AF786039603B6841F20440C1F6FF70194604F073F97B6803F108034FF03002009241F293
S32D000104C00440C1F6FF7019464FF084024FF0070305F074F87B6803F112034FF01502009241F20440C1F6FF7064
S32D000104E819464FF08A024FF0050305F063F84FF00F03009341F20440C1F6FF7079684FF08A024FF0070305F0B9
S32D0001051055F87B6803F101034FF00502009241F20440C1F6FF7019464FF096024FF0070305F044F87B6803F198
S32D000105380F034FF00402009241F20440C1F6FF7019464FF09D024FF0070305F033F87B6803F103027B6803F1B5
S32D00010560070341F20440C1F6FF704FF09B0104F061FF7B6803F10F027B6803F1130341F20440C1F6FF704FF0E5
S32D00010588A10104F053FF41F20440C1F6FF706FF07F4104F0FDF87B6803F1080341F20440C1F6FF7019464FF09A
S32D000105B0840204F013FF7B6803F10E0341F20440C1F6FF7019464FF0840204F007FF41F20440C1F6FF7079686F
S32D000105D84FF08A0204F0FEFE7B6803F1050341F20440C1F6FF7019464FF08A0204F0F2FE7B6803F1120341F290
S32D000106000440C1F6FF7019464FF08A0204F0E6FE7B6803F1160341F20440C1F6FF7019464FF08A0204F0DAFEDC
S32D000106287B6803F119037B603B6841F20440C1F6FF70194604F0ACF87B6803F104034FF01802009241F204405E
S32D00010650C1F6FF7019464FF09C024FF0040304F0ADFF7B6803F109034FF00702009241F20440C1F6FF7019467A
S32D000106784FF0A0024FF0030304F09CFF4FF00A03009341F20440C1F6FF7079684FF0A0024FF0030304F08EFF9A
S32D000106A07B6803F101034FF00202009241F20440C1F6FF7019464FF0A9024FF0030304F07DFF7B6803F10803FE
S32D000106C84FF00302009241F20440C1F6FF7019464FF0A5024FF0030304F06CFF7B6803F1010341F20440C1F69E
S32D000106F0FF7019464FF09F0204F070FE7B6803F10A0341F20440C1F6FF7019464FF09F0204F064FE41F204403E
S32D00010718C1F6FF706FF07F4104F03AF87B6803F1040341F20440C1F6FF7019464FF09C0204F050FE7B6803F177
S32D00010740070341F20440C1F6FF7019464FF09C0204F044FE07F10807BD4680BD80B584B002AF786039603B68FC
S32D0001076841F20440C1F6FF70194604F011F84FF00D03009341F20440C1F6FF7079684FF064024FF0120304F01C
S32D0001079015FF7B6803F10E034FF00B02009241F20440C1F6FF7019464FF069024FF0040304F004FF7B6803F1A6
S32D000107B811034FF00902009241F20440C1F6FF7019464FF06D024FF0020304F0F3FE7B6803F113034FF01C0205
S32D000107E0009241F20440C1F6FF7019464FF06D024FF0040304F0E2FE7B6803F117034FF01A02009241F204403F
S32D00010808C1F6FF7019464FF06D024FF0020304F0D1FE7B6803F119034FF01502009241F20440C1F6FF701946B0
S32D000108304FF06D024FF0030304F0C0FE7B6803F11C034FF01302009241F20440C1F6FF7019464FF06D024FF02F
S32D00010858020304F0AFFE7B6803F11E034FF01002009241F20440C1F6FF7019464FF06D024FF0050304F09EFE6F
S32D000108807B6803F123034FF00D02009241F20440C1F6FF7019464FF070024FF0030304F08DFE7B6803F12603FB
S32D000108A84FF00B02009241F20440C1F6FF7019464FF072024FF0040304F07CFE7B6803F12A034FF00902009200
S32D000108D041F20440C1F6FF7019464FF072024FF0020304F06BFE7B6803F12C034FF00402009241F20440C1F69E
S32D000108F8FF7019464FF077024FF0060304F05AFE7B6803F12C034FF00402009241F20440C1F6FF7019464FF09F
S32D0001092072024FF0070304F049FE41F20440C1F6FF706FF07F4103F02FFF4FF00903009341F20440C1F6FF7058
S32D0001094879684FF064024FF0020304F033FE7B6803F102034FF00702009241F20440C1F6FF7019464FF064023A
S32D000109704FF0030304F022FE7B6803F105034FF00502009241F20440C1F6FF7019464FF064024FF0020304F06F
S32D0001099811FE7B6803F107034FF00202009241F20440C1F6FF7019464FF064024FF0030304F000FE07F108078C
S32D000109C0BD4680BD80B500AF41F2D062C1F6FF7241F22013C1F6FF73D31A194641F22013C1F6FF731A460B463C
S32D000109E810464FF000011A4605F005FF80BD00BF06F06EFF00F0B0F9FFF7E0FF06F040FF06F0DCFE06F074FFB6
S32D00010A1000F00CF84FF0000041F22011C1F6FF71FCF704FC0346184605F0AEFE80B500AF4FF4E043C4F20403B7
S32D00010A384FF4E042C4F2040202F5805202F13802126842F4785203F5805303F138031A6000F02EF900F094F8F7
S32D00010A6041F25033C1F6FF734FF058021A6041F25033C1F6FF731B684FF47A7202FB03F241F24C33C1F6FF7317
S32D00010A881A6041F24C33C1F6FF731B681A464FF4E043C4F2040303F5825303F104031B6803F070634FEA136324
S32D00010AB003F10103B2FBF3F31A4641F25433C1F6FF731A604FF4E043C4F204034FF4E042C4F2040202F58052C2
S32D00010AD802F13C02126842F0225203F5805303F13C031A604FF4E043C4F204034FF4E042C4F2040202F5805219
S32D00010B0002F13002126842F0006203F5805303F130031A604FF45043C4F203034FF480721A614FF0640002F050
S32D00010B284FFA4FF45043C4F203034FF45042C4F20302526922F010025A614FF45043C4F203034FF000021A604C
S32D00010B504FF45043C4F203034FF010025A6102F00FFE02F0B7FE41F24830C1F6FF7002F0AFFA41F20440C1F698
S32D00010B78FF7003F0FDFB41F2883002F051FB80BD80B400AF4FF48043C4F206034FF000025A704FF48043C4F21F
S32D00010BA006034FF098021A704FF48043C4F206039B79DBB203F01003002B0CBF00230123DBB2002BF0D14FF455
S32D00010BC88043C4F206039B79DBB203F00C034FEA9303022B0CBF00230123DBB2002BEED14FF48043C4F206038F
S32D00010BF04FF018021A714FF48043C4F206034FF000025A714FF4E043C4F2040303F5825303F104034FF00002F5
S32D00010C18C0F213121A604FF48043C4F206034FF054025A7100BF4FF48043C4F206039B79DBB203F02003002BD1
S32D00010C4014BF00230123DBB2002BF0D100BF4FF48043C4F206039B79DBB203F04003002B14BF00230123DBB2C5
S32D00010C68002BF0D14FF48043C4F206034FF48042C4F206021278D2B202F03F02D2B21A704FF48043C4F20603D5
S32D00010C909B79DBB203F00C034FEA9303032B0CBF00230123DBB2002BEED14FF000031846BD4680BC704700BFB7
S32D00010CB880B400AF4FF44043C4F204034FF480725A634FF2C003C4F20F034FF2C002C4F20F02526942F40052DC
S32D00010CE05A614FF2C003C4F20F034FF2C002C4F20F02126842F400521A604FF44043C4F2040340F20312C0F29C
S32D00010D080A021A634FF46143CEF200034FF46142CEF20002D2F8882142F08062C3F888214FF46143CEF200034C
S32D00010D304FF46142CEF20002926842F080629A60BD4680BC704700BF80B483B000AF7860FEE700BF80B400AFBA
S32D00010D5800BEBD4680BC704780B400AF4FF0E0224CF20003C0F20003C2F8083D4FF40053C4F205034CF220529B
S32D00010D80DA814FF40053C4F205034DF62812DA814FF40053C4F205034FF0D2021A80BD4680BC704780B500AFE2
S32D00010DA84FF44043C4F20403D3F8A03003F48053002B0CBF00230123DBB2002B1FD04FF44043C4F204034FF48A
S32D00010DD04042C4F20402D2F8A02022F48052C3F8A02041F28C40C1F6FF7005F053FC4FF2C003C4F20F034FF253
S32D00010DF8C002C4F20F02126822F400521A6080BD80B485B000AF02460B46FA71BB71BB79002B07D141F22413C1
S32D00010E20C1F6FF734FF000021A7006E041F22413C1F6FF734FF001021A704FF03803FB7341F22413C1F6FF73EF
S32D00010E481A78FB7B1343FB734FF4C043C4F206034FF4C042C4F206029278D2B242F01002D2B29A704FF4C04301
S32D00010E70C4F206034FF4C042C4F206029278D2B242F02002D2B29A704FF4C043C4F20603FA7B1A7107F1140709
S32D00010E98BD4680BC704700BF80B483B000AF4FF001037B6004E000BF7B6803F101037B607B68312BCCBF0023FC
S32D00010EC00123DBB2002BF2D107F10C07BD4680BC704700BF80B582B000AF02460B46FA71BB7141F22513C1F63C
S32D00010EE8FF731B7818464FF00001FFF789FF4FF4C043C4F20603DB78DBB203F00203002B14BF00230123DBB20B
S32D00010F10002BF0D14FF4C043C4F206034FF4C042C4F20602D278D2B242F00202D2B2DA704FF4C043C4F20603E7
S32D00010F38FA791A714FF4C043C4F20603DB78DBB203F00203002B14BF00230123DBB2002BF0D14FF4C043C4F2F5
S32D00010F6006034FF4C042C4F20602D278D2B242F00202D2B2DA704FF4C043C4F20603BA791A714FF4C043C4F2C5
S32D00010F880603DB78DBB203F00203002B14BF00230123DBB2002BF0D14FF4C043C4F206034FF4C042C4F2060293
S32D00010FB0D278D2B242F00202D2B2DA704FF4C043C4F206034FF4C042C4F206029278D2B222F02002D2B29A70E8
S32D00010FD84FF4C043C4F206034FF4C042C4F206029278D2B222F01002D2B29A70FFF754FF07F10807BD4680BD12
S32D0001100080B582B000AF0346FB71FB79184600F06BF807F10807BD4680BD00BF80B582B000AF02460B46FA71B1
S32D00011028BB7100F039F8FB794FEA4303DBB21846FFF7E2FFBB791846FFF7DEFF00F03EF807F10807BD4680BDC5
S32D0001105080B500AF4FF0FF0000F046F80346184680BD00BF80B584B000AF0346FB7100F017F8FB794FEA4303BF
S32D00011078DBB243F00103DBB2DBB21846FFF7BCFFFFF7E2FF0346FB7300F018F8FB7B184607F11007BD4680BDAB
S32D000110A080B400AF4FF24003C4F20F034FF24002C4F20F02926842F480129A60BD4680BC704700BF80B400AF54
S32D000110C84FF24003C4F20F034FF24002C4F20F02526842F480125A60BD4680BC704700BF80B485B000AF034611
S32D000110F0FB714FF00003BB7303E0FB7B03F10103FB734FF44043C4F20A03DB6A4FF00003002BF2D14FF4404372
S32D00011118C4F20A034FF44042C4F20A02D26A42F00042DA624FF44043C4F20A03FA795A6300BF4FF44043C4F27E
S32D000111400A03DB6A03F40033002B14BF00230123DBB2002BF1D14FF44043C4F20A039B6BBB73BB7B184607F1FC
S32D000111681407BD4680BC704780B582B000AF4FF4E043C4F204034FF4E042C4F2040202F5805202F13002126885
S32D0001119042F4805203F5805303F130031A604FF42043C4F204034FF480721A654FF24003C4F20F034FF24002D6
S32D000111B8C4F20F02526942F480125A61FFF77EFF4FF42043C4F204034FF400725A654FF42043C4F204034FF413
S32D000111E000729A654FF42043C4F204034FF40072DA654FF44043C4F20A034FF44062C8F200021A604FF44043AE
S32D00011208C4F20A034FF00502C3F60062DA604FF000037B6007E04FF0FF00FFF7EDFE7B6803F101037B607B689D
S32D00011230092BCCBF00230123DBB2002BEFD104A1D1E9000102F00CF807F10807BD4680BD9A9999999999B93FE5
S32D0001125890B486B000AFF860B9607A60FA684FF42043C4F206039A4214D14FF4E043C4F204034FF4E042C4F22D
S32D00011280040202F5805202F13402126842F4806203F5805303F134031A6083E0FA684FF43043C4F206039A422F
S32D000112A814D14FF4E043C4F204034FF4E042C4F2040202F5805202F13402126842F4006203F5805303F13403F4
S32D000112D01A6067E0FA684FF44043C4F206039A4214D14FF4E043C4F204034FF4E042C4F2040202F5805202F186
S32D000112F83402126842F4805203F5805303F134031A604BE0FA684FF45043C4F206039A4214D14FF4E043C4F2A0
S32D0001132004034FF4E042C4F2040202F5805202F13402126842F4005203F5805303F134031A602FE0FA684FF45E
S32D000113482043C4F20E039A4214D14FF4E043C4F204034FF4E042C4F2040202F5805202F12802126842F48062CF
S32D0001137003F5805303F128031A6013E04FF4E043C4F204034FF4E042C4F2040202F5805202F12802126842F41D
S32D00011398006203F5805303F128031A60FB68DB78DBB223F00C03DAB2FB68DA70FB684FF000029A70BB684FF4AE
S32D000113C07A7202FB03F27B684FEA031392FBF3F39CB2FB681B78DBB223F01F03FB75234603F4F8534FEA2323DB
S32D000113E8DBB203F01F03DAB2FB7D1343DAB2FB681A70E2B2FB685A70BB684FF4FA4202FB03F27B684FEA0313DA
S32D0001141092FBF3F39AB2234619464FEAC121CB1A4FEA43139BB2D3189CB2FB689B7ADBB223F01F03FB75E3B2D2
S32D0001143803F01F03DAB2FB7D1343DAB2FB689A72FB68DB78DBB243F00C03DAB2FB68DA7007F11807BD4690BCF7
S32D00011460704700BF80B483B000AF786000BF7B681B79DBB203F02003002B14BF00230123DBB2002BF3D17B687C
S32D00011488DB79DBB2184607F10C07BD4680BC704780B483B000AF78600B46FB7000BF7B681B79DBB2DBB26FEAA2
S32D000114B00303DBB24FEAD313DBB2002BF3D17B68FA78DA7107F10C07BD4680BC704700BF80B487B000AFF8600D
S32D000114D8B9607A60FB687B6107E0BB68DAB27B691A707B6903F101037B617B68002B0CBF00230123DBB27A6868
S32D0001150002F1FF327A60002BEBD107F11C07BD4680BC704780B584B000AF786039607B681B6BFB60FA683B6874
S32D000115289A4264D07B681B79002B43D07B685A787B6803F1340310461946FA684FF0010301F0ACFB0346002BA6
S32D000115500CBF00230123DBB2002B02D04FF001034BE07B684FF000021A717B685A6A7B681B6AD218FB689A427B
S32D0001157820D97B68DB78FB7214E07B681B6AFA68D318FB607B685A787B6803F1340310461946FA684FF0010387
S32D000115A001F080FBFB7A03F1FF33FB72FB7A012B94BF00230123DBB2002BE2D13B68002B19D07B685A787B68B3
S32D000115C803F13403104619463A684FF0010301F057FA0346002B0CBF00230123DBB2002B02D04FF0010304E0B6
S32D000115F07B683A681A634FF00003184607F11007BD4680BD80B584B000AF786078684FF00001FFF77FFF03460E
S32D00011618FB73FB7B002B40F0AE807B681B78032B40F095807B685B79002B00F090807B684FF000021A637B68E7
S32D0001164003F1340318464FF000014FF40072FFF73FFF7B684FF0550283F832227B684FF0AA0283F833227B6800
S32D000116684FF0520283F834207B684FF0520283F835207B684FF0610283F836207B684FF0410283F837207B683B
S32D000116904FF0720283F818227B684FF0720283F819227B684FF0410283F81A227B684FF0610283F81B227B683B
S32D000116B81B69DAB27B6883F81C227B681B699BB24FEA2323DAB27B6883F81D227B681B694FEA1343DAB27B6896
S32D000116E083F81E227B681B694FEA1363DAB27B6883F81F227B68DB68DAB27B6883F820227B68DB689BB24FEAE1
S32D000117082323DAB27B6883F821227B68DB684FEA1343DAB27B6883F822227B68DB684FEA1363DAB27B6883F89D
S32D0001173023227B6859787B6803F134027B685B69084611461A464FF0010301F0ABFA7B684FF000025A717B682D
S32D000117585B7818464FF000014FF0000201F084FB0346002B0CBF00230123DBB2002B02D04FF00103FB73FB7B09
S32D00011780184607F11007BD4680BD00BF80B582B000AF78600B467B807B68002B08D07B681B78002B04D07B6856
S32D000117A8DB887A889A4202D04FF009030FE07B685B78184601F0ECFB034603F00103DBB2002B02D04FF00303CA
S32D000117D001E04FF00003184607F10807BD4680BD80B586B000AF78607B681A687B689B8810461946FFF7CAFF51
S32D000117F80346FB75FB7D002B40F0C8807B689B7903F02003002B00F0C1807B689B7903F04003002B20D07B685A
S32D000118201B6859787B6803F128027B689B69084611461A464FF0010301F034FA0346002B0CBF00230123DBB2E3
S32D00011848002B02D04FF00103A1E07B689B7923F04003DAB27B689A717B681A687B68DB6910461946FFF752FE62
S32D000118700346FB75FB7D002B40F08C807B681B6A3B613B6903F10B033A6902F10B02127842F02002D2B21A7078
S32D000118983B6903F11C037A68D268D2B21A703B6903F11D037A68D26892B24FEA2222D2B21A703B6903F11E03E4
S32D000118C07A68D2684FEA1242D2B21A703B6903F11F037A68D2684FEA1262D2B21A703B6903F11A037A6812699F
S32D000118E8D2B21A703B6903F11B037A68126992B24FEA2222D2B21A703B6903F114037A6812694FEA1242D2B2C4
S32D000119101A703B6903F115037A6812694FEA124292B24FEA2222D2B21A704FF00003FB603B6903F11603FA6805
S32D00011938D2B21A703B6903F11703FA6892B24FEA2222D2B21A703B6903F11803FA684FEA1242D2B21A703B693B
S32D0001196003F11903FA684FEA1262D2B21A707B689B7923F02003DAB27B689A717B681B684FF001021A717B686E
S32D000119881B681846FFF73AFE0346FB75FB7D184607F11807BD4680BD80B584B000AF78607868FFF719FF034614
S32D000119B0FB73FB7B002B03D17B684FF000021A60FB7B184607F11007BD4680BD80B588B000AF786039604FF098
S32D000119D880033B614FF00F03FB604FF0FF337B614FF00203FB612AE04FF00103BB611AE0FB69BA6902FB03F34B
S32D00011A003A6802FB03F27B68D31ABB60BB68002B09DBBA687B699A4205D2BB687B61FB693B61BB69FB60BB69AB
S32D00011A2803F10103BB61BB69102B8CBF00230123DBB2002BDCD1FB694FEA4303FB61FB69B3F5807F8CBF00236D
S32D00011A500123DBB2002BCBD14FF48053C4F20B034FF48052C4F20B02D26A22F00802DA624FF48053C4F20B03CF
S32D00011A78DB6A1A464FF00F03CFF6F0731340BB614FF48053C4F20B033A694FEA52024FEA02224FEA02424FEA95
S32D00011AA01242F96801F1FF314FEA0111C9B21143BA690A4342F46022DA6203E04FF00A0001F0B2FB4FF48053E2
S32D00011AC8C4F20B035B6A03F00803002B14BF00230123DBB2002BEDD14FF48053C4F20B034FF48052C4F20B02FB
S32D00011AF0D26A42F00802DA624FF48053C4F20B034FF48052C4F20B02126B42F480121A6307F12007BD4680BD40
S32D00011B1880B582B000AF786039607B684FF000021A604FF48053C4F20B034FF40042C0F20012DA624FF4805304
S32D00011B40C4F20B03DB6A03F08073002B0CBF00230123DBB2002BF1D14FF48053C4F20B034FF00002C3F8C0201A
S32D00011B684FF48053C4F20B034FF481325A604FF48053C4F20B034FF028029A624FF48053C4F20B034FF0011259
S32D00011B905A643B689B6818464CF66041C0F20501FFF714FF4FF48053C4F20B035B6A03F00303002B0CBF00230F
S32D00011BB80123DBB2002BF1D14FF45043C4F2040340F243421A604FF45043C4F2040340F243425A604FF45043C2
S32D00011BE0C4F204034FF488629A604FF45043C4F2040340F24342DA604FF45043C4F2040340F243421A614FF466
S32D00011C085043C4F2040340F243425A614FF4E043C4F204034FF4E042C4F2040202F5805202F13002126842F409
S32D00011C30003203F5805303F130031A604FF48053C4F20B034FF6FF721A634FF48053C4F20B034FF0B302C0F25A
S32D00011C587F025A634FF48053C4F20B034FF48052C4F20B02D26A42F00062DA624FF48053C4F20B03DB6A03F04F
S32D00011C800063002B0CBF00230123DBB2002BF1D14FF48053C4F20B035B6A03F48033002B0CBF00230123DBB208
S32D00011CA8002B03D07B684FF001021A604FF48053C4F20B034FF48052C4F20B02126B42F080021A634FF00003CE
S32D00011CD0184607F10807BD4680BD00BF80B400AF4FF48053C4F20B035B6A1A4640F207331340002B0CBF0023C7
S32D00011CF80123DBB21846BD4680BC704780B485B000AF78604FF48053C4F20B031B6B1A467B681340FB60FB6814
S32D00011D20002B14BF00230123DBB2002BEED1FB68184607F11407BD4680BC704780B584B000AF78607B681B78A8
S32D00011D4803F03F0247F60043C0F2010353F82230FB60FB68002B06D17B681B78002B02D04FF0010330E14FF49B
S32D00011D708053C4F20B034FF48052C4F20B02126B42F080021A634FF48053C4F20B035B6A03F00103DBB2002BD9
S32D00011D98F5D14FF48053C4F20B037A6852689A60FB6823F44003FB607B685B784FEA835303F44003FA68134317
S32D00011DC0FB607B685B78022B03D1FB6843F40013FB607B685B78042B16D1FB6803F44033B3F5003F08D1FB681E
S32D00011DE823F44033FB60FB6843F44033FB6007E0FB6823F44033FB60FB6843F40033FB604FF48053C4F20B034E
S32D00011E104FF48052C4F20B0252684FEA02424FEA12425A607B68DB68002B32D0FB6803F44033B3F5403F03D033
S32D00011E38FB6843F40013FB607B681B7A002B03D0FB6843F01003FB607B68DB68012B03D9FB6843F02003FB60B7
S32D00011E607B68DB68B3F1FF3F13D04FF48053C4F20B034FF48052C4F20B02526811467A68D2684FEA02420A43BF
S32D00011E885A60FB6843F00203FB604FF48053C4F20B034FF000021A604FF48053C4F20B03FA68DA604FF0010030
S32D00011EB0C0F20E00FFF726FF0346012B0CBF00230123DBB2002B10D04FF48053C4F20B034FF48052C4F20B0257
S32D00011ED8126B42F4702242F001021A634FF0010372E04FF48053C4F20B031B6B03F08003002B0CBF002301233C
S32D00011F00DBB2002B0ED04FF48053C4F20B034FF48052C4F20B02126B42F001121A634FF0010355E04FF480539D
S32D00011F28C4F20B031B6B03F48033002B0CBF00230123DBB2002B0ED04FF48053C4F20B034FF48052C4F20B0211
S32D00011F50126B42F001121A634FF0FF3338E0FB6803F44033002B25D04FF48053C4F20B031B691A467B681A6191
S32D00011F78FB6803F44033B3F5803F17D14FF48053C4F20B035B691A467B685A614FF48053C4F20B039B691A4644
S32D00011FA07B689A614FF48053C4F20B03DB691A467B68DA614FF48053C4F20B034FF48052C4F20B02126B42F037
S32D00011FC801021A634FF00003184607F11007BD4680BD00BF80B592B000AF786039604FF00003FB633B68BB63C4
S32D00011FF041F23C13C1F6FF737B637B6B002B03D140F6012300F0A0BC41F24033C1F6FF733B633B6B002B03D19C
S32D0001201840F60B2300F094BC3B6B1B68FB62FB6A002B03D140F60B2300F08ABC7B6841F20432934200F03882A6
S32D0001204041F2043293421BD841F20132934238D041F20132934207D8032B00F03D84092B00F0298400F066BC21
S32D0001206841F20232934200F0128241F20332934200F0BE8300F05ABC41F20732934200F04B8341F207329342D5
S32D000120900BD841F20532934200F0348241F20632934200F0108300F045BC41F20832934200F0B68241F20932CD
S32D000120B8934200F0C48200F039BC786B47F6F431C0F20101FFF724FD0346FB63FB6B002B40F030844FF000039B
S32D000120E087F847304FF0000387F82B304FF0000387F82A304FF0000387F829304FF0000387F846304FF0000311
S32D0001210887F828304FF000033B724FF000037B724FF00003FB604FF000033B744FF000037B6107F108031846A6
S32D00012130FFF704FE0346002B0CBF00230123DBB2002B03D04FF00103FB63FCE340F24C4001F06AF84FF008039C
S32D000121583B724FF000037B724FF4D573FB604FF000033B744FF000037B6107F108031846FFF7E0FD03463B646B
S32D000121803B6C002B0BD1BA69FB689A4203D04FF00103FB63D7E34FF0010387F846304FF0010387F8283097F811
S32D000121A82830002B00F0C6804FF037033B724FF000037B724FF00003FB604FF000033B744FF000037B6107F156
S32D000121D008031846FFF7B2FD03463B643B6C002B03D04FF00103FB63ADE34FF069033B724FF000037B724FF04E
S32D000121F80003FB604FF000033B744FF000037B6107F108031846FFF795FD0346002B0CBF00230123DBB2002B24
S32D0001222003D04FF00103FB638DE3BB6903F44013002B00F083804FF000033B644FF00A0000F0F2FF3B6C03F179
S32D0001224801033B644FF037033B724FF000037B724FF00003FB604FF000033B744FF000037B6107F10803184662
S32D00012270FFF764FD0346002B0CBF00230123DBB2002B03D04FF00103FB6336E04FF069033B724FF000037B7299
S32D0001229897F84630002B05D04FF00003C4F23003FB6002E04FF44013FB604FF000033B744FF000037B6107F1B2
S32D000122C008031846FFF73AFD0346002B0CBF00230123DBB2002B03D04FF00103FB630CE0BB69002B05DB3B6CE5
S32D000122E8632B02D84FF0010301E04FF00003002BA0D1FB6B002B40F01F833B6C632B04D94FF0000387F84630B1
S32D0001231014E04FF0010387F8473097F84630002B0CD04FF0000387F84630BB6903F08043002B03D04FF0010313
S32D0001233887F8463097F82A30002B03D07B6B4FF007021A6097F82930002B03D07B6B4FF008021A6097F82B3079
S32D00012360002B03D07B6B4FF004021A6097F84730002B0BD07B6B4FF002021A6097F84630002B03D07B6B4FF0D4
S32D0001238803021A6097F82B30002B0FD097F84730002B0BD07B6B4FF005021A6097F84630002B03D07B6B4FF0D9
S32D000123B006021A604FF45043C4F204034FF000021A604FF45043C4F204034FF000025A604FF45043C4F204030D
S32D000123D84FF000029A604FF45043C4F204034FF00002DA604FF45043C4F204034FF000021A614FF45043C4F2B2
S32D0001240004034FF000025A61FB6A9A68FB6A5B6810461946FFF7DAFA4FF45043C4F2040340F243421A604FF495
S32D000124285043C4F2040340F243425A604FF45043C4F204034FF488629A604FF45043C4F2040340F24342DA6086
S32D000124504FF45043C4F2040340F243421A614FF45043C4F2040340F243425A614FF4E043C4F204034FF4E0420B
S32D00012478C4F2040202F5805202F13002126842F4003203F5805303F130031A6057E2B86BFFF750FC03463B64B7
S32D000124A03B6C002B00F04E824FF00203FB6349E2BB6B002B03D14FF00C03FB6343E24FF48053C4F20B03DB6A99
S32D000124C803F47F434FEA13234FEA43033B644FF48053C4F20B03DB6A03F0F0034FEA131303F101023B6C02FBA0
S32D000124F003F33B64FB6A9A683B6CB2FBF3F2BB6B1A6020E2BB6B002B03D14FF00C03FB6319E2BB6B1B68002B46
S32D0001251803D14FF00C03FB6311E2FFF7DBFB0346002B14BF00230123DBB2002B70D04FF45043C4F204034FF0FD
S32D0001254000021A604FF45043C4F204034FF000025A604FF45043C4F204034FF000029A604FF45043C4F2040301
S32D000125684FF00002DA604FF45043C4F204034FF000021A614FF45043C4F204034FF000025A61FB6A9A68BB6B5E
S32D000125901B6810461946FFF719FA4FF45043C4F2040340F243421A604FF45043C4F2040340F243425A604FF4D0
S32D000125B85043C4F204034FF488629A604FF45043C4F2040340F24342DA604FF45043C4F2040340F243421A6134
S32D000125E04FF45043C4F2040340F243425A614FF4E043C4F204034FF4E042C4F2040202F5805202F1300212681B
S32D0001260842F4003203F5805303F130031A6096E140F60A23FB6392E1BB6B002B03D14FF00C03FB638BE14FF4A4
S32D000126308053C4F20B035B684FEAC3434FEAD343BA6B13607FE1BB6B002B03D14FF00C03FB6378E1FFF742FB3E
S32D000126580346002B14BF00230123DBB2002B2AD0BB6B1A6840F6FF739A4203D94FF00C03FB6364E14FF4805304
S32D00012680C4F20B034FF48052C4F20B02526822F4FE5222F03F025A604FF48053C4F20B034FF48052C4F20B02B0
S32D000126A852681146BA6B12684FEAC2424FEAD2420A435A6043E140F60A23FB633FE1BB6B002B03D14FF00C034A
S32D000126D0FB6338E14FF48053C4F20B039B6A03F006034FEA53033B643B6C002B04D1BB6B4FF000021A6026E1CC
S32D000126F83B6C012B04D1BB6B4FF001021A601EE13B6C102B04D1BB6B4FF002021A6016E14FF00503FB6312E101
S32D00012720BB6B002B03D14FF00C03FB630BE1FFF7D5FA0346002B14BF00230123DBB2002B56D0BB6B1B68002BC8
S32D0001274816D14FF48053C4F20B034FF48052C4F20B02926A22F006029A624FF48053C4F20B034FF48052C4F212
S32D000127700B02926A9A62E6E0BB6B1B68012B18D14FF48053C4F20B034FF48052C4F20B02926A22F006029A62ED
S32D000127984FF48053C4F20B034FF48052C4F20B02926A42F002029A62C9E0BB6B1B68022B16D14FF48053C4F200
S32D000127C00B034FF48052C4F20B02926A22F006029A624FF48053C4F20B034FF48052C4F20B02926A9A62AEE0BA
S32D000127E84FF00503FB63AAE040F60A23FB63A6E0BB6B002B03D14FF00C03FB639FE04FF48053C4F20B034FF4DF
S32D000128108052C4F20B02D26A42F00062DA624FF48053C4F20B03DB6A03F00063002B0CBF00230123DBB2002B8E
S32D00012838F1D14FF48053C4F20B031B6B03F08003002B0CBF00230123DBB2002B0FD04FF48053C4F20B034FF4E8
S32D000128608052C4F20B02126B42F080021A637B6B4FF000021A604FF48053C4F20B035B6A03F48033002B0CBF26
S32D0001288800230123DBB2002B08D07B6B1B68002B08D17B6B4FF001021A6003E07B6B4FF000021A607B6B1A684F
S32D000128B0BB6B1A6047E0BB6B4FF01C021A60BB6B03F104034FF004021A60BB6B03F108034FF41E721A6036E0CD
S32D000128D84FF00200FFF712FA4FF48053C4F20B031B6B03F4E003002B0CBF00230123DBB2002B0ED04FF480536B
S32D00012900C4F20B034FF48052C4F20B02126B42F4E0021A634FF00403FB634FF48053C4F20B034FF48052C4F2B1
S32D000129280B02126B42F032021A6308E040F60923FB6304E000BF02E000BF00E000BFFB6B184607F14807BD467A
S32D0001295080BD00BF80B489B000AF786039607B687B6141F23C13C1F6FF733B613B69002B02D14FF0000381E084
S32D000129783B691B68022B0BD03B691B68032B07D03B691B68072B03D03B691B68082B0DD14FF48053C4F20B0397
S32D000129A05B6A03F00403002B0CBF00230123DBB2002BF1D13B68FB6156E0FB69B3F5007F28BF4FF40073FB60DA
S32D000129C8FB6803F103034FEA9303BB613CE04FF48053C4F20B031B6B03F4E003002B0CBF00230123DBB2002B4D
S32D000129F010D04FF48053C4F20B034FF48052C4F20B02126B42F4E00242F020021A634FF0000333E04FF4805355
S32D00012A18C4F20B035B6A03F40063002B14BF00230123DBB2002BF1D14FF48053C4F20B031B6A1A467B691A60D0
S32D00012A407B6903F104037B61BB6903F1FF33BB61BB69002B0CBF00230123DBB2002BBAD1FA69FB68D31AFB6193
S32D00012A68FB69002B0CBF00230123DBB2002BA0D14FF00103184607F12407BD4680BC704780B58EB000AFB96080
S32D00012A907A600246FA73BB7341F22813C1F6FF737B63FB7B002B02D1BB7B002B02D14FF0040381E040F2004321
S32D00012AB8C1F6FF731B78DBB203F00103DBB2002B02D04FF0030373E0BB68002B02D14FF000036DE07B6B1B7B61
S32D00012AE0002B03D17B684FEA43237B60BB7B012B2CD14FF011033B754FF000037B757B68BB614FF001033B77E3
S32D00012B08BB7B3B6207F1140341F202301946FFF761FA0346002B14BF00230123DBB2002B3ED0B8684FF400717F
S32D00012B30FFF710FF0346002B0CBF00230123DBB2002B31D04FF00003BB732DE04FF012033B754FF000037B757F
